{
  "contractName": "Afen_nft",
  "abi": [
    {
      "inputs": [],
      "stateMutability": "nonpayable",
      "type": "constructor"
    },
    {
      "anonymous": false,
      "inputs": [
        {
          "indexed": true,
          "internalType": "address",
          "name": "account",
          "type": "address"
        },
        {
          "indexed": true,
          "internalType": "address",
          "name": "operator",
          "type": "address"
        },
        {
          "indexed": false,
          "internalType": "bool",
          "name": "approved",
          "type": "bool"
        }
      ],
      "name": "ApprovalForAll",
      "type": "event"
    },
    {
      "anonymous": false,
      "inputs": [
        {
          "indexed": false,
          "internalType": "address",
          "name": "addr",
          "type": "address"
        }
      ],
      "name": "GetDeployedAfen",
      "type": "event"
    },
    {
      "anonymous": false,
      "inputs": [
        {
          "indexed": false,
          "internalType": "address",
          "name": "addr",
          "type": "address"
        }
      ],
      "name": "GetDeployedBsc",
      "type": "event"
    },
    {
      "anonymous": false,
      "inputs": [
        {
          "indexed": false,
          "internalType": "uint256",
          "name": "nft_id",
          "type": "uint256"
        },
        {
          "indexed": false,
          "internalType": "string",
          "name": "_hash",
          "type": "string"
        },
        {
          "indexed": false,
          "internalType": "address",
          "name": "creator",
          "type": "address"
        },
        {
          "indexed": false,
          "internalType": "uint256",
          "name": "total",
          "type": "uint256"
        },
        {
          "indexed": false,
          "internalType": "uint256",
          "name": "sellable_amount",
          "type": "uint256"
        }
      ],
      "name": "GotNft",
      "type": "event"
    },
    {
      "anonymous": false,
      "inputs": [
        {
          "indexed": false,
          "internalType": "uint256",
          "name": "nft_id",
          "type": "uint256"
        },
        {
          "indexed": false,
          "internalType": "string",
          "name": "_hash",
          "type": "string"
        },
        {
          "indexed": false,
          "internalType": "address",
          "name": "creator",
          "type": "address"
        },
        {
          "indexed": false,
          "internalType": "uint256",
          "name": "total",
          "type": "uint256"
        },
        {
          "indexed": false,
          "internalType": "uint256",
          "name": "sellable_amount",
          "type": "uint256"
        },
        {
          "indexed": false,
          "internalType": "uint256",
          "name": "a_price",
          "type": "uint256"
        },
        {
          "indexed": false,
          "internalType": "uint256",
          "name": "b_price",
          "type": "uint256"
        }
      ],
      "name": "Minted",
      "type": "event"
    },
    {
      "anonymous": false,
      "inputs": [
        {
          "indexed": false,
          "internalType": "uint256",
          "name": "size",
          "type": "uint256"
        }
      ],
      "name": "NftSize",
      "type": "event"
    },
    {
      "anonymous": false,
      "inputs": [
        {
          "indexed": true,
          "internalType": "address",
          "name": "previousOwner",
          "type": "address"
        },
        {
          "indexed": true,
          "internalType": "address",
          "name": "newOwner",
          "type": "address"
        }
      ],
      "name": "OwnershipTransferred",
      "type": "event"
    },
    {
      "anonymous": false,
      "inputs": [
        {
          "indexed": false,
          "internalType": "uint256",
          "name": "sell_id",
          "type": "uint256"
        },
        {
          "indexed": false,
          "internalType": "uint256",
          "name": "nft_id",
          "type": "uint256"
        },
        {
          "indexed": false,
          "internalType": "address",
          "name": "owner",
          "type": "address"
        },
        {
          "indexed": false,
          "internalType": "uint256",
          "name": "amount",
          "type": "uint256"
        },
        {
          "indexed": false,
          "internalType": "bool",
          "name": "primary_sell",
          "type": "bool"
        }
      ],
      "name": "SellNftItem",
      "type": "event"
    },
    {
      "anonymous": false,
      "inputs": [
        {
          "indexed": false,
          "internalType": "uint256",
          "name": "length",
          "type": "uint256"
        }
      ],
      "name": "SellSize",
      "type": "event"
    },
    {
      "anonymous": false,
      "inputs": [
        {
          "indexed": false,
          "internalType": "uint256",
          "name": "sold_id",
          "type": "uint256"
        },
        {
          "indexed": false,
          "internalType": "uint256",
          "name": "nft_id",
          "type": "uint256"
        },
        {
          "indexed": false,
          "internalType": "address",
          "name": "owner",
          "type": "address"
        },
        {
          "indexed": false,
          "internalType": "uint256",
          "name": "amount",
          "type": "uint256"
        }
      ],
      "name": "SoldNftItem",
      "type": "event"
    },
    {
      "anonymous": false,
      "inputs": [
        {
          "indexed": false,
          "internalType": "uint256",
          "name": "size",
          "type": "uint256"
        }
      ],
      "name": "SoldNftSize",
      "type": "event"
    },
    {
      "anonymous": false,
      "inputs": [
        {
          "indexed": true,
          "internalType": "address",
          "name": "operator",
          "type": "address"
        },
        {
          "indexed": true,
          "internalType": "address",
          "name": "from",
          "type": "address"
        },
        {
          "indexed": true,
          "internalType": "address",
          "name": "to",
          "type": "address"
        },
        {
          "indexed": false,
          "internalType": "uint256[]",
          "name": "ids",
          "type": "uint256[]"
        },
        {
          "indexed": false,
          "internalType": "uint256[]",
          "name": "values",
          "type": "uint256[]"
        }
      ],
      "name": "TransferBatch",
      "type": "event"
    },
    {
      "anonymous": false,
      "inputs": [
        {
          "indexed": true,
          "internalType": "address",
          "name": "operator",
          "type": "address"
        },
        {
          "indexed": true,
          "internalType": "address",
          "name": "from",
          "type": "address"
        },
        {
          "indexed": true,
          "internalType": "address",
          "name": "to",
          "type": "address"
        },
        {
          "indexed": false,
          "internalType": "uint256",
          "name": "id",
          "type": "uint256"
        },
        {
          "indexed": false,
          "internalType": "uint256",
          "name": "value",
          "type": "uint256"
        }
      ],
      "name": "TransferSingle",
      "type": "event"
    },
    {
      "anonymous": false,
      "inputs": [
        {
          "indexed": false,
          "internalType": "string",
          "name": "value",
          "type": "string"
        },
        {
          "indexed": true,
          "internalType": "uint256",
          "name": "id",
          "type": "uint256"
        }
      ],
      "name": "URI",
      "type": "event"
    },
    {
      "anonymous": false,
      "inputs": [
        {
          "indexed": false,
          "internalType": "address",
          "name": "withdrawer",
          "type": "address"
        }
      ],
      "name": "Withdrawed",
      "type": "event"
    },
    {
      "anonymous": false,
      "inputs": [
        {
          "indexed": false,
          "internalType": "uint256",
          "name": "ids",
          "type": "uint256"
        }
      ],
      "name": "nftid_sellid",
      "type": "event"
    },
    {
      "inputs": [
        {
          "internalType": "address",
          "name": "account",
          "type": "address"
        },
        {
          "internalType": "uint256",
          "name": "id",
          "type": "uint256"
        }
      ],
      "name": "balanceOf",
      "outputs": [
        {
          "internalType": "uint256",
          "name": "",
          "type": "uint256"
        }
      ],
      "stateMutability": "view",
      "type": "function",
      "constant": true
    },
    {
      "inputs": [
        {
          "internalType": "address[]",
          "name": "accounts",
          "type": "address[]"
        },
        {
          "internalType": "uint256[]",
          "name": "ids",
          "type": "uint256[]"
        }
      ],
      "name": "balanceOfBatch",
      "outputs": [
        {
          "internalType": "uint256[]",
          "name": "",
          "type": "uint256[]"
        }
      ],
      "stateMutability": "view",
      "type": "function",
      "constant": true
    },
    {
      "inputs": [],
      "name": "deployed_afen",
      "outputs": [
        {
          "internalType": "contract FakeAfenToken",
          "name": "",
          "type": "address"
        }
      ],
      "stateMutability": "view",
      "type": "function",
      "constant": true
    },
    {
      "inputs": [],
      "name": "deployed_bsc",
      "outputs": [
        {
          "internalType": "contract FakeBscToken",
          "name": "",
          "type": "address"
        }
      ],
      "stateMutability": "view",
      "type": "function",
      "constant": true
    },
    {
      "inputs": [
        {
          "internalType": "address",
          "name": "account",
          "type": "address"
        },
        {
          "internalType": "address",
          "name": "operator",
          "type": "address"
        }
      ],
      "name": "isApprovedForAll",
      "outputs": [
        {
          "internalType": "bool",
          "name": "",
          "type": "bool"
        }
      ],
      "stateMutability": "view",
      "type": "function",
      "constant": true
    },
    {
      "inputs": [],
      "name": "owner",
      "outputs": [
        {
          "internalType": "address",
          "name": "",
          "type": "address"
        }
      ],
      "stateMutability": "view",
      "type": "function",
      "constant": true
    },
    {
      "inputs": [],
      "name": "renounceOwnership",
      "outputs": [],
      "stateMutability": "nonpayable",
      "type": "function"
    },
    {
      "inputs": [
        {
          "internalType": "address",
          "name": "from",
          "type": "address"
        },
        {
          "internalType": "address",
          "name": "to",
          "type": "address"
        },
        {
          "internalType": "uint256[]",
          "name": "ids",
          "type": "uint256[]"
        },
        {
          "internalType": "uint256[]",
          "name": "amounts",
          "type": "uint256[]"
        },
        {
          "internalType": "bytes",
          "name": "data",
          "type": "bytes"
        }
      ],
      "name": "safeBatchTransferFrom",
      "outputs": [],
      "stateMutability": "nonpayable",
      "type": "function"
    },
    {
      "inputs": [
        {
          "internalType": "address",
          "name": "from",
          "type": "address"
        },
        {
          "internalType": "address",
          "name": "to",
          "type": "address"
        },
        {
          "internalType": "uint256",
          "name": "id",
          "type": "uint256"
        },
        {
          "internalType": "uint256",
          "name": "amount",
          "type": "uint256"
        },
        {
          "internalType": "bytes",
          "name": "data",
          "type": "bytes"
        }
      ],
      "name": "safeTransferFrom",
      "outputs": [],
      "stateMutability": "nonpayable",
      "type": "function"
    },
    {
      "inputs": [
        {
          "internalType": "address",
          "name": "operator",
          "type": "address"
        },
        {
          "internalType": "bool",
          "name": "approved",
          "type": "bool"
        }
      ],
      "name": "setApprovalForAll",
      "outputs": [],
      "stateMutability": "nonpayable",
      "type": "function"
    },
    {
      "inputs": [
        {
          "internalType": "bytes4",
          "name": "interfaceId",
          "type": "bytes4"
        }
      ],
      "name": "supportsInterface",
      "outputs": [
        {
          "internalType": "bool",
          "name": "",
          "type": "bool"
        }
      ],
      "stateMutability": "view",
      "type": "function",
      "constant": true
    },
    {
      "inputs": [
        {
          "internalType": "address",
          "name": "newOwner",
          "type": "address"
        }
      ],
      "name": "transferOwnership",
      "outputs": [],
      "stateMutability": "nonpayable",
      "type": "function"
    },
    {
      "inputs": [
        {
          "internalType": "uint256",
          "name": "",
          "type": "uint256"
        }
      ],
      "name": "uri",
      "outputs": [
        {
          "internalType": "string",
          "name": "",
          "type": "string"
        }
      ],
      "stateMutability": "view",
      "type": "function",
      "constant": true
    },
    {
      "stateMutability": "payable",
      "type": "receive",
      "payable": true
    },
    {
      "inputs": [],
      "name": "withdrawBnb",
      "outputs": [],
      "stateMutability": "payable",
      "type": "function",
      "payable": true
    },
    {
      "inputs": [
        {
          "internalType": "address",
          "name": "afen_addr",
          "type": "address"
        }
      ],
      "name": "CallDeployedAfen",
      "outputs": [],
      "stateMutability": "nonpayable",
      "type": "function"
    },
    {
      "inputs": [
        {
          "internalType": "address",
          "name": "bsc_addr",
          "type": "address"
        }
      ],
      "name": "CallDeployedBsc",
      "outputs": [],
      "stateMutability": "nonpayable",
      "type": "function"
    },
    {
      "inputs": [
        {
          "internalType": "string",
          "name": "_hash",
          "type": "string"
        },
        {
          "internalType": "uint256",
          "name": "total",
          "type": "uint256"
        },
        {
          "internalType": "uint256",
          "name": "a_price",
          "type": "uint256"
        },
        {
          "internalType": "uint256",
          "name": "b_price",
          "type": "uint256"
        }
      ],
      "name": "mint",
      "outputs": [],
      "stateMutability": "nonpayable",
      "type": "function"
    },
    {
      "inputs": [],
      "name": "get_nft_size",
      "outputs": [],
      "stateMutability": "nonpayable",
      "type": "function"
    },
    {
      "inputs": [
        {
          "internalType": "uint256",
          "name": "nft_id",
          "type": "uint256"
        }
      ],
      "name": "get_nft",
      "outputs": [],
      "stateMutability": "nonpayable",
      "type": "function"
    },
    {
      "inputs": [
        {
          "internalType": "uint256",
          "name": "price",
          "type": "uint256"
        }
      ],
      "name": "list_fee",
      "outputs": [
        {
          "internalType": "uint256",
          "name": "",
          "type": "uint256"
        }
      ],
      "stateMutability": "pure",
      "type": "function",
      "constant": true
    },
    {
      "inputs": [
        {
          "internalType": "uint256",
          "name": "nft_id",
          "type": "uint256"
        },
        {
          "internalType": "uint256",
          "name": "amount",
          "type": "uint256"
        },
        {
          "internalType": "uint256",
          "name": "token_kind",
          "type": "uint256"
        }
      ],
      "name": "set_sell",
      "outputs": [],
      "stateMutability": "nonpayable",
      "type": "function"
    },
    {
      "inputs": [
        {
          "internalType": "uint256",
          "name": "nft_id",
          "type": "uint256"
        }
      ],
      "name": "get_nftids_sellids",
      "outputs": [],
      "stateMutability": "nonpayable",
      "type": "function"
    },
    {
      "inputs": [],
      "name": "get_sell_size",
      "outputs": [],
      "stateMutability": "nonpayable",
      "type": "function"
    },
    {
      "inputs": [
        {
          "internalType": "uint256",
          "name": "sell_id",
          "type": "uint256"
        }
      ],
      "name": "get_sell_item",
      "outputs": [],
      "stateMutability": "nonpayable",
      "type": "function"
    },
    {
      "inputs": [
        {
          "internalType": "uint256",
          "name": "price",
          "type": "uint256"
        }
      ],
      "name": "sell_fee",
      "outputs": [
        {
          "internalType": "uint256",
          "name": "",
          "type": "uint256"
        }
      ],
      "stateMutability": "pure",
      "type": "function",
      "constant": true
    },
    {
      "inputs": [
        {
          "internalType": "uint256",
          "name": "price",
          "type": "uint256"
        }
      ],
      "name": "loyalty",
      "outputs": [
        {
          "internalType": "uint256",
          "name": "",
          "type": "uint256"
        }
      ],
      "stateMutability": "pure",
      "type": "function",
      "constant": true
    },
    {
      "inputs": [
        {
          "internalType": "uint256",
          "name": "sell_id",
          "type": "uint256"
        },
        {
          "internalType": "uint256",
          "name": "amount",
          "type": "uint256"
        },
        {
          "internalType": "uint256",
          "name": "token_id",
          "type": "uint256"
        }
      ],
      "name": "buy",
      "outputs": [],
      "stateMutability": "nonpayable",
      "type": "function"
    },
    {
      "inputs": [],
      "name": "get_sold_size",
      "outputs": [],
      "stateMutability": "nonpayable",
      "type": "function"
    },
    {
      "inputs": [
        {
          "internalType": "uint256",
          "name": "sold_id",
          "type": "uint256"
        }
      ],
      "name": "get_sold_nft",
      "outputs": [],
      "stateMutability": "nonpayable",
      "type": "function"
    },
    {
      "inputs": [
        {
          "internalType": "uint256",
          "name": "sold_id",
          "type": "uint256"
        },
        {
          "internalType": "uint256",
          "name": "amount",
          "type": "uint256"
        }
      ],
      "name": "set_resell",
      "outputs": [],
      "stateMutability": "nonpayable",
      "type": "function"
    }
  ],
  "bytecode": "0x60806040523480156200001157600080fd5b5060408051602081019091526000815262000035816401000000006200009f810204565b5060006200004b640100000000620000b8810204565b60038054600160a060020a031916600160a060020a038316908117909155604051919250906000907f8be0079c531659141344cd1fd0a4f28419497f9722a3daafe3b4186f6b6457e0908290a350620001b8565b8051620000b4906002906020840190620000bc565b5050565b3390565b828054620000ca9062000162565b90600052602060002090601f016020900481019282620000ee576000855562000139565b82601f106200010957805160ff191683800117855562000139565b8280016001018555821562000139579182015b82811115620001395782518255916020019190600101906200011c565b50620001479291506200014b565b5090565b5b808211156200014757600081556001016200014c565b6002810460018216806200017757607f821691505b60208210811415620001b2577f4e487b7100000000000000000000000000000000000000000000000000000000600052602260045260246000fd5b50919050565b61460580620001c86000396000f3fe6080604052600436106101ed576000357c010000000000000000000000000000000000000000000000000000000090048063715018a611610114578063c9b563a5116100b2578063e985e9c511610081578063e985e9c51461054a578063f242432a14610593578063f2fde38b146105b3578063fe0844f0146105d357600080fd5b8063c9b563a5146104d5578063cd3d2cc1146104f5578063d92863ee14610515578063e0089d3f1461052a57600080fd5b80638da5cb5b116100ee5780638da5cb5b146104575780639b1865be14610475578063a22cb46514610495578063a4610129146104b557600080fd5b8063715018a61461040d5780637e62ad8f14610422578063829307ac1461043757600080fd5b80632c33901d1161018c578063466a6f9e1161015b578063466a6f9e1461038b57806349545348146103ab5780634e1273f4146103cb578063609d2709146103f857600080fd5b80632c33901d1461030b5780632eb2c2d61461032b57806331fb70fc1461034b57806340993b261461036b57600080fd5b80630ac4793e116101c85780630ac4793e1461027e5780630e89341c146102b65780630ebac2ee146102e35780631da0603a1461030357600080fd5b8062fdd58e146101f957806301ffc9a71461022c578063027a22551461025c57600080fd5b366101f457005b600080fd5b34801561020557600080fd5b50610219610214366004613e00565b6105f3565b6040519081526020015b60405180910390f35b34801561023857600080fd5b5061024c610247366004613ef6565b6106a4565b6040519015158152602001610223565b34801561026857600080fd5b5061027c610277366004613f2e565b610789565b005b34801561028a57600080fd5b5060055461029e90600160a060020a031681565b604051600160a060020a039091168152602001610223565b3480156102c257600080fd5b506102d66102d1366004613f93565b610a2c565b6040516102239190614271565b3480156102ef57600080fd5b5061027c6102fe366004613f93565b610ac0565b61027c610bf8565b34801561031757600080fd5b5061027c610326366004613f93565b610c8d565b34801561033757600080fd5b5061027c610346366004613cbe565b610e63565b34801561035757600080fd5b5060045461029e90600160a060020a031681565b34801561037757600080fd5b5061027c61038636600461403a565b611224565b34801561039757600080fd5b5061027c6103a6366004613f93565b6121e1565b3480156103b757600080fd5b506102196103c6366004613f93565b6122f3565b3480156103d757600080fd5b506103eb6103e6366004613e2b565b61230c565b6040516102239190614230565b34801561040457600080fd5b5061027c6124a6565b34801561041957600080fd5b5061027c6124df565b34801561042e57600080fd5b5061027c612598565b34801561044357600080fd5b5061027c610452366004613c6a565b6125cb565b34801561046357600080fd5b50600354600160a060020a031661029e565b34801561048157600080fd5b50610219610490366004613f93565b612626565b3480156104a157600080fd5b5061027c6104b0366004613dcf565b612635565b3480156104c157600080fd5b5061027c6104d0366004613f93565b612728565b3480156104e157600080fd5b5061027c6104f0366004614019565b612796565b34801561050157600080fd5b5061027c610510366004613c6a565b612a87565b34801561052157600080fd5b5061027c612ae2565b34801561053657600080fd5b5061027c61054536600461403a565b612b15565b34801561055657600080fd5b5061024c610565366004613c86565b600160a060020a03918216600090815260016020908152604080832093909416825291909152205460ff1690565b34801561059f57600080fd5b5061027c6105ae366004613d68565b6132f7565b3480156105bf57600080fd5b5061027c6105ce366004613c6a565b61357f565b3480156105df57600080fd5b506102196105ee366004613f93565b6136ce565b6000600160a060020a03831661067e576040516000805160206145b0833981519152815260206004820152602b60248201527f455243313135353a2062616c616e636520717565727920666f7220746865207a60448201527f65726f206164647265737300000000000000000000000000000000000000000060648201526084015b60405180910390fd5b50600090815260208181526040808320600160a060020a03949094168352929052205490565b60007fffffffff0000000000000000000000000000000000000000000000000000000082167fd9b67a2600000000000000000000000000000000000000000000000000000000148061073757507fffffffff0000000000000000000000000000000000000000000000000000000082167f0e89341c00000000000000000000000000000000000000000000000000000000145b8061078357507f01ffc9a7000000000000000000000000000000000000000000000000000000007fffffffff000000000000000000000000000000000000000000000000000000008316145b92915050565b6040805160c08101825285815233602080830191909152918101859052606081018590526080810184905260a081018390526006805460018101825560008290528251805193948594929093027ff652222313e28459528d920b65115c16c04f3efc82aaedc97be59f3f377c0d3f019261080892849290910190613adb565b5060208201516001828101805473ffffffffffffffffffffffffffffffffffffffff1916600160a060020a039093169290921790915560408301516002830155606083015160038301556080830151600483015560a09092015160059091015560065460009161087791614391565b90507f17ae7c1c9a7e7e1322a360a135777ee9e73524e483aada802e56548e4e3f8ff881600683815481106108c357600080516020614590833981519152600052603260045260246000fd5b9060005260206000209060060201600001600684815481106108fc57600080516020614590833981519152600052603260045260246000fd5b906000526020600020906006020160010160009054906101000a9004600160a060020a03166006858154811061094957600080516020614590833981519152600052603260045260246000fd5b9060005260206000209060060201600201546006868154811061098357600080516020614590833981519152600052603260045260246000fd5b906000526020600020906006020160030154600687815481106109bd57600080516020614590833981519152600052603260045260246000fd5b906000526020600020906006020160040154600688815481106109f757600080516020614590833981519152600052603260045260246000fd5b906000526020600020906006020160050154604051610a1c97969594939291906142c3565b60405180910390a1505050505050565b606060028054610a3b906143a8565b80601f0160208091040260200160405190810160405280929190818152602001828054610a67906143a8565b8015610ab45780601f10610a8957610100808354040283529160200191610ab4565b820191906000526020600020905b815481529060010190602001808311610a9757829003601f168201915b50505050509050919050565b7ff79618c75eaadca63efc2c773d7eee5c9399c02428ccb33abfbbbbab16f261f98160068381548110610b0a57600080516020614590833981519152600052603260045260246000fd5b906000526020600020906006020160000160068481548110610b4357600080516020614590833981519152600052603260045260246000fd5b906000526020600020906006020160010160009054906101000a9004600160a060020a031660068581548110610b9057600080516020614590833981519152600052603260045260246000fd5b90600052602060002090600602016002015460068681548110610bca57600080516020614590833981519152600052603260045260246000fd5b906000526020600020906006020160030154604051610bed959493929190614284565b60405180910390a150565b600354600160a060020a03163314610c5a576040516000805160206145b0833981519152815260206004820181905260248201527f4f776e61626c653a2063616c6c6572206973206e6f7420746865206f776e65726044820152606401610675565b60405133908190303180156108fc02916000818181858888f19350505050158015610c89573d6000803e3d6000fd5b5050565b6007548110610d0c576040516000805160206145b0833981519152815260206004820152602560248201527f69642068617320746f206265206c657373207468616e2073656c6c5f6c69737460448201527f2073697a650000000000000000000000000000000000000000000000000000006064820152608401610675565b7facc3269473badd15eff6f746d05208bead31961f84a961b0efed8a744d72f2638160078381548110610d5657600080516020614590833981519152600052603260045260246000fd5b90600052602060002090600402016000015460078481548110610d9057600080516020614590833981519152600052603260045260246000fd5b906000526020600020906004020160010160009054906101000a9004600160a060020a031660078581548110610ddd57600080516020614590833981519152600052603260045260246000fd5b90600052602060002090600402016002015460078681548110610e1757600080516020614590833981519152600052603260045260246000fd5b6000918252602091829020600490910201600301546040805196875291860194909452600160a060020a0390921691840191909152606083015260ff161515608082015260a001610bed565b8151835114610ee2576040516000805160206145b0833981519152815260206004820152602860248201527f455243313135353a2069647320616e6420616d6f756e7473206c656e6774682060448201527f6d69736d617463680000000000000000000000000000000000000000000000006064820152608401610675565b600160a060020a038416610f66576040516000805160206145b0833981519152815260206004820152602560248201527f455243313135353a207472616e7366657220746f20746865207a65726f20616460448201527f64726573730000000000000000000000000000000000000000000000000000006064820152608401610675565b600160a060020a038516331480610f825750610f828533610565565b610ffc576040516000805160206145b0833981519152815260206004820152603260248201527f455243313135353a207472616e736665722063616c6c6572206973206e6f742060448201527f6f776e6572206e6f7220617070726f76656400000000000000000000000000006064820152608401610675565b3360005b84518110156111b657600085828151811061103257600080516020614590833981519152600052603260045260246000fd5b60200260200101519050600085838151811061106557600080516020614590833981519152600052603260045260246000fd5b60209081029190910181015160008481528083526040808220600160a060020a038e168352909352919091205490915081811015611113576040516000805160206145b0833981519152815260206004820152602a60248201527f455243313135353a20696e73756666696369656e742062616c616e636520666f60448201527f72207472616e73666572000000000000000000000000000000000000000000006064820152608401610675565b61111d8282614391565b60008085815260200190815260200160002060008c600160a060020a0316600160a060020a03168152602001908152602001600020819055508160008085815260200190815260200160002060008b600160a060020a0316600160a060020a03168152602001908152602001600020600082825461119b9190614333565b92505081905550505050806111af90614417565b9050611000565b5084600160a060020a031686600160a060020a031682600160a060020a03167f4a39dc06d4c0dbc64b70af90fd698a233a518aa5d07e595d983b8c0526c8f7fb8787604051611206929190614243565b60405180910390a461121c8187878787876136dd565b505050505050565b60075483106112a3576040516000805160206145b0833981519152815260206004820152602a60248201527f73656c6c5f69642068617320746f206265206c657373207468616e2073656c6c60448201527f5f6c6973742073697a65000000000000000000000000000000000000000000006064820152608401610675565b600783815481106112cb57600080516020614590833981519152600052603260045260246000fd5b9060005260206000209060040201600201548210611359576040516000805160206145b0833981519152815260206004820152603360248201527f616d6f756e742068617320746f206265206c657373207468616e20656e61626c60448201527f652073656c6c206e6674206361706163697479000000000000000000000000006064820152608401610675565b6000806007858154811061138457600080516020614590833981519152600052603260045260246000fd5b600091825260209091206003600490920201015460ff16156118b1578261165c576114206006600787815481106113d257600080516020614590833981519152600052603260045260246000fd5b9060005260206000209060040201600001548154811061140957600080516020614590833981519152600052603260045260246000fd5b906000526020600020906006020160040154612626565b600480546040517fd1660f99000000000000000000000000000000000000000000000000000000008152339281019290925230602483015260448201839052919350600160a060020a039091169063d1660f999060640160a060405180830381600087803b15801561149157600080fd5b505af11580156114a5573d6000803e3d6000fd5b505050506040513d601f19601f820116820180604052508101906114c99190613fc3565b505060045460078054600160a060020a03909216945063d1660f999350339250908990811061150f57600080516020614590833981519152600052603260045260246000fd5b906000526020600020906004020160010160009054906101000a9004600160a060020a0316600660078a8154811061155e57600080516020614590833981519152600052603260045260246000fd5b9060005260206000209060040201600001548154811061159557600080516020614590833981519152600052603260045260246000fd5b9060005260206000209060060201600401546040518463ffffffff167c010000000000000000000000000000000000000000000000000000000002815260040161160093929190600160a060020a039384168152919092166020820152604081019190915260600190565b60a060405180830381600087803b15801561161a57600080fd5b505af115801561162e573d6000803e3d6000fd5b505050506040513d601f19601f820116820180604052508101906116529190613fc3565b505050505061207e565b6116d760066007878154811061168957600080516020614590833981519152600052603260045260246000fd5b906000526020600020906004020160000154815481106116c057600080516020614590833981519152600052603260045260246000fd5b906000526020600020906006020160050154612626565b600480546040517fd1660f99000000000000000000000000000000000000000000000000000000008152339281019290925230602483015260448201839052919350600160a060020a039091169063d1660f999060640160a060405180830381600087803b15801561174857600080fd5b505af115801561175c573d6000803e3d6000fd5b505050506040513d601f19601f820116820180604052508101906117809190613fc3565b505060045460078054600160a060020a03909216945063d1660f99935033925090899081106117c657600080516020614590833981519152600052603260045260246000fd5b906000526020600020906004020160010160009054906101000a9004600160a060020a0316600660078a8154811061181557600080516020614590833981519152600052603260045260246000fd5b9060005260206000209060040201600001548154811061184c57600080516020614590833981519152600052603260045260246000fd5b60009182526020909120600560069092020101546040517c010000000000000000000000000000000000000000000000000000000063ffffffff8616028152600160a060020a0393841660048201529290911660248301526044820152606401611600565b82611c76576118e36006600787815481106113d257600080516020614590833981519152600052603260045260246000fd5b915061196060066007878154811061191257600080516020614590833981519152600052603260045260246000fd5b9060005260206000209060040201600001548154811061194957600080516020614590833981519152600052603260045260246000fd5b9060005260206000209060060201600401546122f3565b600480546040517fd1660f99000000000000000000000000000000000000000000000000000000008152339281019290925230602483015260448201859052919250600160a060020a039091169063d1660f999060640160a060405180830381600087803b1580156119d157600080fd5b505af11580156119e5573d6000803e3d6000fd5b505050506040513d601f19601f82011682018060405250810190611a099190613fc3565b505060045460078054600160a060020a03909216945063d1660f9993503392509089908110611a4f57600080516020614590833981519152600052603260045260246000fd5b906000526020600020906004020160010160009054906101000a9004600160a060020a0316600660078a81548110611a9e57600080516020614590833981519152600052603260045260246000fd5b90600052602060002090600402016000015481548110611ad557600080516020614590833981519152600052603260045260246000fd5b9060005260206000209060060201600401546040518463ffffffff167c0100000000000000000000000000000000000000000000000000000000028152600401611b4093929190600160a060020a039384168152919092166020820152604081019190915260600190565b60a060405180830381600087803b158015611b5a57600080fd5b505af1158015611b6e573d6000803e3d6000fd5b505050506040513d601f19601f82011682018060405250810190611b929190613fc3565b505060045460078054600160a060020a03909216945063d1660f9993503392506006918a908110611bda57600080516020614590833981519152600052603260045260246000fd5b90600052602060002090600402016000015481548110611c1157600080516020614590833981519152600052603260045260246000fd5b600091825260209091206006909102016001015460405163ffffffff84167c0100000000000000000000000000000000000000000000000000000000028152600160a060020a0392831660048201529116602482015260448101849052606401611600565b611ca360066007878154811061168957600080516020614590833981519152600052603260045260246000fd5b9150611d20600660078781548110611cd257600080516020614590833981519152600052603260045260246000fd5b90600052602060002090600402016000015481548110611d0957600080516020614590833981519152600052603260045260246000fd5b9060005260206000209060060201600501546122f3565b600480546040517fd1660f99000000000000000000000000000000000000000000000000000000008152339281019290925230602483015260448201859052919250600160a060020a039091169063d1660f999060640160a060405180830381600087803b158015611d9157600080fd5b505af1158015611da5573d6000803e3d6000fd5b505050506040513d601f19601f82011682018060405250810190611dc99190613fc3565b505060045460078054600160a060020a03909216945063d1660f9993503392509089908110611e0f57600080516020614590833981519152600052603260045260246000fd5b906000526020600020906004020160010160009054906101000a9004600160a060020a0316600660078a81548110611e5e57600080516020614590833981519152600052603260045260246000fd5b90600052602060002090600402016000015481548110611e9557600080516020614590833981519152600052603260045260246000fd5b60009182526020909120600560069092020101546040517c010000000000000000000000000000000000000000000000000000000063ffffffff8616028152600160a060020a039384166004820152929091166024830152604482015260640160a060405180830381600087803b158015611f0f57600080fd5b505af1158015611f23573d6000803e3d6000fd5b505050506040513d601f19601f82011682018060405250810190611f479190613fc3565b505060045460078054600160a060020a03909216945063d1660f9993503392506006918a908110611f8f57600080516020614590833981519152600052603260045260246000fd5b90600052602060002090600402016000015481548110611fc657600080516020614590833981519152600052603260045260246000fd5b600091825260209091206006909102016001015460405163ffffffff84167c0100000000000000000000000000000000000000000000000000000000028152600160a060020a039283166004820152911660248201526044810184905260640160a060405180830381600087803b15801561204057600080fd5b505af1158015612054573d6000803e3d6000fd5b505050506040513d601f19601f820116820180604052508101906120789190613fc3565b50505050505b83600786815481106120a757600080516020614590833981519152600052603260045260246000fd5b906000526020600020906004020160020160008282546120c79190614391565b92505081905550600060405180606001604052806007888154811061210357600080516020614590833981519152600052603260045260246000fd5b600091825260208083206004929092029091015483523383820152604092830198909852600a8054600181018255915282517fc65a7bb8d6351c1cf70c95a316cc6a92839c986682d98bc35f958f4883f9d2a8600390920291820155968201517fc65a7bb8d6351c1cf70c95a316cc6a92839c986682d98bc35f958f4883f9d2a98801805473ffffffffffffffffffffffffffffffffffffffff1916600160a060020a0390921691909117905501517fc65a7bb8d6351c1cf70c95a316cc6a92839c986682d98bc35f958f4883f9d2aa909501949094555050505050565b7f37fe86e586a58b79268242731f5eec18810da13abb1d36e5dd604374bbacd45a81600a838154811061222b57600080516020614590833981519152600052603260045260246000fd5b906000526020600020906003020160000154600a848154811061226557600080516020614590833981519152600052603260045260246000fd5b906000526020600020906003020160010160009054906101000a9004600160a060020a0316600a85815481106122b257600080516020614590833981519152600052603260045260246000fd5b906000526020600020906003020160020154604051610bed94939291909384526020840192909252600160a060020a03166040830152606082015260800190565b6000606461230283600a614372565b610783919061434b565b6060815183511461238d576040516000805160206145b0833981519152815260206004820152602960248201527f455243313135353a206163636f756e747320616e6420696473206c656e67746860448201527f206d69736d6174636800000000000000000000000000000000000000000000006064820152608401610675565b6000835167ffffffffffffffff8111156123be57600080516020614590833981519152600052604160045260246000fd5b6040519080825280602002602001820160405280156123e7578160200160208202803683370190505b50905060005b845181101561249e5761245c85828151811061242057600080516020614590833981519152600052603260045260246000fd5b602002602001015185838151811061244f57600080516020614590833981519152600052603260045260246000fd5b60200260200101516105f3565b82828151811061248357600080516020614590833981519152600052603260045260246000fd5b602090810291909101015261249781614417565b90506123ed565b509392505050565b6007546040519081527f6f6752ee6ec6ee7c9e8b700f2f9a296778fa9b624c0d0fa0e9d0ae855dffe183906020015b60405180910390a1565b600354600160a060020a03163314612541576040516000805160206145b0833981519152815260206004820181905260248201527f4f776e61626c653a2063616c6c6572206973206e6f7420746865206f776e65726044820152606401610675565b600354604051600091600160a060020a0316907f8be0079c531659141344cd1fd0a4f28419497f9722a3daafe3b4186f6b6457e0908390a36003805473ffffffffffffffffffffffffffffffffffffffff19169055565b600a546040519081527f18a54adde2c481fd4d020c393dd97c862fa982010f8b7e82c95d764487e7dd64906020016124d5565b6005805473ffffffffffffffffffffffffffffffffffffffff1916600160a060020a0383169081179091556040519081527f639a038e2fcecc8fb96abb20814ebcaafd2c3584695aaa96559a7dfb424a393890602001610bed565b60006064612302836007614372565b33600160a060020a03831614156126bc576040516000805160206145b0833981519152815260206004820152602960248201527f455243313135353a2073657474696e6720617070726f76616c2073746174757360448201527f20666f722073656c6600000000000000000000000000000000000000000000006064820152608401610675565b336000818152600160209081526040808320600160a060020a03871680855290835292819020805460ff191686151590811790915590519081529192917f17307eab39ab6107e8899845ad3d59bd9653f200f220920489ca2b5937696c31910160405180910390a35050565b600081815260086020526040812080547ff8cee14ffdef3f8a202daf0f5ea170463c4c4c53b3a150db71d1124fe7589706929061277c57600080516020614590833981519152600052603260045260246000fd5b9060005260206000200154604051610bed91815260200190565b600a82815481106127be57600080516020614590833981519152600052603260045260246000fd5b6000918252602090912060039091020160010154600160a060020a03163314612831576040516000805160206145b0833981519152815260206004820152601960248201527f6f6e6c79206f776e65722063616e2073657420726573656c6c000000000000006044820152606401610675565b600a828154811061285957600080516020614590833981519152600052603260045260246000fd5b9060005260206000209060030201600201548111156128e8576040516000805160206145b0833981519152815260206004820152603560248201527f726573656c6c206e667420616d6f756e742068617320746f206265206c65737360448201527f207468616e20736f6c64206e667420616d6f756e7400000000000000000000006064820152608401610675565b60006040518060800160405280600a858154811061291d57600080516020614590833981519152600052603260045260246000fd5b6000918252602080832060039290920290910154835233838201526040808401879052606093840183905260078054600181018255935284517fa66cc928b5edb82af9bd49922954155ab7b0942694bea4ce44661d9a8736c688600490940293840155908401517fa66cc928b5edb82af9bd49922954155ab7b0942694bea4ce44661d9a8736c6898301805473ffffffffffffffffffffffffffffffffffffffff1916600160a060020a039092169190911790558301517fa66cc928b5edb82af9bd49922954155ab7b0942694bea4ce44661d9a8736c68a820155908201517fa66cc928b5edb82af9bd49922954155ab7b0942694bea4ce44661d9a8736c68b909101805460ff1916911515919091179055600a8054919250839185908110612a5d57600080516020614590833981519152600052603260045260246000fd5b90600052602060002090600302016002016000828254612a7d9190614391565b9091555050505050565b6004805473ffffffffffffffffffffffffffffffffffffffff1916600160a060020a0383169081179091556040519081527f56c19bef4ea8f8152fdf3839f7b0500c7d5a40379465fc037d6bb9c1aae55cd990602001610bed565b6006546040519081527fc905f13cfa4dba655a8aa2a3b63dec8633b39f04519e4517e251878a0e29c756906020016124d5565b6006548310612b94576040516000805160206145b0833981519152815260206004820152602860248201527f6e66742069642068617320746f206265206c657373207468616e206e6674206c60448201527f6973742073697a650000000000000000000000000000000000000000000000006064820152608401610675565b60068381548110612bbc57600080516020614590833981519152600052603260045260246000fd5b6000918252602090912060069091020160010154600160a060020a03163314612c2f576040516000805160206145b0833981519152815260206004820152601c60248201527f6f6e6c792063726561746f722063616e207365742061732073656c6c000000006044820152606401610675565b60068381548110612c5757600080516020614590833981519152600052603260045260246000fd5b9060005260206000209060060201600301548210612ce5576040516000805160206145b0833981519152815260206004820152603360248201527f73656c6c20616d6f756e742068617320746f206265206c657373207468616e2060448201527f6e66742073656c6c61626c6520616d6f756e74000000000000000000000000006064820152608401610675565b60008381526008602052604090205461322157604080516080810182528481523360208201908152918101848152600160608301818152600780548084018255600082815286517fa66cc928b5edb82af9bd49922954155ab7b0942694bea4ce44661d9a8736c68860049093029283015596517fa66cc928b5edb82af9bd49922954155ab7b0942694bea4ce44661d9a8736c6898201805473ffffffffffffffffffffffffffffffffffffffff1916600160a060020a0390921691909117905593517fa66cc928b5edb82af9bd49922954155ab7b0942694bea4ce44661d9a8736c68a85015590517fa66cc928b5edb82af9bd49922954155ab7b0942694bea4ce44661d9a8736c68b909301805460ff1916931515939093179092559054919291612e109190614391565b600086815260086020908152604082208054600181018255908352908220018290559091508361303f57612e7c60068781548110612e6557600080516020614590833981519152600052603260045260246000fd5b9060005260206000209060060201600401546136ce565b600480546040517f70a0823100000000000000000000000000000000000000000000000000000000815233928101929092529192508291600160a060020a0316906370a082319060240160206040518083038186803b158015612ede57600080fd5b505afa158015612ef2573d6000803e3d6000fd5b505050506040513d601f19601f82011682018060405250810190612f169190613fab565b11612f91576040516000805160206145b0833981519152815260206004820152603a60248201527f6d73672e73656e646572206166656e2062616c616e63652068617320746f206260448201527f652067726561746572207468616e2073657474696e67206665650000000000006064820152608401610675565b600480546040517fd1660f99000000000000000000000000000000000000000000000000000000008152339281019290925230602483015260448201839052600160a060020a03169063d1660f999060640160a060405180830381600087803b158015612ffd57600080fd5b505af1158015613011573d6000803e3d6000fd5b505050506040513d601f19601f820116820180604052508101906130359190613fc3565b5050505050613219565b6130816006878154811061306a57600080516020614590833981519152600052603260045260246000fd5b9060005260206000209060060201600501546136ce565b6005546040517f70a082310000000000000000000000000000000000000000000000000000000081523360048201529192508291600160a060020a03909116906370a082319060240160206040518083038186803b1580156130e257600080fd5b505afa1580156130f6573d6000803e3d6000fd5b505050506040513d601f19601f8201168201806040525081019061311a9190613fab565b11613195576040516000805160206145b0833981519152815260206004820152603960248201527f6d73672e73656e646572206273632062616c616e63652068617320746f20626560448201527f2067726561746572207468616e2073657474696e6720666565000000000000006064820152608401610675565b6005546040517fd1660f9900000000000000000000000000000000000000000000000000000000815233600482015230602482015260448101839052600160a060020a039091169063d1660f9990606401600060405180830381600087803b15801561320057600080fd5b505af1158015613214573d6000803e3d6000fd5b505050505b5050506132ae565b6000838152600860205260408120805484926007929161325857600080516020614590833981519152600052603260045260246000fd5b90600052602060002001548154811061328857600080516020614590833981519152600052603260045260246000fd5b906000526020600020906004020160020160008282546132a89190614333565b90915550505b81600684815481106132d757600080516020614590833981519152600052603260045260246000fd5b90600052602060002090600602016003016000828254612a7d9190614391565b600160a060020a03841661337b576040516000805160206145b0833981519152815260206004820152602560248201527f455243313135353a207472616e7366657220746f20746865207a65726f20616460448201527f64726573730000000000000000000000000000000000000000000000000000006064820152608401610675565b600160a060020a03851633148061339757506133978533610565565b613411576040516000805160206145b0833981519152815260206004820152602960248201527f455243313135353a2063616c6c6572206973206e6f74206f776e6572206e6f7260448201527f20617070726f76656400000000000000000000000000000000000000000000006064820152608401610675565b3361343181878761342188613909565b61342a88613909565b5050505050565b600084815260208181526040808320600160a060020a038a168452909152902054838110156134d0576040516000805160206145b0833981519152815260206004820152602a60248201527f455243313135353a20696e73756666696369656e742062616c616e636520666f60448201527f72207472616e73666572000000000000000000000000000000000000000000006064820152608401610675565b6134da8482614391565b600086815260208181526040808320600160a060020a038c81168552925280832093909355881681529081208054869290613516908490614333565b90915550506040805186815260208101869052600160a060020a03808916928a821692918616917fc3d58168c5ae7397731d063d5bbf3d657854427343f4c083240f7aacaa2d0f62910160405180910390a4613576828888888888613969565b50505050505050565b600354600160a060020a031633146135e1576040516000805160206145b0833981519152815260206004820181905260248201527f4f776e61626c653a2063616c6c6572206973206e6f7420746865206f776e65726044820152606401610675565b600160a060020a038116613665576040516000805160206145b0833981519152815260206004820152602660248201527f4f776e61626c653a206e6577206f776e657220697320746865207a65726f206160448201527f64647265737300000000000000000000000000000000000000000000000000006064820152608401610675565b600354604051600160a060020a038084169216907f8be0079c531659141344cd1fd0a4f28419497f9722a3daafe3b4186f6b6457e090600090a36003805473ffffffffffffffffffffffffffffffffffffffff1916600160a060020a0392909216919091179055565b60006064612302836004614372565b600160a060020a0384163b1561121c576040517fbc197c81000000000000000000000000000000000000000000000000000000008152600160a060020a0385169063bc197c819061373a908990899088908890889060040161418f565b602060405180830381600087803b15801561375457600080fd5b505af1925050508015613784575060408051601f3d908101601f1916820190925261378191810190613f12565b60015b61384a5761379061446c565b806308c379a014156137d257506137a56144a1565b806137b057506137d4565b806040516000805160206145b083398151915281526004016106759190614271565b505b6040516000805160206145b0833981519152815260206004820152603460248201527f455243313135353a207472616e7366657220746f206e6f6e204552433131353560448201527f526563656976657220696d706c656d656e7465720000000000000000000000006064820152608401610675565b7fffffffff0000000000000000000000000000000000000000000000000000000081167fbc197c810000000000000000000000000000000000000000000000000000000014613576576040516000805160206145b0833981519152815260206004820152602860248201527f455243313135353a204552433131353552656365697665722072656a6563746560448201527f6420746f6b656e730000000000000000000000000000000000000000000000006064820152608401610675565b6040805160018082528183019092526060916000919060208083019080368337019050509050828160008151811061395857600080516020614590833981519152600052603260045260246000fd5b602090810291909101015292915050565b600160a060020a0384163b1561121c576040517ff23a6e61000000000000000000000000000000000000000000000000000000008152600160a060020a0385169063f23a6e61906139c690899089908890889088906004016141ed565b602060405180830381600087803b1580156139e057600080fd5b505af1925050508015613a10575060408051601f3d908101601f19168201909252613a0d91810190613f12565b60015b613a1c5761379061446c565b7fffffffff0000000000000000000000000000000000000000000000000000000081167ff23a6e610000000000000000000000000000000000000000000000000000000014613576576040516000805160206145b0833981519152815260206004820152602860248201527f455243313135353a204552433131353552656365697665722072656a6563746560448201527f6420746f6b656e730000000000000000000000000000000000000000000000006064820152608401610675565b828054613ae7906143a8565b90600052602060002090601f016020900481019282613b095760008555613b4f565b82601f10613b2257805160ff1916838001178555613b4f565b82800160010185558215613b4f579182015b82811115613b4f578251825591602001919060010190613b34565b50613b5b929150613b5f565b5090565b5b80821115613b5b5760008155600101613b60565b600067ffffffffffffffff831115613b8e57613b8e61444f565b604051613ba56020601f19601f87011601826143ea565b809150838152848484011115613bba57600080fd5b83836020830137600060208583010152509392505050565b600082601f830112613be2578081fd5b81356020613bef8261430f565b604051613bfc82826143ea565b838152828101915085830183850287018401881015613c19578586fd5b855b85811015613c3757813584529284019290840190600101613c1b565b5090979650505050505050565b600082601f830112613c54578081fd5b613c6383833560208501613b74565b9392505050565b600060208284031215613c7b578081fd5b8135613c6381614549565b60008060408385031215613c98578081fd5b8235613ca381614549565b91506020830135613cb381614549565b809150509250929050565b600080600080600060a08688031215613cd5578081fd5b8535613ce081614549565b94506020860135613cf081614549565b9350604086013567ffffffffffffffff80821115613d0c578283fd5b613d1889838a01613bd2565b94506060880135915080821115613d2d578283fd5b613d3989838a01613bd2565b93506080880135915080821115613d4e578283fd5b50613d5b88828901613c44565b9150509295509295909350565b600080600080600060a08688031215613d7f578081fd5b8535613d8a81614549565b94506020860135613d9a81614549565b93506040860135925060608601359150608086013567ffffffffffffffff811115613dc3578182fd5b613d5b88828901613c44565b60008060408385031215613de1578182fd5b8235613dec81614549565b915060208301358015158114613cb3578182fd5b60008060408385031215613e12578182fd5b8235613e1d81614549565b946020939093013593505050565b60008060408385031215613e3d578182fd5b823567ffffffffffffffff80821115613e54578384fd5b818501915085601f830112613e67578384fd5b81356020613e748261430f565b604051613e8182826143ea565b8381528281019150858301838502870184018b1015613e9e578889fd5b8896505b84871015613ec9578035613eb581614549565b835260019690960195918301918301613ea2565b5096505086013592505080821115613edf578283fd5b50613eec85828601613bd2565b9150509250929050565b600060208284031215613f07578081fd5b8135613c6381614561565b600060208284031215613f23578081fd5b8151613c6381614561565b60008060008060808587031215613f43578182fd5b843567ffffffffffffffff811115613f59578283fd5b8501601f81018713613f69578283fd5b613f7887823560208401613b74565b97602087013597506040870135966060013595509350505050565b600060208284031215613fa4578081fd5b5035919050565b600060208284031215613fbc578081fd5b5051919050565b600080600080600060a08688031215613fda578283fd5b855194506020860151613fec81614549565b60408701516060880151919550935061400481614549565b80925050608086015190509295509295909350565b6000806040838503121561402b578182fd5b50508035926020909101359150565b60008060006060848603121561404e578081fd5b505081359360208301359350604090920135919050565b6000815180845260208085019450808401835b8381101561409457815187529582019590820190600101614078565b509495945050505050565b60008151808452815b818110156140c4576020818501810151868301820152016140a8565b818111156140d55782602083870101525b50601f01601f19169290920160200192915050565b80546000906002810460018083168061410457607f831692505b602080841082141561412b5760008051602061459083398151915286526022600452602486fd5b83885260208801828015614146576001811461415757614182565b60ff19871682528282019750614182565b60008981526020902060005b8781101561417c57815484820152908601908401614163565b83019850505b5050505050505092915050565b6000600160a060020a03808816835280871660208401525060a060408301526141bb60a0830186614065565b82810360608401526141cd8186614065565b905082810360808401526141e1818561409f565b98975050505050505050565b6000600160a060020a03808816835280871660208401525084604083015283606083015260a0608083015261422560a083018461409f565b979650505050505050565b602081526000613c636020830184614065565b6040815260006142566040830185614065565b82810360208401526142688185614065565b95945050505050565b602081526000613c63602083018461409f565b85815260a06020820152600061429d60a08301876140ea565b600160a060020a0395909516604083015250606081019290925260809091015292915050565b87815260e0602082015260006142dc60e08301896140ea565b600160a060020a03979097166040830152506060810194909452608084019290925260a083015260c09091015292915050565b600067ffffffffffffffff8211156143295761432961444f565b5060209081020190565b6000821982111561434657614346614432565b500190565b60008261436d5760008051602061459083398151915281526012600452602481fd5b500490565b600081600019048311821515161561438c5761438c614432565b500290565b6000828210156143a3576143a3614432565b500390565b6002810460018216806143bc57607f821691505b602082108114156143e457600080516020614590833981519152600052602260045260246000fd5b50919050565b601f19601f830116810181811067ffffffffffffffff821117156144105761441061444f565b6040525050565b600060001982141561442b5761442b614432565b5060010190565b600080516020614590833981519152600052601160045260246000fd5b600080516020614590833981519152600052604160045260246000fd5b600060033d111561449e57600481823e517c010000000000000000000000000000000000000000000000000000000090045b90565b600060443d10156144af5790565b6040517ffffffffffffffffffffffffffffffffffffffffffffffffffffffffffffffffc803d016004833e81513d67ffffffffffffffff81602484011181841117156144fd57505050505090565b82850191508151818111156145155750505050505090565b843d870101602082850101111561452f5750505050505090565b61453e602082860101876143ea565b509095945050505050565b600160a060020a038116811461455e57600080fd5b50565b7fffffffff000000000000000000000000000000000000000000000000000000008116811461455e57600080fdfe4e487b710000000000000000000000000000000000000000000000000000000008c379a000000000000000000000000000000000000000000000000000000000a2646970667358221220ee3a9c2688f81a5bea4e83d4ca05ac7dfbf040bcb9fc3cad429e3e47238ad7f364736f6c63430008040033",
  "immutableReferences": {},
  "source": "// SPDX-License-Identifier: MIT\npragma solidity ^0.8.0;\nimport '@openzeppelin/contracts/token/ERC1155/ERC1155.sol';\nimport '@openzeppelin/contracts/access/Ownable.sol';\nimport './FakeAfenToken.sol';\nimport './FakeBscToken.sol';\n\ncontract Afen_nft is ERC1155, Ownable {\n    \n    // FakeAfenToken afen = new FakeAfenToken();\n    // FakeBscToken bsc = new FakeBscToken();\n    FakeAfenToken public deployed_afen;\n    FakeBscToken public deployed_bsc;\n    constructor() ERC1155(\"\") Ownable() {}\n    receive() external payable {}\n\n    event Withdrawed(address withdrawer);\n    function withdrawBnb() public payable onlyOwner{\n        address payable sender = payable(msg.sender);\n        sender.transfer(address(this).balance);\n    }\n    event GetDeployedAfen(address addr);\n    function CallDeployedAfen(address afen_addr) public {\n        deployed_afen = FakeAfenToken(afen_addr);\n        emit GetDeployedAfen(address(deployed_afen));\n    }\n    event GetDeployedBsc(address addr);\n    function CallDeployedBsc(address bsc_addr) public {\n        deployed_bsc = FakeBscToken(bsc_addr);\n        emit GetDeployedBsc(address(deployed_bsc));\n    }\n    struct Nft {\n        string _hash;\n        address creator;\n        uint total;\n        uint sellable_amount;\n        uint a_price;\n        uint b_price;\n    }\n    Nft[] nft_list; // nft_id ==> _hash, creator, amount\n\n    struct SellNft {\n        uint nft_id;\n        address owner;\n        uint amount;\n        bool primary_sell; // True   False\n    }\n    SellNft[] sell_list; // sell_id ==> nft_id, owner, amount\n    // nft_id ==> sell_list id array\n    // e.x. : nftid_sellids[0] = [1,3,8]\n    mapping(uint => uint[]) nftid_sellids; \n    // address ==> sell_list id array\n    // e.x.: owner_sellids['0x123123....'] = [4,1,5,6]\n    mapping(address => uint[]) owner_sellids;\n    // Sold list : sold_id => nft_id, owner, amount\n    struct SoldNft {\n        uint nft_id;\n        address owner;\n        uint amount;\n    }\n    SoldNft[] sold_list; \n    // nft_id => sold_list id array\n    // e.x. nftid_soldids[4] = [1,4,5,6]\n    mapping (uint => uint[]) nftid_soldids;\n    // address ==> sold_list id array\n    // e.x. owner_soldids['0x1231231'] = [3,2,4,3]\n    mapping(address => uint[]) owner_soldids;\n\n    // Resell list : resell_id => nft_id, owner, amount\n    struct ResellNft {\n        uint nft_id;\n        address owner;\n        uint amount;\n    }\n    ResellNft[] resell_list;\n    // nft_id => sold_list id array\n    // e.x. nftid_resellids[4] = [1,4,5,6]\n    mapping (uint => uint[]) nftid_resellids;\n    // address ==> sold_list id array\n    // e.x. owner_resellids['0x1231231'] = [3,2,4,3]\n    mapping(address => uint[]) owner_resellids;\n    \n    event Minted(uint nft_id, string _hash, address creator, uint total, uint sellable_amount, uint a_price, uint b_price);\n    function mint(string memory _hash, uint total, uint a_price, uint b_price) public {\n        Nft memory temp = Nft(_hash, msg.sender, total, total, a_price, b_price);\n        nft_list.push(temp);\n        uint new_id = nft_list.length - 1;\n        emit Minted(new_id, nft_list[new_id]._hash, nft_list[new_id].creator, nft_list[new_id].total, nft_list[new_id].sellable_amount, nft_list[new_id].a_price, nft_list[new_id].b_price);\n    }\n    event NftSize(uint size);\n    function get_nft_size() public {\n        emit NftSize(nft_list.length);\n    }\n    event GotNft(uint nft_id, string _hash, address creator, uint total, uint sellable_amount);\n    function get_nft(uint nft_id) public {\n        emit GotNft(nft_id, nft_list[nft_id]._hash, nft_list[nft_id].creator, nft_list[nft_id].total, nft_list[nft_id].sellable_amount);\n    }\n    function list_fee(uint price) public pure returns(uint) {\n        return price * 4 / 100;\n    }\n    mapping(uint => mapping(address => bool)) nftid_addr_setsell;\n    function set_sell(uint nft_id, uint amount, uint token_kind) public {\n        // nft_list ==> sell_list\n        require(nft_id < nft_list.length, \"nft id has to be less than nft list size\");\n        require(msg.sender == nft_list[nft_id].creator, \"only creator can set as sell\");\n        require(amount < nft_list[nft_id].sellable_amount, \"sell amount has to be less than nft sellable amount\");\n        \n        // if nft_id not yet set as sell\n        if (nftid_sellids[nft_id].length == 0) {\n            SellNft memory temp = SellNft(nft_id, msg.sender, amount, true);\n            sell_list.push(temp);\n            uint l = sell_list.length - 1;\n            nftid_sellids[nft_id].push(l);\n            uint fee;\n            if(token_kind == 0) {\n                fee = list_fee(nft_list[nft_id].a_price);\n                require(deployed_afen.balanceOf(msg.sender) > fee, \"msg.sender afen balance has to be greater than setting fee\");\n                deployed_afen.safeTransfer(msg.sender, address(this), fee);\n            } else {\n                fee = list_fee(nft_list[nft_id].b_price);\n                require(deployed_bsc.balanceOf(msg.sender) > fee, \"msg.sender bsc balance has to be greater than setting fee\");\n                deployed_bsc.safeTransfer(msg.sender, address(this), fee);\n            }\n        } else {\n            sell_list[nftid_sellids[nft_id][0]].amount += amount;\n        }\n        nft_list[nft_id].sellable_amount -= amount;\n    }\n    event nftid_sellid(uint ids);\n    function get_nftids_sellids(uint nft_id) public {\n        emit nftid_sellid(nftid_sellids[nft_id][0]);\n    }\n    event SellSize(uint length);\n    function get_sell_size() public {\n        emit SellSize(sell_list.length);\n    }\n    event SellNftItem(uint sell_id, uint nft_id, address owner, uint amount, bool primary_sell);\n    function get_sell_item(uint sell_id) public {\n        require(sell_id < sell_list.length, \"id has to be less than sell_list size\");\n        emit SellNftItem(sell_id, sell_list[sell_id].nft_id, sell_list[sell_id].owner, sell_list[sell_id].amount, sell_list[sell_id].primary_sell);\n    }\n    function sell_fee(uint price) public pure returns(uint) {\n        return price * 7 / 100;\n    }\n    function loyalty(uint price) public pure returns(uint) {\n        return price * 10 / 100;\n    }\n    function buy(uint sell_id, uint amount, uint token_id) public {\n        require(sell_id < sell_list.length, \"sell_id has to be less than sell_list size\");\n        require(amount < sell_list[sell_id].amount, \"amount has to be less than enable sell nft capacity\");\n        uint fee;\n        uint loyalty_fee;\n        if(sell_list[sell_id].primary_sell) {\n            if(token_id == 0) {\n                fee = sell_fee(nft_list[sell_list[sell_id].nft_id].a_price);\n                deployed_afen.safeTransfer(msg.sender, address(this), fee);\n                deployed_afen.safeTransfer(msg.sender, sell_list[sell_id].owner, nft_list[sell_list[sell_id].nft_id].a_price);\n            } else {\n                fee = sell_fee(nft_list[sell_list[sell_id].nft_id].b_price);\n                deployed_afen.safeTransfer(msg.sender, address(this), fee);\n                deployed_afen.safeTransfer(msg.sender, sell_list[sell_id].owner, nft_list[sell_list[sell_id].nft_id].b_price);\n            }\n        } else {\n            if(token_id == 0) {\n                fee = sell_fee(nft_list[sell_list[sell_id].nft_id].a_price);\n                loyalty_fee = loyalty(nft_list[sell_list[sell_id].nft_id].a_price);\n                deployed_afen.safeTransfer(msg.sender, address(this), fee);\n                deployed_afen.safeTransfer(msg.sender, sell_list[sell_id].owner, nft_list[sell_list[sell_id].nft_id].a_price);\n                deployed_afen.safeTransfer(msg.sender, nft_list[sell_list[sell_id].nft_id].creator, loyalty_fee);\n            } else {\n                fee = sell_fee(nft_list[sell_list[sell_id].nft_id].b_price);\n                loyalty_fee = loyalty(nft_list[sell_list[sell_id].nft_id].b_price);\n                deployed_afen.safeTransfer(msg.sender, address(this), fee);\n                deployed_afen.safeTransfer(msg.sender, sell_list[sell_id].owner, nft_list[sell_list[sell_id].nft_id].b_price);\n                deployed_afen.safeTransfer(msg.sender, nft_list[sell_list[sell_id].nft_id].creator, loyalty_fee);\n            }\n        }\n        sell_list[sell_id].amount -= amount;\n        SoldNft memory temp = SoldNft(sell_list[sell_id].nft_id, msg.sender, amount);\n        sold_list.push(temp);\n    }\n    event SoldNftSize (uint size);\n    function get_sold_size() public {\n        emit SoldNftSize(sold_list.length);\n    }\n    event SoldNftItem(uint sold_id, uint nft_id, address owner, uint amount);\n    function get_sold_nft(uint sold_id) public {\n        emit SoldNftItem(sold_id, sold_list[sold_id].nft_id, sold_list[sold_id].owner, sold_list[sold_id].amount);\n    }\n    function set_resell(uint sold_id, uint amount) public {\n        require(msg.sender == sold_list[sold_id].owner, \"only owner can set resell\");\n        require(amount <=  sold_list[sold_id].amount, \"resell nft amount has to be less than sold nft amount\");\n        SellNft memory temp = SellNft(sold_list[sold_id].nft_id, msg.sender, amount, false);\n        sell_list.push(temp);\n        sold_list[sold_id].amount -= amount;\n    }\n}",
  "sourcePath": "/home/oncemore/BlockchainWork/afen/contract/contracts/Afen_nft.sol",
  "compiler": {
    "name": "solc",
    "version": "0.8.4+commit.c7e474f2.Emscripten.clang"
  },
  "schemaVersion": "3.3.4",
  "updatedAt": "2021-06-10T08:17:26.117Z",
  "networkType": "ethereum",
  "devdoc": {
    "kind": "dev",
    "methods": {
      "balanceOf(address,uint256)": {
        "details": "See {IERC1155-balanceOf}. Requirements: - `account` cannot be the zero address."
      },
      "balanceOfBatch(address[],uint256[])": {
        "details": "See {IERC1155-balanceOfBatch}. Requirements: - `accounts` and `ids` must have the same length."
      },
      "isApprovedForAll(address,address)": {
        "details": "See {IERC1155-isApprovedForAll}."
      },
      "owner()": {
        "details": "Returns the address of the current owner."
      },
      "renounceOwnership()": {
        "details": "Leaves the contract without owner. It will not be possible to call `onlyOwner` functions anymore. Can only be called by the current owner. NOTE: Renouncing ownership will leave the contract without an owner, thereby removing any functionality that is only available to the owner."
      },
      "safeBatchTransferFrom(address,address,uint256[],uint256[],bytes)": {
        "details": "See {IERC1155-safeBatchTransferFrom}."
      },
      "safeTransferFrom(address,address,uint256,uint256,bytes)": {
        "details": "See {IERC1155-safeTransferFrom}."
      },
      "setApprovalForAll(address,bool)": {
        "details": "See {IERC1155-setApprovalForAll}."
      },
      "supportsInterface(bytes4)": {
        "details": "See {IERC165-supportsInterface}."
      },
      "transferOwnership(address)": {
        "details": "Transfers ownership of the contract to a new account (`newOwner`). Can only be called by the current owner."
      },
      "uri(uint256)": {
        "details": "See {IERC1155MetadataURI-uri}. This implementation returns the same URI for *all* token types. It relies on the token type ID substitution mechanism https://eips.ethereum.org/EIPS/eip-1155#metadata[defined in the EIP]. Clients calling this function must replace the `\\{id\\}` substring with the actual token type ID."
      }
    },
    "version": 1
  },
  "userdoc": {
    "kind": "user",
    "methods": {},
    "version": 1
  }
}