{
  "contractName": "AfenToken",
  "abi": [
    {
      "inputs": [],
      "stateMutability": "nonpayable",
      "type": "constructor"
    },
    {
      "inputs": [
        {
          "internalType": "address",
          "name": "",
          "type": "address"
        }
      ],
      "name": "_balances",
      "outputs": [
        {
          "internalType": "uint256",
          "name": "",
          "type": "uint256"
        }
      ],
      "stateMutability": "view",
      "type": "function",
      "constant": true
    },
    {
      "inputs": [
        {
          "internalType": "address",
          "name": "_to",
          "type": "address"
        },
        {
          "internalType": "uint256",
          "name": "_amount",
          "type": "uint256"
        }
      ],
      "name": "transfer",
      "outputs": [
        {
          "internalType": "bool",
          "name": "",
          "type": "bool"
        }
      ],
      "stateMutability": "nonpayable",
      "type": "function"
    },
    {
      "inputs": [
        {
          "internalType": "address",
          "name": "_to",
          "type": "address"
        },
        {
          "internalType": "uint256",
          "name": "_amount",
          "type": "uint256"
        }
      ],
      "name": "sell",
      "outputs": [
        {
          "internalType": "bool",
          "name": "",
          "type": "bool"
        }
      ],
      "stateMutability": "nonpayable",
      "type": "function"
    }
  ],
  "bytecode": "0x608060405234801561001057600080fd5b50620186a06001819055506001546000808073ffffffffffffffffffffffffffffffffffffffff1673ffffffffffffffffffffffffffffffffffffffff168152602001908152602001600020819055506104a28061006f6000396000f3fe608060405234801561001057600080fd5b50600436106100415760003560e01c80636c197ff5146100465780636ebcf60714610076578063a9059cbb146100a6575b600080fd5b610060600480360381019061005b91906102ad565b6100d6565b60405161006d9190610307565b60405180910390f35b610090600480360381019061008b9190610284565b61018c565b60405161009d9190610322565b60405180910390f35b6100c060048036038101906100bb91906102ad565b6101a4565b6040516100cd9190610307565b60405180910390f35b6000816000808073ffffffffffffffffffffffffffffffffffffffff1673ffffffffffffffffffffffffffffffffffffffff16815260200190815260200160002060008282546101269190610393565b92505081905550816000808573ffffffffffffffffffffffffffffffffffffffff1673ffffffffffffffffffffffffffffffffffffffff168152602001908152602001600020600082825461017b919061033d565b925050819055506001905092915050565b60006020528060005260406000206000915090505481565b6000816000803373ffffffffffffffffffffffffffffffffffffffff1673ffffffffffffffffffffffffffffffffffffffff16815260200190815260200160002060008282546101f49190610393565b92505081905550816000808573ffffffffffffffffffffffffffffffffffffffff1673ffffffffffffffffffffffffffffffffffffffff1681526020019081526020016000206000828254610249919061033d565b925050819055506001905092915050565b6000813590506102698161043e565b92915050565b60008135905061027e81610455565b92915050565b60006020828403121561029657600080fd5b60006102a48482850161025a565b91505092915050565b600080604083850312156102c057600080fd5b60006102ce8582860161025a565b92505060206102df8582860161026f565b9150509250929050565b6102f2816103d9565b82525050565b61030181610405565b82525050565b600060208201905061031c60008301846102e9565b92915050565b600060208201905061033760008301846102f8565b92915050565b600061034882610405565b915061035383610405565b9250827fffffffffffffffffffffffffffffffffffffffffffffffffffffffffffffffff038211156103885761038761040f565b5b828201905092915050565b600061039e82610405565b91506103a983610405565b9250828210156103bc576103bb61040f565b5b828203905092915050565b60006103d2826103e5565b9050919050565b60008115159050919050565b600073ffffffffffffffffffffffffffffffffffffffff82169050919050565b6000819050919050565b7f4e487b7100000000000000000000000000000000000000000000000000000000600052601160045260246000fd5b610447816103c7565b811461045257600080fd5b50565b61045e81610405565b811461046957600080fd5b5056fea264697066735822122074e1a7be58542cd046509ef13db4c08877597f4c6b93e62f2d98351a15b2eedc64736f6c63430008040033",
  "immutableReferences": {},
  "source": "// SPDX-License-Identifier: MIT\r\npragma solidity ^0.8.0;\r\n\r\ncontract AfenToken {\r\n    mapping (address => uint256) public _balances;\r\n    uint private _totalSupply;\r\n\r\n    constructor(){\r\n        _totalSupply = 100000;\r\n        _balances[address(0)] = _totalSupply;\r\n    }\r\n\r\n    function transfer(address _to, uint _amount) public returns (bool){\r\n        _balances[msg.sender] -= _amount;\r\n        _balances[_to] += _amount;\r\n        return true;\r\n    }\r\n\r\n    function sell(address _to, uint _amount) public returns (bool) {\r\n        _balances[address(0)] -= _amount;\r\n        _balances[_to] += _amount;\r\n        return true;\r\n    }\r\n}",
  "sourcePath": "/home/oncemore/BlockchainWork/afen/contract/contracts/AfenToken.sol",
  "compiler": {
    "name": "solc",
    "version": "0.8.4+commit.c7e474f2.Emscripten.clang"
  },
  "schemaVersion": "3.3.4",
  "updatedAt": "2021-05-31T08:31:47.730Z",
  "networkType": "ethereum",
  "devdoc": {
    "kind": "dev",
    "methods": {},
    "version": 1
  },
  "userdoc": {
    "kind": "user",
    "methods": {},
    "version": 1
  }
}