{
  "contractName": "AfenNft",
  "abi": [
    {
      "inputs": [],
      "stateMutability": "nonpayable",
      "type": "constructor"
    },
    {
      "anonymous": false,
      "inputs": [
        {
          "indexed": false,
          "internalType": "uint256",
          "name": "_id",
          "type": "uint256"
        },
        {
          "indexed": false,
          "internalType": "string",
          "name": "_hash",
          "type": "string"
        },
        {
          "indexed": false,
          "internalType": "uint256",
          "name": "_aprice",
          "type": "uint256"
        },
        {
          "indexed": false,
          "internalType": "uint256",
          "name": "_bprice",
          "type": "uint256"
        },
        {
          "indexed": false,
          "internalType": "address",
          "name": "_creator",
          "type": "address"
        },
        {
          "indexed": false,
          "internalType": "bool",
          "name": "_sell",
          "type": "bool"
        }
      ],
      "name": "AddedSell",
      "type": "event"
    },
    {
      "anonymous": false,
      "inputs": [
        {
          "indexed": true,
          "internalType": "address",
          "name": "account",
          "type": "address"
        },
        {
          "indexed": true,
          "internalType": "address",
          "name": "operator",
          "type": "address"
        },
        {
          "indexed": false,
          "internalType": "bool",
          "name": "approved",
          "type": "bool"
        }
      ],
      "name": "ApprovalForAll",
      "type": "event"
    },
    {
      "anonymous": false,
      "inputs": [
        {
          "indexed": false,
          "internalType": "string",
          "name": "_hash",
          "type": "string"
        },
        {
          "indexed": false,
          "internalType": "uint256",
          "name": "_aprice",
          "type": "uint256"
        },
        {
          "indexed": false,
          "internalType": "uint256",
          "name": "_bprice",
          "type": "uint256"
        },
        {
          "indexed": false,
          "internalType": "address",
          "name": "_creator",
          "type": "address"
        },
        {
          "indexed": false,
          "internalType": "bool",
          "name": "_sell",
          "type": "bool"
        }
      ],
      "name": "Minted",
      "type": "event"
    },
    {
      "anonymous": false,
      "inputs": [
        {
          "indexed": true,
          "internalType": "address",
          "name": "operator",
          "type": "address"
        },
        {
          "indexed": true,
          "internalType": "address",
          "name": "from",
          "type": "address"
        },
        {
          "indexed": true,
          "internalType": "address",
          "name": "to",
          "type": "address"
        },
        {
          "indexed": false,
          "internalType": "uint256[]",
          "name": "ids",
          "type": "uint256[]"
        },
        {
          "indexed": false,
          "internalType": "uint256[]",
          "name": "values",
          "type": "uint256[]"
        }
      ],
      "name": "TransferBatch",
      "type": "event"
    },
    {
      "anonymous": false,
      "inputs": [
        {
          "indexed": true,
          "internalType": "address",
          "name": "operator",
          "type": "address"
        },
        {
          "indexed": true,
          "internalType": "address",
          "name": "from",
          "type": "address"
        },
        {
          "indexed": true,
          "internalType": "address",
          "name": "to",
          "type": "address"
        },
        {
          "indexed": false,
          "internalType": "uint256",
          "name": "id",
          "type": "uint256"
        },
        {
          "indexed": false,
          "internalType": "uint256",
          "name": "value",
          "type": "uint256"
        }
      ],
      "name": "TransferSingle",
      "type": "event"
    },
    {
      "anonymous": false,
      "inputs": [
        {
          "indexed": false,
          "internalType": "string",
          "name": "value",
          "type": "string"
        },
        {
          "indexed": true,
          "internalType": "uint256",
          "name": "id",
          "type": "uint256"
        }
      ],
      "name": "URI",
      "type": "event"
    },
    {
      "inputs": [
        {
          "internalType": "address",
          "name": "account",
          "type": "address"
        },
        {
          "internalType": "uint256",
          "name": "id",
          "type": "uint256"
        }
      ],
      "name": "balanceOf",
      "outputs": [
        {
          "internalType": "uint256",
          "name": "",
          "type": "uint256"
        }
      ],
      "stateMutability": "view",
      "type": "function",
      "constant": true
    },
    {
      "inputs": [
        {
          "internalType": "address[]",
          "name": "accounts",
          "type": "address[]"
        },
        {
          "internalType": "uint256[]",
          "name": "ids",
          "type": "uint256[]"
        }
      ],
      "name": "balanceOfBatch",
      "outputs": [
        {
          "internalType": "uint256[]",
          "name": "",
          "type": "uint256[]"
        }
      ],
      "stateMutability": "view",
      "type": "function",
      "constant": true
    },
    {
      "inputs": [
        {
          "internalType": "address",
          "name": "account",
          "type": "address"
        },
        {
          "internalType": "address",
          "name": "operator",
          "type": "address"
        }
      ],
      "name": "isApprovedForAll",
      "outputs": [
        {
          "internalType": "bool",
          "name": "",
          "type": "bool"
        }
      ],
      "stateMutability": "view",
      "type": "function",
      "constant": true
    },
    {
      "inputs": [
        {
          "internalType": "address",
          "name": "from",
          "type": "address"
        },
        {
          "internalType": "address",
          "name": "to",
          "type": "address"
        },
        {
          "internalType": "uint256[]",
          "name": "ids",
          "type": "uint256[]"
        },
        {
          "internalType": "uint256[]",
          "name": "amounts",
          "type": "uint256[]"
        },
        {
          "internalType": "bytes",
          "name": "data",
          "type": "bytes"
        }
      ],
      "name": "safeBatchTransferFrom",
      "outputs": [],
      "stateMutability": "nonpayable",
      "type": "function"
    },
    {
      "inputs": [
        {
          "internalType": "address",
          "name": "from",
          "type": "address"
        },
        {
          "internalType": "address",
          "name": "to",
          "type": "address"
        },
        {
          "internalType": "uint256",
          "name": "id",
          "type": "uint256"
        },
        {
          "internalType": "uint256",
          "name": "amount",
          "type": "uint256"
        },
        {
          "internalType": "bytes",
          "name": "data",
          "type": "bytes"
        }
      ],
      "name": "safeTransferFrom",
      "outputs": [],
      "stateMutability": "nonpayable",
      "type": "function"
    },
    {
      "inputs": [
        {
          "internalType": "address",
          "name": "operator",
          "type": "address"
        },
        {
          "internalType": "bool",
          "name": "approved",
          "type": "bool"
        }
      ],
      "name": "setApprovalForAll",
      "outputs": [],
      "stateMutability": "nonpayable",
      "type": "function"
    },
    {
      "inputs": [
        {
          "internalType": "bytes4",
          "name": "interfaceId",
          "type": "bytes4"
        }
      ],
      "name": "supportsInterface",
      "outputs": [
        {
          "internalType": "bool",
          "name": "",
          "type": "bool"
        }
      ],
      "stateMutability": "view",
      "type": "function",
      "constant": true
    },
    {
      "inputs": [
        {
          "internalType": "uint256",
          "name": "",
          "type": "uint256"
        }
      ],
      "name": "uri",
      "outputs": [
        {
          "internalType": "string",
          "name": "",
          "type": "string"
        }
      ],
      "stateMutability": "view",
      "type": "function",
      "constant": true
    },
    {
      "stateMutability": "payable",
      "type": "receive",
      "payable": true
    },
    {
      "inputs": [],
      "name": "withdraw",
      "outputs": [],
      "stateMutability": "nonpayable",
      "type": "function"
    },
    {
      "inputs": [
        {
          "internalType": "string",
          "name": "_hash",
          "type": "string"
        },
        {
          "internalType": "uint256",
          "name": "_aprice",
          "type": "uint256"
        },
        {
          "internalType": "uint256",
          "name": "_bprice",
          "type": "uint256"
        },
        {
          "internalType": "uint256",
          "name": "_amount",
          "type": "uint256"
        }
      ],
      "name": "mint",
      "outputs": [
        {
          "internalType": "bool",
          "name": "",
          "type": "bool"
        }
      ],
      "stateMutability": "nonpayable",
      "type": "function"
    },
    {
      "inputs": [
        {
          "internalType": "uint256",
          "name": "_amount",
          "type": "uint256"
        }
      ],
      "name": "calc_fee",
      "outputs": [
        {
          "internalType": "uint256",
          "name": "",
          "type": "uint256"
        }
      ],
      "stateMutability": "pure",
      "type": "function",
      "constant": true
    },
    {
      "inputs": [
        {
          "internalType": "uint256",
          "name": "_id",
          "type": "uint256"
        },
        {
          "internalType": "uint256",
          "name": "token_kind",
          "type": "uint256"
        }
      ],
      "name": "sell",
      "outputs": [
        {
          "internalType": "bool",
          "name": "",
          "type": "bool"
        }
      ],
      "stateMutability": "nonpayable",
      "type": "function"
    },
    {
      "inputs": [
        {
          "internalType": "uint256",
          "name": "_id",
          "type": "uint256"
        }
      ],
      "name": "cancelSell",
      "outputs": [
        {
          "internalType": "bool",
          "name": "",
          "type": "bool"
        }
      ],
      "stateMutability": "nonpayable",
      "type": "function"
    }
  ],
  "bytecode": "0x60806040526040516200001290620000c2565b604051809103906000f0801580156200002f573d6000803e3d6000fd5b50600560006101000a81548173ffffffffffffffffffffffffffffffffffffffff021916908373ffffffffffffffffffffffffffffffffffffffff1602179055503480156200007d57600080fd5b50604051806020016040528060008152506200009f81620000a660201b60201c565b50620001e5565b8060029080519060200190620000be929190620000d0565b5050565b610511806200371083390190565b828054620000de9062000180565b90600052602060002090601f0160209004810192826200010257600085556200014e565b82601f106200011d57805160ff19168380011785556200014e565b828001600101855582156200014e579182015b828111156200014d57825182559160200191906001019062000130565b5b5090506200015d919062000161565b5090565b5b808211156200017c57600081600090555060010162000162565b5090565b600060028204905060018216806200019957607f821691505b60208210811415620001b057620001af620001b6565b5b50919050565b7f4e487b7100000000000000000000000000000000000000000000000000000000600052602260045260246000fd5b61351b80620001f56000396000f3fe6080604052600436106100c55760003560e01c80633ccfd60b1161007f578063ae7e0a7d11610059578063ae7e0a7d146102a8578063d79875eb146102e5578063e985e9c514610322578063f242432a1461035f576100cc565b80633ccfd60b1461022b5780634e1273f414610242578063a22cb4651461027f576100cc565b8062fdd58e146100d157806301ffc9a71461010e578063027a22551461014b57806307c9cd45146101885780630e89341c146101c55780632eb2c2d614610202576100cc565b366100cc57005b600080fd5b3480156100dd57600080fd5b506100f860048036038101906100f391906122a7565b610388565b6040516101059190612b0a565b60405180910390f35b34801561011a57600080fd5b5061013560048036038101906101309190612378565b610451565b6040516101429190612913565b60405180910390f35b34801561015757600080fd5b50610172600480360381019061016d91906123ca565b610533565b60405161017f9190612913565b60405180910390f35b34801561019457600080fd5b506101af60048036038101906101aa9190612445565b6106b1565b6040516101bc9190612913565b60405180910390f35b3480156101d157600080fd5b506101ec60048036038101906101e79190612445565b61071f565b6040516101f9919061292e565b60405180910390f35b34801561020e57600080fd5b506102296004803603810190610224919061211d565b6107b3565b005b34801561023757600080fd5b50610240610ba9565b005b34801561024e57600080fd5b50610269600480360381019061026491906122e3565b610c4c565b60405161027691906128ba565b60405180910390f35b34801561028b57600080fd5b506102a660048036038101906102a1919061226b565b610dfd565b005b3480156102b457600080fd5b506102cf60048036038101906102ca9190612445565b610f7e565b6040516102dc9190612b0a565b60405180910390f35b3480156102f157600080fd5b5061030c6004803603810190610307919061246e565b610fa0565b6040516103199190612913565b60405180910390f35b34801561032e57600080fd5b50610349600480360381019061034491906120e1565b611361565b6040516103569190612913565b60405180910390f35b34801561036b57600080fd5b50610386600480360381019061038191906121dc565b6113f5565b005b60008073ffffffffffffffffffffffffffffffffffffffff168373ffffffffffffffffffffffffffffffffffffffff1614156103f9576040517f08c379a00000000000000000000000000000000000000000000000000000000081526004016103f0906129ea565b60405180910390fd5b60008083815260200190815260200160002060008473ffffffffffffffffffffffffffffffffffffffff1673ffffffffffffffffffffffffffffffffffffffff16815260200190815260200160002054905092915050565b60007fd9b67a26000000000000000000000000000000000000000000000000000000007bffffffffffffffffffffffffffffffffffffffffffffffffffffffff1916827bffffffffffffffffffffffffffffffffffffffffffffffffffffffff1916148061051c57507f0e89341c000000000000000000000000000000000000000000000000000000007bffffffffffffffffffffffffffffffffffffffffffffffffffffffff1916827bffffffffffffffffffffffffffffffffffffffffffffffffffffffff1916145b8061052c575061052b8261170d565b5b9050919050565b600080600480549050905061055933828560405180602001604052806000815250611777565b60006040518060a001604052808881526020018781526020018681526020013373ffffffffffffffffffffffffffffffffffffffff168152602001600015158152509050600481908060018154018082558091505060019003906000526020600020906004020160009091909190915060008201518160000190805190602001906105e5929190611dc4565b50602082015181600101556040820151816002015560608201518160030160006101000a81548173ffffffffffffffffffffffffffffffffffffffff021916908373ffffffffffffffffffffffffffffffffffffffff16021790555060808201518160030160146101000a81548160ff02191690831515021790555050507f022c3196c571452212a29fea489c594c654309b25fc2e4e247fac823504cab4087878733600060405161069b959493929190612950565b60405180910390a1600192505050949350505050565b600080600483815481106106ee577f4e487b7100000000000000000000000000000000000000000000000000000000600052603260045260246000fd5b906000526020600020906004020160030160146101000a81548160ff02191690831515021790555060019050919050565b60606002805461072e90612ee6565b80601f016020809104026020016040519081016040528092919081815260200182805461075a90612ee6565b80156107a75780601f1061077c576101008083540402835291602001916107a7565b820191906000526020600020905b81548152906001019060200180831161078a57829003601f168201915b50505050509050919050565b81518351146107f7576040517f08c379a00000000000000000000000000000000000000000000000000000000081526004016107ee90612aca565b60405180910390fd5b600073ffffffffffffffffffffffffffffffffffffffff168473ffffffffffffffffffffffffffffffffffffffff161415610867576040517f08c379a000000000000000000000000000000000000000000000000000000000815260040161085e90612a2a565b60405180910390fd5b61086f61190d565b73ffffffffffffffffffffffffffffffffffffffff168573ffffffffffffffffffffffffffffffffffffffff1614806108b557506108b4856108af61190d565b611361565b5b6108f4576040517f08c379a00000000000000000000000000000000000000000000000000000000081526004016108eb90612a4a565b60405180910390fd5b60006108fe61190d565b905061090e818787878787611915565b60005b8451811015610b14576000858281518110610955577f4e487b7100000000000000000000000000000000000000000000000000000000600052603260045260246000fd5b60200260200101519050600085838151811061099a577f4e487b7100000000000000000000000000000000000000000000000000000000600052603260045260246000fd5b60200260200101519050600080600084815260200190815260200160002060008b73ffffffffffffffffffffffffffffffffffffffff1673ffffffffffffffffffffffffffffffffffffffff16815260200190815260200160002054905081811015610a3b576040517f08c379a0000000000000000000000000000000000000000000000000000000008152600401610a3290612a6a565b60405180910390fd5b8181610a479190612dfc565b60008085815260200190815260200160002060008c73ffffffffffffffffffffffffffffffffffffffff1673ffffffffffffffffffffffffffffffffffffffff168152602001908152602001600020819055508160008085815260200190815260200160002060008b73ffffffffffffffffffffffffffffffffffffffff1673ffffffffffffffffffffffffffffffffffffffff1681526020019081526020016000206000828254610af99190612d1b565b9250508190555050505080610b0d90612f49565b9050610911565b508473ffffffffffffffffffffffffffffffffffffffff168673ffffffffffffffffffffffffffffffffffffffff168273ffffffffffffffffffffffffffffffffffffffff167f4a39dc06d4c0dbc64b70af90fd698a233a518aa5d07e595d983b8c0526c8f7fb8787604051610b8b9291906128dc565b60405180910390a4610ba181878787878761191d565b505050505050565b600360009054906101000a900473ffffffffffffffffffffffffffffffffffffffff1673ffffffffffffffffffffffffffffffffffffffff163373ffffffffffffffffffffffffffffffffffffffff1614610c0357600080fd5b3073ffffffffffffffffffffffffffffffffffffffff166108fc479081150290604051600060405180830381858888f19350505050158015610c49573d6000803e3d6000fd5b50565b60608151835114610c92576040517f08c379a0000000000000000000000000000000000000000000000000000000008152600401610c8990612aaa565b60405180910390fd5b6000835167ffffffffffffffff811115610cd5577f4e487b7100000000000000000000000000000000000000000000000000000000600052604160045260246000fd5b604051908082528060200260200182016040528015610d035781602001602082028036833780820191505090505b50905060005b8451811015610df257610d9c858281518110610d4e577f4e487b7100000000000000000000000000000000000000000000000000000000600052603260045260246000fd5b6020026020010151858381518110610d8f577f4e487b7100000000000000000000000000000000000000000000000000000000600052603260045260246000fd5b6020026020010151610388565b828281518110610dd5577f4e487b7100000000000000000000000000000000000000000000000000000000600052603260045260246000fd5b60200260200101818152505080610deb90612f49565b9050610d09565b508091505092915050565b8173ffffffffffffffffffffffffffffffffffffffff16610e1c61190d565b73ffffffffffffffffffffffffffffffffffffffff161415610e73576040517f08c379a0000000000000000000000000000000000000000000000000000000008152600401610e6a90612a8a565b60405180910390fd5b8060016000610e8061190d565b73ffffffffffffffffffffffffffffffffffffffff1673ffffffffffffffffffffffffffffffffffffffff16815260200190815260200160002060008473ffffffffffffffffffffffffffffffffffffffff1673ffffffffffffffffffffffffffffffffffffffff16815260200190815260200160002060006101000a81548160ff0219169083151502179055508173ffffffffffffffffffffffffffffffffffffffff16610f2d61190d565b73ffffffffffffffffffffffffffffffffffffffff167f17307eab39ab6107e8899845ad3d59bd9653f200f220920489ca2b5937696c3183604051610f729190612913565b60405180910390a35050565b60006064600883610f8f9190612da2565b610f999190612d71565b9050919050565b6000600160048481548110610fde577f4e487b7100000000000000000000000000000000000000000000000000000000600052603260045260246000fd5b906000526020600020906004020160030160146101000a81548160ff02191690831515021790555060008083141561111b576110646004858154811061104d577f4e487b7100000000000000000000000000000000000000000000000000000000600052603260045260246000fd5b906000526020600020906004020160010154610f7e565b9050600560009054906101000a900473ffffffffffffffffffffffffffffffffffffffff1673ffffffffffffffffffffffffffffffffffffffff1663a9059cbb30836040518363ffffffff1660e01b81526004016110c3929190612891565b602060405180830381600087803b1580156110dd57600080fd5b505af11580156110f1573d6000803e3d6000fd5b505050506040513d601f19601f82011682018060405250810190611115919061234f565b50611172565b61116f60048581548110611158577f4e487b7100000000000000000000000000000000000000000000000000000000600052603260045260246000fd5b906000526020600020906004020160020154610f7e565b90505b7f05d025db113818ffa9ccf84c4032da01156e0109fab5b907bf43d22f8a4eb98684600486815481106111ce577f4e487b7100000000000000000000000000000000000000000000000000000000600052603260045260246000fd5b906000526020600020906004020160000160048781548110611219577f4e487b7100000000000000000000000000000000000000000000000000000000600052603260045260246000fd5b90600052602060002090600402016001015460048881548110611265577f4e487b7100000000000000000000000000000000000000000000000000000000600052603260045260246000fd5b906000526020600020906004020160020154600489815481106112b1577f4e487b7100000000000000000000000000000000000000000000000000000000600052603260045260246000fd5b906000526020600020906004020160030160009054906101000a900473ffffffffffffffffffffffffffffffffffffffff1660048a8154811061131d577f4e487b7100000000000000000000000000000000000000000000000000000000600052603260045260246000fd5b906000526020600020906004020160030160149054906101000a900460ff1660405161134e96959493929190612b25565b60405180910390a1600191505092915050565b6000600160008473ffffffffffffffffffffffffffffffffffffffff1673ffffffffffffffffffffffffffffffffffffffff16815260200190815260200160002060008373ffffffffffffffffffffffffffffffffffffffff1673ffffffffffffffffffffffffffffffffffffffff16815260200190815260200160002060009054906101000a900460ff16905092915050565b600073ffffffffffffffffffffffffffffffffffffffff168473ffffffffffffffffffffffffffffffffffffffff161415611465576040517f08c379a000000000000000000000000000000000000000000000000000000000815260040161145c90612a2a565b60405180910390fd5b61146d61190d565b73ffffffffffffffffffffffffffffffffffffffff168573ffffffffffffffffffffffffffffffffffffffff1614806114b357506114b2856114ad61190d565b611361565b5b6114f2576040517f08c379a00000000000000000000000000000000000000000000000000000000081526004016114e990612a0a565b60405180910390fd5b60006114fc61190d565b905061151c81878761150d88611b04565b61151688611b04565b87611915565b600080600086815260200190815260200160002060008873ffffffffffffffffffffffffffffffffffffffff1673ffffffffffffffffffffffffffffffffffffffff168152602001908152602001600020549050838110156115b3576040517f08c379a00000000000000000000000000000000000000000000000000000000081526004016115aa90612a6a565b60405180910390fd5b83816115bf9190612dfc565b60008087815260200190815260200160002060008973ffffffffffffffffffffffffffffffffffffffff1673ffffffffffffffffffffffffffffffffffffffff168152602001908152602001600020819055508360008087815260200190815260200160002060008873ffffffffffffffffffffffffffffffffffffffff1673ffffffffffffffffffffffffffffffffffffffff16815260200190815260200160002060008282546116719190612d1b565b925050819055508573ffffffffffffffffffffffffffffffffffffffff168773ffffffffffffffffffffffffffffffffffffffff168373ffffffffffffffffffffffffffffffffffffffff167fc3d58168c5ae7397731d063d5bbf3d657854427343f4c083240f7aacaa2d0f6288886040516116ee929190612b8d565b60405180910390a4611704828888888888611bca565b50505050505050565b60007f01ffc9a7000000000000000000000000000000000000000000000000000000007bffffffffffffffffffffffffffffffffffffffffffffffffffffffff1916827bffffffffffffffffffffffffffffffffffffffffffffffffffffffff1916149050919050565b600073ffffffffffffffffffffffffffffffffffffffff168473ffffffffffffffffffffffffffffffffffffffff1614156117e7576040517f08c379a00000000000000000000000000000000000000000000000000000000081526004016117de90612aea565b60405180910390fd5b60006117f161190d565b90506118128160008761180388611b04565b61180c88611b04565b87611915565b8260008086815260200190815260200160002060008773ffffffffffffffffffffffffffffffffffffffff1673ffffffffffffffffffffffffffffffffffffffff16815260200190815260200160002060008282546118719190612d1b565b925050819055508473ffffffffffffffffffffffffffffffffffffffff16600073ffffffffffffffffffffffffffffffffffffffff168273ffffffffffffffffffffffffffffffffffffffff167fc3d58168c5ae7397731d063d5bbf3d657854427343f4c083240f7aacaa2d0f6287876040516118ef929190612b8d565b60405180910390a461190681600087878787611bca565b5050505050565b600033905090565b505050505050565b61193c8473ffffffffffffffffffffffffffffffffffffffff16611db1565b15611afc578373ffffffffffffffffffffffffffffffffffffffff1663bc197c8187878686866040518663ffffffff1660e01b81526004016119829594939291906127cf565b602060405180830381600087803b15801561199c57600080fd5b505af19250505080156119cd57506040513d601f19601f820116820180604052508101906119ca91906123a1565b60015b611a73576119d961304e565b806308c379a01415611a3657506119ee6133f3565b806119f95750611a38565b806040517f08c379a0000000000000000000000000000000000000000000000000000000008152600401611a2d919061292e565b60405180910390fd5b505b6040517f08c379a0000000000000000000000000000000000000000000000000000000008152600401611a6a906129aa565b60405180910390fd5b63bc197c8160e01b7bffffffffffffffffffffffffffffffffffffffffffffffffffffffff1916817bffffffffffffffffffffffffffffffffffffffffffffffffffffffff191614611afa576040517f08c379a0000000000000000000000000000000000000000000000000000000008152600401611af1906129ca565b60405180910390fd5b505b505050505050565b60606000600167ffffffffffffffff811115611b49577f4e487b7100000000000000000000000000000000000000000000000000000000600052604160045260246000fd5b604051908082528060200260200182016040528015611b775781602001602082028036833780820191505090505b5090508281600081518110611bb5577f4e487b7100000000000000000000000000000000000000000000000000000000600052603260045260246000fd5b60200260200101818152505080915050919050565b611be98473ffffffffffffffffffffffffffffffffffffffff16611db1565b15611da9578373ffffffffffffffffffffffffffffffffffffffff1663f23a6e6187878686866040518663ffffffff1660e01b8152600401611c2f959493929190612837565b602060405180830381600087803b158015611c4957600080fd5b505af1925050508015611c7a57506040513d601f19601f82011682018060405250810190611c7791906123a1565b60015b611d2057611c8661304e565b806308c379a01415611ce35750611c9b6133f3565b80611ca65750611ce5565b806040517f08c379a0000000000000000000000000000000000000000000000000000000008152600401611cda919061292e565b60405180910390fd5b505b6040517f08c379a0000000000000000000000000000000000000000000000000000000008152600401611d17906129aa565b60405180910390fd5b63f23a6e6160e01b7bffffffffffffffffffffffffffffffffffffffffffffffffffffffff1916817bffffffffffffffffffffffffffffffffffffffffffffffffffffffff191614611da7576040517f08c379a0000000000000000000000000000000000000000000000000000000008152600401611d9e906129ca565b60405180910390fd5b505b505050505050565b600080823b905060008111915050919050565b828054611dd090612ee6565b90600052602060002090601f016020900481019282611df25760008555611e39565b82601f10611e0b57805160ff1916838001178555611e39565b82800160010185558215611e39579182015b82811115611e38578251825591602001919060010190611e1d565b5b509050611e469190611e4a565b5090565b5b80821115611e63576000816000905550600101611e4b565b5090565b6000611e7a611e7584612bdb565b612bb6565b90508083825260208201905082856020860282011115611e9957600080fd5b60005b85811015611ec95781611eaf8882611fbb565b845260208401935060208301925050600181019050611e9c565b5050509392505050565b6000611ee6611ee184612c07565b612bb6565b90508083825260208201905082856020860282011115611f0557600080fd5b60005b85811015611f355781611f1b88826120cc565b845260208401935060208301925050600181019050611f08565b5050509392505050565b6000611f52611f4d84612c33565b612bb6565b905082815260208101848484011115611f6a57600080fd5b611f75848285612ea4565b509392505050565b6000611f90611f8b84612c64565b612bb6565b905082815260208101848484011115611fa857600080fd5b611fb3848285612ea4565b509392505050565b600081359050611fca81613489565b92915050565b600082601f830112611fe157600080fd5b8135611ff1848260208601611e67565b91505092915050565b600082601f83011261200b57600080fd5b813561201b848260208601611ed3565b91505092915050565b600081359050612033816134a0565b92915050565b600081519050612048816134a0565b92915050565b60008135905061205d816134b7565b92915050565b600081519050612072816134b7565b92915050565b600082601f83011261208957600080fd5b8135612099848260208601611f3f565b91505092915050565b600082601f8301126120b357600080fd5b81356120c3848260208601611f7d565b91505092915050565b6000813590506120db816134ce565b92915050565b600080604083850312156120f457600080fd5b600061210285828601611fbb565b925050602061211385828601611fbb565b9150509250929050565b600080600080600060a0868803121561213557600080fd5b600061214388828901611fbb565b955050602061215488828901611fbb565b945050604086013567ffffffffffffffff81111561217157600080fd5b61217d88828901611ffa565b935050606086013567ffffffffffffffff81111561219a57600080fd5b6121a688828901611ffa565b925050608086013567ffffffffffffffff8111156121c357600080fd5b6121cf88828901612078565b9150509295509295909350565b600080600080600060a086880312156121f457600080fd5b600061220288828901611fbb565b955050602061221388828901611fbb565b9450506040612224888289016120cc565b9350506060612235888289016120cc565b925050608086013567ffffffffffffffff81111561225257600080fd5b61225e88828901612078565b9150509295509295909350565b6000806040838503121561227e57600080fd5b600061228c85828601611fbb565b925050602061229d85828601612024565b9150509250929050565b600080604083850312156122ba57600080fd5b60006122c885828601611fbb565b92505060206122d9858286016120cc565b9150509250929050565b600080604083850312156122f657600080fd5b600083013567ffffffffffffffff81111561231057600080fd5b61231c85828601611fd0565b925050602083013567ffffffffffffffff81111561233957600080fd5b61234585828601611ffa565b9150509250929050565b60006020828403121561236157600080fd5b600061236f84828501612039565b91505092915050565b60006020828403121561238a57600080fd5b60006123988482850161204e565b91505092915050565b6000602082840312156123b357600080fd5b60006123c184828501612063565b91505092915050565b600080600080608085870312156123e057600080fd5b600085013567ffffffffffffffff8111156123fa57600080fd5b612406878288016120a2565b9450506020612417878288016120cc565b9350506040612428878288016120cc565b9250506060612439878288016120cc565b91505092959194509250565b60006020828403121561245757600080fd5b6000612465848285016120cc565b91505092915050565b6000806040838503121561248157600080fd5b600061248f858286016120cc565b92505060206124a0858286016120cc565b9150509250929050565b60006124b683836127b1565b60208301905092915050565b6124cb81612e30565b82525050565b60006124dc82612cba565b6124e68185612ce8565b93506124f183612c95565b8060005b8381101561252257815161250988826124aa565b975061251483612cdb565b9250506001810190506124f5565b5085935050505092915050565b61253881612e42565b82525050565b600061254982612cc5565b6125538185612cf9565b9350612563818560208601612eb3565b61256c81613070565b840191505092915050565b600061258282612cd0565b61258c8185612d0a565b935061259c818560208601612eb3565b6125a581613070565b840191505092915050565b600081546125bd81612ee6565b6125c78186612d0a565b945060018216600081146125e257600181146125f457612627565b60ff1983168652602086019350612627565b6125fd85612ca5565b60005b8381101561261f57815481890152600182019150602081019050612600565b808801955050505b50505092915050565b600061263d603483612d0a565b91506126488261308e565b604082019050919050565b6000612660602883612d0a565b915061266b826130dd565b604082019050919050565b6000612683602b83612d0a565b915061268e8261312c565b604082019050919050565b60006126a6602983612d0a565b91506126b18261317b565b604082019050919050565b60006126c9602583612d0a565b91506126d4826131ca565b604082019050919050565b60006126ec603283612d0a565b91506126f782613219565b604082019050919050565b600061270f602a83612d0a565b915061271a82613268565b604082019050919050565b6000612732602983612d0a565b915061273d826132b7565b604082019050919050565b6000612755602983612d0a565b915061276082613306565b604082019050919050565b6000612778602883612d0a565b915061278382613355565b604082019050919050565b600061279b602183612d0a565b91506127a6826133a4565b604082019050919050565b6127ba81612e9a565b82525050565b6127c981612e9a565b82525050565b600060a0820190506127e460008301886124c2565b6127f160208301876124c2565b818103604083015261280381866124d1565b9050818103606083015261281781856124d1565b9050818103608083015261282b818461253e565b90509695505050505050565b600060a08201905061284c60008301886124c2565b61285960208301876124c2565b61286660408301866127c0565b61287360608301856127c0565b8181036080830152612885818461253e565b90509695505050505050565b60006040820190506128a660008301856124c2565b6128b360208301846127c0565b9392505050565b600060208201905081810360008301526128d481846124d1565b905092915050565b600060408201905081810360008301526128f681856124d1565b9050818103602083015261290a81846124d1565b90509392505050565b6000602082019050612928600083018461252f565b92915050565b600060208201905081810360008301526129488184612577565b905092915050565b600060a082019050818103600083015261296a8188612577565b905061297960208301876127c0565b61298660408301866127c0565b61299360608301856124c2565b6129a0608083018461252f565b9695505050505050565b600060208201905081810360008301526129c381612630565b9050919050565b600060208201905081810360008301526129e381612653565b9050919050565b60006020820190508181036000830152612a0381612676565b9050919050565b60006020820190508181036000830152612a2381612699565b9050919050565b60006020820190508181036000830152612a43816126bc565b9050919050565b60006020820190508181036000830152612a63816126df565b9050919050565b60006020820190508181036000830152612a8381612702565b9050919050565b60006020820190508181036000830152612aa381612725565b9050919050565b60006020820190508181036000830152612ac381612748565b9050919050565b60006020820190508181036000830152612ae38161276b565b9050919050565b60006020820190508181036000830152612b038161278e565b9050919050565b6000602082019050612b1f60008301846127c0565b92915050565b600060c082019050612b3a60008301896127c0565b8181036020830152612b4c81886125b0565b9050612b5b60408301876127c0565b612b6860608301866127c0565b612b7560808301856124c2565b612b8260a083018461252f565b979650505050505050565b6000604082019050612ba260008301856127c0565b612baf60208301846127c0565b9392505050565b6000612bc0612bd1565b9050612bcc8282612f18565b919050565b6000604051905090565b600067ffffffffffffffff821115612bf657612bf561301f565b5b602082029050602081019050919050565b600067ffffffffffffffff821115612c2257612c2161301f565b5b602082029050602081019050919050565b600067ffffffffffffffff821115612c4e57612c4d61301f565b5b612c5782613070565b9050602081019050919050565b600067ffffffffffffffff821115612c7f57612c7e61301f565b5b612c8882613070565b9050602081019050919050565b6000819050602082019050919050565b60008190508160005260206000209050919050565b600081519050919050565b600081519050919050565b600081519050919050565b6000602082019050919050565b600082825260208201905092915050565b600082825260208201905092915050565b600082825260208201905092915050565b6000612d2682612e9a565b9150612d3183612e9a565b9250827fffffffffffffffffffffffffffffffffffffffffffffffffffffffffffffffff03821115612d6657612d65612f92565b5b828201905092915050565b6000612d7c82612e9a565b9150612d8783612e9a565b925082612d9757612d96612fc1565b5b828204905092915050565b6000612dad82612e9a565b9150612db883612e9a565b9250817fffffffffffffffffffffffffffffffffffffffffffffffffffffffffffffffff0483118215151615612df157612df0612f92565b5b828202905092915050565b6000612e0782612e9a565b9150612e1283612e9a565b925082821015612e2557612e24612f92565b5b828203905092915050565b6000612e3b82612e7a565b9050919050565b60008115159050919050565b60007fffffffff0000000000000000000000000000000000000000000000000000000082169050919050565b600073ffffffffffffffffffffffffffffffffffffffff82169050919050565b6000819050919050565b82818337600083830152505050565b60005b83811015612ed1578082015181840152602081019050612eb6565b83811115612ee0576000848401525b50505050565b60006002820490506001821680612efe57607f821691505b60208210811415612f1257612f11612ff0565b5b50919050565b612f2182613070565b810181811067ffffffffffffffff82111715612f4057612f3f61301f565b5b80604052505050565b6000612f5482612e9a565b91507fffffffffffffffffffffffffffffffffffffffffffffffffffffffffffffffff821415612f8757612f86612f92565b5b600182019050919050565b7f4e487b7100000000000000000000000000000000000000000000000000000000600052601160045260246000fd5b7f4e487b7100000000000000000000000000000000000000000000000000000000600052601260045260246000fd5b7f4e487b7100000000000000000000000000000000000000000000000000000000600052602260045260246000fd5b7f4e487b7100000000000000000000000000000000000000000000000000000000600052604160045260246000fd5b600060033d111561306d5760046000803e61306a600051613081565b90505b90565b6000601f19601f8301169050919050565b60008160e01c9050919050565b7f455243313135353a207472616e7366657220746f206e6f6e204552433131353560008201527f526563656976657220696d706c656d656e746572000000000000000000000000602082015250565b7f455243313135353a204552433131353552656365697665722072656a6563746560008201527f6420746f6b656e73000000000000000000000000000000000000000000000000602082015250565b7f455243313135353a2062616c616e636520717565727920666f7220746865207a60008201527f65726f2061646472657373000000000000000000000000000000000000000000602082015250565b7f455243313135353a2063616c6c6572206973206e6f74206f776e6572206e6f7260008201527f20617070726f7665640000000000000000000000000000000000000000000000602082015250565b7f455243313135353a207472616e7366657220746f20746865207a65726f20616460008201527f6472657373000000000000000000000000000000000000000000000000000000602082015250565b7f455243313135353a207472616e736665722063616c6c6572206973206e6f742060008201527f6f776e6572206e6f7220617070726f7665640000000000000000000000000000602082015250565b7f455243313135353a20696e73756666696369656e742062616c616e636520666f60008201527f72207472616e7366657200000000000000000000000000000000000000000000602082015250565b7f455243313135353a2073657474696e6720617070726f76616c2073746174757360008201527f20666f722073656c660000000000000000000000000000000000000000000000602082015250565b7f455243313135353a206163636f756e747320616e6420696473206c656e67746860008201527f206d69736d617463680000000000000000000000000000000000000000000000602082015250565b7f455243313135353a2069647320616e6420616d6f756e7473206c656e6774682060008201527f6d69736d61746368000000000000000000000000000000000000000000000000602082015250565b7f455243313135353a206d696e7420746f20746865207a65726f2061646472657360008201527f7300000000000000000000000000000000000000000000000000000000000000602082015250565b600060443d101561340357613486565b61340b612bd1565b60043d036004823e80513d602482011167ffffffffffffffff82111715613433575050613486565b808201805167ffffffffffffffff8111156134515750505050613486565b80602083010160043d03850181111561346e575050505050613486565b61347d82602001850186612f18565b82955050505050505b90565b61349281612e30565b811461349d57600080fd5b50565b6134a981612e42565b81146134b457600080fd5b50565b6134c081612e4e565b81146134cb57600080fd5b50565b6134d781612e9a565b81146134e257600080fd5b5056fea264697066735822122071bd8d4788370b428671a60047ebd670ff02bb121b456e4fa845e2c830ef82cb64736f6c63430008040033608060405234801561001057600080fd5b50620186a06001819055506001546000808073ffffffffffffffffffffffffffffffffffffffff1673ffffffffffffffffffffffffffffffffffffffff168152602001908152602001600020819055506104a28061006f6000396000f3fe608060405234801561001057600080fd5b50600436106100415760003560e01c80636c197ff5146100465780636ebcf60714610076578063a9059cbb146100a6575b600080fd5b610060600480360381019061005b91906102ad565b6100d6565b60405161006d9190610307565b60405180910390f35b610090600480360381019061008b9190610284565b61018c565b60405161009d9190610322565b60405180910390f35b6100c060048036038101906100bb91906102ad565b6101a4565b6040516100cd9190610307565b60405180910390f35b6000816000808073ffffffffffffffffffffffffffffffffffffffff1673ffffffffffffffffffffffffffffffffffffffff16815260200190815260200160002060008282546101269190610393565b92505081905550816000808573ffffffffffffffffffffffffffffffffffffffff1673ffffffffffffffffffffffffffffffffffffffff168152602001908152602001600020600082825461017b919061033d565b925050819055506001905092915050565b60006020528060005260406000206000915090505481565b6000816000803373ffffffffffffffffffffffffffffffffffffffff1673ffffffffffffffffffffffffffffffffffffffff16815260200190815260200160002060008282546101f49190610393565b92505081905550816000808573ffffffffffffffffffffffffffffffffffffffff1673ffffffffffffffffffffffffffffffffffffffff1681526020019081526020016000206000828254610249919061033d565b925050819055506001905092915050565b6000813590506102698161043e565b92915050565b60008135905061027e81610455565b92915050565b60006020828403121561029657600080fd5b60006102a48482850161025a565b91505092915050565b600080604083850312156102c057600080fd5b60006102ce8582860161025a565b92505060206102df8582860161026f565b9150509250929050565b6102f2816103d9565b82525050565b61030181610405565b82525050565b600060208201905061031c60008301846102e9565b92915050565b600060208201905061033760008301846102f8565b92915050565b600061034882610405565b915061035383610405565b9250827fffffffffffffffffffffffffffffffffffffffffffffffffffffffffffffffff038211156103885761038761040f565b5b828201905092915050565b600061039e82610405565b91506103a983610405565b9250828210156103bc576103bb61040f565b5b828203905092915050565b60006103d2826103e5565b9050919050565b60008115159050919050565b600073ffffffffffffffffffffffffffffffffffffffff82169050919050565b6000819050919050565b7f4e487b7100000000000000000000000000000000000000000000000000000000600052601160045260246000fd5b610447816103c7565b811461045257600080fd5b50565b61045e81610405565b811461046957600080fd5b5056fea264697066735822122074e1a7be58542cd046509ef13db4c08877597f4c6b93e62f2d98351a15b2eedc64736f6c63430008040033",
  "immutableReferences": {},
  "source": "// SPDX-License-Identifier: MIT\npragma solidity ^0.8.0;\n\nimport '@openzeppelin/contracts/token/ERC1155/ERC1155.sol';\nimport './AfenToken.sol';\n// deployed contract address\n// 0xD434fc96112d3dB4B676aFB99b9D67dE73A34638\n\ncontract AfenNft is ERC1155{    \n\n\taddress owner;\n\tstruct Nft {\n\t\tstring _hash;\n\t\tuint _aprice;\n\t\tuint _bprice;\n\t\taddress _creator;\n\t\tbool _sell; // True: Be going to sell.       False: Not sell\n\t}\n\tNft[] nft_list;\n\tAfenToken atoken = new AfenToken();\n\n\tevent Minted(string _hash, uint _aprice, uint _bprice, address _creator, bool _sell);\n\tevent AddedSell(uint _id, string _hash, uint _aprice, uint _bprice, address _creator, bool _sell);\n\tconstructor() ERC1155(\"\") {}\n\n\tmodifier onlyOwner {\n\t\trequire(msg.sender == owner);\n\t\t_;\n\t}\n\n\treceive() payable external {}\n\t\n\tfunction withdraw() onlyOwner public {\n\t\tpayable(this).transfer(address(this).balance);\n\t}\n\n\tfunction mint(string memory _hash, uint _aprice, uint _bprice, uint _amount) public returns (bool){\n\t\tuint id = nft_list.length;\n\t\t_mint(msg.sender, id, _amount, \"\");\n\t\tNft memory temp = Nft(_hash, _aprice, _bprice, msg.sender, false);\n\t\tnft_list.push(temp);\n\t\temit Minted(_hash, _aprice, _bprice, msg.sender, false);\n\t\treturn true;\n\t}\n\tfunction calc_fee(uint _amount) public pure returns (uint) {\n\t\treturn _amount * 8 / 100;\n\t}\n\tfunction sell(uint _id, uint token_kind) public returns (bool) {\n\t\tnft_list[_id]._sell = true;\n\t\tuint list_fee;\n\t\tif(token_kind == 0) {\n\t\t\tlist_fee = calc_fee(nft_list[_id]._aprice);\n\t\t\tatoken.transfer(address(this), list_fee);\t\n\t\t} else {\n\t\t\tlist_fee = calc_fee(nft_list[_id]._bprice);\n\t\t\t\n\t\t}\n\t\temit AddedSell(_id, nft_list[_id]._hash, nft_list[_id]._aprice, nft_list[_id]._bprice, nft_list[_id]._creator, nft_list[_id]._sell);\n\t\treturn true;\n\t}\n\n\tfunction cancelSell(uint _id) public returns (bool) {\n\t\tnft_list[_id]._sell = false;\n\t\treturn true;\n\t}\n}\n",
  "sourcePath": "/home/oncemore/BlockchainWork/afen/contract/contracts/Mint.sol",
  "compiler": {
    "name": "solc",
    "version": "0.8.4+commit.c7e474f2.Emscripten.clang"
  },
  "schemaVersion": "3.3.4",
  "updatedAt": "2021-05-31T08:31:47.037Z",
  "networkType": "ethereum",
  "devdoc": {
    "kind": "dev",
    "methods": {
      "balanceOf(address,uint256)": {
        "details": "See {IERC1155-balanceOf}. Requirements: - `account` cannot be the zero address."
      },
      "balanceOfBatch(address[],uint256[])": {
        "details": "See {IERC1155-balanceOfBatch}. Requirements: - `accounts` and `ids` must have the same length."
      },
      "isApprovedForAll(address,address)": {
        "details": "See {IERC1155-isApprovedForAll}."
      },
      "safeBatchTransferFrom(address,address,uint256[],uint256[],bytes)": {
        "details": "See {IERC1155-safeBatchTransferFrom}."
      },
      "safeTransferFrom(address,address,uint256,uint256,bytes)": {
        "details": "See {IERC1155-safeTransferFrom}."
      },
      "setApprovalForAll(address,bool)": {
        "details": "See {IERC1155-setApprovalForAll}."
      },
      "supportsInterface(bytes4)": {
        "details": "See {IERC165-supportsInterface}."
      },
      "uri(uint256)": {
        "details": "See {IERC1155MetadataURI-uri}. This implementation returns the same URI for *all* token types. It relies on the token type ID substitution mechanism https://eips.ethereum.org/EIPS/eip-1155#metadata[defined in the EIP]. Clients calling this function must replace the `\\{id\\}` substring with the actual token type ID."
      }
    },
    "version": 1
  },
  "userdoc": {
    "kind": "user",
    "methods": {},
    "version": 1
  }
}