{
  "contractName": "FakeAfenToken",
  "abi": [
    {
      "inputs": [],
      "stateMutability": "nonpayable",
      "type": "constructor"
    },
    {
      "anonymous": false,
      "inputs": [
        {
          "indexed": false,
          "internalType": "address",
          "name": "_to",
          "type": "address"
        },
        {
          "indexed": false,
          "internalType": "uint256",
          "name": "_balanceOf",
          "type": "uint256"
        }
      ],
      "name": "Sold",
      "type": "event"
    },
    {
      "anonymous": false,
      "inputs": [
        {
          "indexed": false,
          "internalType": "address",
          "name": "from",
          "type": "address"
        },
        {
          "indexed": false,
          "internalType": "uint256",
          "name": "balanceFrom",
          "type": "uint256"
        },
        {
          "indexed": false,
          "internalType": "address",
          "name": "to",
          "type": "address"
        },
        {
          "indexed": false,
          "internalType": "uint256",
          "name": "balanceTo",
          "type": "uint256"
        }
      ],
      "name": "Transfered",
      "type": "event"
    },
    {
      "inputs": [
        {
          "internalType": "address",
          "name": "_to",
          "type": "address"
        },
        {
          "internalType": "uint256",
          "name": "_amount",
          "type": "uint256"
        }
      ],
      "name": "sell",
      "outputs": [],
      "stateMutability": "nonpayable",
      "type": "function"
    },
    {
      "inputs": [
        {
          "internalType": "address",
          "name": "_to",
          "type": "address"
        },
        {
          "internalType": "uint256",
          "name": "_amount",
          "type": "uint256"
        }
      ],
      "name": "transfer",
      "outputs": [],
      "stateMutability": "nonpayable",
      "type": "function"
    },
    {
      "inputs": [
        {
          "internalType": "address",
          "name": "_from",
          "type": "address"
        },
        {
          "internalType": "address",
          "name": "_to",
          "type": "address"
        },
        {
          "internalType": "uint256",
          "name": "_amount",
          "type": "uint256"
        }
      ],
      "name": "safeTransfer",
      "outputs": [
        {
          "internalType": "uint256",
          "name": "amount",
          "type": "uint256"
        },
        {
          "internalType": "address",
          "name": "from",
          "type": "address"
        },
        {
          "internalType": "uint256",
          "name": "bal_f",
          "type": "uint256"
        },
        {
          "internalType": "address",
          "name": "to",
          "type": "address"
        },
        {
          "internalType": "uint256",
          "name": "bal_t",
          "type": "uint256"
        }
      ],
      "stateMutability": "nonpayable",
      "type": "function"
    },
    {
      "inputs": [
        {
          "internalType": "address",
          "name": "_addr",
          "type": "address"
        }
      ],
      "name": "balanceOf",
      "outputs": [
        {
          "internalType": "uint256",
          "name": "",
          "type": "uint256"
        }
      ],
      "stateMutability": "view",
      "type": "function",
      "constant": true
    }
  ],
  "bytecode": "0x608060405234801561001057600080fd5b50620186a0600081905550600054600160008073ffffffffffffffffffffffffffffffffffffffff1673ffffffffffffffffffffffffffffffffffffffff16815260200190815260200160002081905550610901806100706000396000f3fe608060405234801561001057600080fd5b506004361061004c5760003560e01c80636c197ff51461005157806370a082311461006d578063a9059cbb1461009d578063d1660f99146100b9575b600080fd5b61006b60048036038101906100669190610672565b6100ed565b005b610087600480360381019061008291906105fa565b610215565b604051610094919061073a565b60405180910390f35b6100b760048036038101906100b29190610672565b61025e565b005b6100d360048036038101906100ce9190610623565b6103c9565b6040516100e4959493929190610755565b60405180910390f35b80600160008073ffffffffffffffffffffffffffffffffffffffff1673ffffffffffffffffffffffffffffffffffffffff168152602001908152602001600020600082825461013c91906107fe565b9250508190555080600160008473ffffffffffffffffffffffffffffffffffffffff1673ffffffffffffffffffffffffffffffffffffffff168152602001908152602001600020600082825461019291906107a8565b925050819055507fae92ab4b6f8f401ead768d3273e6bb937a13e39827d19c6376e8fd4512a05d9a82600160008573ffffffffffffffffffffffffffffffffffffffff1673ffffffffffffffffffffffffffffffffffffffff168152602001908152602001600020546040516102099291906106cc565b60405180910390a15050565b6000600160008373ffffffffffffffffffffffffffffffffffffffff1673ffffffffffffffffffffffffffffffffffffffff168152602001908152602001600020549050919050565b80600160003373ffffffffffffffffffffffffffffffffffffffff1673ffffffffffffffffffffffffffffffffffffffff16815260200190815260200160002060008282546102ad91906107fe565b9250508190555080600160008473ffffffffffffffffffffffffffffffffffffffff1673ffffffffffffffffffffffffffffffffffffffff168152602001908152602001600020600082825461030391906107a8565b925050819055507f2bc6cfa90e9c9ca69a7a281d876ef2244b8d5201da959f82a292c994843bc09c33600160003373ffffffffffffffffffffffffffffffffffffffff1673ffffffffffffffffffffffffffffffffffffffff1681526020019081526020016000205484600160008773ffffffffffffffffffffffffffffffffffffffff1673ffffffffffffffffffffffffffffffffffffffff168152602001908152602001600020546040516103bd94939291906106f5565b60405180910390a15050565b600080600080600085600160008a73ffffffffffffffffffffffffffffffffffffffff1673ffffffffffffffffffffffffffffffffffffffff168152602001908152602001600020600082825461042091906107fe565b9250508190555085600160008973ffffffffffffffffffffffffffffffffffffffff1673ffffffffffffffffffffffffffffffffffffffff168152602001908152602001600020600082825461047691906107a8565b925050819055507f2bc6cfa90e9c9ca69a7a281d876ef2244b8d5201da959f82a292c994843bc09c88600160008b73ffffffffffffffffffffffffffffffffffffffff1673ffffffffffffffffffffffffffffffffffffffff1681526020019081526020016000205489600160008c73ffffffffffffffffffffffffffffffffffffffff1673ffffffffffffffffffffffffffffffffffffffff1681526020019081526020016000205460405161053094939291906106f5565b60405180910390a18588600160008b73ffffffffffffffffffffffffffffffffffffffff1673ffffffffffffffffffffffffffffffffffffffff1681526020019081526020016000205489600160008c73ffffffffffffffffffffffffffffffffffffffff1673ffffffffffffffffffffffffffffffffffffffff1681526020019081526020016000205494509450945094509450939792965093509350565b6000813590506105df8161089d565b92915050565b6000813590506105f4816108b4565b92915050565b60006020828403121561060c57600080fd5b600061061a848285016105d0565b91505092915050565b60008060006060848603121561063857600080fd5b6000610646868287016105d0565b9350506020610657868287016105d0565b9250506040610668868287016105e5565b9150509250925092565b6000806040838503121561068557600080fd5b6000610693858286016105d0565b92505060206106a4858286016105e5565b9150509250929050565b6106b781610832565b82525050565b6106c681610864565b82525050565b60006040820190506106e160008301856106ae565b6106ee60208301846106bd565b9392505050565b600060808201905061070a60008301876106ae565b61071760208301866106bd565b61072460408301856106ae565b61073160608301846106bd565b95945050505050565b600060208201905061074f60008301846106bd565b92915050565b600060a08201905061076a60008301886106bd565b61077760208301876106ae565b61078460408301866106bd565b61079160608301856106ae565b61079e60808301846106bd565b9695505050505050565b60006107b382610864565b91506107be83610864565b9250827fffffffffffffffffffffffffffffffffffffffffffffffffffffffffffffffff038211156107f3576107f261086e565b5b828201905092915050565b600061080982610864565b915061081483610864565b9250828210156108275761082661086e565b5b828203905092915050565b600061083d82610844565b9050919050565b600073ffffffffffffffffffffffffffffffffffffffff82169050919050565b6000819050919050565b7f4e487b7100000000000000000000000000000000000000000000000000000000600052601160045260246000fd5b6108a681610832565b81146108b157600080fd5b50565b6108bd81610864565b81146108c857600080fd5b5056fea2646970667358221220caf889ecd65a9cd84b5dcf659908444eddf62553b8c22b663c62f437133791ce64736f6c63430008040033",
  "immutableReferences": {},
  "source": "// SPDX-License-Identifier: MIT\npragma solidity ^0.8.0;\n\ncontract FakeAfenToken {\n    uint _total;\n    mapping(address => uint) _balances;\n\n    event Sold(address _to, uint _balanceOf);\n    event Transfered(address from, uint balanceFrom, address to, uint balanceTo);\n    constructor() {\n        _total = 100000;\n        _balances[address(0)] = _total;\n    }\n\n    function sell(address _to, uint _amount) public{\n        _balances[address(0)] -= _amount;\n        _balances[_to] += _amount;\n        emit Sold(_to, _balances[_to]);\n    }\n\n    function transfer(address _to, uint _amount) public {\n        _balances[msg.sender] -= _amount;\n        _balances[_to] += _amount;\n        emit Transfered(msg.sender, _balances[msg.sender], _to, _balances[_to]);\n    }\n    function safeTransfer(address _from, address _to, uint _amount) public returns(uint amount, address from, uint bal_f, address to, uint bal_t){\n        _balances[_from] -= _amount;\n        _balances[_to] += _amount;\n        emit Transfered(_from, _balances[_from], _to, _balances[_to]);\n        return (\n            _amount, \n            _from,\n            _balances[_from],\n            _to,\n            _balances[_to]\n        );\n    }\n    function balanceOf(address _addr) public view returns (uint) {\n        return _balances[_addr];\n    }\n}",
  "sourcePath": "/home/oncemore/BlockchainWork/afen/contract/contracts/FakeAfenToken.sol",
  "compiler": {
    "name": "solc",
    "version": "0.8.4+commit.c7e474f2.Emscripten.clang"
  },
  "schemaVersion": "3.3.4",
  "updatedAt": "2021-06-08T15:32:46.183Z",
  "networkType": "ethereum",
  "devdoc": {
    "kind": "dev",
    "methods": {},
    "version": 1
  },
  "userdoc": {
    "kind": "user",
    "methods": {},
    "version": 1
  }
}