{
  "contractName": "Main",
  "abi": [
    {
      "inputs": [],
      "stateMutability": "nonpayable",
      "type": "constructor"
    },
    {
      "anonymous": false,
      "inputs": [
        {
          "indexed": true,
          "internalType": "address",
          "name": "account",
          "type": "address"
        },
        {
          "indexed": true,
          "internalType": "address",
          "name": "operator",
          "type": "address"
        },
        {
          "indexed": false,
          "internalType": "bool",
          "name": "approved",
          "type": "bool"
        }
      ],
      "name": "ApprovalForAll",
      "type": "event"
    },
    {
      "anonymous": false,
      "inputs": [
        {
          "indexed": false,
          "internalType": "string",
          "name": "_hash",
          "type": "string"
        },
        {
          "indexed": false,
          "internalType": "uint256",
          "name": "aprice",
          "type": "uint256"
        },
        {
          "indexed": false,
          "internalType": "uint256",
          "name": "bprice",
          "type": "uint256"
        },
        {
          "indexed": false,
          "internalType": "uint256",
          "name": "amount",
          "type": "uint256"
        },
        {
          "indexed": false,
          "internalType": "address",
          "name": "creator",
          "type": "address"
        }
      ],
      "name": "Minted",
      "type": "event"
    },
    {
      "anonymous": false,
      "inputs": [
        {
          "indexed": false,
          "internalType": "uint256",
          "name": "length",
          "type": "uint256"
        }
      ],
      "name": "Minted_nft_len",
      "type": "event"
    },
    {
      "anonymous": false,
      "inputs": [
        {
          "indexed": true,
          "internalType": "address",
          "name": "previousOwner",
          "type": "address"
        },
        {
          "indexed": true,
          "internalType": "address",
          "name": "newOwner",
          "type": "address"
        }
      ],
      "name": "OwnershipTransferred",
      "type": "event"
    },
    {
      "anonymous": false,
      "inputs": [
        {
          "indexed": false,
          "internalType": "address",
          "name": "from",
          "type": "address"
        },
        {
          "indexed": false,
          "internalType": "uint256",
          "name": "balance",
          "type": "uint256"
        }
      ],
      "name": "SellTest",
      "type": "event"
    },
    {
      "anonymous": false,
      "inputs": [
        {
          "indexed": false,
          "internalType": "uint256",
          "name": "id",
          "type": "uint256"
        },
        {
          "indexed": false,
          "internalType": "bool",
          "name": "isSet",
          "type": "bool"
        },
        {
          "indexed": false,
          "internalType": "address",
          "name": "creator",
          "type": "address"
        },
        {
          "indexed": false,
          "internalType": "address",
          "name": "setter",
          "type": "address"
        }
      ],
      "name": "SettedSell",
      "type": "event"
    },
    {
      "anonymous": false,
      "inputs": [
        {
          "indexed": true,
          "internalType": "address",
          "name": "operator",
          "type": "address"
        },
        {
          "indexed": true,
          "internalType": "address",
          "name": "from",
          "type": "address"
        },
        {
          "indexed": true,
          "internalType": "address",
          "name": "to",
          "type": "address"
        },
        {
          "indexed": false,
          "internalType": "uint256[]",
          "name": "ids",
          "type": "uint256[]"
        },
        {
          "indexed": false,
          "internalType": "uint256[]",
          "name": "values",
          "type": "uint256[]"
        }
      ],
      "name": "TransferBatch",
      "type": "event"
    },
    {
      "anonymous": false,
      "inputs": [
        {
          "indexed": true,
          "internalType": "address",
          "name": "operator",
          "type": "address"
        },
        {
          "indexed": true,
          "internalType": "address",
          "name": "from",
          "type": "address"
        },
        {
          "indexed": true,
          "internalType": "address",
          "name": "to",
          "type": "address"
        },
        {
          "indexed": false,
          "internalType": "uint256",
          "name": "id",
          "type": "uint256"
        },
        {
          "indexed": false,
          "internalType": "uint256",
          "name": "value",
          "type": "uint256"
        }
      ],
      "name": "TransferSingle",
      "type": "event"
    },
    {
      "anonymous": false,
      "inputs": [
        {
          "indexed": false,
          "internalType": "string",
          "name": "value",
          "type": "string"
        },
        {
          "indexed": true,
          "internalType": "uint256",
          "name": "id",
          "type": "uint256"
        }
      ],
      "name": "URI",
      "type": "event"
    },
    {
      "anonymous": false,
      "inputs": [
        {
          "indexed": false,
          "internalType": "address",
          "name": "_owner",
          "type": "address"
        },
        {
          "indexed": false,
          "internalType": "uint256",
          "name": "balanceOf",
          "type": "uint256"
        }
      ],
      "name": "WithdrawAfen_Event",
      "type": "event"
    },
    {
      "anonymous": false,
      "inputs": [
        {
          "indexed": false,
          "internalType": "address",
          "name": "withdrawer",
          "type": "address"
        }
      ],
      "name": "Withdrawed",
      "type": "event"
    },
    {
      "inputs": [
        {
          "internalType": "address",
          "name": "account",
          "type": "address"
        },
        {
          "internalType": "uint256",
          "name": "id",
          "type": "uint256"
        }
      ],
      "name": "balanceOf",
      "outputs": [
        {
          "internalType": "uint256",
          "name": "",
          "type": "uint256"
        }
      ],
      "stateMutability": "view",
      "type": "function",
      "constant": true
    },
    {
      "inputs": [
        {
          "internalType": "address[]",
          "name": "accounts",
          "type": "address[]"
        },
        {
          "internalType": "uint256[]",
          "name": "ids",
          "type": "uint256[]"
        }
      ],
      "name": "balanceOfBatch",
      "outputs": [
        {
          "internalType": "uint256[]",
          "name": "",
          "type": "uint256[]"
        }
      ],
      "stateMutability": "view",
      "type": "function",
      "constant": true
    },
    {
      "inputs": [
        {
          "internalType": "address",
          "name": "account",
          "type": "address"
        },
        {
          "internalType": "address",
          "name": "operator",
          "type": "address"
        }
      ],
      "name": "isApprovedForAll",
      "outputs": [
        {
          "internalType": "bool",
          "name": "",
          "type": "bool"
        }
      ],
      "stateMutability": "view",
      "type": "function",
      "constant": true
    },
    {
      "inputs": [],
      "name": "owner",
      "outputs": [
        {
          "internalType": "address",
          "name": "",
          "type": "address"
        }
      ],
      "stateMutability": "view",
      "type": "function",
      "constant": true
    },
    {
      "inputs": [],
      "name": "renounceOwnership",
      "outputs": [],
      "stateMutability": "nonpayable",
      "type": "function"
    },
    {
      "inputs": [
        {
          "internalType": "address",
          "name": "from",
          "type": "address"
        },
        {
          "internalType": "address",
          "name": "to",
          "type": "address"
        },
        {
          "internalType": "uint256[]",
          "name": "ids",
          "type": "uint256[]"
        },
        {
          "internalType": "uint256[]",
          "name": "amounts",
          "type": "uint256[]"
        },
        {
          "internalType": "bytes",
          "name": "data",
          "type": "bytes"
        }
      ],
      "name": "safeBatchTransferFrom",
      "outputs": [],
      "stateMutability": "nonpayable",
      "type": "function"
    },
    {
      "inputs": [
        {
          "internalType": "address",
          "name": "from",
          "type": "address"
        },
        {
          "internalType": "address",
          "name": "to",
          "type": "address"
        },
        {
          "internalType": "uint256",
          "name": "id",
          "type": "uint256"
        },
        {
          "internalType": "uint256",
          "name": "amount",
          "type": "uint256"
        },
        {
          "internalType": "bytes",
          "name": "data",
          "type": "bytes"
        }
      ],
      "name": "safeTransferFrom",
      "outputs": [],
      "stateMutability": "nonpayable",
      "type": "function"
    },
    {
      "inputs": [
        {
          "internalType": "address",
          "name": "operator",
          "type": "address"
        },
        {
          "internalType": "bool",
          "name": "approved",
          "type": "bool"
        }
      ],
      "name": "setApprovalForAll",
      "outputs": [],
      "stateMutability": "nonpayable",
      "type": "function"
    },
    {
      "inputs": [
        {
          "internalType": "bytes4",
          "name": "interfaceId",
          "type": "bytes4"
        }
      ],
      "name": "supportsInterface",
      "outputs": [
        {
          "internalType": "bool",
          "name": "",
          "type": "bool"
        }
      ],
      "stateMutability": "view",
      "type": "function",
      "constant": true
    },
    {
      "inputs": [
        {
          "internalType": "address",
          "name": "newOwner",
          "type": "address"
        }
      ],
      "name": "transferOwnership",
      "outputs": [],
      "stateMutability": "nonpayable",
      "type": "function"
    },
    {
      "inputs": [
        {
          "internalType": "uint256",
          "name": "",
          "type": "uint256"
        }
      ],
      "name": "uri",
      "outputs": [
        {
          "internalType": "string",
          "name": "",
          "type": "string"
        }
      ],
      "stateMutability": "view",
      "type": "function",
      "constant": true
    },
    {
      "stateMutability": "payable",
      "type": "receive",
      "payable": true
    },
    {
      "inputs": [],
      "name": "withdrawBnb",
      "outputs": [],
      "stateMutability": "payable",
      "type": "function",
      "payable": true
    },
    {
      "inputs": [],
      "name": "withdrawAfen",
      "outputs": [],
      "stateMutability": "payable",
      "type": "function",
      "payable": true
    },
    {
      "inputs": [
        {
          "internalType": "string",
          "name": "_hash",
          "type": "string"
        },
        {
          "internalType": "uint256",
          "name": "_aprice",
          "type": "uint256"
        },
        {
          "internalType": "uint256",
          "name": "_bprice",
          "type": "uint256"
        },
        {
          "internalType": "uint256",
          "name": "_amount",
          "type": "uint256"
        }
      ],
      "name": "mint",
      "outputs": [],
      "stateMutability": "nonpayable",
      "type": "function"
    },
    {
      "inputs": [
        {
          "internalType": "uint256",
          "name": "_id",
          "type": "uint256"
        }
      ],
      "name": "get_nft",
      "outputs": [
        {
          "internalType": "string",
          "name": "",
          "type": "string"
        },
        {
          "internalType": "uint256",
          "name": "",
          "type": "uint256"
        },
        {
          "internalType": "uint256",
          "name": "",
          "type": "uint256"
        },
        {
          "internalType": "uint256",
          "name": "",
          "type": "uint256"
        },
        {
          "internalType": "address",
          "name": "",
          "type": "address"
        }
      ],
      "stateMutability": "view",
      "type": "function",
      "constant": true
    },
    {
      "inputs": [
        {
          "internalType": "uint256",
          "name": "_price",
          "type": "uint256"
        }
      ],
      "name": "calc_fee",
      "outputs": [
        {
          "internalType": "uint256",
          "name": "",
          "type": "uint256"
        }
      ],
      "stateMutability": "pure",
      "type": "function",
      "constant": true
    },
    {
      "inputs": [
        {
          "internalType": "uint256",
          "name": "_id",
          "type": "uint256"
        },
        {
          "internalType": "uint256",
          "name": "token_id",
          "type": "uint256"
        }
      ],
      "name": "set_sell",
      "outputs": [],
      "stateMutability": "nonpayable",
      "type": "function"
    }
  ],
  "bytecode": "0x60806040526040516200001290620001e7565b604051809103906000f0801580156200002f573d6000803e3d6000fd5b50600560006101000a81548173ffffffffffffffffffffffffffffffffffffffff021916908373ffffffffffffffffffffffffffffffffffffffff1602179055506040516200007e90620001f5565b604051809103906000f0801580156200009b573d6000803e3d6000fd5b50600660006101000a81548173ffffffffffffffffffffffffffffffffffffffff021916908373ffffffffffffffffffffffffffffffffffffffff160217905550348015620000e957600080fd5b50604051806020016040528060008152506200010b81620001c360201b60201c565b5060006200011e620001df60201b60201c565b905080600360006101000a81548173ffffffffffffffffffffffffffffffffffffffff021916908373ffffffffffffffffffffffffffffffffffffffff1602179055508073ffffffffffffffffffffffffffffffffffffffff16600073ffffffffffffffffffffffffffffffffffffffff167f8be0079c531659141344cd1fd0a4f28419497f9722a3daafe3b4186f6b6457e060405160405180910390a35062000318565b8060029080519060200190620001db92919062000203565b5050565b600033905090565b6109718062003e3e83390190565b61086b80620047af83390190565b8280546200021190620002b3565b90600052602060002090601f01602090048101928262000235576000855562000281565b82601f106200025057805160ff191683800117855562000281565b8280016001018555821562000281579182015b828111156200028057825182559160200191906001019062000263565b5b50905062000290919062000294565b5090565b5b80821115620002af57600081600090555060010162000295565b5090565b60006002820490506001821680620002cc57607f821691505b60208210811415620002e357620002e2620002e9565b5b50919050565b7f4e487b7100000000000000000000000000000000000000000000000000000000600052602260045260246000fd5b613b1680620003286000396000f3fe6080604052600436106101015760003560e01c8063715018a611610095578063ae7e0a7d11610064578063ae7e0a7d14610313578063c517018414610350578063e985e9c514610379578063f242432a146103b6578063f2fde38b146103df57610108565b8063715018a61461029e5780637a0b33dd146102b55780638da5cb5b146102bf578063a22cb465146102ea57610108565b80630ebac2ee116100d15780630ebac2ee146101ed5780631da0603a1461022e5780632eb2c2d6146102385780634e1273f41461026157610108565b8062fdd58e1461010d57806301ffc9a71461014a578063027a2255146101875780630e89341c146101b057610108565b3661010857005b600080fd5b34801561011957600080fd5b50610134600480360381019061012f91906128f6565b610408565b60405161014191906131b2565b60405180910390f35b34801561015657600080fd5b50610171600480360381019061016c919061299e565b6104d1565b60405161017e9190612f7b565b60405180910390f35b34801561019357600080fd5b506101ae60048036038101906101a991906129f0565b6105b3565b005b3480156101bc57600080fd5b506101d760048036038101906101d29190612a6b565b61077c565b6040516101e49190612f96565b60405180910390f35b3480156101f957600080fd5b50610214600480360381019061020f9190612a6b565b610810565b604051610225959493929190612fb8565b60405180910390f35b610236610a52565b005b34801561024457600080fd5b5061025f600480360381019061025a919061276c565b610b1d565b005b34801561026d57600080fd5b5061028860048036038101906102839190612932565b610f13565b6040516102959190612f22565b60405180910390f35b3480156102aa57600080fd5b506102b36110c4565b005b6102bd611201565b005b3480156102cb57600080fd5b506102d46114a7565b6040516102e19190612df3565b60405180910390f35b3480156102f657600080fd5b50610311600480360381019061030c91906128ba565b6114d1565b005b34801561031f57600080fd5b5061033a60048036038101906103359190612a6b565b611652565b60405161034791906131b2565b60405180910390f35b34801561035c57600080fd5b5061037760048036038101906103729190612abd565b61165d565b005b34801561038557600080fd5b506103a0600480360381019061039b9190612730565b6117db565b6040516103ad9190612f7b565b60405180910390f35b3480156103c257600080fd5b506103dd60048036038101906103d8919061282b565b61186f565b005b3480156103eb57600080fd5b5061040660048036038101906104019190612707565b611b87565b005b60008073ffffffffffffffffffffffffffffffffffffffff168373ffffffffffffffffffffffffffffffffffffffff161415610479576040517f08c379a000000000000000000000000000000000000000000000000000000000815260040161047090613052565b60405180910390fd5b60008083815260200190815260200160002060008473ffffffffffffffffffffffffffffffffffffffff1673ffffffffffffffffffffffffffffffffffffffff16815260200190815260200160002054905092915050565b60007fd9b67a26000000000000000000000000000000000000000000000000000000007bffffffffffffffffffffffffffffffffffffffffffffffffffffffff1916827bffffffffffffffffffffffffffffffffffffffffffffffffffffffff1916148061059c57507f0e89341c000000000000000000000000000000000000000000000000000000007bffffffffffffffffffffffffffffffffffffffffffffffffffffffff1916827bffffffffffffffffffffffffffffffffffffffffffffffffffffffff1916145b806105ac57506105ab82611d33565b5b9050919050565b600060048054905090506105d833828460405180602001604052806000815250611d9d565b60006040518060c001604052808781526020018681526020018581526020018481526020013373ffffffffffffffffffffffffffffffffffffffff1681526020016000151581525090506004819080600181540180825580915050600190039060005260206000209060050201600090919091909150600082015181600001908051906020019061066a9291906123ea565b5060208201518160010155604082015181600201556060820151816003015560808201518160040160006101000a81548173ffffffffffffffffffffffffffffffffffffffff021916908373ffffffffffffffffffffffffffffffffffffffff16021790555060a08201518160040160146101000a81548160ff02191690831515021790555050507fe4c9864ec89329afd247f9b9340e26b88eb9f5c4ea1c86efcef40749d0c793f18686868633604051610729959493929190612fb8565b60405180910390a17f4160983c27f656d400f3aa2e3b13cbf66d5725b8118e09638d5154c8cad165cd60018361075f9190613346565b60405161076c91906131b2565b60405180910390a1505050505050565b60606002805461078b90613498565b80601f01602080910402602001604051908101604052809291908181526020018280546107b790613498565b80156108045780601f106107d957610100808354040283529160200191610804565b820191906000526020600020905b8154815290600101906020018083116107e757829003601f168201915b50505050509050919050565b606060008060008060048681548110610852577f4e487b7100000000000000000000000000000000000000000000000000000000600052603260045260246000fd5b90600052602060002090600502016000016004878154811061089d577f4e487b7100000000000000000000000000000000000000000000000000000000600052603260045260246000fd5b906000526020600020906005020160010154600488815481106108e9577f4e487b7100000000000000000000000000000000000000000000000000000000600052603260045260246000fd5b90600052602060002090600502016002015460048981548110610935577f4e487b7100000000000000000000000000000000000000000000000000000000600052603260045260246000fd5b90600052602060002090600502016003015460048a81548110610981577f4e487b7100000000000000000000000000000000000000000000000000000000600052603260045260246000fd5b906000526020600020906005020160040160009054906101000a900473ffffffffffffffffffffffffffffffffffffffff168480546109bf90613498565b80601f01602080910402602001604051908101604052809291908181526020018280546109eb90613498565b8015610a385780601f10610a0d57610100808354040283529160200191610a38565b820191906000526020600020905b815481529060010190602001808311610a1b57829003601f168201915b505050505094509450945094509450945091939590929450565b610a5a611f33565b73ffffffffffffffffffffffffffffffffffffffff16610a786114a7565b73ffffffffffffffffffffffffffffffffffffffff1614610ace576040517f08c379a0000000000000000000000000000000000000000000000000000000008152600401610ac590613112565b60405180910390fd5b60003390508073ffffffffffffffffffffffffffffffffffffffff166108fc479081150290604051600060405180830381858888f19350505050158015610b19573d6000803e3d6000fd5b5050565b8151835114610b61576040517f08c379a0000000000000000000000000000000000000000000000000000000008152600401610b5890613172565b60405180910390fd5b600073ffffffffffffffffffffffffffffffffffffffff168473ffffffffffffffffffffffffffffffffffffffff161415610bd1576040517f08c379a0000000000000000000000000000000000000000000000000000000008152600401610bc8906130b2565b60405180910390fd5b610bd9611f33565b73ffffffffffffffffffffffffffffffffffffffff168573ffffffffffffffffffffffffffffffffffffffff161480610c1f5750610c1e85610c19611f33565b6117db565b5b610c5e576040517f08c379a0000000000000000000000000000000000000000000000000000000008152600401610c55906130d2565b60405180910390fd5b6000610c68611f33565b9050610c78818787878787611f3b565b60005b8451811015610e7e576000858281518110610cbf577f4e487b7100000000000000000000000000000000000000000000000000000000600052603260045260246000fd5b602002602001015190506000858381518110610d04577f4e487b7100000000000000000000000000000000000000000000000000000000600052603260045260246000fd5b60200260200101519050600080600084815260200190815260200160002060008b73ffffffffffffffffffffffffffffffffffffffff1673ffffffffffffffffffffffffffffffffffffffff16815260200190815260200160002054905081811015610da5576040517f08c379a0000000000000000000000000000000000000000000000000000000008152600401610d9c906130f2565b60405180910390fd5b8181610db1919061339c565b60008085815260200190815260200160002060008c73ffffffffffffffffffffffffffffffffffffffff1673ffffffffffffffffffffffffffffffffffffffff168152602001908152602001600020819055508160008085815260200190815260200160002060008b73ffffffffffffffffffffffffffffffffffffffff1673ffffffffffffffffffffffffffffffffffffffff1681526020019081526020016000206000828254610e639190613346565b9250508190555050505080610e77906134fb565b9050610c7b565b508473ffffffffffffffffffffffffffffffffffffffff168673ffffffffffffffffffffffffffffffffffffffff168273ffffffffffffffffffffffffffffffffffffffff167f4a39dc06d4c0dbc64b70af90fd698a233a518aa5d07e595d983b8c0526c8f7fb8787604051610ef5929190612f44565b60405180910390a4610f0b818787878787611f43565b505050505050565b60608151835114610f59576040517f08c379a0000000000000000000000000000000000000000000000000000000008152600401610f5090613152565b60405180910390fd5b6000835167ffffffffffffffff811115610f9c577f4e487b7100000000000000000000000000000000000000000000000000000000600052604160045260246000fd5b604051908082528060200260200182016040528015610fca5781602001602082028036833780820191505090505b50905060005b84518110156110b957611063858281518110611015577f4e487b7100000000000000000000000000000000000000000000000000000000600052603260045260246000fd5b6020026020010151858381518110611056577f4e487b7100000000000000000000000000000000000000000000000000000000600052603260045260246000fd5b6020026020010151610408565b82828151811061109c577f4e487b7100000000000000000000000000000000000000000000000000000000600052603260045260246000fd5b602002602001018181525050806110b2906134fb565b9050610fd0565b508091505092915050565b6110cc611f33565b73ffffffffffffffffffffffffffffffffffffffff166110ea6114a7565b73ffffffffffffffffffffffffffffffffffffffff1614611140576040517f08c379a000000000000000000000000000000000000000000000000000000000815260040161113790613112565b60405180910390fd5b600073ffffffffffffffffffffffffffffffffffffffff16600360009054906101000a900473ffffffffffffffffffffffffffffffffffffffff1673ffffffffffffffffffffffffffffffffffffffff167f8be0079c531659141344cd1fd0a4f28419497f9722a3daafe3b4186f6b6457e060405160405180910390a36000600360006101000a81548173ffffffffffffffffffffffffffffffffffffffff021916908373ffffffffffffffffffffffffffffffffffffffff160217905550565b611209611f33565b73ffffffffffffffffffffffffffffffffffffffff166112276114a7565b73ffffffffffffffffffffffffffffffffffffffff161461127d576040517f08c379a000000000000000000000000000000000000000000000000000000000815260040161127490613112565b60405180910390fd5b6000600560009054906101000a900473ffffffffffffffffffffffffffffffffffffffff1673ffffffffffffffffffffffffffffffffffffffff166370a08231336040518263ffffffff1660e01b81526004016112da9190612df3565b60206040518083038186803b1580156112f257600080fd5b505afa158015611306573d6000803e3d6000fd5b505050506040513d601f19601f8201168201806040525081019061132a9190612a94565b9050600560009054906101000a900473ffffffffffffffffffffffffffffffffffffffff1673ffffffffffffffffffffffffffffffffffffffff1663a9059cbb33836040518363ffffffff1660e01b8152600401611389929190612ef9565b600060405180830381600087803b1580156113a357600080fd5b505af11580156113b7573d6000803e3d6000fd5b505050506000600560009054906101000a900473ffffffffffffffffffffffffffffffffffffffff1673ffffffffffffffffffffffffffffffffffffffff166370a08231336040518263ffffffff1660e01b81526004016114189190612df3565b60206040518083038186803b15801561143057600080fd5b505afa158015611444573d6000803e3d6000fd5b505050506040513d601f19601f820116820180604052508101906114689190612a94565b90507f4186fec0b05fb604bbee7a6f0f6e16b86e7a96633a13bea9fbdcacb464f1bd25338260405161149b929190612ef9565b60405180910390a15050565b6000600360009054906101000a900473ffffffffffffffffffffffffffffffffffffffff16905090565b8173ffffffffffffffffffffffffffffffffffffffff166114f0611f33565b73ffffffffffffffffffffffffffffffffffffffff161415611547576040517f08c379a000000000000000000000000000000000000000000000000000000000815260040161153e90613132565b60405180910390fd5b8060016000611554611f33565b73ffffffffffffffffffffffffffffffffffffffff1673ffffffffffffffffffffffffffffffffffffffff16815260200190815260200160002060008473ffffffffffffffffffffffffffffffffffffffff1673ffffffffffffffffffffffffffffffffffffffff16815260200190815260200160002060006101000a81548160ff0219169083151502179055508173ffffffffffffffffffffffffffffffffffffffff16611601611f33565b73ffffffffffffffffffffffffffffffffffffffff167f17307eab39ab6107e8899845ad3d59bd9653f200f220920489ca2b5937696c31836040516116469190612f7b565b60405180910390a35050565b6000600a9050919050565b600560009054906101000a900473ffffffffffffffffffffffffffffffffffffffff1673ffffffffffffffffffffffffffffffffffffffff16636c197ff5336104ce6040518363ffffffff1660e01b81526004016116bc929190612ed0565b600060405180830381600087803b1580156116d657600080fd5b505af11580156116ea573d6000803e3d6000fd5b505050506000600560009054906101000a900473ffffffffffffffffffffffffffffffffffffffff1673ffffffffffffffffffffffffffffffffffffffff166370a08231336040518263ffffffff1660e01b815260040161174b9190612df3565b60206040518083038186803b15801561176357600080fd5b505afa158015611777573d6000803e3d6000fd5b505050506040513d601f19601f8201168201806040525081019061179b9190612a94565b90507f2291c5d4e929d241b0936c94128b3422528728f5eca71586b9dfd606323b026b33826040516117ce929190612ef9565b60405180910390a1505050565b6000600160008473ffffffffffffffffffffffffffffffffffffffff1673ffffffffffffffffffffffffffffffffffffffff16815260200190815260200160002060008373ffffffffffffffffffffffffffffffffffffffff1673ffffffffffffffffffffffffffffffffffffffff16815260200190815260200160002060009054906101000a900460ff16905092915050565b600073ffffffffffffffffffffffffffffffffffffffff168473ffffffffffffffffffffffffffffffffffffffff1614156118df576040517f08c379a00000000000000000000000000000000000000000000000000000000081526004016118d6906130b2565b60405180910390fd5b6118e7611f33565b73ffffffffffffffffffffffffffffffffffffffff168573ffffffffffffffffffffffffffffffffffffffff16148061192d575061192c85611927611f33565b6117db565b5b61196c576040517f08c379a000000000000000000000000000000000000000000000000000000000815260040161196390613092565b60405180910390fd5b6000611976611f33565b90506119968187876119878861212a565b6119908861212a565b87611f3b565b600080600086815260200190815260200160002060008873ffffffffffffffffffffffffffffffffffffffff1673ffffffffffffffffffffffffffffffffffffffff16815260200190815260200160002054905083811015611a2d576040517f08c379a0000000000000000000000000000000000000000000000000000000008152600401611a24906130f2565b60405180910390fd5b8381611a39919061339c565b60008087815260200190815260200160002060008973ffffffffffffffffffffffffffffffffffffffff1673ffffffffffffffffffffffffffffffffffffffff168152602001908152602001600020819055508360008087815260200190815260200160002060008873ffffffffffffffffffffffffffffffffffffffff1673ffffffffffffffffffffffffffffffffffffffff1681526020019081526020016000206000828254611aeb9190613346565b925050819055508573ffffffffffffffffffffffffffffffffffffffff168773ffffffffffffffffffffffffffffffffffffffff168373ffffffffffffffffffffffffffffffffffffffff167fc3d58168c5ae7397731d063d5bbf3d657854427343f4c083240f7aacaa2d0f628888604051611b689291906131cd565b60405180910390a4611b7e8288888888886121f0565b50505050505050565b611b8f611f33565b73ffffffffffffffffffffffffffffffffffffffff16611bad6114a7565b73ffffffffffffffffffffffffffffffffffffffff1614611c03576040517f08c379a0000000000000000000000000000000000000000000000000000000008152600401611bfa90613112565b60405180910390fd5b600073ffffffffffffffffffffffffffffffffffffffff168173ffffffffffffffffffffffffffffffffffffffff161415611c73576040517f08c379a0000000000000000000000000000000000000000000000000000000008152600401611c6a90613072565b60405180910390fd5b8073ffffffffffffffffffffffffffffffffffffffff16600360009054906101000a900473ffffffffffffffffffffffffffffffffffffffff1673ffffffffffffffffffffffffffffffffffffffff167f8be0079c531659141344cd1fd0a4f28419497f9722a3daafe3b4186f6b6457e060405160405180910390a380600360006101000a81548173ffffffffffffffffffffffffffffffffffffffff021916908373ffffffffffffffffffffffffffffffffffffffff16021790555050565b60007f01ffc9a7000000000000000000000000000000000000000000000000000000007bffffffffffffffffffffffffffffffffffffffffffffffffffffffff1916827bffffffffffffffffffffffffffffffffffffffffffffffffffffffff1916149050919050565b600073ffffffffffffffffffffffffffffffffffffffff168473ffffffffffffffffffffffffffffffffffffffff161415611e0d576040517f08c379a0000000000000000000000000000000000000000000000000000000008152600401611e0490613192565b60405180910390fd5b6000611e17611f33565b9050611e3881600087611e298861212a565b611e328861212a565b87611f3b565b8260008086815260200190815260200160002060008773ffffffffffffffffffffffffffffffffffffffff1673ffffffffffffffffffffffffffffffffffffffff1681526020019081526020016000206000828254611e979190613346565b925050819055508473ffffffffffffffffffffffffffffffffffffffff16600073ffffffffffffffffffffffffffffffffffffffff168273ffffffffffffffffffffffffffffffffffffffff167fc3d58168c5ae7397731d063d5bbf3d657854427343f4c083240f7aacaa2d0f628787604051611f159291906131cd565b60405180910390a4611f2c816000878787876121f0565b5050505050565b600033905090565b505050505050565b611f628473ffffffffffffffffffffffffffffffffffffffff166123d7565b15612122578373ffffffffffffffffffffffffffffffffffffffff1663bc197c8187878686866040518663ffffffff1660e01b8152600401611fa8959493929190612e0e565b602060405180830381600087803b158015611fc257600080fd5b505af1925050508015611ff357506040513d601f19601f82011682018060405250810190611ff091906129c7565b60015b61209957611fff6135d1565b806308c379a0141561205c57506120146139ee565b8061201f575061205e565b806040517f08c379a00000000000000000000000000000000000000000000000000000000081526004016120539190612f96565b60405180910390fd5b505b6040517f08c379a000000000000000000000000000000000000000000000000000000000815260040161209090613012565b60405180910390fd5b63bc197c8160e01b7bffffffffffffffffffffffffffffffffffffffffffffffffffffffff1916817bffffffffffffffffffffffffffffffffffffffffffffffffffffffff191614612120576040517f08c379a000000000000000000000000000000000000000000000000000000000815260040161211790613032565b60405180910390fd5b505b505050505050565b60606000600167ffffffffffffffff81111561216f577f4e487b7100000000000000000000000000000000000000000000000000000000600052604160045260246000fd5b60405190808252806020026020018201604052801561219d5781602001602082028036833780820191505090505b50905082816000815181106121db577f4e487b7100000000000000000000000000000000000000000000000000000000600052603260045260246000fd5b60200260200101818152505080915050919050565b61220f8473ffffffffffffffffffffffffffffffffffffffff166123d7565b156123cf578373ffffffffffffffffffffffffffffffffffffffff1663f23a6e6187878686866040518663ffffffff1660e01b8152600401612255959493929190612e76565b602060405180830381600087803b15801561226f57600080fd5b505af19250505080156122a057506040513d601f19601f8201168201806040525081019061229d91906129c7565b60015b612346576122ac6135d1565b806308c379a0141561230957506122c16139ee565b806122cc575061230b565b806040517f08c379a00000000000000000000000000000000000000000000000000000000081526004016123009190612f96565b60405180910390fd5b505b6040517f08c379a000000000000000000000000000000000000000000000000000000000815260040161233d90613012565b60405180910390fd5b63f23a6e6160e01b7bffffffffffffffffffffffffffffffffffffffffffffffffffffffff1916817bffffffffffffffffffffffffffffffffffffffffffffffffffffffff1916146123cd576040517f08c379a00000000000000000000000000000000000000000000000000000000081526004016123c490613032565b60405180910390fd5b505b505050505050565b600080823b905060008111915050919050565b8280546123f690613498565b90600052602060002090601f016020900481019282612418576000855561245f565b82601f1061243157805160ff191683800117855561245f565b8280016001018555821561245f579182015b8281111561245e578251825591602001919060010190612443565b5b50905061246c9190612470565b5090565b5b80821115612489576000816000905550600101612471565b5090565b60006124a061249b8461321b565b6131f6565b905080838252602082019050828560208602820111156124bf57600080fd5b60005b858110156124ef57816124d588826125e1565b8452602084019350602083019250506001810190506124c2565b5050509392505050565b600061250c61250784613247565b6131f6565b9050808382526020820190508285602086028201111561252b57600080fd5b60005b8581101561255b578161254188826126dd565b84526020840193506020830192505060018101905061252e565b5050509392505050565b600061257861257384613273565b6131f6565b90508281526020810184848401111561259057600080fd5b61259b848285613456565b509392505050565b60006125b66125b1846132a4565b6131f6565b9050828152602081018484840111156125ce57600080fd5b6125d9848285613456565b509392505050565b6000813590506125f081613a84565b92915050565b600082601f83011261260757600080fd5b813561261784826020860161248d565b91505092915050565b600082601f83011261263157600080fd5b81356126418482602086016124f9565b91505092915050565b60008135905061265981613a9b565b92915050565b60008135905061266e81613ab2565b92915050565b60008151905061268381613ab2565b92915050565b600082601f83011261269a57600080fd5b81356126aa848260208601612565565b91505092915050565b600082601f8301126126c457600080fd5b81356126d48482602086016125a3565b91505092915050565b6000813590506126ec81613ac9565b92915050565b60008151905061270181613ac9565b92915050565b60006020828403121561271957600080fd5b6000612727848285016125e1565b91505092915050565b6000806040838503121561274357600080fd5b6000612751858286016125e1565b9250506020612762858286016125e1565b9150509250929050565b600080600080600060a0868803121561278457600080fd5b6000612792888289016125e1565b95505060206127a3888289016125e1565b945050604086013567ffffffffffffffff8111156127c057600080fd5b6127cc88828901612620565b935050606086013567ffffffffffffffff8111156127e957600080fd5b6127f588828901612620565b925050608086013567ffffffffffffffff81111561281257600080fd5b61281e88828901612689565b9150509295509295909350565b600080600080600060a0868803121561284357600080fd5b6000612851888289016125e1565b9550506020612862888289016125e1565b9450506040612873888289016126dd565b9350506060612884888289016126dd565b925050608086013567ffffffffffffffff8111156128a157600080fd5b6128ad88828901612689565b9150509295509295909350565b600080604083850312156128cd57600080fd5b60006128db858286016125e1565b92505060206128ec8582860161264a565b9150509250929050565b6000806040838503121561290957600080fd5b6000612917858286016125e1565b9250506020612928858286016126dd565b9150509250929050565b6000806040838503121561294557600080fd5b600083013567ffffffffffffffff81111561295f57600080fd5b61296b858286016125f6565b925050602083013567ffffffffffffffff81111561298857600080fd5b61299485828601612620565b9150509250929050565b6000602082840312156129b057600080fd5b60006129be8482850161265f565b91505092915050565b6000602082840312156129d957600080fd5b60006129e784828501612674565b91505092915050565b60008060008060808587031215612a0657600080fd5b600085013567ffffffffffffffff811115612a2057600080fd5b612a2c878288016126b3565b9450506020612a3d878288016126dd565b9350506040612a4e878288016126dd565b9250506060612a5f878288016126dd565b91505092959194509250565b600060208284031215612a7d57600080fd5b6000612a8b848285016126dd565b91505092915050565b600060208284031215612aa657600080fd5b6000612ab4848285016126f2565b91505092915050565b60008060408385031215612ad057600080fd5b6000612ade858286016126dd565b9250506020612aef858286016126dd565b9150509250929050565b6000612b058383612dd5565b60208301905092915050565b612b1a816133d0565b82525050565b6000612b2b826132e5565b612b358185613313565b9350612b40836132d5565b8060005b83811015612b71578151612b588882612af9565b9750612b6383613306565b925050600181019050612b44565b5085935050505092915050565b612b87816133e2565b82525050565b6000612b98826132f0565b612ba28185613324565b9350612bb2818560208601613465565b612bbb816135f3565b840191505092915050565b612bcf81613444565b82525050565b6000612be0826132fb565b612bea8185613335565b9350612bfa818560208601613465565b612c03816135f3565b840191505092915050565b6000612c1b603483613335565b9150612c2682613611565b604082019050919050565b6000612c3e602883613335565b9150612c4982613660565b604082019050919050565b6000612c61602b83613335565b9150612c6c826136af565b604082019050919050565b6000612c84602683613335565b9150612c8f826136fe565b604082019050919050565b6000612ca7602983613335565b9150612cb28261374d565b604082019050919050565b6000612cca602583613335565b9150612cd58261379c565b604082019050919050565b6000612ced603283613335565b9150612cf8826137eb565b604082019050919050565b6000612d10602a83613335565b9150612d1b8261383a565b604082019050919050565b6000612d33602083613335565b9150612d3e82613889565b602082019050919050565b6000612d56602983613335565b9150612d61826138b2565b604082019050919050565b6000612d79602983613335565b9150612d8482613901565b604082019050919050565b6000612d9c602883613335565b9150612da782613950565b604082019050919050565b6000612dbf602183613335565b9150612dca8261399f565b604082019050919050565b612dde8161343a565b82525050565b612ded8161343a565b82525050565b6000602082019050612e086000830184612b11565b92915050565b600060a082019050612e236000830188612b11565b612e306020830187612b11565b8181036040830152612e428186612b20565b90508181036060830152612e568185612b20565b90508181036080830152612e6a8184612b8d565b90509695505050505050565b600060a082019050612e8b6000830188612b11565b612e986020830187612b11565b612ea56040830186612de4565b612eb26060830185612de4565b8181036080830152612ec48184612b8d565b90509695505050505050565b6000604082019050612ee56000830185612b11565b612ef26020830184612bc6565b9392505050565b6000604082019050612f0e6000830185612b11565b612f1b6020830184612de4565b9392505050565b60006020820190508181036000830152612f3c8184612b20565b905092915050565b60006040820190508181036000830152612f5e8185612b20565b90508181036020830152612f728184612b20565b90509392505050565b6000602082019050612f906000830184612b7e565b92915050565b60006020820190508181036000830152612fb08184612bd5565b905092915050565b600060a0820190508181036000830152612fd28188612bd5565b9050612fe16020830187612de4565b612fee6040830186612de4565b612ffb6060830185612de4565b6130086080830184612b11565b9695505050505050565b6000602082019050818103600083015261302b81612c0e565b9050919050565b6000602082019050818103600083015261304b81612c31565b9050919050565b6000602082019050818103600083015261306b81612c54565b9050919050565b6000602082019050818103600083015261308b81612c77565b9050919050565b600060208201905081810360008301526130ab81612c9a565b9050919050565b600060208201905081810360008301526130cb81612cbd565b9050919050565b600060208201905081810360008301526130eb81612ce0565b9050919050565b6000602082019050818103600083015261310b81612d03565b9050919050565b6000602082019050818103600083015261312b81612d26565b9050919050565b6000602082019050818103600083015261314b81612d49565b9050919050565b6000602082019050818103600083015261316b81612d6c565b9050919050565b6000602082019050818103600083015261318b81612d8f565b9050919050565b600060208201905081810360008301526131ab81612db2565b9050919050565b60006020820190506131c76000830184612de4565b92915050565b60006040820190506131e26000830185612de4565b6131ef6020830184612de4565b9392505050565b6000613200613211565b905061320c82826134ca565b919050565b6000604051905090565b600067ffffffffffffffff821115613236576132356135a2565b5b602082029050602081019050919050565b600067ffffffffffffffff821115613262576132616135a2565b5b602082029050602081019050919050565b600067ffffffffffffffff82111561328e5761328d6135a2565b5b613297826135f3565b9050602081019050919050565b600067ffffffffffffffff8211156132bf576132be6135a2565b5b6132c8826135f3565b9050602081019050919050565b6000819050602082019050919050565b600081519050919050565b600081519050919050565b600081519050919050565b6000602082019050919050565b600082825260208201905092915050565b600082825260208201905092915050565b600082825260208201905092915050565b60006133518261343a565b915061335c8361343a565b9250827fffffffffffffffffffffffffffffffffffffffffffffffffffffffffffffffff0382111561339157613390613544565b5b828201905092915050565b60006133a78261343a565b91506133b28361343a565b9250828210156133c5576133c4613544565b5b828203905092915050565b60006133db8261341a565b9050919050565b60008115159050919050565b60007fffffffff0000000000000000000000000000000000000000000000000000000082169050919050565b600073ffffffffffffffffffffffffffffffffffffffff82169050919050565b6000819050919050565b600061344f8261343a565b9050919050565b82818337600083830152505050565b60005b83811015613483578082015181840152602081019050613468565b83811115613492576000848401525b50505050565b600060028204905060018216806134b057607f821691505b602082108114156134c4576134c3613573565b5b50919050565b6134d3826135f3565b810181811067ffffffffffffffff821117156134f2576134f16135a2565b5b80604052505050565b60006135068261343a565b91507fffffffffffffffffffffffffffffffffffffffffffffffffffffffffffffffff82141561353957613538613544565b5b600182019050919050565b7f4e487b7100000000000000000000000000000000000000000000000000000000600052601160045260246000fd5b7f4e487b7100000000000000000000000000000000000000000000000000000000600052602260045260246000fd5b7f4e487b7100000000000000000000000000000000000000000000000000000000600052604160045260246000fd5b600060033d11156135f05760046000803e6135ed600051613604565b90505b90565b6000601f19601f8301169050919050565b60008160e01c9050919050565b7f455243313135353a207472616e7366657220746f206e6f6e204552433131353560008201527f526563656976657220696d706c656d656e746572000000000000000000000000602082015250565b7f455243313135353a204552433131353552656365697665722072656a6563746560008201527f6420746f6b656e73000000000000000000000000000000000000000000000000602082015250565b7f455243313135353a2062616c616e636520717565727920666f7220746865207a60008201527f65726f2061646472657373000000000000000000000000000000000000000000602082015250565b7f4f776e61626c653a206e6577206f776e657220697320746865207a65726f206160008201527f6464726573730000000000000000000000000000000000000000000000000000602082015250565b7f455243313135353a2063616c6c6572206973206e6f74206f776e6572206e6f7260008201527f20617070726f7665640000000000000000000000000000000000000000000000602082015250565b7f455243313135353a207472616e7366657220746f20746865207a65726f20616460008201527f6472657373000000000000000000000000000000000000000000000000000000602082015250565b7f455243313135353a207472616e736665722063616c6c6572206973206e6f742060008201527f6f776e6572206e6f7220617070726f7665640000000000000000000000000000602082015250565b7f455243313135353a20696e73756666696369656e742062616c616e636520666f60008201527f72207472616e7366657200000000000000000000000000000000000000000000602082015250565b7f4f776e61626c653a2063616c6c6572206973206e6f7420746865206f776e6572600082015250565b7f455243313135353a2073657474696e6720617070726f76616c2073746174757360008201527f20666f722073656c660000000000000000000000000000000000000000000000602082015250565b7f455243313135353a206163636f756e747320616e6420696473206c656e67746860008201527f206d69736d617463680000000000000000000000000000000000000000000000602082015250565b7f455243313135353a2069647320616e6420616d6f756e7473206c656e6774682060008201527f6d69736d61746368000000000000000000000000000000000000000000000000602082015250565b7f455243313135353a206d696e7420746f20746865207a65726f2061646472657360008201527f7300000000000000000000000000000000000000000000000000000000000000602082015250565b600060443d10156139fe57613a81565b613a06613211565b60043d036004823e80513d602482011167ffffffffffffffff82111715613a2e575050613a81565b808201805167ffffffffffffffff811115613a4c5750505050613a81565b80602083010160043d038501811115613a69575050505050613a81565b613a78826020018501866134ca565b82955050505050505b90565b613a8d816133d0565b8114613a9857600080fd5b50565b613aa4816133e2565b8114613aaf57600080fd5b50565b613abb816133ee565b8114613ac657600080fd5b50565b613ad28161343a565b8114613add57600080fd5b5056fea2646970667358221220db024fed3807152f232faed55ec9c820787efd72b57c60561680e09fdda4032a64736f6c63430008040033608060405234801561001057600080fd5b50620186a0600081905550600054600160008073ffffffffffffffffffffffffffffffffffffffff1673ffffffffffffffffffffffffffffffffffffffff16815260200190815260200160002081905550610901806100706000396000f3fe608060405234801561001057600080fd5b506004361061004c5760003560e01c80636c197ff51461005157806370a082311461006d578063a9059cbb1461009d578063d1660f99146100b9575b600080fd5b61006b60048036038101906100669190610672565b6100ed565b005b610087600480360381019061008291906105fa565b610215565b604051610094919061073a565b60405180910390f35b6100b760048036038101906100b29190610672565b61025e565b005b6100d360048036038101906100ce9190610623565b6103c9565b6040516100e4959493929190610755565b60405180910390f35b80600160008073ffffffffffffffffffffffffffffffffffffffff1673ffffffffffffffffffffffffffffffffffffffff168152602001908152602001600020600082825461013c91906107fe565b9250508190555080600160008473ffffffffffffffffffffffffffffffffffffffff1673ffffffffffffffffffffffffffffffffffffffff168152602001908152602001600020600082825461019291906107a8565b925050819055507fae92ab4b6f8f401ead768d3273e6bb937a13e39827d19c6376e8fd4512a05d9a82600160008573ffffffffffffffffffffffffffffffffffffffff1673ffffffffffffffffffffffffffffffffffffffff168152602001908152602001600020546040516102099291906106cc565b60405180910390a15050565b6000600160008373ffffffffffffffffffffffffffffffffffffffff1673ffffffffffffffffffffffffffffffffffffffff168152602001908152602001600020549050919050565b80600160003373ffffffffffffffffffffffffffffffffffffffff1673ffffffffffffffffffffffffffffffffffffffff16815260200190815260200160002060008282546102ad91906107fe565b9250508190555080600160008473ffffffffffffffffffffffffffffffffffffffff1673ffffffffffffffffffffffffffffffffffffffff168152602001908152602001600020600082825461030391906107a8565b925050819055507f2bc6cfa90e9c9ca69a7a281d876ef2244b8d5201da959f82a292c994843bc09c33600160003373ffffffffffffffffffffffffffffffffffffffff1673ffffffffffffffffffffffffffffffffffffffff1681526020019081526020016000205484600160008773ffffffffffffffffffffffffffffffffffffffff1673ffffffffffffffffffffffffffffffffffffffff168152602001908152602001600020546040516103bd94939291906106f5565b60405180910390a15050565b600080600080600085600160008a73ffffffffffffffffffffffffffffffffffffffff1673ffffffffffffffffffffffffffffffffffffffff168152602001908152602001600020600082825461042091906107fe565b9250508190555085600160008973ffffffffffffffffffffffffffffffffffffffff1673ffffffffffffffffffffffffffffffffffffffff168152602001908152602001600020600082825461047691906107a8565b925050819055507f2bc6cfa90e9c9ca69a7a281d876ef2244b8d5201da959f82a292c994843bc09c88600160008b73ffffffffffffffffffffffffffffffffffffffff1673ffffffffffffffffffffffffffffffffffffffff1681526020019081526020016000205489600160008c73ffffffffffffffffffffffffffffffffffffffff1673ffffffffffffffffffffffffffffffffffffffff1681526020019081526020016000205460405161053094939291906106f5565b60405180910390a18588600160008b73ffffffffffffffffffffffffffffffffffffffff1673ffffffffffffffffffffffffffffffffffffffff1681526020019081526020016000205489600160008c73ffffffffffffffffffffffffffffffffffffffff1673ffffffffffffffffffffffffffffffffffffffff1681526020019081526020016000205494509450945094509450939792965093509350565b6000813590506105df8161089d565b92915050565b6000813590506105f4816108b4565b92915050565b60006020828403121561060c57600080fd5b600061061a848285016105d0565b91505092915050565b60008060006060848603121561063857600080fd5b6000610646868287016105d0565b9350506020610657868287016105d0565b9250506040610668868287016105e5565b9150509250925092565b6000806040838503121561068557600080fd5b6000610693858286016105d0565b92505060206106a4858286016105e5565b9150509250929050565b6106b781610832565b82525050565b6106c681610864565b82525050565b60006040820190506106e160008301856106ae565b6106ee60208301846106bd565b9392505050565b600060808201905061070a60008301876106ae565b61071760208301866106bd565b61072460408301856106ae565b61073160608301846106bd565b95945050505050565b600060208201905061074f60008301846106bd565b92915050565b600060a08201905061076a60008301886106bd565b61077760208301876106ae565b61078460408301866106bd565b61079160608301856106ae565b61079e60808301846106bd565b9695505050505050565b60006107b382610864565b91506107be83610864565b9250827fffffffffffffffffffffffffffffffffffffffffffffffffffffffffffffffff038211156107f3576107f261086e565b5b828201905092915050565b600061080982610864565b915061081483610864565b9250828210156108275761082661086e565b5b828203905092915050565b600061083d82610844565b9050919050565b600073ffffffffffffffffffffffffffffffffffffffff82169050919050565b6000819050919050565b7f4e487b7100000000000000000000000000000000000000000000000000000000600052601160045260246000fd5b6108a681610832565b81146108b157600080fd5b50565b6108bd81610864565b81146108c857600080fd5b5056fea2646970667358221220caf889ecd65a9cd84b5dcf659908444eddf62553b8c22b663c62f437133791ce64736f6c63430008040033608060405234801561001057600080fd5b50620186a0600081905550600054600160008073ffffffffffffffffffffffffffffffffffffffff1673ffffffffffffffffffffffffffffffffffffffff168152602001908152602001600020819055506107fb806100706000396000f3fe608060405234801561001057600080fd5b506004361061004c5760003560e01c80636c197ff51461005157806370a082311461006d578063a9059cbb1461009d578063d1660f99146100b9575b600080fd5b61006b600480360381019061006691906105bf565b6100d5565b005b61008760048036038101906100829190610547565b6101fd565b6040516100949190610687565b60405180910390f35b6100b760048036038101906100b291906105bf565b610246565b005b6100d360048036038101906100ce9190610570565b6103b1565b005b80600160008073ffffffffffffffffffffffffffffffffffffffff1673ffffffffffffffffffffffffffffffffffffffff168152602001908152602001600020600082825461012491906106f8565b9250508190555080600160008473ffffffffffffffffffffffffffffffffffffffff1673ffffffffffffffffffffffffffffffffffffffff168152602001908152602001600020600082825461017a91906106a2565b925050819055507fae92ab4b6f8f401ead768d3273e6bb937a13e39827d19c6376e8fd4512a05d9a82600160008573ffffffffffffffffffffffffffffffffffffffff1673ffffffffffffffffffffffffffffffffffffffff168152602001908152602001600020546040516101f1929190610619565b60405180910390a15050565b6000600160008373ffffffffffffffffffffffffffffffffffffffff1673ffffffffffffffffffffffffffffffffffffffff168152602001908152602001600020549050919050565b80600160003373ffffffffffffffffffffffffffffffffffffffff1673ffffffffffffffffffffffffffffffffffffffff168152602001908152602001600020600082825461029591906106f8565b9250508190555080600160008473ffffffffffffffffffffffffffffffffffffffff1673ffffffffffffffffffffffffffffffffffffffff16815260200190815260200160002060008282546102eb91906106a2565b925050819055507f2bc6cfa90e9c9ca69a7a281d876ef2244b8d5201da959f82a292c994843bc09c33600160003373ffffffffffffffffffffffffffffffffffffffff1673ffffffffffffffffffffffffffffffffffffffff1681526020019081526020016000205484600160008773ffffffffffffffffffffffffffffffffffffffff1673ffffffffffffffffffffffffffffffffffffffff168152602001908152602001600020546040516103a59493929190610642565b60405180910390a15050565b80600160008573ffffffffffffffffffffffffffffffffffffffff1673ffffffffffffffffffffffffffffffffffffffff168152602001908152602001600020600082825461040091906106f8565b9250508190555080600160008473ffffffffffffffffffffffffffffffffffffffff1673ffffffffffffffffffffffffffffffffffffffff168152602001908152602001600020600082825461045691906106a2565b925050819055507f2bc6cfa90e9c9ca69a7a281d876ef2244b8d5201da959f82a292c994843bc09c83600160008673ffffffffffffffffffffffffffffffffffffffff1673ffffffffffffffffffffffffffffffffffffffff1681526020019081526020016000205484600160008773ffffffffffffffffffffffffffffffffffffffff1673ffffffffffffffffffffffffffffffffffffffff168152602001908152602001600020546040516105109493929190610642565b60405180910390a1505050565b60008135905061052c81610797565b92915050565b600081359050610541816107ae565b92915050565b60006020828403121561055957600080fd5b60006105678482850161051d565b91505092915050565b60008060006060848603121561058557600080fd5b60006105938682870161051d565b93505060206105a48682870161051d565b92505060406105b586828701610532565b9150509250925092565b600080604083850312156105d257600080fd5b60006105e08582860161051d565b92505060206105f185828601610532565b9150509250929050565b6106048161072c565b82525050565b6106138161075e565b82525050565b600060408201905061062e60008301856105fb565b61063b602083018461060a565b9392505050565b600060808201905061065760008301876105fb565b610664602083018661060a565b61067160408301856105fb565b61067e606083018461060a565b95945050505050565b600060208201905061069c600083018461060a565b92915050565b60006106ad8261075e565b91506106b88361075e565b9250827fffffffffffffffffffffffffffffffffffffffffffffffffffffffffffffffff038211156106ed576106ec610768565b5b828201905092915050565b60006107038261075e565b915061070e8361075e565b92508282101561072157610720610768565b5b828203905092915050565b60006107378261073e565b9050919050565b600073ffffffffffffffffffffffffffffffffffffffff82169050919050565b6000819050919050565b7f4e487b7100000000000000000000000000000000000000000000000000000000600052601160045260246000fd5b6107a08161072c565b81146107ab57600080fd5b50565b6107b78161075e565b81146107c257600080fd5b5056fea264697066735822122051d3a0c9dc450aea342a2ff1cff02392e6203f22f8bc4a98a94ac453e450f41864736f6c63430008040033",
  "immutableReferences": {},
  "source": "// SPDX-License-Identifier: MIT\npragma solidity ^0.8.0;\nimport '@openzeppelin/contracts/token/ERC1155/ERC1155.sol';\nimport '@openzeppelin/contracts/access/Ownable.sol';\nimport './FakeAfenToken.sol';\nimport './FakeBscToken.sol';\n\ncontract Main is ERC1155, Ownable{\n    struct Nft {\n        string _hash;\n        uint _aprice;\n        uint _bprice;\n        uint _amount;\n        address _creator;\n        bool _isSell;\n    }\n    Nft[] nft_list;\n    FakeAfenToken afen = new FakeAfenToken();\n    FakeBscToken bsc = new FakeBscToken();\n\n    event Minted(string _hash, uint aprice, uint bprice, uint amount, address creator);\n    event Minted_nft_len(uint length);\n    event SettedSell(uint id, bool isSet, address creator, address setter);\n\n    \n    constructor() ERC1155(\"\") Ownable(){\n    }\n\n    receive() external payable {}\n\n    event Withdrawed(address withdrawer);\n    function withdrawBnb() public payable onlyOwner{\n        address payable sender = payable(msg.sender);\n        sender.transfer(address(this).balance);\n    }\n    event WithdrawAfen_Event (address _owner, uint balanceOf);\n    function withdrawAfen() public payable onlyOwner {\n        uint balance = afen.balanceOf(msg.sender);\n        afen.transfer(msg.sender, balance);\n        uint new_balance = afen.balanceOf(msg.sender);\n        emit WithdrawAfen_Event(msg.sender, new_balance);\n    }\n    function mint(string memory _hash, uint _aprice, uint _bprice, uint _amount) public {\n        uint nft_len = nft_list.length;\n        _mint(msg.sender, nft_len, _amount, \"\");\n        Nft memory temp = Nft(_hash, _aprice, _bprice, _amount, msg.sender, false);\n        nft_list.push(temp);\n        emit Minted(_hash, _aprice, _bprice, _amount, msg.sender);\n        emit Minted_nft_len(nft_len+1);\n    }\n\n    function get_nft(uint _id) public view returns(string memory, uint, uint, uint, address) {\n        return (\n            nft_list[_id]._hash,\n            nft_list[_id]._aprice,\n            nft_list[_id]._bprice,\n            nft_list[_id]._amount,\n            nft_list[_id]._creator\n        );\n    }\n\n    function calc_fee(uint _price) public pure returns(uint) {\n        return 10;\n    }\n\n    event SellTest(address from, uint balance);\n    function set_sell(uint _id, uint token_id) public {\n        afen.sell(msg.sender, 1230);\n        uint bal = afen.balanceOf(msg.sender);\n        emit SellTest(msg.sender, bal);\n    }\n}",
  "sourcePath": "/home/oncemore/BlockchainWork/afen/contract/contracts/Main.sol",
  "compiler": {
    "name": "solc",
    "version": "0.8.4+commit.c7e474f2.Emscripten.clang"
  },
  "schemaVersion": "3.3.4",
  "updatedAt": "2021-06-06T20:03:19.330Z",
  "networkType": "ethereum",
  "devdoc": {
    "kind": "dev",
    "methods": {
      "balanceOf(address,uint256)": {
        "details": "See {IERC1155-balanceOf}. Requirements: - `account` cannot be the zero address."
      },
      "balanceOfBatch(address[],uint256[])": {
        "details": "See {IERC1155-balanceOfBatch}. Requirements: - `accounts` and `ids` must have the same length."
      },
      "isApprovedForAll(address,address)": {
        "details": "See {IERC1155-isApprovedForAll}."
      },
      "owner()": {
        "details": "Returns the address of the current owner."
      },
      "renounceOwnership()": {
        "details": "Leaves the contract without owner. It will not be possible to call `onlyOwner` functions anymore. Can only be called by the current owner. NOTE: Renouncing ownership will leave the contract without an owner, thereby removing any functionality that is only available to the owner."
      },
      "safeBatchTransferFrom(address,address,uint256[],uint256[],bytes)": {
        "details": "See {IERC1155-safeBatchTransferFrom}."
      },
      "safeTransferFrom(address,address,uint256,uint256,bytes)": {
        "details": "See {IERC1155-safeTransferFrom}."
      },
      "setApprovalForAll(address,bool)": {
        "details": "See {IERC1155-setApprovalForAll}."
      },
      "supportsInterface(bytes4)": {
        "details": "See {IERC165-supportsInterface}."
      },
      "transferOwnership(address)": {
        "details": "Transfers ownership of the contract to a new account (`newOwner`). Can only be called by the current owner."
      },
      "uri(uint256)": {
        "details": "See {IERC1155MetadataURI-uri}. This implementation returns the same URI for *all* token types. It relies on the token type ID substitution mechanism https://eips.ethereum.org/EIPS/eip-1155#metadata[defined in the EIP]. Clients calling this function must replace the `\\{id\\}` substring with the actual token type ID."
      }
    },
    "version": 1
  },
  "userdoc": {
    "kind": "user",
    "methods": {},
    "version": 1
  }
}