{
  "contractName": "Main",
  "abi": [
    {
      "inputs": [],
      "stateMutability": "nonpayable",
      "type": "constructor"
    },
    {
      "anonymous": false,
      "inputs": [
        {
          "indexed": true,
          "internalType": "address",
          "name": "account",
          "type": "address"
        },
        {
          "indexed": true,
          "internalType": "address",
          "name": "operator",
          "type": "address"
        },
        {
          "indexed": false,
          "internalType": "bool",
          "name": "approved",
          "type": "bool"
        }
      ],
      "name": "ApprovalForAll",
      "type": "event"
    },
    {
      "anonymous": false,
      "inputs": [
        {
          "indexed": false,
          "internalType": "string",
          "name": "_hash",
          "type": "string"
        },
        {
          "indexed": false,
          "internalType": "uint256",
          "name": "aprice",
          "type": "uint256"
        },
        {
          "indexed": false,
          "internalType": "uint256",
          "name": "bprice",
          "type": "uint256"
        },
        {
          "indexed": false,
          "internalType": "uint256",
          "name": "amount",
          "type": "uint256"
        },
        {
          "indexed": false,
          "internalType": "address",
          "name": "creator",
          "type": "address"
        }
      ],
      "name": "Minted",
      "type": "event"
    },
    {
      "anonymous": false,
      "inputs": [
        {
          "indexed": false,
          "internalType": "uint256",
          "name": "length",
          "type": "uint256"
        }
      ],
      "name": "Minted_nft_len",
      "type": "event"
    },
    {
      "anonymous": false,
      "inputs": [
        {
          "indexed": false,
          "internalType": "uint256",
          "name": "id",
          "type": "uint256"
        },
        {
          "indexed": false,
          "internalType": "bool",
          "name": "isSet",
          "type": "bool"
        },
        {
          "indexed": false,
          "internalType": "address",
          "name": "creator",
          "type": "address"
        },
        {
          "indexed": false,
          "internalType": "address",
          "name": "setter",
          "type": "address"
        }
      ],
      "name": "SettedSell",
      "type": "event"
    },
    {
      "anonymous": false,
      "inputs": [
        {
          "indexed": true,
          "internalType": "address",
          "name": "operator",
          "type": "address"
        },
        {
          "indexed": true,
          "internalType": "address",
          "name": "from",
          "type": "address"
        },
        {
          "indexed": true,
          "internalType": "address",
          "name": "to",
          "type": "address"
        },
        {
          "indexed": false,
          "internalType": "uint256[]",
          "name": "ids",
          "type": "uint256[]"
        },
        {
          "indexed": false,
          "internalType": "uint256[]",
          "name": "values",
          "type": "uint256[]"
        }
      ],
      "name": "TransferBatch",
      "type": "event"
    },
    {
      "anonymous": false,
      "inputs": [
        {
          "indexed": true,
          "internalType": "address",
          "name": "operator",
          "type": "address"
        },
        {
          "indexed": true,
          "internalType": "address",
          "name": "from",
          "type": "address"
        },
        {
          "indexed": true,
          "internalType": "address",
          "name": "to",
          "type": "address"
        },
        {
          "indexed": false,
          "internalType": "uint256",
          "name": "id",
          "type": "uint256"
        },
        {
          "indexed": false,
          "internalType": "uint256",
          "name": "value",
          "type": "uint256"
        }
      ],
      "name": "TransferSingle",
      "type": "event"
    },
    {
      "anonymous": false,
      "inputs": [
        {
          "indexed": false,
          "internalType": "string",
          "name": "value",
          "type": "string"
        },
        {
          "indexed": true,
          "internalType": "uint256",
          "name": "id",
          "type": "uint256"
        }
      ],
      "name": "URI",
      "type": "event"
    },
    {
      "inputs": [
        {
          "internalType": "address",
          "name": "account",
          "type": "address"
        },
        {
          "internalType": "uint256",
          "name": "id",
          "type": "uint256"
        }
      ],
      "name": "balanceOf",
      "outputs": [
        {
          "internalType": "uint256",
          "name": "",
          "type": "uint256"
        }
      ],
      "stateMutability": "view",
      "type": "function"
    },
    {
      "inputs": [
        {
          "internalType": "address[]",
          "name": "accounts",
          "type": "address[]"
        },
        {
          "internalType": "uint256[]",
          "name": "ids",
          "type": "uint256[]"
        }
      ],
      "name": "balanceOfBatch",
      "outputs": [
        {
          "internalType": "uint256[]",
          "name": "",
          "type": "uint256[]"
        }
      ],
      "stateMutability": "view",
      "type": "function"
    },
    {
      "inputs": [
        {
          "internalType": "address",
          "name": "account",
          "type": "address"
        },
        {
          "internalType": "address",
          "name": "operator",
          "type": "address"
        }
      ],
      "name": "isApprovedForAll",
      "outputs": [
        {
          "internalType": "bool",
          "name": "",
          "type": "bool"
        }
      ],
      "stateMutability": "view",
      "type": "function"
    },
    {
      "inputs": [
        {
          "internalType": "address",
          "name": "from",
          "type": "address"
        },
        {
          "internalType": "address",
          "name": "to",
          "type": "address"
        },
        {
          "internalType": "uint256[]",
          "name": "ids",
          "type": "uint256[]"
        },
        {
          "internalType": "uint256[]",
          "name": "amounts",
          "type": "uint256[]"
        },
        {
          "internalType": "bytes",
          "name": "data",
          "type": "bytes"
        }
      ],
      "name": "safeBatchTransferFrom",
      "outputs": [],
      "stateMutability": "nonpayable",
      "type": "function"
    },
    {
      "inputs": [
        {
          "internalType": "address",
          "name": "from",
          "type": "address"
        },
        {
          "internalType": "address",
          "name": "to",
          "type": "address"
        },
        {
          "internalType": "uint256",
          "name": "id",
          "type": "uint256"
        },
        {
          "internalType": "uint256",
          "name": "amount",
          "type": "uint256"
        },
        {
          "internalType": "bytes",
          "name": "data",
          "type": "bytes"
        }
      ],
      "name": "safeTransferFrom",
      "outputs": [],
      "stateMutability": "nonpayable",
      "type": "function"
    },
    {
      "inputs": [
        {
          "internalType": "address",
          "name": "operator",
          "type": "address"
        },
        {
          "internalType": "bool",
          "name": "approved",
          "type": "bool"
        }
      ],
      "name": "setApprovalForAll",
      "outputs": [],
      "stateMutability": "nonpayable",
      "type": "function"
    },
    {
      "inputs": [
        {
          "internalType": "bytes4",
          "name": "interfaceId",
          "type": "bytes4"
        }
      ],
      "name": "supportsInterface",
      "outputs": [
        {
          "internalType": "bool",
          "name": "",
          "type": "bool"
        }
      ],
      "stateMutability": "view",
      "type": "function"
    },
    {
      "inputs": [
        {
          "internalType": "uint256",
          "name": "",
          "type": "uint256"
        }
      ],
      "name": "uri",
      "outputs": [
        {
          "internalType": "string",
          "name": "",
          "type": "string"
        }
      ],
      "stateMutability": "view",
      "type": "function"
    },
    {
      "stateMutability": "payable",
      "type": "receive"
    },
    {
      "inputs": [],
      "name": "withdraw",
      "outputs": [],
      "stateMutability": "payable",
      "type": "function"
    },
    {
      "inputs": [
        {
          "internalType": "string",
          "name": "_hash",
          "type": "string"
        },
        {
          "internalType": "uint256",
          "name": "_aprice",
          "type": "uint256"
        },
        {
          "internalType": "uint256",
          "name": "_bprice",
          "type": "uint256"
        },
        {
          "internalType": "uint256",
          "name": "_amount",
          "type": "uint256"
        }
      ],
      "name": "mint",
      "outputs": [],
      "stateMutability": "nonpayable",
      "type": "function"
    },
    {
      "inputs": [
        {
          "internalType": "uint256",
          "name": "_id",
          "type": "uint256"
        }
      ],
      "name": "get_nft",
      "outputs": [
        {
          "internalType": "string",
          "name": "",
          "type": "string"
        },
        {
          "internalType": "uint256",
          "name": "",
          "type": "uint256"
        },
        {
          "internalType": "uint256",
          "name": "",
          "type": "uint256"
        },
        {
          "internalType": "uint256",
          "name": "",
          "type": "uint256"
        },
        {
          "internalType": "address",
          "name": "",
          "type": "address"
        }
      ],
      "stateMutability": "view",
      "type": "function"
    },
    {
      "inputs": [
        {
          "internalType": "uint256",
          "name": "_price",
          "type": "uint256"
        }
      ],
      "name": "calc_fee",
      "outputs": [
        {
          "internalType": "uint256",
          "name": "",
          "type": "uint256"
        }
      ],
      "stateMutability": "pure",
      "type": "function"
    },
    {
      "inputs": [
        {
          "internalType": "uint256",
          "name": "_id",
          "type": "uint256"
        },
        {
          "internalType": "uint256",
          "name": "token_id",
          "type": "uint256"
        }
      ],
      "name": "set_sell",
      "outputs": [],
      "stateMutability": "nonpayable",
      "type": "function"
    }
  ],
  "bytecode": "0x608060405260405162000012906200016f565b604051809103906000f0801580156200002f573d6000803e3d6000fd5b50600560006101000a81548173ffffffffffffffffffffffffffffffffffffffff021916908373ffffffffffffffffffffffffffffffffffffffff1602179055506040516200007e906200017d565b604051809103906000f0801580156200009b573d6000803e3d6000fd5b50600660006101000a81548173ffffffffffffffffffffffffffffffffffffffff021916908373ffffffffffffffffffffffffffffffffffffffff160217905550348015620000e957600080fd5b50604051806020016040528060008152506200010b816200015360201b60201c565b5033600360006101000a81548173ffffffffffffffffffffffffffffffffffffffff021916908373ffffffffffffffffffffffffffffffffffffffff160217905550620002a0565b80600290805190602001906200016b9291906200018b565b5050565b61086b80620038b683390190565b61086b806200412183390190565b82805462000199906200023b565b90600052602060002090601f016020900481019282620001bd576000855562000209565b82601f10620001d857805160ff191683800117855562000209565b8280016001018555821562000209579182015b8281111562000208578251825591602001919060010190620001eb565b5b5090506200021891906200021c565b5090565b5b80821115620002375760008160009055506001016200021d565b5090565b600060028204905060018216806200025457607f821691505b602082108114156200026b576200026a62000271565b5b50919050565b7f4e487b7100000000000000000000000000000000000000000000000000000000600052602260045260246000fd5b61360680620002b06000396000f3fe6080604052600436106100c55760003560e01c80633ccfd60b1161007f578063ae7e0a7d11610059578063ae7e0a7d1461028b578063c5170184146102c8578063e985e9c5146102f1578063f242432a1461032e576100cc565b80633ccfd60b1461021b5780634e1273f414610225578063a22cb46514610262576100cc565b8062fdd58e146100d157806301ffc9a71461010e578063027a22551461014b5780630e89341c146101745780630ebac2ee146101b15780632eb2c2d6146101f2576100cc565b366100cc57005b600080fd5b3480156100dd57600080fd5b506100f860048036038101906100f391906123f9565b610357565b6040516101059190612c04565b60405180910390f35b34801561011a57600080fd5b50610135600480360381019061013091906124a1565b610420565b60405161014291906129ed565b60405180910390f35b34801561015757600080fd5b50610172600480360381019061016d91906124f3565b610502565b005b34801561018057600080fd5b5061019b6004803603810190610196919061256e565b6106cb565b6040516101a89190612a08565b60405180910390f35b3480156101bd57600080fd5b506101d860048036038101906101d3919061256e565b61075f565b6040516101e9959493929190612a2a565b60405180910390f35b3480156101fe57600080fd5b506102196004803603810190610214919061226f565b6109a1565b005b610223610d97565b005b34801561023157600080fd5b5061024c60048036038101906102479190612435565b610e29565b6040516102599190612994565b60405180910390f35b34801561026e57600080fd5b50610289600480360381019061028491906123bd565b610fda565b005b34801561029757600080fd5b506102b260048036038101906102ad919061256e565b61115b565b6040516102bf9190612c04565b60405180910390f35b3480156102d457600080fd5b506102ef60048036038101906102ea9190612597565b61117d565b005b3480156102fd57600080fd5b5061031860048036038101906103139190612233565b6114c8565b60405161032591906129ed565b60405180910390f35b34801561033a57600080fd5b506103556004803603810190610350919061232e565b61155c565b005b60008073ffffffffffffffffffffffffffffffffffffffff168373ffffffffffffffffffffffffffffffffffffffff1614156103c8576040517f08c379a00000000000000000000000000000000000000000000000000000000081526004016103bf90612ac4565b60405180910390fd5b60008083815260200190815260200160002060008473ffffffffffffffffffffffffffffffffffffffff1673ffffffffffffffffffffffffffffffffffffffff16815260200190815260200160002054905092915050565b60007fd9b67a26000000000000000000000000000000000000000000000000000000007bffffffffffffffffffffffffffffffffffffffffffffffffffffffff1916827bffffffffffffffffffffffffffffffffffffffffffffffffffffffff191614806104eb57507f0e89341c000000000000000000000000000000000000000000000000000000007bffffffffffffffffffffffffffffffffffffffffffffffffffffffff1916827bffffffffffffffffffffffffffffffffffffffffffffffffffffffff1916145b806104fb57506104fa82611874565b5b9050919050565b60006004805490509050610527338284604051806020016040528060008152506118de565b60006040518060c001604052808781526020018681526020018581526020018481526020013373ffffffffffffffffffffffffffffffffffffffff168152602001600015158152509050600481908060018154018082558091505060019003906000526020600020906005020160009091909190915060008201518160000190805190602001906105b9929190611f2b565b5060208201518160010155604082015181600201556060820151816003015560808201518160040160006101000a81548173ffffffffffffffffffffffffffffffffffffffff021916908373ffffffffffffffffffffffffffffffffffffffff16021790555060a08201518160040160146101000a81548160ff02191690831515021790555050507fe4c9864ec89329afd247f9b9340e26b88eb9f5c4ea1c86efcef40749d0c793f18686868633604051610678959493929190612a2a565b60405180910390a17f4160983c27f656d400f3aa2e3b13cbf66d5725b8118e09638d5154c8cad165cd6001836106ae9190612ddd565b6040516106bb9190612c04565b60405180910390a1505050505050565b6060600280546106da90612fa8565b80601f016020809104026020016040519081016040528092919081815260200182805461070690612fa8565b80156107535780601f1061072857610100808354040283529160200191610753565b820191906000526020600020905b81548152906001019060200180831161073657829003601f168201915b50505050509050919050565b6060600080600080600486815481106107a1577f4e487b7100000000000000000000000000000000000000000000000000000000600052603260045260246000fd5b9060005260206000209060050201600001600487815481106107ec577f4e487b7100000000000000000000000000000000000000000000000000000000600052603260045260246000fd5b90600052602060002090600502016001015460048881548110610838577f4e487b7100000000000000000000000000000000000000000000000000000000600052603260045260246000fd5b90600052602060002090600502016002015460048981548110610884577f4e487b7100000000000000000000000000000000000000000000000000000000600052603260045260246000fd5b90600052602060002090600502016003015460048a815481106108d0577f4e487b7100000000000000000000000000000000000000000000000000000000600052603260045260246000fd5b906000526020600020906005020160040160009054906101000a900473ffffffffffffffffffffffffffffffffffffffff1684805461090e90612fa8565b80601f016020809104026020016040519081016040528092919081815260200182805461093a90612fa8565b80156109875780601f1061095c57610100808354040283529160200191610987565b820191906000526020600020905b81548152906001019060200180831161096a57829003601f168201915b505050505094509450945094509450945091939590929450565b81518351146109e5576040517f08c379a00000000000000000000000000000000000000000000000000000000081526004016109dc90612ba4565b60405180910390fd5b600073ffffffffffffffffffffffffffffffffffffffff168473ffffffffffffffffffffffffffffffffffffffff161415610a55576040517f08c379a0000000000000000000000000000000000000000000000000000000008152600401610a4c90612b04565b60405180910390fd5b610a5d611a74565b73ffffffffffffffffffffffffffffffffffffffff168573ffffffffffffffffffffffffffffffffffffffff161480610aa35750610aa285610a9d611a74565b6114c8565b5b610ae2576040517f08c379a0000000000000000000000000000000000000000000000000000000008152600401610ad990612b24565b60405180910390fd5b6000610aec611a74565b9050610afc818787878787611a7c565b60005b8451811015610d02576000858281518110610b43577f4e487b7100000000000000000000000000000000000000000000000000000000600052603260045260246000fd5b602002602001015190506000858381518110610b88577f4e487b7100000000000000000000000000000000000000000000000000000000600052603260045260246000fd5b60200260200101519050600080600084815260200190815260200160002060008b73ffffffffffffffffffffffffffffffffffffffff1673ffffffffffffffffffffffffffffffffffffffff16815260200190815260200160002054905081811015610c29576040517f08c379a0000000000000000000000000000000000000000000000000000000008152600401610c2090612b44565b60405180910390fd5b8181610c359190612ebe565b60008085815260200190815260200160002060008c73ffffffffffffffffffffffffffffffffffffffff1673ffffffffffffffffffffffffffffffffffffffff168152602001908152602001600020819055508160008085815260200190815260200160002060008b73ffffffffffffffffffffffffffffffffffffffff1673ffffffffffffffffffffffffffffffffffffffff1681526020019081526020016000206000828254610ce79190612ddd565b9250508190555050505080610cfb9061300b565b9050610aff565b508473ffffffffffffffffffffffffffffffffffffffff168673ffffffffffffffffffffffffffffffffffffffff168273ffffffffffffffffffffffffffffffffffffffff167f4a39dc06d4c0dbc64b70af90fd698a233a518aa5d07e595d983b8c0526c8f7fb8787604051610d799291906129b6565b60405180910390a4610d8f818787878787611a84565b505050505050565b600360009054906101000a900473ffffffffffffffffffffffffffffffffffffffff1673ffffffffffffffffffffffffffffffffffffffff163373ffffffffffffffffffffffffffffffffffffffff1614610e27576040517f08c379a0000000000000000000000000000000000000000000000000000000008152600401610e1e90612be4565b60405180910390fd5b565b60608151835114610e6f576040517f08c379a0000000000000000000000000000000000000000000000000000000008152600401610e6690612b84565b60405180910390fd5b6000835167ffffffffffffffff811115610eb2577f4e487b7100000000000000000000000000000000000000000000000000000000600052604160045260246000fd5b604051908082528060200260200182016040528015610ee05781602001602082028036833780820191505090505b50905060005b8451811015610fcf57610f79858281518110610f2b577f4e487b7100000000000000000000000000000000000000000000000000000000600052603260045260246000fd5b6020026020010151858381518110610f6c577f4e487b7100000000000000000000000000000000000000000000000000000000600052603260045260246000fd5b6020026020010151610357565b828281518110610fb2577f4e487b7100000000000000000000000000000000000000000000000000000000600052603260045260246000fd5b60200260200101818152505080610fc89061300b565b9050610ee6565b508091505092915050565b8173ffffffffffffffffffffffffffffffffffffffff16610ff9611a74565b73ffffffffffffffffffffffffffffffffffffffff161415611050576040517f08c379a000000000000000000000000000000000000000000000000000000000815260040161104790612b64565b60405180910390fd5b806001600061105d611a74565b73ffffffffffffffffffffffffffffffffffffffff1673ffffffffffffffffffffffffffffffffffffffff16815260200190815260200160002060008473ffffffffffffffffffffffffffffffffffffffff1673ffffffffffffffffffffffffffffffffffffffff16815260200190815260200160002060006101000a81548160ff0219169083151502179055508173ffffffffffffffffffffffffffffffffffffffff1661110a611a74565b73ffffffffffffffffffffffffffffffffffffffff167f17307eab39ab6107e8899845ad3d59bd9653f200f220920489ca2b5937696c318360405161114f91906129ed565b60405180910390a35050565b6000606460048361116c9190612e64565b6111769190612e33565b9050919050565b6001600483815481106111b9577f4e487b7100000000000000000000000000000000000000000000000000000000600052603260045260246000fd5b906000526020600020906005020160040160146101000a81548160ff02191690831515021790555060008114156112d957600061124060048481548110611229577f4e487b7100000000000000000000000000000000000000000000000000000000600052603260045260246000fd5b90600052602060002090600502016001015461115b565b9050600560009054906101000a900473ffffffffffffffffffffffffffffffffffffffff1673ffffffffffffffffffffffffffffffffffffffff1663d1660f993330846040518463ffffffff1660e01b81526004016112a193929190612903565b600060405180830381600087803b1580156112bb57600080fd5b505af11580156112cf573d6000803e3d6000fd5b50505050506113c4565b600061132f60048481548110611318577f4e487b7100000000000000000000000000000000000000000000000000000000600052603260045260246000fd5b90600052602060002090600502016002015461115b565b9050600660009054906101000a900473ffffffffffffffffffffffffffffffffffffffff1673ffffffffffffffffffffffffffffffffffffffff1663d1660f993330846040518463ffffffff1660e01b815260040161139093929190612903565b600060405180830381600087803b1580156113aa57600080fd5b505af11580156113be573d6000803e3d6000fd5b50505050505b7fff531c5de40e10681b42d9fb35162f563694fcfabe7a3e566005de845565394c8260048481548110611420577f4e487b7100000000000000000000000000000000000000000000000000000000600052603260045260246000fd5b906000526020600020906005020160040160149054906101000a900460ff1660048581548110611479577f4e487b7100000000000000000000000000000000000000000000000000000000600052603260045260246000fd5b906000526020600020906005020160040160009054906101000a900473ffffffffffffffffffffffffffffffffffffffff16336040516114bc9493929190612c1f565b60405180910390a15050565b6000600160008473ffffffffffffffffffffffffffffffffffffffff1673ffffffffffffffffffffffffffffffffffffffff16815260200190815260200160002060008373ffffffffffffffffffffffffffffffffffffffff1673ffffffffffffffffffffffffffffffffffffffff16815260200190815260200160002060009054906101000a900460ff16905092915050565b600073ffffffffffffffffffffffffffffffffffffffff168473ffffffffffffffffffffffffffffffffffffffff1614156115cc576040517f08c379a00000000000000000000000000000000000000000000000000000000081526004016115c390612b04565b60405180910390fd5b6115d4611a74565b73ffffffffffffffffffffffffffffffffffffffff168573ffffffffffffffffffffffffffffffffffffffff16148061161a575061161985611614611a74565b6114c8565b5b611659576040517f08c379a000000000000000000000000000000000000000000000000000000000815260040161165090612ae4565b60405180910390fd5b6000611663611a74565b905061168381878761167488611c6b565b61167d88611c6b565b87611a7c565b600080600086815260200190815260200160002060008873ffffffffffffffffffffffffffffffffffffffff1673ffffffffffffffffffffffffffffffffffffffff1681526020019081526020016000205490508381101561171a576040517f08c379a000000000000000000000000000000000000000000000000000000000815260040161171190612b44565b60405180910390fd5b83816117269190612ebe565b60008087815260200190815260200160002060008973ffffffffffffffffffffffffffffffffffffffff1673ffffffffffffffffffffffffffffffffffffffff168152602001908152602001600020819055508360008087815260200190815260200160002060008873ffffffffffffffffffffffffffffffffffffffff1673ffffffffffffffffffffffffffffffffffffffff16815260200190815260200160002060008282546117d89190612ddd565b925050819055508573ffffffffffffffffffffffffffffffffffffffff168773ffffffffffffffffffffffffffffffffffffffff168373ffffffffffffffffffffffffffffffffffffffff167fc3d58168c5ae7397731d063d5bbf3d657854427343f4c083240f7aacaa2d0f628888604051611855929190612c64565b60405180910390a461186b828888888888611d31565b50505050505050565b60007f01ffc9a7000000000000000000000000000000000000000000000000000000007bffffffffffffffffffffffffffffffffffffffffffffffffffffffff1916827bffffffffffffffffffffffffffffffffffffffffffffffffffffffff1916149050919050565b600073ffffffffffffffffffffffffffffffffffffffff168473ffffffffffffffffffffffffffffffffffffffff16141561194e576040517f08c379a000000000000000000000000000000000000000000000000000000000815260040161194590612bc4565b60405180910390fd5b6000611958611a74565b90506119798160008761196a88611c6b565b61197388611c6b565b87611a7c565b8260008086815260200190815260200160002060008773ffffffffffffffffffffffffffffffffffffffff1673ffffffffffffffffffffffffffffffffffffffff16815260200190815260200160002060008282546119d89190612ddd565b925050819055508473ffffffffffffffffffffffffffffffffffffffff16600073ffffffffffffffffffffffffffffffffffffffff168273ffffffffffffffffffffffffffffffffffffffff167fc3d58168c5ae7397731d063d5bbf3d657854427343f4c083240f7aacaa2d0f628787604051611a56929190612c64565b60405180910390a4611a6d81600087878787611d31565b5050505050565b600033905090565b505050505050565b611aa38473ffffffffffffffffffffffffffffffffffffffff16611f18565b15611c63578373ffffffffffffffffffffffffffffffffffffffff1663bc197c8187878686866040518663ffffffff1660e01b8152600401611ae995949392919061289b565b602060405180830381600087803b158015611b0357600080fd5b505af1925050508015611b3457506040513d601f19601f82011682018060405250810190611b3191906124ca565b60015b611bda57611b40613110565b806308c379a01415611b9d5750611b556134de565b80611b605750611b9f565b806040517f08c379a0000000000000000000000000000000000000000000000000000000008152600401611b949190612a08565b60405180910390fd5b505b6040517f08c379a0000000000000000000000000000000000000000000000000000000008152600401611bd190612a84565b60405180910390fd5b63bc197c8160e01b7bffffffffffffffffffffffffffffffffffffffffffffffffffffffff1916817bffffffffffffffffffffffffffffffffffffffffffffffffffffffff191614611c61576040517f08c379a0000000000000000000000000000000000000000000000000000000008152600401611c5890612aa4565b60405180910390fd5b505b505050505050565b60606000600167ffffffffffffffff811115611cb0577f4e487b7100000000000000000000000000000000000000000000000000000000600052604160045260246000fd5b604051908082528060200260200182016040528015611cde5781602001602082028036833780820191505090505b5090508281600081518110611d1c577f4e487b7100000000000000000000000000000000000000000000000000000000600052603260045260246000fd5b60200260200101818152505080915050919050565b611d508473ffffffffffffffffffffffffffffffffffffffff16611f18565b15611f10578373ffffffffffffffffffffffffffffffffffffffff1663f23a6e6187878686866040518663ffffffff1660e01b8152600401611d9695949392919061293a565b602060405180830381600087803b158015611db057600080fd5b505af1925050508015611de157506040513d601f19601f82011682018060405250810190611dde91906124ca565b60015b611e8757611ded613110565b806308c379a01415611e4a5750611e026134de565b80611e0d5750611e4c565b806040517f08c379a0000000000000000000000000000000000000000000000000000000008152600401611e419190612a08565b60405180910390fd5b505b6040517f08c379a0000000000000000000000000000000000000000000000000000000008152600401611e7e90612a84565b60405180910390fd5b63f23a6e6160e01b7bffffffffffffffffffffffffffffffffffffffffffffffffffffffff1916817bffffffffffffffffffffffffffffffffffffffffffffffffffffffff191614611f0e576040517f08c379a0000000000000000000000000000000000000000000000000000000008152600401611f0590612aa4565b60405180910390fd5b505b505050505050565b600080823b905060008111915050919050565b828054611f3790612fa8565b90600052602060002090601f016020900481019282611f595760008555611fa0565b82601f10611f7257805160ff1916838001178555611fa0565b82800160010185558215611fa0579182015b82811115611f9f578251825591602001919060010190611f84565b5b509050611fad9190611fb1565b5090565b5b80821115611fca576000816000905550600101611fb2565b5090565b6000611fe1611fdc84612cb2565b612c8d565b9050808382526020820190508285602086028201111561200057600080fd5b60005b8581101561203057816120168882612122565b845260208401935060208301925050600181019050612003565b5050509392505050565b600061204d61204884612cde565b612c8d565b9050808382526020820190508285602086028201111561206c57600080fd5b60005b8581101561209c5781612082888261221e565b84526020840193506020830192505060018101905061206f565b5050509392505050565b60006120b96120b484612d0a565b612c8d565b9050828152602081018484840111156120d157600080fd5b6120dc848285612f66565b509392505050565b60006120f76120f284612d3b565b612c8d565b90508281526020810184848401111561210f57600080fd5b61211a848285612f66565b509392505050565b60008135905061213181613574565b92915050565b600082601f83011261214857600080fd5b8135612158848260208601611fce565b91505092915050565b600082601f83011261217257600080fd5b813561218284826020860161203a565b91505092915050565b60008135905061219a8161358b565b92915050565b6000813590506121af816135a2565b92915050565b6000815190506121c4816135a2565b92915050565b600082601f8301126121db57600080fd5b81356121eb8482602086016120a6565b91505092915050565b600082601f83011261220557600080fd5b81356122158482602086016120e4565b91505092915050565b60008135905061222d816135b9565b92915050565b6000806040838503121561224657600080fd5b600061225485828601612122565b925050602061226585828601612122565b9150509250929050565b600080600080600060a0868803121561228757600080fd5b600061229588828901612122565b95505060206122a688828901612122565b945050604086013567ffffffffffffffff8111156122c357600080fd5b6122cf88828901612161565b935050606086013567ffffffffffffffff8111156122ec57600080fd5b6122f888828901612161565b925050608086013567ffffffffffffffff81111561231557600080fd5b612321888289016121ca565b9150509295509295909350565b600080600080600060a0868803121561234657600080fd5b600061235488828901612122565b955050602061236588828901612122565b94505060406123768882890161221e565b93505060606123878882890161221e565b925050608086013567ffffffffffffffff8111156123a457600080fd5b6123b0888289016121ca565b9150509295509295909350565b600080604083850312156123d057600080fd5b60006123de85828601612122565b92505060206123ef8582860161218b565b9150509250929050565b6000806040838503121561240c57600080fd5b600061241a85828601612122565b925050602061242b8582860161221e565b9150509250929050565b6000806040838503121561244857600080fd5b600083013567ffffffffffffffff81111561246257600080fd5b61246e85828601612137565b925050602083013567ffffffffffffffff81111561248b57600080fd5b61249785828601612161565b9150509250929050565b6000602082840312156124b357600080fd5b60006124c1848285016121a0565b91505092915050565b6000602082840312156124dc57600080fd5b60006124ea848285016121b5565b91505092915050565b6000806000806080858703121561250957600080fd5b600085013567ffffffffffffffff81111561252357600080fd5b61252f878288016121f4565b94505060206125408782880161221e565b93505060406125518782880161221e565b92505060606125628782880161221e565b91505092959194509250565b60006020828403121561258057600080fd5b600061258e8482850161221e565b91505092915050565b600080604083850312156125aa57600080fd5b60006125b88582860161221e565b92505060206125c98582860161221e565b9150509250929050565b60006125df838361287d565b60208301905092915050565b6125f481612ef2565b82525050565b600061260582612d7c565b61260f8185612daa565b935061261a83612d6c565b8060005b8381101561264b57815161263288826125d3565b975061263d83612d9d565b92505060018101905061261e565b5085935050505092915050565b61266181612f04565b82525050565b600061267282612d87565b61267c8185612dbb565b935061268c818560208601612f75565b61269581613132565b840191505092915050565b60006126ab82612d92565b6126b58185612dcc565b93506126c5818560208601612f75565b6126ce81613132565b840191505092915050565b60006126e6603483612dcc565b91506126f182613150565b604082019050919050565b6000612709602883612dcc565b91506127148261319f565b604082019050919050565b600061272c602b83612dcc565b9150612737826131ee565b604082019050919050565b600061274f602983612dcc565b915061275a8261323d565b604082019050919050565b6000612772602583612dcc565b915061277d8261328c565b604082019050919050565b6000612795603283612dcc565b91506127a0826132db565b604082019050919050565b60006127b8602a83612dcc565b91506127c38261332a565b604082019050919050565b60006127db602983612dcc565b91506127e682613379565b604082019050919050565b60006127fe602983612dcc565b9150612809826133c8565b604082019050919050565b6000612821602883612dcc565b915061282c82613417565b604082019050919050565b6000612844602183612dcc565b915061284f82613466565b604082019050919050565b6000612867601f83612dcc565b9150612872826134b5565b602082019050919050565b61288681612f5c565b82525050565b61289581612f5c565b82525050565b600060a0820190506128b060008301886125eb565b6128bd60208301876125eb565b81810360408301526128cf81866125fa565b905081810360608301526128e381856125fa565b905081810360808301526128f78184612667565b90509695505050505050565b600060608201905061291860008301866125eb565b61292560208301856125eb565b612932604083018461288c565b949350505050565b600060a08201905061294f60008301886125eb565b61295c60208301876125eb565b612969604083018661288c565b612976606083018561288c565b81810360808301526129888184612667565b90509695505050505050565b600060208201905081810360008301526129ae81846125fa565b905092915050565b600060408201905081810360008301526129d081856125fa565b905081810360208301526129e481846125fa565b90509392505050565b6000602082019050612a026000830184612658565b92915050565b60006020820190508181036000830152612a2281846126a0565b905092915050565b600060a0820190508181036000830152612a4481886126a0565b9050612a53602083018761288c565b612a60604083018661288c565b612a6d606083018561288c565b612a7a60808301846125eb565b9695505050505050565b60006020820190508181036000830152612a9d816126d9565b9050919050565b60006020820190508181036000830152612abd816126fc565b9050919050565b60006020820190508181036000830152612add8161271f565b9050919050565b60006020820190508181036000830152612afd81612742565b9050919050565b60006020820190508181036000830152612b1d81612765565b9050919050565b60006020820190508181036000830152612b3d81612788565b9050919050565b60006020820190508181036000830152612b5d816127ab565b9050919050565b60006020820190508181036000830152612b7d816127ce565b9050919050565b60006020820190508181036000830152612b9d816127f1565b9050919050565b60006020820190508181036000830152612bbd81612814565b9050919050565b60006020820190508181036000830152612bdd81612837565b9050919050565b60006020820190508181036000830152612bfd8161285a565b9050919050565b6000602082019050612c19600083018461288c565b92915050565b6000608082019050612c34600083018761288c565b612c416020830186612658565b612c4e60408301856125eb565b612c5b60608301846125eb565b95945050505050565b6000604082019050612c79600083018561288c565b612c86602083018461288c565b9392505050565b6000612c97612ca8565b9050612ca38282612fda565b919050565b6000604051905090565b600067ffffffffffffffff821115612ccd57612ccc6130e1565b5b602082029050602081019050919050565b600067ffffffffffffffff821115612cf957612cf86130e1565b5b602082029050602081019050919050565b600067ffffffffffffffff821115612d2557612d246130e1565b5b612d2e82613132565b9050602081019050919050565b600067ffffffffffffffff821115612d5657612d556130e1565b5b612d5f82613132565b9050602081019050919050565b6000819050602082019050919050565b600081519050919050565b600081519050919050565b600081519050919050565b6000602082019050919050565b600082825260208201905092915050565b600082825260208201905092915050565b600082825260208201905092915050565b6000612de882612f5c565b9150612df383612f5c565b9250827fffffffffffffffffffffffffffffffffffffffffffffffffffffffffffffffff03821115612e2857612e27613054565b5b828201905092915050565b6000612e3e82612f5c565b9150612e4983612f5c565b925082612e5957612e58613083565b5b828204905092915050565b6000612e6f82612f5c565b9150612e7a83612f5c565b9250817fffffffffffffffffffffffffffffffffffffffffffffffffffffffffffffffff0483118215151615612eb357612eb2613054565b5b828202905092915050565b6000612ec982612f5c565b9150612ed483612f5c565b925082821015612ee757612ee6613054565b5b828203905092915050565b6000612efd82612f3c565b9050919050565b60008115159050919050565b60007fffffffff0000000000000000000000000000000000000000000000000000000082169050919050565b600073ffffffffffffffffffffffffffffffffffffffff82169050919050565b6000819050919050565b82818337600083830152505050565b60005b83811015612f93578082015181840152602081019050612f78565b83811115612fa2576000848401525b50505050565b60006002820490506001821680612fc057607f821691505b60208210811415612fd457612fd36130b2565b5b50919050565b612fe382613132565b810181811067ffffffffffffffff82111715613002576130016130e1565b5b80604052505050565b600061301682612f5c565b91507fffffffffffffffffffffffffffffffffffffffffffffffffffffffffffffffff82141561304957613048613054565b5b600182019050919050565b7f4e487b7100000000000000000000000000000000000000000000000000000000600052601160045260246000fd5b7f4e487b7100000000000000000000000000000000000000000000000000000000600052601260045260246000fd5b7f4e487b7100000000000000000000000000000000000000000000000000000000600052602260045260246000fd5b7f4e487b7100000000000000000000000000000000000000000000000000000000600052604160045260246000fd5b600060033d111561312f5760046000803e61312c600051613143565b90505b90565b6000601f19601f8301169050919050565b60008160e01c9050919050565b7f455243313135353a207472616e7366657220746f206e6f6e204552433131353560008201527f526563656976657220696d706c656d656e746572000000000000000000000000602082015250565b7f455243313135353a204552433131353552656365697665722072656a6563746560008201527f6420746f6b656e73000000000000000000000000000000000000000000000000602082015250565b7f455243313135353a2062616c616e636520717565727920666f7220746865207a60008201527f65726f2061646472657373000000000000000000000000000000000000000000602082015250565b7f455243313135353a2063616c6c6572206973206e6f74206f776e6572206e6f7260008201527f20617070726f7665640000000000000000000000000000000000000000000000602082015250565b7f455243313135353a207472616e7366657220746f20746865207a65726f20616460008201527f6472657373000000000000000000000000000000000000000000000000000000602082015250565b7f455243313135353a207472616e736665722063616c6c6572206973206e6f742060008201527f6f776e6572206e6f7220617070726f7665640000000000000000000000000000602082015250565b7f455243313135353a20696e73756666696369656e742062616c616e636520666f60008201527f72207472616e7366657200000000000000000000000000000000000000000000602082015250565b7f455243313135353a2073657474696e6720617070726f76616c2073746174757360008201527f20666f722073656c660000000000000000000000000000000000000000000000602082015250565b7f455243313135353a206163636f756e747320616e6420696473206c656e67746860008201527f206d69736d617463680000000000000000000000000000000000000000000000602082015250565b7f455243313135353a2069647320616e6420616d6f756e7473206c656e6774682060008201527f6d69736d61746368000000000000000000000000000000000000000000000000602082015250565b7f455243313135353a206d696e7420746f20746865207a65726f2061646472657360008201527f7300000000000000000000000000000000000000000000000000000000000000602082015250565b7f4f6e6c79206f776e65722063616e2063616c6c2074686973206d6574686f6400600082015250565b600060443d10156134ee57613571565b6134f6612ca8565b60043d036004823e80513d602482011167ffffffffffffffff8211171561351e575050613571565b808201805167ffffffffffffffff81111561353c5750505050613571565b80602083010160043d038501811115613559575050505050613571565b61356882602001850186612fda565b82955050505050505b90565b61357d81612ef2565b811461358857600080fd5b50565b61359481612f04565b811461359f57600080fd5b50565b6135ab81612f10565b81146135b657600080fd5b50565b6135c281612f5c565b81146135cd57600080fd5b5056fea2646970667358221220ac2ece31cb8588873479c744d50f12a6d410b7ce9c70a6e63a9e5e59a942a8d364736f6c63430008040033608060405234801561001057600080fd5b50620186a0600081905550600054600160008073ffffffffffffffffffffffffffffffffffffffff1673ffffffffffffffffffffffffffffffffffffffff168152602001908152602001600020819055506107fb806100706000396000f3fe608060405234801561001057600080fd5b506004361061004c5760003560e01c80636c197ff51461005157806370a082311461006d578063a9059cbb1461009d578063d1660f99146100b9575b600080fd5b61006b600480360381019061006691906105bf565b6100d5565b005b61008760048036038101906100829190610547565b6101fd565b6040516100949190610687565b60405180910390f35b6100b760048036038101906100b291906105bf565b610246565b005b6100d360048036038101906100ce9190610570565b6103b1565b005b80600160008073ffffffffffffffffffffffffffffffffffffffff1673ffffffffffffffffffffffffffffffffffffffff168152602001908152602001600020600082825461012491906106f8565b9250508190555080600160008473ffffffffffffffffffffffffffffffffffffffff1673ffffffffffffffffffffffffffffffffffffffff168152602001908152602001600020600082825461017a91906106a2565b925050819055507fae92ab4b6f8f401ead768d3273e6bb937a13e39827d19c6376e8fd4512a05d9a82600160008573ffffffffffffffffffffffffffffffffffffffff1673ffffffffffffffffffffffffffffffffffffffff168152602001908152602001600020546040516101f1929190610619565b60405180910390a15050565b6000600160008373ffffffffffffffffffffffffffffffffffffffff1673ffffffffffffffffffffffffffffffffffffffff168152602001908152602001600020549050919050565b80600160003373ffffffffffffffffffffffffffffffffffffffff1673ffffffffffffffffffffffffffffffffffffffff168152602001908152602001600020600082825461029591906106f8565b9250508190555080600160008473ffffffffffffffffffffffffffffffffffffffff1673ffffffffffffffffffffffffffffffffffffffff16815260200190815260200160002060008282546102eb91906106a2565b925050819055507f2bc6cfa90e9c9ca69a7a281d876ef2244b8d5201da959f82a292c994843bc09c33600160003373ffffffffffffffffffffffffffffffffffffffff1673ffffffffffffffffffffffffffffffffffffffff1681526020019081526020016000205484600160008773ffffffffffffffffffffffffffffffffffffffff1673ffffffffffffffffffffffffffffffffffffffff168152602001908152602001600020546040516103a59493929190610642565b60405180910390a15050565b80600160008573ffffffffffffffffffffffffffffffffffffffff1673ffffffffffffffffffffffffffffffffffffffff168152602001908152602001600020600082825461040091906106f8565b9250508190555080600160008473ffffffffffffffffffffffffffffffffffffffff1673ffffffffffffffffffffffffffffffffffffffff168152602001908152602001600020600082825461045691906106a2565b925050819055507f2bc6cfa90e9c9ca69a7a281d876ef2244b8d5201da959f82a292c994843bc09c83600160008673ffffffffffffffffffffffffffffffffffffffff1673ffffffffffffffffffffffffffffffffffffffff1681526020019081526020016000205484600160008773ffffffffffffffffffffffffffffffffffffffff1673ffffffffffffffffffffffffffffffffffffffff168152602001908152602001600020546040516105109493929190610642565b60405180910390a1505050565b60008135905061052c81610797565b92915050565b600081359050610541816107ae565b92915050565b60006020828403121561055957600080fd5b60006105678482850161051d565b91505092915050565b60008060006060848603121561058557600080fd5b60006105938682870161051d565b93505060206105a48682870161051d565b92505060406105b586828701610532565b9150509250925092565b600080604083850312156105d257600080fd5b60006105e08582860161051d565b92505060206105f185828601610532565b9150509250929050565b6106048161072c565b82525050565b6106138161075e565b82525050565b600060408201905061062e60008301856105fb565b61063b602083018461060a565b9392505050565b600060808201905061065760008301876105fb565b610664602083018661060a565b61067160408301856105fb565b61067e606083018461060a565b95945050505050565b600060208201905061069c600083018461060a565b92915050565b60006106ad8261075e565b91506106b88361075e565b9250827fffffffffffffffffffffffffffffffffffffffffffffffffffffffffffffffff038211156106ed576106ec610768565b5b828201905092915050565b60006107038261075e565b915061070e8361075e565b92508282101561072157610720610768565b5b828203905092915050565b60006107378261073e565b9050919050565b600073ffffffffffffffffffffffffffffffffffffffff82169050919050565b6000819050919050565b7f4e487b7100000000000000000000000000000000000000000000000000000000600052601160045260246000fd5b6107a08161072c565b81146107ab57600080fd5b50565b6107b78161075e565b81146107c257600080fd5b5056fea2646970667358221220ad637641ba30ecd0ec1da02f917569b40f6becd670e86d29612042a6e51d788164736f6c63430008040033608060405234801561001057600080fd5b50620186a0600081905550600054600160008073ffffffffffffffffffffffffffffffffffffffff1673ffffffffffffffffffffffffffffffffffffffff168152602001908152602001600020819055506107fb806100706000396000f3fe608060405234801561001057600080fd5b506004361061004c5760003560e01c80636c197ff51461005157806370a082311461006d578063a9059cbb1461009d578063d1660f99146100b9575b600080fd5b61006b600480360381019061006691906105bf565b6100d5565b005b61008760048036038101906100829190610547565b6101fd565b6040516100949190610687565b60405180910390f35b6100b760048036038101906100b291906105bf565b610246565b005b6100d360048036038101906100ce9190610570565b6103b1565b005b80600160008073ffffffffffffffffffffffffffffffffffffffff1673ffffffffffffffffffffffffffffffffffffffff168152602001908152602001600020600082825461012491906106f8565b9250508190555080600160008473ffffffffffffffffffffffffffffffffffffffff1673ffffffffffffffffffffffffffffffffffffffff168152602001908152602001600020600082825461017a91906106a2565b925050819055507fae92ab4b6f8f401ead768d3273e6bb937a13e39827d19c6376e8fd4512a05d9a82600160008573ffffffffffffffffffffffffffffffffffffffff1673ffffffffffffffffffffffffffffffffffffffff168152602001908152602001600020546040516101f1929190610619565b60405180910390a15050565b6000600160008373ffffffffffffffffffffffffffffffffffffffff1673ffffffffffffffffffffffffffffffffffffffff168152602001908152602001600020549050919050565b80600160003373ffffffffffffffffffffffffffffffffffffffff1673ffffffffffffffffffffffffffffffffffffffff168152602001908152602001600020600082825461029591906106f8565b9250508190555080600160008473ffffffffffffffffffffffffffffffffffffffff1673ffffffffffffffffffffffffffffffffffffffff16815260200190815260200160002060008282546102eb91906106a2565b925050819055507f2bc6cfa90e9c9ca69a7a281d876ef2244b8d5201da959f82a292c994843bc09c33600160003373ffffffffffffffffffffffffffffffffffffffff1673ffffffffffffffffffffffffffffffffffffffff1681526020019081526020016000205484600160008773ffffffffffffffffffffffffffffffffffffffff1673ffffffffffffffffffffffffffffffffffffffff168152602001908152602001600020546040516103a59493929190610642565b60405180910390a15050565b80600160008573ffffffffffffffffffffffffffffffffffffffff1673ffffffffffffffffffffffffffffffffffffffff168152602001908152602001600020600082825461040091906106f8565b9250508190555080600160008473ffffffffffffffffffffffffffffffffffffffff1673ffffffffffffffffffffffffffffffffffffffff168152602001908152602001600020600082825461045691906106a2565b925050819055507f2bc6cfa90e9c9ca69a7a281d876ef2244b8d5201da959f82a292c994843bc09c83600160008673ffffffffffffffffffffffffffffffffffffffff1673ffffffffffffffffffffffffffffffffffffffff1681526020019081526020016000205484600160008773ffffffffffffffffffffffffffffffffffffffff1673ffffffffffffffffffffffffffffffffffffffff168152602001908152602001600020546040516105109493929190610642565b60405180910390a1505050565b60008135905061052c81610797565b92915050565b600081359050610541816107ae565b92915050565b60006020828403121561055957600080fd5b60006105678482850161051d565b91505092915050565b60008060006060848603121561058557600080fd5b60006105938682870161051d565b93505060206105a48682870161051d565b92505060406105b586828701610532565b9150509250925092565b600080604083850312156105d257600080fd5b60006105e08582860161051d565b92505060206105f185828601610532565b9150509250929050565b6106048161072c565b82525050565b6106138161075e565b82525050565b600060408201905061062e60008301856105fb565b61063b602083018461060a565b9392505050565b600060808201905061065760008301876105fb565b610664602083018661060a565b61067160408301856105fb565b61067e606083018461060a565b95945050505050565b600060208201905061069c600083018461060a565b92915050565b60006106ad8261075e565b91506106b88361075e565b9250827fffffffffffffffffffffffffffffffffffffffffffffffffffffffffffffffff038211156106ed576106ec610768565b5b828201905092915050565b60006107038261075e565b915061070e8361075e565b92508282101561072157610720610768565b5b828203905092915050565b60006107378261073e565b9050919050565b600073ffffffffffffffffffffffffffffffffffffffff82169050919050565b6000819050919050565b7f4e487b7100000000000000000000000000000000000000000000000000000000600052601160045260246000fd5b6107a08161072c565b81146107ab57600080fd5b50565b6107b78161075e565b81146107c257600080fd5b5056fea264697066735822122051d3a0c9dc450aea342a2ff1cff02392e6203f22f8bc4a98a94ac453e450f41864736f6c63430008040033",
  "immutableReferences": {},
  "source": "// SPDX-License-Identifier: MIT\npragma solidity ^0.8.0;\nimport '@openzeppelin/contracts/token/ERC1155/ERC1155.sol';\nimport './FakeAfenToken.sol';\nimport './FakeBscToken.sol';\nimport './Owner.sol';\n\ncontract Main is ERC1155, Owner{\n    struct Nft {\n        string _hash;\n        uint _aprice;\n        uint _bprice;\n        uint _amount;\n        address _creator;\n        bool _isSell;\n    }\n    Nft[] nft_list;\n    FakeAfenToken afen = new FakeAfenToken();\n    FakeBscToken bsc = new FakeBscToken();\n\n    event Minted(string _hash, uint aprice, uint bprice, uint amount, address creator);\n    event Minted_nft_len(uint length);\n    event SettedSell(uint id, bool isSet, address creator, address setter);\n\n    receive() external payable {}\n    function withdraw() public payable onlyOwner{\n        \n    }\n    constructor() ERC1155(\"\") {}    \n\n    function mint(string memory _hash, uint _aprice, uint _bprice, uint _amount) public {\n        uint nft_len = nft_list.length;\n        _mint(msg.sender, nft_len, _amount, \"\");\n        Nft memory temp = Nft(_hash, _aprice, _bprice, _amount, msg.sender, false);\n        nft_list.push(temp);\n        emit Minted(_hash, _aprice, _bprice, _amount, msg.sender);\n        emit Minted_nft_len(nft_len+1);\n    }\n\n    function get_nft(uint _id) public view returns(string memory, uint, uint, uint, address) {\n        return (\n            nft_list[_id]._hash,\n            nft_list[_id]._aprice,\n            nft_list[_id]._bprice,\n            nft_list[_id]._amount,\n            nft_list[_id]._creator\n        );\n    }\n\n    function calc_fee(uint _price) public pure returns(uint) {\n        return _price*4/100;\n    }\n\n    function set_sell(uint _id, uint token_id) public {\n        nft_list[_id]._isSell = true;\n        if(token_id == 0) {\n            uint list_fee = calc_fee(nft_list[_id]._aprice);\n            afen.safeTransfer(msg.sender, address(this), list_fee);\n        } else {\n            uint list_fee = calc_fee(nft_list[_id]._bprice);\n            bsc.safeTransfer(msg.sender, address(this), list_fee);\n        }\n        emit SettedSell(_id, nft_list[_id]._isSell, nft_list[_id]._creator, msg.sender);\n    }\n}",
  "sourcePath": "/home/oncemore/BlockchainWork/afen/contract/contracts/Main.sol",
  "compiler": {
    "name": "solc",
    "version": "0.8.4+commit.c7e474f2.Emscripten.clang"
  },
  "schemaVersion": "3.3.4",
  "updatedAt": "2021-06-03T14:24:40.522Z",
  "devdoc": {
    "kind": "dev",
    "methods": {
      "balanceOf(address,uint256)": {
        "details": "See {IERC1155-balanceOf}. Requirements: - `account` cannot be the zero address."
      },
      "balanceOfBatch(address[],uint256[])": {
        "details": "See {IERC1155-balanceOfBatch}. Requirements: - `accounts` and `ids` must have the same length."
      },
      "isApprovedForAll(address,address)": {
        "details": "See {IERC1155-isApprovedForAll}."
      },
      "safeBatchTransferFrom(address,address,uint256[],uint256[],bytes)": {
        "details": "See {IERC1155-safeBatchTransferFrom}."
      },
      "safeTransferFrom(address,address,uint256,uint256,bytes)": {
        "details": "See {IERC1155-safeTransferFrom}."
      },
      "setApprovalForAll(address,bool)": {
        "details": "See {IERC1155-setApprovalForAll}."
      },
      "supportsInterface(bytes4)": {
        "details": "See {IERC165-supportsInterface}."
      },
      "uri(uint256)": {
        "details": "See {IERC1155MetadataURI-uri}. This implementation returns the same URI for *all* token types. It relies on the token type ID substitution mechanism https://eips.ethereum.org/EIPS/eip-1155#metadata[defined in the EIP]. Clients calling this function must replace the `\\{id\\}` substring with the actual token type ID."
      }
    },
    "version": 1
  },
  "userdoc": {
    "kind": "user",
    "methods": {},
    "version": 1
  }
}