{
  "contractName": "Main",
  "abi": [
    {
      "inputs": [],
      "stateMutability": "nonpayable",
      "type": "constructor"
    },
    {
      "anonymous": false,
      "inputs": [
        {
          "indexed": true,
          "internalType": "address",
          "name": "account",
          "type": "address"
        },
        {
          "indexed": true,
          "internalType": "address",
          "name": "operator",
          "type": "address"
        },
        {
          "indexed": false,
          "internalType": "bool",
          "name": "approved",
          "type": "bool"
        }
      ],
      "name": "ApprovalForAll",
      "type": "event"
    },
    {
      "anonymous": false,
      "inputs": [
        {
          "indexed": false,
          "internalType": "address",
          "name": "from",
          "type": "address"
        },
        {
          "indexed": false,
          "internalType": "uint256",
          "name": "bal_f",
          "type": "uint256"
        },
        {
          "indexed": false,
          "internalType": "address",
          "name": "to",
          "type": "address"
        },
        {
          "indexed": false,
          "internalType": "uint256",
          "name": "bal_t",
          "type": "uint256"
        }
      ],
      "name": "MainTestEvent",
      "type": "event"
    },
    {
      "anonymous": false,
      "inputs": [
        {
          "indexed": false,
          "internalType": "string",
          "name": "_hash",
          "type": "string"
        },
        {
          "indexed": false,
          "internalType": "uint256",
          "name": "aprice",
          "type": "uint256"
        },
        {
          "indexed": false,
          "internalType": "uint256",
          "name": "bprice",
          "type": "uint256"
        },
        {
          "indexed": false,
          "internalType": "uint256",
          "name": "amount",
          "type": "uint256"
        },
        {
          "indexed": false,
          "internalType": "address",
          "name": "creator",
          "type": "address"
        }
      ],
      "name": "Minted",
      "type": "event"
    },
    {
      "anonymous": false,
      "inputs": [
        {
          "indexed": false,
          "internalType": "uint256",
          "name": "length",
          "type": "uint256"
        }
      ],
      "name": "Minted_nft_len",
      "type": "event"
    },
    {
      "anonymous": false,
      "inputs": [
        {
          "indexed": false,
          "internalType": "uint256",
          "name": "id",
          "type": "uint256"
        },
        {
          "indexed": false,
          "internalType": "bool",
          "name": "isSet",
          "type": "bool"
        },
        {
          "indexed": false,
          "internalType": "address",
          "name": "creator",
          "type": "address"
        },
        {
          "indexed": false,
          "internalType": "address",
          "name": "setter",
          "type": "address"
        }
      ],
      "name": "SettedSell",
      "type": "event"
    },
    {
      "anonymous": false,
      "inputs": [
        {
          "indexed": true,
          "internalType": "address",
          "name": "operator",
          "type": "address"
        },
        {
          "indexed": true,
          "internalType": "address",
          "name": "from",
          "type": "address"
        },
        {
          "indexed": true,
          "internalType": "address",
          "name": "to",
          "type": "address"
        },
        {
          "indexed": false,
          "internalType": "uint256[]",
          "name": "ids",
          "type": "uint256[]"
        },
        {
          "indexed": false,
          "internalType": "uint256[]",
          "name": "values",
          "type": "uint256[]"
        }
      ],
      "name": "TransferBatch",
      "type": "event"
    },
    {
      "anonymous": false,
      "inputs": [
        {
          "indexed": true,
          "internalType": "address",
          "name": "operator",
          "type": "address"
        },
        {
          "indexed": true,
          "internalType": "address",
          "name": "from",
          "type": "address"
        },
        {
          "indexed": true,
          "internalType": "address",
          "name": "to",
          "type": "address"
        },
        {
          "indexed": false,
          "internalType": "uint256",
          "name": "id",
          "type": "uint256"
        },
        {
          "indexed": false,
          "internalType": "uint256",
          "name": "value",
          "type": "uint256"
        }
      ],
      "name": "TransferSingle",
      "type": "event"
    },
    {
      "anonymous": false,
      "inputs": [
        {
          "indexed": false,
          "internalType": "string",
          "name": "value",
          "type": "string"
        },
        {
          "indexed": true,
          "internalType": "uint256",
          "name": "id",
          "type": "uint256"
        }
      ],
      "name": "URI",
      "type": "event"
    },
    {
      "inputs": [
        {
          "internalType": "address",
          "name": "account",
          "type": "address"
        },
        {
          "internalType": "uint256",
          "name": "id",
          "type": "uint256"
        }
      ],
      "name": "balanceOf",
      "outputs": [
        {
          "internalType": "uint256",
          "name": "",
          "type": "uint256"
        }
      ],
      "stateMutability": "view",
      "type": "function",
      "constant": true
    },
    {
      "inputs": [
        {
          "internalType": "address[]",
          "name": "accounts",
          "type": "address[]"
        },
        {
          "internalType": "uint256[]",
          "name": "ids",
          "type": "uint256[]"
        }
      ],
      "name": "balanceOfBatch",
      "outputs": [
        {
          "internalType": "uint256[]",
          "name": "",
          "type": "uint256[]"
        }
      ],
      "stateMutability": "view",
      "type": "function",
      "constant": true
    },
    {
      "inputs": [
        {
          "internalType": "address",
          "name": "account",
          "type": "address"
        },
        {
          "internalType": "address",
          "name": "operator",
          "type": "address"
        }
      ],
      "name": "isApprovedForAll",
      "outputs": [
        {
          "internalType": "bool",
          "name": "",
          "type": "bool"
        }
      ],
      "stateMutability": "view",
      "type": "function",
      "constant": true
    },
    {
      "inputs": [
        {
          "internalType": "address",
          "name": "from",
          "type": "address"
        },
        {
          "internalType": "address",
          "name": "to",
          "type": "address"
        },
        {
          "internalType": "uint256[]",
          "name": "ids",
          "type": "uint256[]"
        },
        {
          "internalType": "uint256[]",
          "name": "amounts",
          "type": "uint256[]"
        },
        {
          "internalType": "bytes",
          "name": "data",
          "type": "bytes"
        }
      ],
      "name": "safeBatchTransferFrom",
      "outputs": [],
      "stateMutability": "nonpayable",
      "type": "function"
    },
    {
      "inputs": [
        {
          "internalType": "address",
          "name": "from",
          "type": "address"
        },
        {
          "internalType": "address",
          "name": "to",
          "type": "address"
        },
        {
          "internalType": "uint256",
          "name": "id",
          "type": "uint256"
        },
        {
          "internalType": "uint256",
          "name": "amount",
          "type": "uint256"
        },
        {
          "internalType": "bytes",
          "name": "data",
          "type": "bytes"
        }
      ],
      "name": "safeTransferFrom",
      "outputs": [],
      "stateMutability": "nonpayable",
      "type": "function"
    },
    {
      "inputs": [
        {
          "internalType": "address",
          "name": "operator",
          "type": "address"
        },
        {
          "internalType": "bool",
          "name": "approved",
          "type": "bool"
        }
      ],
      "name": "setApprovalForAll",
      "outputs": [],
      "stateMutability": "nonpayable",
      "type": "function"
    },
    {
      "inputs": [
        {
          "internalType": "bytes4",
          "name": "interfaceId",
          "type": "bytes4"
        }
      ],
      "name": "supportsInterface",
      "outputs": [
        {
          "internalType": "bool",
          "name": "",
          "type": "bool"
        }
      ],
      "stateMutability": "view",
      "type": "function",
      "constant": true
    },
    {
      "inputs": [
        {
          "internalType": "uint256",
          "name": "",
          "type": "uint256"
        }
      ],
      "name": "uri",
      "outputs": [
        {
          "internalType": "string",
          "name": "",
          "type": "string"
        }
      ],
      "stateMutability": "view",
      "type": "function",
      "constant": true
    },
    {
      "inputs": [
        {
          "internalType": "string",
          "name": "_hash",
          "type": "string"
        },
        {
          "internalType": "uint256",
          "name": "_aprice",
          "type": "uint256"
        },
        {
          "internalType": "uint256",
          "name": "_bprice",
          "type": "uint256"
        },
        {
          "internalType": "uint256",
          "name": "_amount",
          "type": "uint256"
        }
      ],
      "name": "mint",
      "outputs": [],
      "stateMutability": "nonpayable",
      "type": "function"
    },
    {
      "inputs": [
        {
          "internalType": "uint256",
          "name": "_id",
          "type": "uint256"
        }
      ],
      "name": "get_nft",
      "outputs": [
        {
          "internalType": "string",
          "name": "",
          "type": "string"
        },
        {
          "internalType": "uint256",
          "name": "",
          "type": "uint256"
        },
        {
          "internalType": "uint256",
          "name": "",
          "type": "uint256"
        },
        {
          "internalType": "uint256",
          "name": "",
          "type": "uint256"
        },
        {
          "internalType": "address",
          "name": "",
          "type": "address"
        }
      ],
      "stateMutability": "view",
      "type": "function",
      "constant": true
    },
    {
      "inputs": [
        {
          "internalType": "uint256",
          "name": "_price",
          "type": "uint256"
        }
      ],
      "name": "calc_fee",
      "outputs": [
        {
          "internalType": "uint256",
          "name": "",
          "type": "uint256"
        }
      ],
      "stateMutability": "pure",
      "type": "function",
      "constant": true
    },
    {
      "inputs": [
        {
          "internalType": "uint256",
          "name": "_id",
          "type": "uint256"
        },
        {
          "internalType": "uint256",
          "name": "token_id",
          "type": "uint256"
        }
      ],
      "name": "set_sell",
      "outputs": [],
      "stateMutability": "nonpayable",
      "type": "function"
    }
  ],
  "bytecode": "0x608060405260405162000012906200012e565b604051809103906000f0801580156200002f573d6000803e3d6000fd5b50600460006101000a81548173ffffffffffffffffffffffffffffffffffffffff021916908373ffffffffffffffffffffffffffffffffffffffff1602179055506040516200007e906200013c565b604051809103906000f0801580156200009b573d6000803e3d6000fd5b50600560006101000a81548173ffffffffffffffffffffffffffffffffffffffff021916908373ffffffffffffffffffffffffffffffffffffffff160217905550348015620000e957600080fd5b50604051806020016040528060008152506200010b816200011260201b60201c565b506200025f565b80600290805190602001906200012a9291906200014a565b5050565b610916806200380e83390190565b61086b806200412483390190565b8280546200015890620001fa565b90600052602060002090601f0160209004810192826200017c5760008555620001c8565b82601f106200019757805160ff1916838001178555620001c8565b82800160010185558215620001c8579182015b82811115620001c7578251825591602001919060010190620001aa565b5b509050620001d79190620001db565b5090565b5b80821115620001f6576000816000905550600101620001dc565b5090565b600060028204905060018216806200021357607f821691505b602082108114156200022a576200022962000230565b5b50919050565b7f4e487b7100000000000000000000000000000000000000000000000000000000600052602260045260246000fd5b61359f806200026f6000396000f3fe608060405234801561001057600080fd5b50600436106100b35760003560e01c80634e1273f4116100715780634e1273f4146101b4578063a22cb465146101e4578063ae7e0a7d14610200578063c517018414610230578063e985e9c51461024c578063f242432a1461027c576100b3565b8062fdd58e146100b857806301ffc9a7146100e8578063027a2255146101185780630e89341c146101345780630ebac2ee146101645780632eb2c2d614610198575b600080fd5b6100d260048036038101906100cd9190612356565b610298565b6040516100df9190612bc6565b60405180910390f35b61010260048036038101906100fd9190612461565b610361565b60405161010f91906129cf565b60405180910390f35b610132600480360381019061012d91906124b3565b610443565b005b61014e6004803603810190610149919061252e565b61060c565b60405161015b91906129ea565b60405180910390f35b61017e6004803603810190610179919061252e565b6106a0565b60405161018f959493929190612a0c565b60405180910390f35b6101b260048036038101906101ad91906121cc565b6108e2565b005b6101ce60048036038101906101c991906123f5565b610cd8565b6040516101db9190612976565b60405180910390f35b6101fe60048036038101906101f9919061231a565b610e89565b005b61021a6004803603810190610215919061252e565b61100a565b6040516102279190612bc6565b60405180910390f35b61024a60048036038101906102459190612557565b61103b565b005b61026660048036038101906102619190612190565b6113fb565b60405161027391906129cf565b60405180910390f35b6102966004803603810190610291919061228b565b61148f565b005b60008073ffffffffffffffffffffffffffffffffffffffff168373ffffffffffffffffffffffffffffffffffffffff161415610309576040517f08c379a000000000000000000000000000000000000000000000000000000000815260040161030090612aa6565b60405180910390fd5b60008083815260200190815260200160002060008473ffffffffffffffffffffffffffffffffffffffff1673ffffffffffffffffffffffffffffffffffffffff16815260200190815260200160002054905092915050565b60007fd9b67a26000000000000000000000000000000000000000000000000000000007bffffffffffffffffffffffffffffffffffffffffffffffffffffffff1916827bffffffffffffffffffffffffffffffffffffffffffffffffffffffff1916148061042c57507f0e89341c000000000000000000000000000000000000000000000000000000007bffffffffffffffffffffffffffffffffffffffffffffffffffffffff1916827bffffffffffffffffffffffffffffffffffffffffffffffffffffffff1916145b8061043c575061043b826117a7565b5b9050919050565b6000600380549050905061046833828460405180602001604052806000815250611811565b60006040518060c001604052808781526020018681526020018581526020018481526020013373ffffffffffffffffffffffffffffffffffffffff168152602001600015158152509050600381908060018154018082558091505060019003906000526020600020906005020160009091909190915060008201518160000190805190602001906104fa929190611e5e565b5060208201518160010155604082015181600201556060820151816003015560808201518160040160006101000a81548173ffffffffffffffffffffffffffffffffffffffff021916908373ffffffffffffffffffffffffffffffffffffffff16021790555060a08201518160040160146101000a81548160ff02191690831515021790555050507fe4c9864ec89329afd247f9b9340e26b88eb9f5c4ea1c86efcef40749d0c793f186868686336040516105b9959493929190612a0c565b60405180910390a17f4160983c27f656d400f3aa2e3b13cbf66d5725b8118e09638d5154c8cad165cd6001836105ef9190612d9f565b6040516105fc9190612bc6565b60405180910390a1505050505050565b60606002805461061b90612f6a565b80601f016020809104026020016040519081016040528092919081815260200182805461064790612f6a565b80156106945780601f1061066957610100808354040283529160200191610694565b820191906000526020600020905b81548152906001019060200180831161067757829003601f168201915b50505050509050919050565b6060600080600080600386815481106106e2577f4e487b7100000000000000000000000000000000000000000000000000000000600052603260045260246000fd5b90600052602060002090600502016000016003878154811061072d577f4e487b7100000000000000000000000000000000000000000000000000000000600052603260045260246000fd5b90600052602060002090600502016001015460038881548110610779577f4e487b7100000000000000000000000000000000000000000000000000000000600052603260045260246000fd5b906000526020600020906005020160020154600389815481106107c5577f4e487b7100000000000000000000000000000000000000000000000000000000600052603260045260246000fd5b90600052602060002090600502016003015460038a81548110610811577f4e487b7100000000000000000000000000000000000000000000000000000000600052603260045260246000fd5b906000526020600020906005020160040160009054906101000a900473ffffffffffffffffffffffffffffffffffffffff1684805461084f90612f6a565b80601f016020809104026020016040519081016040528092919081815260200182805461087b90612f6a565b80156108c85780601f1061089d576101008083540402835291602001916108c8565b820191906000526020600020905b8154815290600101906020018083116108ab57829003601f168201915b505050505094509450945094509450945091939590929450565b8151835114610926576040517f08c379a000000000000000000000000000000000000000000000000000000000815260040161091d90612b86565b60405180910390fd5b600073ffffffffffffffffffffffffffffffffffffffff168473ffffffffffffffffffffffffffffffffffffffff161415610996576040517f08c379a000000000000000000000000000000000000000000000000000000000815260040161098d90612ae6565b60405180910390fd5b61099e6119a7565b73ffffffffffffffffffffffffffffffffffffffff168573ffffffffffffffffffffffffffffffffffffffff1614806109e457506109e3856109de6119a7565b6113fb565b5b610a23576040517f08c379a0000000000000000000000000000000000000000000000000000000008152600401610a1a90612b06565b60405180910390fd5b6000610a2d6119a7565b9050610a3d8187878787876119af565b60005b8451811015610c43576000858281518110610a84577f4e487b7100000000000000000000000000000000000000000000000000000000600052603260045260246000fd5b602002602001015190506000858381518110610ac9577f4e487b7100000000000000000000000000000000000000000000000000000000600052603260045260246000fd5b60200260200101519050600080600084815260200190815260200160002060008b73ffffffffffffffffffffffffffffffffffffffff1673ffffffffffffffffffffffffffffffffffffffff16815260200190815260200160002054905081811015610b6a576040517f08c379a0000000000000000000000000000000000000000000000000000000008152600401610b6190612b26565b60405180910390fd5b8181610b769190612e80565b60008085815260200190815260200160002060008c73ffffffffffffffffffffffffffffffffffffffff1673ffffffffffffffffffffffffffffffffffffffff168152602001908152602001600020819055508160008085815260200190815260200160002060008b73ffffffffffffffffffffffffffffffffffffffff1673ffffffffffffffffffffffffffffffffffffffff1681526020019081526020016000206000828254610c289190612d9f565b9250508190555050505080610c3c90612fcd565b9050610a40565b508473ffffffffffffffffffffffffffffffffffffffff168673ffffffffffffffffffffffffffffffffffffffff168273ffffffffffffffffffffffffffffffffffffffff167f4a39dc06d4c0dbc64b70af90fd698a233a518aa5d07e595d983b8c0526c8f7fb8787604051610cba929190612998565b60405180910390a4610cd08187878787876119b7565b505050505050565b60608151835114610d1e576040517f08c379a0000000000000000000000000000000000000000000000000000000008152600401610d1590612b66565b60405180910390fd5b6000835167ffffffffffffffff811115610d61577f4e487b7100000000000000000000000000000000000000000000000000000000600052604160045260246000fd5b604051908082528060200260200182016040528015610d8f5781602001602082028036833780820191505090505b50905060005b8451811015610e7e57610e28858281518110610dda577f4e487b7100000000000000000000000000000000000000000000000000000000600052603260045260246000fd5b6020026020010151858381518110610e1b577f4e487b7100000000000000000000000000000000000000000000000000000000600052603260045260246000fd5b6020026020010151610298565b828281518110610e61577f4e487b7100000000000000000000000000000000000000000000000000000000600052603260045260246000fd5b60200260200101818152505080610e7790612fcd565b9050610d95565b508091505092915050565b8173ffffffffffffffffffffffffffffffffffffffff16610ea86119a7565b73ffffffffffffffffffffffffffffffffffffffff161415610eff576040517f08c379a0000000000000000000000000000000000000000000000000000000008152600401610ef690612b46565b60405180910390fd5b8060016000610f0c6119a7565b73ffffffffffffffffffffffffffffffffffffffff1673ffffffffffffffffffffffffffffffffffffffff16815260200190815260200160002060008473ffffffffffffffffffffffffffffffffffffffff1673ffffffffffffffffffffffffffffffffffffffff16815260200190815260200160002060006101000a81548160ff0219169083151502179055508173ffffffffffffffffffffffffffffffffffffffff16610fb96119a7565b73ffffffffffffffffffffffffffffffffffffffff167f17307eab39ab6107e8899845ad3d59bd9653f200f220920489ca2b5937696c3183604051610ffe91906129cf565b60405180910390a35050565b6000606460076305f5e100846110209190612e26565b61102a9190612e26565b6110349190612df5565b9050919050565b600160038381548110611077577f4e487b7100000000000000000000000000000000000000000000000000000000600052603260045260246000fd5b906000526020600020906005020160040160146101000a81548160ff021916908315150217905550600081141561120c5760006110fe600384815481106110e7577f4e487b7100000000000000000000000000000000000000000000000000000000600052603260045260246000fd5b90600052602060002090600502016001015461100a565b90506000339050600080600080600460009054906101000a900473ffffffffffffffffffffffffffffffffffffffff1673ffffffffffffffffffffffffffffffffffffffff1663d1660f998630896040518463ffffffff1660e01b815260040161116a939291906128a0565b608060405180830381600087803b15801561118457600080fd5b505af1158015611198573d6000803e3d6000fd5b505050506040513d601f19601f820116820180604052508101906111bc9190612392565b93509350935093507f18cb1b8a11a251c8f242942b962084656aa2718a6866ab0e95090d762234026e848484846040516111f99493929190612931565b60405180910390a15050505050506112f7565b60006112626003848154811061124b577f4e487b7100000000000000000000000000000000000000000000000000000000600052603260045260246000fd5b90600052602060002090600502016002015461100a565b9050600560009054906101000a900473ffffffffffffffffffffffffffffffffffffffff1673ffffffffffffffffffffffffffffffffffffffff1663d1660f993330846040518463ffffffff1660e01b81526004016112c3939291906128a0565b600060405180830381600087803b1580156112dd57600080fd5b505af11580156112f1573d6000803e3d6000fd5b50505050505b7fff531c5de40e10681b42d9fb35162f563694fcfabe7a3e566005de845565394c8260038481548110611353577f4e487b7100000000000000000000000000000000000000000000000000000000600052603260045260246000fd5b906000526020600020906005020160040160149054906101000a900460ff16600385815481106113ac577f4e487b7100000000000000000000000000000000000000000000000000000000600052603260045260246000fd5b906000526020600020906005020160040160009054906101000a900473ffffffffffffffffffffffffffffffffffffffff16336040516113ef9493929190612be1565b60405180910390a15050565b6000600160008473ffffffffffffffffffffffffffffffffffffffff1673ffffffffffffffffffffffffffffffffffffffff16815260200190815260200160002060008373ffffffffffffffffffffffffffffffffffffffff1673ffffffffffffffffffffffffffffffffffffffff16815260200190815260200160002060009054906101000a900460ff16905092915050565b600073ffffffffffffffffffffffffffffffffffffffff168473ffffffffffffffffffffffffffffffffffffffff1614156114ff576040517f08c379a00000000000000000000000000000000000000000000000000000000081526004016114f690612ae6565b60405180910390fd5b6115076119a7565b73ffffffffffffffffffffffffffffffffffffffff168573ffffffffffffffffffffffffffffffffffffffff16148061154d575061154c856115476119a7565b6113fb565b5b61158c576040517f08c379a000000000000000000000000000000000000000000000000000000000815260040161158390612ac6565b60405180910390fd5b60006115966119a7565b90506115b68187876115a788611b9e565b6115b088611b9e565b876119af565b600080600086815260200190815260200160002060008873ffffffffffffffffffffffffffffffffffffffff1673ffffffffffffffffffffffffffffffffffffffff1681526020019081526020016000205490508381101561164d576040517f08c379a000000000000000000000000000000000000000000000000000000000815260040161164490612b26565b60405180910390fd5b83816116599190612e80565b60008087815260200190815260200160002060008973ffffffffffffffffffffffffffffffffffffffff1673ffffffffffffffffffffffffffffffffffffffff168152602001908152602001600020819055508360008087815260200190815260200160002060008873ffffffffffffffffffffffffffffffffffffffff1673ffffffffffffffffffffffffffffffffffffffff168152602001908152602001600020600082825461170b9190612d9f565b925050819055508573ffffffffffffffffffffffffffffffffffffffff168773ffffffffffffffffffffffffffffffffffffffff168373ffffffffffffffffffffffffffffffffffffffff167fc3d58168c5ae7397731d063d5bbf3d657854427343f4c083240f7aacaa2d0f628888604051611788929190612c26565b60405180910390a461179e828888888888611c64565b50505050505050565b60007f01ffc9a7000000000000000000000000000000000000000000000000000000007bffffffffffffffffffffffffffffffffffffffffffffffffffffffff1916827bffffffffffffffffffffffffffffffffffffffffffffffffffffffff1916149050919050565b600073ffffffffffffffffffffffffffffffffffffffff168473ffffffffffffffffffffffffffffffffffffffff161415611881576040517f08c379a000000000000000000000000000000000000000000000000000000000815260040161187890612ba6565b60405180910390fd5b600061188b6119a7565b90506118ac8160008761189d88611b9e565b6118a688611b9e565b876119af565b8260008086815260200190815260200160002060008773ffffffffffffffffffffffffffffffffffffffff1673ffffffffffffffffffffffffffffffffffffffff168152602001908152602001600020600082825461190b9190612d9f565b925050819055508473ffffffffffffffffffffffffffffffffffffffff16600073ffffffffffffffffffffffffffffffffffffffff168273ffffffffffffffffffffffffffffffffffffffff167fc3d58168c5ae7397731d063d5bbf3d657854427343f4c083240f7aacaa2d0f628787604051611989929190612c26565b60405180910390a46119a081600087878787611c64565b5050505050565b600033905090565b505050505050565b6119d68473ffffffffffffffffffffffffffffffffffffffff16611e4b565b15611b96578373ffffffffffffffffffffffffffffffffffffffff1663bc197c8187878686866040518663ffffffff1660e01b8152600401611a1c959493929190612838565b602060405180830381600087803b158015611a3657600080fd5b505af1925050508015611a6757506040513d601f19601f82011682018060405250810190611a64919061248a565b60015b611b0d57611a736130d2565b806308c379a01415611ad05750611a88613477565b80611a935750611ad2565b806040517f08c379a0000000000000000000000000000000000000000000000000000000008152600401611ac791906129ea565b60405180910390fd5b505b6040517f08c379a0000000000000000000000000000000000000000000000000000000008152600401611b0490612a66565b60405180910390fd5b63bc197c8160e01b7bffffffffffffffffffffffffffffffffffffffffffffffffffffffff1916817bffffffffffffffffffffffffffffffffffffffffffffffffffffffff191614611b94576040517f08c379a0000000000000000000000000000000000000000000000000000000008152600401611b8b90612a86565b60405180910390fd5b505b505050505050565b60606000600167ffffffffffffffff811115611be3577f4e487b7100000000000000000000000000000000000000000000000000000000600052604160045260246000fd5b604051908082528060200260200182016040528015611c115781602001602082028036833780820191505090505b5090508281600081518110611c4f577f4e487b7100000000000000000000000000000000000000000000000000000000600052603260045260246000fd5b60200260200101818152505080915050919050565b611c838473ffffffffffffffffffffffffffffffffffffffff16611e4b565b15611e43578373ffffffffffffffffffffffffffffffffffffffff1663f23a6e6187878686866040518663ffffffff1660e01b8152600401611cc99594939291906128d7565b602060405180830381600087803b158015611ce357600080fd5b505af1925050508015611d1457506040513d601f19601f82011682018060405250810190611d11919061248a565b60015b611dba57611d206130d2565b806308c379a01415611d7d5750611d35613477565b80611d405750611d7f565b806040517f08c379a0000000000000000000000000000000000000000000000000000000008152600401611d7491906129ea565b60405180910390fd5b505b6040517f08c379a0000000000000000000000000000000000000000000000000000000008152600401611db190612a66565b60405180910390fd5b63f23a6e6160e01b7bffffffffffffffffffffffffffffffffffffffffffffffffffffffff1916817bffffffffffffffffffffffffffffffffffffffffffffffffffffffff191614611e41576040517f08c379a0000000000000000000000000000000000000000000000000000000008152600401611e3890612a86565b60405180910390fd5b505b505050505050565b600080823b905060008111915050919050565b828054611e6a90612f6a565b90600052602060002090601f016020900481019282611e8c5760008555611ed3565b82601f10611ea557805160ff1916838001178555611ed3565b82800160010185558215611ed3579182015b82811115611ed2578251825591602001919060010190611eb7565b5b509050611ee09190611ee4565b5090565b5b80821115611efd576000816000905550600101611ee5565b5090565b6000611f14611f0f84612c74565b612c4f565b90508083825260208201905082856020860282011115611f3357600080fd5b60005b85811015611f635781611f498882612055565b845260208401935060208301925050600181019050611f36565b5050509392505050565b6000611f80611f7b84612ca0565b612c4f565b90508083825260208201905082856020860282011115611f9f57600080fd5b60005b85811015611fcf5781611fb58882612166565b845260208401935060208301925050600181019050611fa2565b5050509392505050565b6000611fec611fe784612ccc565b612c4f565b90508281526020810184848401111561200457600080fd5b61200f848285612f28565b509392505050565b600061202a61202584612cfd565b612c4f565b90508281526020810184848401111561204257600080fd5b61204d848285612f28565b509392505050565b6000813590506120648161350d565b92915050565b6000815190506120798161350d565b92915050565b600082601f83011261209057600080fd5b81356120a0848260208601611f01565b91505092915050565b600082601f8301126120ba57600080fd5b81356120ca848260208601611f6d565b91505092915050565b6000813590506120e281613524565b92915050565b6000813590506120f78161353b565b92915050565b60008151905061210c8161353b565b92915050565b600082601f83011261212357600080fd5b8135612133848260208601611fd9565b91505092915050565b600082601f83011261214d57600080fd5b813561215d848260208601612017565b91505092915050565b60008135905061217581613552565b92915050565b60008151905061218a81613552565b92915050565b600080604083850312156121a357600080fd5b60006121b185828601612055565b92505060206121c285828601612055565b9150509250929050565b600080600080600060a086880312156121e457600080fd5b60006121f288828901612055565b955050602061220388828901612055565b945050604086013567ffffffffffffffff81111561222057600080fd5b61222c888289016120a9565b935050606086013567ffffffffffffffff81111561224957600080fd5b612255888289016120a9565b925050608086013567ffffffffffffffff81111561227257600080fd5b61227e88828901612112565b9150509295509295909350565b600080600080600060a086880312156122a357600080fd5b60006122b188828901612055565b95505060206122c288828901612055565b94505060406122d388828901612166565b93505060606122e488828901612166565b925050608086013567ffffffffffffffff81111561230157600080fd5b61230d88828901612112565b9150509295509295909350565b6000806040838503121561232d57600080fd5b600061233b85828601612055565b925050602061234c858286016120d3565b9150509250929050565b6000806040838503121561236957600080fd5b600061237785828601612055565b925050602061238885828601612166565b9150509250929050565b600080600080608085870312156123a857600080fd5b60006123b68782880161206a565b94505060206123c78782880161217b565b93505060406123d88782880161206a565b92505060606123e98782880161217b565b91505092959194509250565b6000806040838503121561240857600080fd5b600083013567ffffffffffffffff81111561242257600080fd5b61242e8582860161207f565b925050602083013567ffffffffffffffff81111561244b57600080fd5b612457858286016120a9565b9150509250929050565b60006020828403121561247357600080fd5b6000612481848285016120e8565b91505092915050565b60006020828403121561249c57600080fd5b60006124aa848285016120fd565b91505092915050565b600080600080608085870312156124c957600080fd5b600085013567ffffffffffffffff8111156124e357600080fd5b6124ef8782880161213c565b945050602061250087828801612166565b935050604061251187828801612166565b925050606061252287828801612166565b91505092959194509250565b60006020828403121561254057600080fd5b600061254e84828501612166565b91505092915050565b6000806040838503121561256a57600080fd5b600061257885828601612166565b925050602061258985828601612166565b9150509250929050565b600061259f838361281a565b60208301905092915050565b6125b481612eb4565b82525050565b60006125c582612d3e565b6125cf8185612d6c565b93506125da83612d2e565b8060005b8381101561260b5781516125f28882612593565b97506125fd83612d5f565b9250506001810190506125de565b5085935050505092915050565b61262181612ec6565b82525050565b600061263282612d49565b61263c8185612d7d565b935061264c818560208601612f37565b612655816130f4565b840191505092915050565b600061266b82612d54565b6126758185612d8e565b9350612685818560208601612f37565b61268e816130f4565b840191505092915050565b60006126a6603483612d8e565b91506126b182613112565b604082019050919050565b60006126c9602883612d8e565b91506126d482613161565b604082019050919050565b60006126ec602b83612d8e565b91506126f7826131b0565b604082019050919050565b600061270f602983612d8e565b915061271a826131ff565b604082019050919050565b6000612732602583612d8e565b915061273d8261324e565b604082019050919050565b6000612755603283612d8e565b91506127608261329d565b604082019050919050565b6000612778602a83612d8e565b9150612783826132ec565b604082019050919050565b600061279b602983612d8e565b91506127a68261333b565b604082019050919050565b60006127be602983612d8e565b91506127c98261338a565b604082019050919050565b60006127e1602883612d8e565b91506127ec826133d9565b604082019050919050565b6000612804602183612d8e565b915061280f82613428565b604082019050919050565b61282381612f1e565b82525050565b61283281612f1e565b82525050565b600060a08201905061284d60008301886125ab565b61285a60208301876125ab565b818103604083015261286c81866125ba565b9050818103606083015261288081856125ba565b905081810360808301526128948184612627565b90509695505050505050565b60006060820190506128b560008301866125ab565b6128c260208301856125ab565b6128cf6040830184612829565b949350505050565b600060a0820190506128ec60008301886125ab565b6128f960208301876125ab565b6129066040830186612829565b6129136060830185612829565b81810360808301526129258184612627565b90509695505050505050565b600060808201905061294660008301876125ab565b6129536020830186612829565b61296060408301856125ab565b61296d6060830184612829565b95945050505050565b6000602082019050818103600083015261299081846125ba565b905092915050565b600060408201905081810360008301526129b281856125ba565b905081810360208301526129c681846125ba565b90509392505050565b60006020820190506129e46000830184612618565b92915050565b60006020820190508181036000830152612a048184612660565b905092915050565b600060a0820190508181036000830152612a268188612660565b9050612a356020830187612829565b612a426040830186612829565b612a4f6060830185612829565b612a5c60808301846125ab565b9695505050505050565b60006020820190508181036000830152612a7f81612699565b9050919050565b60006020820190508181036000830152612a9f816126bc565b9050919050565b60006020820190508181036000830152612abf816126df565b9050919050565b60006020820190508181036000830152612adf81612702565b9050919050565b60006020820190508181036000830152612aff81612725565b9050919050565b60006020820190508181036000830152612b1f81612748565b9050919050565b60006020820190508181036000830152612b3f8161276b565b9050919050565b60006020820190508181036000830152612b5f8161278e565b9050919050565b60006020820190508181036000830152612b7f816127b1565b9050919050565b60006020820190508181036000830152612b9f816127d4565b9050919050565b60006020820190508181036000830152612bbf816127f7565b9050919050565b6000602082019050612bdb6000830184612829565b92915050565b6000608082019050612bf66000830187612829565b612c036020830186612618565b612c1060408301856125ab565b612c1d60608301846125ab565b95945050505050565b6000604082019050612c3b6000830185612829565b612c486020830184612829565b9392505050565b6000612c59612c6a565b9050612c658282612f9c565b919050565b6000604051905090565b600067ffffffffffffffff821115612c8f57612c8e6130a3565b5b602082029050602081019050919050565b600067ffffffffffffffff821115612cbb57612cba6130a3565b5b602082029050602081019050919050565b600067ffffffffffffffff821115612ce757612ce66130a3565b5b612cf0826130f4565b9050602081019050919050565b600067ffffffffffffffff821115612d1857612d176130a3565b5b612d21826130f4565b9050602081019050919050565b6000819050602082019050919050565b600081519050919050565b600081519050919050565b600081519050919050565b6000602082019050919050565b600082825260208201905092915050565b600082825260208201905092915050565b600082825260208201905092915050565b6000612daa82612f1e565b9150612db583612f1e565b9250827fffffffffffffffffffffffffffffffffffffffffffffffffffffffffffffffff03821115612dea57612de9613016565b5b828201905092915050565b6000612e0082612f1e565b9150612e0b83612f1e565b925082612e1b57612e1a613045565b5b828204905092915050565b6000612e3182612f1e565b9150612e3c83612f1e565b9250817fffffffffffffffffffffffffffffffffffffffffffffffffffffffffffffffff0483118215151615612e7557612e74613016565b5b828202905092915050565b6000612e8b82612f1e565b9150612e9683612f1e565b925082821015612ea957612ea8613016565b5b828203905092915050565b6000612ebf82612efe565b9050919050565b60008115159050919050565b60007fffffffff0000000000000000000000000000000000000000000000000000000082169050919050565b600073ffffffffffffffffffffffffffffffffffffffff82169050919050565b6000819050919050565b82818337600083830152505050565b60005b83811015612f55578082015181840152602081019050612f3a565b83811115612f64576000848401525b50505050565b60006002820490506001821680612f8257607f821691505b60208210811415612f9657612f95613074565b5b50919050565b612fa5826130f4565b810181811067ffffffffffffffff82111715612fc457612fc36130a3565b5b80604052505050565b6000612fd882612f1e565b91507fffffffffffffffffffffffffffffffffffffffffffffffffffffffffffffffff82141561300b5761300a613016565b5b600182019050919050565b7f4e487b7100000000000000000000000000000000000000000000000000000000600052601160045260246000fd5b7f4e487b7100000000000000000000000000000000000000000000000000000000600052601260045260246000fd5b7f4e487b7100000000000000000000000000000000000000000000000000000000600052602260045260246000fd5b7f4e487b7100000000000000000000000000000000000000000000000000000000600052604160045260246000fd5b600060033d11156130f15760046000803e6130ee600051613105565b90505b90565b6000601f19601f8301169050919050565b60008160e01c9050919050565b7f455243313135353a207472616e7366657220746f206e6f6e204552433131353560008201527f526563656976657220696d706c656d656e746572000000000000000000000000602082015250565b7f455243313135353a204552433131353552656365697665722072656a6563746560008201527f6420746f6b656e73000000000000000000000000000000000000000000000000602082015250565b7f455243313135353a2062616c616e636520717565727920666f7220746865207a60008201527f65726f2061646472657373000000000000000000000000000000000000000000602082015250565b7f455243313135353a2063616c6c6572206973206e6f74206f776e6572206e6f7260008201527f20617070726f7665640000000000000000000000000000000000000000000000602082015250565b7f455243313135353a207472616e7366657220746f20746865207a65726f20616460008201527f6472657373000000000000000000000000000000000000000000000000000000602082015250565b7f455243313135353a207472616e736665722063616c6c6572206973206e6f742060008201527f6f776e6572206e6f7220617070726f7665640000000000000000000000000000602082015250565b7f455243313135353a20696e73756666696369656e742062616c616e636520666f60008201527f72207472616e7366657200000000000000000000000000000000000000000000602082015250565b7f455243313135353a2073657474696e6720617070726f76616c2073746174757360008201527f20666f722073656c660000000000000000000000000000000000000000000000602082015250565b7f455243313135353a206163636f756e747320616e6420696473206c656e67746860008201527f206d69736d617463680000000000000000000000000000000000000000000000602082015250565b7f455243313135353a2069647320616e6420616d6f756e7473206c656e6774682060008201527f6d69736d61746368000000000000000000000000000000000000000000000000602082015250565b7f455243313135353a206d696e7420746f20746865207a65726f2061646472657360008201527f7300000000000000000000000000000000000000000000000000000000000000602082015250565b600060443d10156134875761350a565b61348f612c6a565b60043d036004823e80513d602482011167ffffffffffffffff821117156134b757505061350a565b808201805167ffffffffffffffff8111156134d5575050505061350a565b80602083010160043d0385018111156134f257505050505061350a565b61350182602001850186612f9c565b82955050505050505b90565b61351681612eb4565b811461352157600080fd5b50565b61352d81612ec6565b811461353857600080fd5b50565b61354481612ed2565b811461354f57600080fd5b50565b61355b81612f1e565b811461356657600080fd5b5056fea2646970667358221220ebad47a4a15f279e62250403a66792d4669c1e0100715e51aeb803ef56aed93064736f6c63430008040033608060405234801561001057600080fd5b50620186a0600081905550600054600160008073ffffffffffffffffffffffffffffffffffffffff1673ffffffffffffffffffffffffffffffffffffffff168152602001908152602001600020819055506108a6806100706000396000f3fe608060405234801561001057600080fd5b506004361061004c5760003560e01c80636c197ff51461005157806370a082311461006d578063a9059cbb1461009d578063d1660f99146100b9575b600080fd5b61006b6004803603810190610066919061066a565b6100ec565b005b610087600480360381019061008291906105f2565b610214565b6040516100949190610732565b60405180910390f35b6100b760048036038101906100b2919061066a565b61025d565b005b6100d360048036038101906100ce919061061b565b6103c8565b6040516100e394939291906106ed565b60405180910390f35b80600160008073ffffffffffffffffffffffffffffffffffffffff1673ffffffffffffffffffffffffffffffffffffffff168152602001908152602001600020600082825461013b91906107a3565b9250508190555080600160008473ffffffffffffffffffffffffffffffffffffffff1673ffffffffffffffffffffffffffffffffffffffff1681526020019081526020016000206000828254610191919061074d565b925050819055507fae92ab4b6f8f401ead768d3273e6bb937a13e39827d19c6376e8fd4512a05d9a82600160008573ffffffffffffffffffffffffffffffffffffffff1673ffffffffffffffffffffffffffffffffffffffff168152602001908152602001600020546040516102089291906106c4565b60405180910390a15050565b6000600160008373ffffffffffffffffffffffffffffffffffffffff1673ffffffffffffffffffffffffffffffffffffffff168152602001908152602001600020549050919050565b80600160003373ffffffffffffffffffffffffffffffffffffffff1673ffffffffffffffffffffffffffffffffffffffff16815260200190815260200160002060008282546102ac91906107a3565b9250508190555080600160008473ffffffffffffffffffffffffffffffffffffffff1673ffffffffffffffffffffffffffffffffffffffff1681526020019081526020016000206000828254610302919061074d565b925050819055507f2bc6cfa90e9c9ca69a7a281d876ef2244b8d5201da959f82a292c994843bc09c33600160003373ffffffffffffffffffffffffffffffffffffffff1673ffffffffffffffffffffffffffffffffffffffff1681526020019081526020016000205484600160008773ffffffffffffffffffffffffffffffffffffffff1673ffffffffffffffffffffffffffffffffffffffff168152602001908152602001600020546040516103bc94939291906106ed565b60405180910390a15050565b60008060008084600160008973ffffffffffffffffffffffffffffffffffffffff1673ffffffffffffffffffffffffffffffffffffffff168152602001908152602001600020600082825461041d91906107a3565b9250508190555084600160008873ffffffffffffffffffffffffffffffffffffffff1673ffffffffffffffffffffffffffffffffffffffff1681526020019081526020016000206000828254610473919061074d565b925050819055507f2bc6cfa90e9c9ca69a7a281d876ef2244b8d5201da959f82a292c994843bc09c87600160008a73ffffffffffffffffffffffffffffffffffffffff1673ffffffffffffffffffffffffffffffffffffffff1681526020019081526020016000205488600160008b73ffffffffffffffffffffffffffffffffffffffff1673ffffffffffffffffffffffffffffffffffffffff1681526020019081526020016000205460405161052d94939291906106ed565b60405180910390a186600160008973ffffffffffffffffffffffffffffffffffffffff1673ffffffffffffffffffffffffffffffffffffffff1681526020019081526020016000205487600160008a73ffffffffffffffffffffffffffffffffffffffff1673ffffffffffffffffffffffffffffffffffffffff16815260200190815260200160002054935093509350935093509350935093565b6000813590506105d781610842565b92915050565b6000813590506105ec81610859565b92915050565b60006020828403121561060457600080fd5b6000610612848285016105c8565b91505092915050565b60008060006060848603121561063057600080fd5b600061063e868287016105c8565b935050602061064f868287016105c8565b9250506040610660868287016105dd565b9150509250925092565b6000806040838503121561067d57600080fd5b600061068b858286016105c8565b925050602061069c858286016105dd565b9150509250929050565b6106af816107d7565b82525050565b6106be81610809565b82525050565b60006040820190506106d960008301856106a6565b6106e660208301846106b5565b9392505050565b600060808201905061070260008301876106a6565b61070f60208301866106b5565b61071c60408301856106a6565b61072960608301846106b5565b95945050505050565b600060208201905061074760008301846106b5565b92915050565b600061075882610809565b915061076383610809565b9250827fffffffffffffffffffffffffffffffffffffffffffffffffffffffffffffffff0382111561079857610797610813565b5b828201905092915050565b60006107ae82610809565b91506107b983610809565b9250828210156107cc576107cb610813565b5b828203905092915050565b60006107e2826107e9565b9050919050565b600073ffffffffffffffffffffffffffffffffffffffff82169050919050565b6000819050919050565b7f4e487b7100000000000000000000000000000000000000000000000000000000600052601160045260246000fd5b61084b816107d7565b811461085657600080fd5b50565b61086281610809565b811461086d57600080fd5b5056fea2646970667358221220753a82912fb0b890068b03d08b1cf49a14961e397d391af50c25beb1bccd722e64736f6c63430008040033608060405234801561001057600080fd5b50620186a0600081905550600054600160008073ffffffffffffffffffffffffffffffffffffffff1673ffffffffffffffffffffffffffffffffffffffff168152602001908152602001600020819055506107fb806100706000396000f3fe608060405234801561001057600080fd5b506004361061004c5760003560e01c80636c197ff51461005157806370a082311461006d578063a9059cbb1461009d578063d1660f99146100b9575b600080fd5b61006b600480360381019061006691906105bf565b6100d5565b005b61008760048036038101906100829190610547565b6101fd565b6040516100949190610687565b60405180910390f35b6100b760048036038101906100b291906105bf565b610246565b005b6100d360048036038101906100ce9190610570565b6103b1565b005b80600160008073ffffffffffffffffffffffffffffffffffffffff1673ffffffffffffffffffffffffffffffffffffffff168152602001908152602001600020600082825461012491906106f8565b9250508190555080600160008473ffffffffffffffffffffffffffffffffffffffff1673ffffffffffffffffffffffffffffffffffffffff168152602001908152602001600020600082825461017a91906106a2565b925050819055507fae92ab4b6f8f401ead768d3273e6bb937a13e39827d19c6376e8fd4512a05d9a82600160008573ffffffffffffffffffffffffffffffffffffffff1673ffffffffffffffffffffffffffffffffffffffff168152602001908152602001600020546040516101f1929190610619565b60405180910390a15050565b6000600160008373ffffffffffffffffffffffffffffffffffffffff1673ffffffffffffffffffffffffffffffffffffffff168152602001908152602001600020549050919050565b80600160003373ffffffffffffffffffffffffffffffffffffffff1673ffffffffffffffffffffffffffffffffffffffff168152602001908152602001600020600082825461029591906106f8565b9250508190555080600160008473ffffffffffffffffffffffffffffffffffffffff1673ffffffffffffffffffffffffffffffffffffffff16815260200190815260200160002060008282546102eb91906106a2565b925050819055507f2bc6cfa90e9c9ca69a7a281d876ef2244b8d5201da959f82a292c994843bc09c33600160003373ffffffffffffffffffffffffffffffffffffffff1673ffffffffffffffffffffffffffffffffffffffff1681526020019081526020016000205484600160008773ffffffffffffffffffffffffffffffffffffffff1673ffffffffffffffffffffffffffffffffffffffff168152602001908152602001600020546040516103a59493929190610642565b60405180910390a15050565b80600160008573ffffffffffffffffffffffffffffffffffffffff1673ffffffffffffffffffffffffffffffffffffffff168152602001908152602001600020600082825461040091906106f8565b9250508190555080600160008473ffffffffffffffffffffffffffffffffffffffff1673ffffffffffffffffffffffffffffffffffffffff168152602001908152602001600020600082825461045691906106a2565b925050819055507f2bc6cfa90e9c9ca69a7a281d876ef2244b8d5201da959f82a292c994843bc09c83600160008673ffffffffffffffffffffffffffffffffffffffff1673ffffffffffffffffffffffffffffffffffffffff1681526020019081526020016000205484600160008773ffffffffffffffffffffffffffffffffffffffff1673ffffffffffffffffffffffffffffffffffffffff168152602001908152602001600020546040516105109493929190610642565b60405180910390a1505050565b60008135905061052c81610797565b92915050565b600081359050610541816107ae565b92915050565b60006020828403121561055957600080fd5b60006105678482850161051d565b91505092915050565b60008060006060848603121561058557600080fd5b60006105938682870161051d565b93505060206105a48682870161051d565b92505060406105b586828701610532565b9150509250925092565b600080604083850312156105d257600080fd5b60006105e08582860161051d565b92505060206105f185828601610532565b9150509250929050565b6106048161072c565b82525050565b6106138161075e565b82525050565b600060408201905061062e60008301856105fb565b61063b602083018461060a565b9392505050565b600060808201905061065760008301876105fb565b610664602083018661060a565b61067160408301856105fb565b61067e606083018461060a565b95945050505050565b600060208201905061069c600083018461060a565b92915050565b60006106ad8261075e565b91506106b88361075e565b9250827fffffffffffffffffffffffffffffffffffffffffffffffffffffffffffffffff038211156106ed576106ec610768565b5b828201905092915050565b60006107038261075e565b915061070e8361075e565b92508282101561072157610720610768565b5b828203905092915050565b60006107378261073e565b9050919050565b600073ffffffffffffffffffffffffffffffffffffffff82169050919050565b6000819050919050565b7f4e487b7100000000000000000000000000000000000000000000000000000000600052601160045260246000fd5b6107a08161072c565b81146107ab57600080fd5b50565b6107b78161075e565b81146107c257600080fd5b5056fea264697066735822122051d3a0c9dc450aea342a2ff1cff02392e6203f22f8bc4a98a94ac453e450f41864736f6c63430008040033",
  "immutableReferences": {},
  "source": "// SPDX-License-Identifier: MIT\npragma solidity ^0.8.0;\nimport '@openzeppelin/contracts/token/ERC1155/ERC1155.sol';\nimport './FakeAfenToken.sol';\nimport './FakeBscToken.sol';\n\ncontract Main is ERC1155{\n    struct Nft {\n        string _hash;\n        uint _aprice;\n        uint _bprice;\n        uint _amount;\n        address _creator;\n        bool _isSell;\n    }\n    Nft[] nft_list;\n    FakeAfenToken afen = new FakeAfenToken();\n    FakeBscToken bsc = new FakeBscToken();\n\n    event Minted(string _hash, uint aprice, uint bprice, uint amount, address creator);\n    event Minted_nft_len(uint length);\n    event SettedSell(uint id, bool isSet, address creator, address setter);\n    constructor() ERC1155(\"\") {}    \n    function mint(string memory _hash, uint _aprice, uint _bprice, uint _amount) public {\n        uint nft_len = nft_list.length;\n        _mint(msg.sender, nft_len, _amount, \"\");\n        Nft memory temp = Nft(_hash, _aprice, _bprice, _amount, msg.sender, false);\n        nft_list.push(temp);\n        emit Minted(_hash, _aprice, _bprice, _amount, msg.sender);\n        emit Minted_nft_len(nft_len+1);\n    }\n\n    function get_nft(uint _id) public view returns(string memory, uint, uint, uint, address) {\n        return (\n            nft_list[_id]._hash,\n            nft_list[_id]._aprice,\n            nft_list[_id]._bprice,\n            nft_list[_id]._amount,\n            nft_list[_id]._creator\n        );\n    }\n\n    function calc_fee(uint _price) public pure returns(uint) {\n        return _price * 10**8 * 7 / 100;\n    }\n\n    event MainTestEvent(address from, uint bal_f, address to, uint bal_t);\n    function set_sell(uint _id, uint token_id) public {\n        nft_list[_id]._isSell = true;\n        if(token_id == 0) {\n            uint list_fee = calc_fee(nft_list[_id]._aprice);\n            address sender = msg.sender;\n            (address a, uint bal_a, address b, uint bal_b) = afen.safeTransfer(sender, address(this), list_fee);\n            emit MainTestEvent(a, bal_a, b, bal_b);\n        } else {\n            uint list_fee = calc_fee(nft_list[_id]._bprice);\n            bsc.safeTransfer(msg.sender, address(this), list_fee);\n        }\n        emit SettedSell(_id, nft_list[_id]._isSell, nft_list[_id]._creator, msg.sender);\n    }\n}",
  "sourcePath": "/home/oncemore/BlockchainWork/afen/contract/contracts/Main.sol",
  "compiler": {
    "name": "solc",
    "version": "0.8.4+commit.c7e474f2.Emscripten.clang"
  },
  "schemaVersion": "3.3.4",
  "updatedAt": "2021-05-31T20:20:13.689Z",
  "networkType": "ethereum",
  "devdoc": {
    "kind": "dev",
    "methods": {
      "balanceOf(address,uint256)": {
        "details": "See {IERC1155-balanceOf}. Requirements: - `account` cannot be the zero address."
      },
      "balanceOfBatch(address[],uint256[])": {
        "details": "See {IERC1155-balanceOfBatch}. Requirements: - `accounts` and `ids` must have the same length."
      },
      "isApprovedForAll(address,address)": {
        "details": "See {IERC1155-isApprovedForAll}."
      },
      "safeBatchTransferFrom(address,address,uint256[],uint256[],bytes)": {
        "details": "See {IERC1155-safeBatchTransferFrom}."
      },
      "safeTransferFrom(address,address,uint256,uint256,bytes)": {
        "details": "See {IERC1155-safeTransferFrom}."
      },
      "setApprovalForAll(address,bool)": {
        "details": "See {IERC1155-setApprovalForAll}."
      },
      "supportsInterface(bytes4)": {
        "details": "See {IERC165-supportsInterface}."
      },
      "uri(uint256)": {
        "details": "See {IERC1155MetadataURI-uri}. This implementation returns the same URI for *all* token types. It relies on the token type ID substitution mechanism https://eips.ethereum.org/EIPS/eip-1155#metadata[defined in the EIP]. Clients calling this function must replace the `\\{id\\}` substring with the actual token type ID."
      }
    },
    "version": 1
  },
  "userdoc": {
    "kind": "user",
    "methods": {},
    "version": 1
  }
}