{
  "contractName": "Main",
  "abi": [
    {
      "inputs": [],
      "stateMutability": "nonpayable",
      "type": "constructor"
    },
    {
      "anonymous": false,
      "inputs": [
        {
          "indexed": false,
          "internalType": "address",
          "name": "to",
          "type": "address"
        },
        {
          "indexed": false,
          "internalType": "uint256",
          "name": "balance_to",
          "type": "uint256"
        }
      ],
      "name": "AfenSold",
      "type": "event"
    },
    {
      "anonymous": false,
      "inputs": [
        {
          "indexed": true,
          "internalType": "address",
          "name": "account",
          "type": "address"
        },
        {
          "indexed": true,
          "internalType": "address",
          "name": "operator",
          "type": "address"
        },
        {
          "indexed": false,
          "internalType": "bool",
          "name": "approved",
          "type": "bool"
        }
      ],
      "name": "ApprovalForAll",
      "type": "event"
    },
    {
      "anonymous": false,
      "inputs": [
        {
          "indexed": false,
          "internalType": "address",
          "name": "from",
          "type": "address"
        },
        {
          "indexed": false,
          "internalType": "uint256",
          "name": "balance_from",
          "type": "uint256"
        },
        {
          "indexed": false,
          "internalType": "address",
          "name": "to",
          "type": "address"
        },
        {
          "indexed": false,
          "internalType": "uint256",
          "name": "balance_to",
          "type": "uint256"
        }
      ],
      "name": "BscSold",
      "type": "event"
    },
    {
      "anonymous": false,
      "inputs": [
        {
          "indexed": false,
          "internalType": "string",
          "name": "_hash",
          "type": "string"
        },
        {
          "indexed": false,
          "internalType": "uint256",
          "name": "aprice",
          "type": "uint256"
        },
        {
          "indexed": false,
          "internalType": "uint256",
          "name": "bprice",
          "type": "uint256"
        },
        {
          "indexed": false,
          "internalType": "uint256",
          "name": "amount",
          "type": "uint256"
        },
        {
          "indexed": false,
          "internalType": "address",
          "name": "creator",
          "type": "address"
        }
      ],
      "name": "Minted",
      "type": "event"
    },
    {
      "anonymous": false,
      "inputs": [
        {
          "indexed": false,
          "internalType": "uint256",
          "name": "length",
          "type": "uint256"
        }
      ],
      "name": "Minted_nft_len",
      "type": "event"
    },
    {
      "anonymous": false,
      "inputs": [
        {
          "indexed": true,
          "internalType": "address",
          "name": "previousOwner",
          "type": "address"
        },
        {
          "indexed": true,
          "internalType": "address",
          "name": "newOwner",
          "type": "address"
        }
      ],
      "name": "OwnershipTransferred",
      "type": "event"
    },
    {
      "anonymous": false,
      "inputs": [
        {
          "indexed": false,
          "internalType": "uint256",
          "name": "nft_id",
          "type": "uint256"
        },
        {
          "indexed": false,
          "internalType": "bool",
          "name": "nft_sell_state",
          "type": "bool"
        },
        {
          "indexed": false,
          "internalType": "uint256",
          "name": "balance_contract",
          "type": "uint256"
        },
        {
          "indexed": false,
          "internalType": "uint256",
          "name": "fee",
          "type": "uint256"
        }
      ],
      "name": "SetSold",
      "type": "event"
    },
    {
      "anonymous": false,
      "inputs": [
        {
          "indexed": false,
          "internalType": "uint256",
          "name": "id",
          "type": "uint256"
        },
        {
          "indexed": false,
          "internalType": "bool",
          "name": "isSet",
          "type": "bool"
        },
        {
          "indexed": false,
          "internalType": "address",
          "name": "creator",
          "type": "address"
        },
        {
          "indexed": false,
          "internalType": "address",
          "name": "setter",
          "type": "address"
        }
      ],
      "name": "SettedSell",
      "type": "event"
    },
    {
      "anonymous": false,
      "inputs": [
        {
          "indexed": true,
          "internalType": "address",
          "name": "operator",
          "type": "address"
        },
        {
          "indexed": true,
          "internalType": "address",
          "name": "from",
          "type": "address"
        },
        {
          "indexed": true,
          "internalType": "address",
          "name": "to",
          "type": "address"
        },
        {
          "indexed": false,
          "internalType": "uint256[]",
          "name": "ids",
          "type": "uint256[]"
        },
        {
          "indexed": false,
          "internalType": "uint256[]",
          "name": "values",
          "type": "uint256[]"
        }
      ],
      "name": "TransferBatch",
      "type": "event"
    },
    {
      "anonymous": false,
      "inputs": [
        {
          "indexed": true,
          "internalType": "address",
          "name": "operator",
          "type": "address"
        },
        {
          "indexed": true,
          "internalType": "address",
          "name": "from",
          "type": "address"
        },
        {
          "indexed": true,
          "internalType": "address",
          "name": "to",
          "type": "address"
        },
        {
          "indexed": false,
          "internalType": "uint256",
          "name": "id",
          "type": "uint256"
        },
        {
          "indexed": false,
          "internalType": "uint256",
          "name": "value",
          "type": "uint256"
        }
      ],
      "name": "TransferSingle",
      "type": "event"
    },
    {
      "anonymous": false,
      "inputs": [
        {
          "indexed": false,
          "internalType": "string",
          "name": "value",
          "type": "string"
        },
        {
          "indexed": true,
          "internalType": "uint256",
          "name": "id",
          "type": "uint256"
        }
      ],
      "name": "URI",
      "type": "event"
    },
    {
      "anonymous": false,
      "inputs": [
        {
          "indexed": false,
          "internalType": "address",
          "name": "_owner",
          "type": "address"
        },
        {
          "indexed": false,
          "internalType": "uint256",
          "name": "balanceOf",
          "type": "uint256"
        }
      ],
      "name": "WithdrawAfen_Event",
      "type": "event"
    },
    {
      "anonymous": false,
      "inputs": [
        {
          "indexed": false,
          "internalType": "address",
          "name": "withdrawer",
          "type": "address"
        }
      ],
      "name": "Withdrawed",
      "type": "event"
    },
    {
      "inputs": [
        {
          "internalType": "address",
          "name": "account",
          "type": "address"
        },
        {
          "internalType": "uint256",
          "name": "id",
          "type": "uint256"
        }
      ],
      "name": "balanceOf",
      "outputs": [
        {
          "internalType": "uint256",
          "name": "",
          "type": "uint256"
        }
      ],
      "stateMutability": "view",
      "type": "function",
      "constant": true
    },
    {
      "inputs": [
        {
          "internalType": "address[]",
          "name": "accounts",
          "type": "address[]"
        },
        {
          "internalType": "uint256[]",
          "name": "ids",
          "type": "uint256[]"
        }
      ],
      "name": "balanceOfBatch",
      "outputs": [
        {
          "internalType": "uint256[]",
          "name": "",
          "type": "uint256[]"
        }
      ],
      "stateMutability": "view",
      "type": "function",
      "constant": true
    },
    {
      "inputs": [
        {
          "internalType": "address",
          "name": "account",
          "type": "address"
        },
        {
          "internalType": "address",
          "name": "operator",
          "type": "address"
        }
      ],
      "name": "isApprovedForAll",
      "outputs": [
        {
          "internalType": "bool",
          "name": "",
          "type": "bool"
        }
      ],
      "stateMutability": "view",
      "type": "function",
      "constant": true
    },
    {
      "inputs": [],
      "name": "owner",
      "outputs": [
        {
          "internalType": "address",
          "name": "",
          "type": "address"
        }
      ],
      "stateMutability": "view",
      "type": "function",
      "constant": true
    },
    {
      "inputs": [],
      "name": "renounceOwnership",
      "outputs": [],
      "stateMutability": "nonpayable",
      "type": "function"
    },
    {
      "inputs": [
        {
          "internalType": "address",
          "name": "from",
          "type": "address"
        },
        {
          "internalType": "address",
          "name": "to",
          "type": "address"
        },
        {
          "internalType": "uint256[]",
          "name": "ids",
          "type": "uint256[]"
        },
        {
          "internalType": "uint256[]",
          "name": "amounts",
          "type": "uint256[]"
        },
        {
          "internalType": "bytes",
          "name": "data",
          "type": "bytes"
        }
      ],
      "name": "safeBatchTransferFrom",
      "outputs": [],
      "stateMutability": "nonpayable",
      "type": "function"
    },
    {
      "inputs": [
        {
          "internalType": "address",
          "name": "from",
          "type": "address"
        },
        {
          "internalType": "address",
          "name": "to",
          "type": "address"
        },
        {
          "internalType": "uint256",
          "name": "id",
          "type": "uint256"
        },
        {
          "internalType": "uint256",
          "name": "amount",
          "type": "uint256"
        },
        {
          "internalType": "bytes",
          "name": "data",
          "type": "bytes"
        }
      ],
      "name": "safeTransferFrom",
      "outputs": [],
      "stateMutability": "nonpayable",
      "type": "function"
    },
    {
      "inputs": [
        {
          "internalType": "address",
          "name": "operator",
          "type": "address"
        },
        {
          "internalType": "bool",
          "name": "approved",
          "type": "bool"
        }
      ],
      "name": "setApprovalForAll",
      "outputs": [],
      "stateMutability": "nonpayable",
      "type": "function"
    },
    {
      "inputs": [
        {
          "internalType": "bytes4",
          "name": "interfaceId",
          "type": "bytes4"
        }
      ],
      "name": "supportsInterface",
      "outputs": [
        {
          "internalType": "bool",
          "name": "",
          "type": "bool"
        }
      ],
      "stateMutability": "view",
      "type": "function",
      "constant": true
    },
    {
      "inputs": [
        {
          "internalType": "address",
          "name": "newOwner",
          "type": "address"
        }
      ],
      "name": "transferOwnership",
      "outputs": [],
      "stateMutability": "nonpayable",
      "type": "function"
    },
    {
      "inputs": [
        {
          "internalType": "uint256",
          "name": "",
          "type": "uint256"
        }
      ],
      "name": "uri",
      "outputs": [
        {
          "internalType": "string",
          "name": "",
          "type": "string"
        }
      ],
      "stateMutability": "view",
      "type": "function",
      "constant": true
    },
    {
      "stateMutability": "payable",
      "type": "receive",
      "payable": true
    },
    {
      "inputs": [],
      "name": "withdrawBnb",
      "outputs": [],
      "stateMutability": "payable",
      "type": "function",
      "payable": true
    },
    {
      "inputs": [],
      "name": "withdrawAfen",
      "outputs": [],
      "stateMutability": "payable",
      "type": "function",
      "payable": true
    },
    {
      "inputs": [
        {
          "internalType": "string",
          "name": "_hash",
          "type": "string"
        },
        {
          "internalType": "uint256",
          "name": "_aprice",
          "type": "uint256"
        },
        {
          "internalType": "uint256",
          "name": "_bprice",
          "type": "uint256"
        },
        {
          "internalType": "uint256",
          "name": "_amount",
          "type": "uint256"
        }
      ],
      "name": "mint",
      "outputs": [],
      "stateMutability": "nonpayable",
      "type": "function"
    },
    {
      "inputs": [
        {
          "internalType": "uint256",
          "name": "_id",
          "type": "uint256"
        }
      ],
      "name": "get_nft",
      "outputs": [
        {
          "internalType": "string",
          "name": "",
          "type": "string"
        },
        {
          "internalType": "uint256",
          "name": "",
          "type": "uint256"
        },
        {
          "internalType": "uint256",
          "name": "",
          "type": "uint256"
        },
        {
          "internalType": "uint256",
          "name": "",
          "type": "uint256"
        },
        {
          "internalType": "address",
          "name": "",
          "type": "address"
        }
      ],
      "stateMutability": "view",
      "type": "function",
      "constant": true
    },
    {
      "inputs": [
        {
          "internalType": "uint256",
          "name": "_price",
          "type": "uint256"
        }
      ],
      "name": "calc_fee",
      "outputs": [
        {
          "internalType": "uint256",
          "name": "",
          "type": "uint256"
        }
      ],
      "stateMutability": "pure",
      "type": "function",
      "constant": true
    },
    {
      "inputs": [
        {
          "internalType": "address",
          "name": "_to",
          "type": "address"
        },
        {
          "internalType": "uint256",
          "name": "_amount",
          "type": "uint256"
        }
      ],
      "name": "afen_sell",
      "outputs": [],
      "stateMutability": "nonpayable",
      "type": "function"
    },
    {
      "inputs": [
        {
          "internalType": "address",
          "name": "_from",
          "type": "address"
        },
        {
          "internalType": "address",
          "name": "_to",
          "type": "address"
        },
        {
          "internalType": "uint256",
          "name": "_amount",
          "type": "uint256"
        }
      ],
      "name": "bsc_sell",
      "outputs": [],
      "stateMutability": "nonpayable",
      "type": "function"
    },
    {
      "inputs": [
        {
          "internalType": "uint256",
          "name": "_id",
          "type": "uint256"
        },
        {
          "internalType": "uint256",
          "name": "_token_id",
          "type": "uint256"
        }
      ],
      "name": "SetSell",
      "outputs": [],
      "stateMutability": "nonpayable",
      "type": "function"
    },
    {
      "inputs": [
        {
          "internalType": "uint256",
          "name": "_price",
          "type": "uint256"
        }
      ],
      "name": "buy_fee",
      "outputs": [
        {
          "internalType": "uint256",
          "name": "",
          "type": "uint256"
        }
      ],
      "stateMutability": "pure",
      "type": "function",
      "constant": true
    },
    {
      "inputs": [
        {
          "internalType": "uint256",
          "name": "_id",
          "type": "uint256"
        },
        {
          "internalType": "uint256",
          "name": "_token_id",
          "type": "uint256"
        },
        {
          "internalType": "uint256",
          "name": "_amount",
          "type": "uint256"
        }
      ],
      "name": "buy",
      "outputs": [],
      "stateMutability": "nonpayable",
      "type": "function"
    }
  ],
  "bytecode": "0x60806040526040516200001290620001e7565b604051809103906000f0801580156200002f573d6000803e3d6000fd5b50600560006101000a81548173ffffffffffffffffffffffffffffffffffffffff021916908373ffffffffffffffffffffffffffffffffffffffff1602179055506040516200007e90620001f5565b604051809103906000f0801580156200009b573d6000803e3d6000fd5b50600660006101000a81548173ffffffffffffffffffffffffffffffffffffffff021916908373ffffffffffffffffffffffffffffffffffffffff160217905550348015620000e957600080fd5b50604051806020016040528060008152506200010b81620001c360201b60201c565b5060006200011e620001df60201b60201c565b905080600360006101000a81548173ffffffffffffffffffffffffffffffffffffffff021916908373ffffffffffffffffffffffffffffffffffffffff1602179055508073ffffffffffffffffffffffffffffffffffffffff16600073ffffffffffffffffffffffffffffffffffffffff167f8be0079c531659141344cd1fd0a4f28419497f9722a3daafe3b4186f6b6457e060405160405180910390a35062000318565b8060029080519060200190620001db92919062000203565b5050565b600033905090565b6109718062004b4f83390190565b61086b80620054c083390190565b8280546200021190620002b3565b90600052602060002090601f01602090048101928262000235576000855562000281565b82601f106200025057805160ff191683800117855562000281565b8280016001018555821562000281579182015b828111156200028057825182559160200191906001019062000263565b5b50905062000290919062000294565b5090565b5b80821115620002af57600081600090555060010162000295565b5090565b60006002820490506001821680620002cc57607f821691505b60208210811415620002e357620002e2620002e9565b5b50919050565b7f4e487b7100000000000000000000000000000000000000000000000000000000600052602260045260246000fd5b61482780620003286000396000f3fe60806040526004361061012d5760003560e01c80634e1273f4116100ab578063a22cb4651161006f578063a22cb465146103ce578063ae7e0a7d146103f7578063e985e9c514610434578063efd7d77814610471578063f242432a1461049a578063f2fde38b146104c357610134565b80634e1273f4146103085780636c315fa714610345578063715018a6146103825780637a0b33dd146103995780638da5cb5b146103a357610134565b80631da0603a116100f25780631da0603a1461025a5780632eb2c2d61461026457806336a44b1d1461028d5780633a8684a8146102b657806340993b26146102df57610134565b8062fdd58e1461013957806301ffc9a714610176578063027a2255146101b35780630e89341c146101dc5780630ebac2ee1461021957610134565b3661013457005b600080fd5b34801561014557600080fd5b50610160600480360381019061015b9190613410565b6104ec565b60405161016d9190613dd6565b60405180910390f35b34801561018257600080fd5b5061019d600480360381019061019891906134b8565b6105b5565b6040516101aa9190613b9f565b60405180910390f35b3480156101bf57600080fd5b506101da60048036038101906101d5919061350a565b610697565b005b3480156101e857600080fd5b5061020360048036038101906101fe9190613585565b6108c3565b6040516102109190613bba565b60405180910390f35b34801561022557600080fd5b50610240600480360381019061023b9190613585565b610957565b604051610251959493929190613bdc565b60405180910390f35b610262610b99565b005b34801561027057600080fd5b5061028b60048036038101906102869190613237565b610c64565b005b34801561029957600080fd5b506102b460048036038101906102af9190613410565b61105a565b005b3480156102c257600080fd5b506102dd60048036038101906102d8919061364e565b6111d0565b005b3480156102eb57600080fd5b506103066004803603810190610301919061368a565b6114f5565b005b34801561031457600080fd5b5061032f600480360381019061032a919061344c565b6118e7565b60405161033c9190613b46565b60405180910390f35b34801561035157600080fd5b5061036c60048036038101906103679190613585565b611a98565b6040516103799190613dd6565b60405180910390f35b34801561038e57600080fd5b50610397611aba565b005b6103a1611bf7565b005b3480156103af57600080fd5b506103b8611e9d565b6040516103c591906139c4565b60405180910390f35b3480156103da57600080fd5b506103f560048036038101906103f091906133d4565b611ec7565b005b34801561040357600080fd5b5061041e60048036038101906104199190613585565b612048565b60405161042b9190613dd6565b60405180910390f35b34801561044057600080fd5b5061045b600480360381019061045691906131fb565b61206a565b6040516104689190613b9f565b60405180910390f35b34801561047d57600080fd5b50610498600480360381019061049391906132f6565b6120fe565b005b3480156104a657600080fd5b506104c160048036038101906104bc9190613345565b612325565b005b3480156104cf57600080fd5b506104ea60048036038101906104e591906131d2565b61263d565b005b60008073ffffffffffffffffffffffffffffffffffffffff168373ffffffffffffffffffffffffffffffffffffffff16141561055d576040517f08c379a000000000000000000000000000000000000000000000000000000000815260040161055490613c76565b60405180910390fd5b60008083815260200190815260200160002060008473ffffffffffffffffffffffffffffffffffffffff1673ffffffffffffffffffffffffffffffffffffffff16815260200190815260200160002054905092915050565b60007fd9b67a26000000000000000000000000000000000000000000000000000000007bffffffffffffffffffffffffffffffffffffffffffffffffffffffff1916827bffffffffffffffffffffffffffffffffffffffffffffffffffffffff1916148061068057507f0e89341c000000000000000000000000000000000000000000000000000000007bffffffffffffffffffffffffffffffffffffffffffffffffffffffff1916827bffffffffffffffffffffffffffffffffffffffffffffffffffffffff1916145b80610690575061068f826127e9565b5b9050919050565b600060048054905090506106bc33828460405180602001604052806000815250612853565b60006040518060e001604052808781526020018681526020018581526020018481526020013373ffffffffffffffffffffffffffffffffffffffff1681526020013373ffffffffffffffffffffffffffffffffffffffff1681526020016000151581525090506004819080600181540180825580915050600190039060005260206000209060060201600090919091909150600082015181600001908051906020019061076a929190612ea0565b5060208201518160010155604082015181600201556060820151816003015560808201518160040160006101000a81548173ffffffffffffffffffffffffffffffffffffffff021916908373ffffffffffffffffffffffffffffffffffffffff16021790555060a08201518160050160006101000a81548173ffffffffffffffffffffffffffffffffffffffff021916908373ffffffffffffffffffffffffffffffffffffffff16021790555060c08201518160050160146101000a81548160ff02191690831515021790555050507fe4c9864ec89329afd247f9b9340e26b88eb9f5c4ea1c86efcef40749d0c793f18686868633604051610870959493929190613bdc565b60405180910390a17f4160983c27f656d400f3aa2e3b13cbf66d5725b8118e09638d5154c8cad165cd6001836108a69190613faf565b6040516108b39190613dd6565b60405180910390a1505050505050565b6060600280546108d29061417a565b80601f01602080910402602001604051908101604052809291908181526020018280546108fe9061417a565b801561094b5780601f106109205761010080835404028352916020019161094b565b820191906000526020600020905b81548152906001019060200180831161092e57829003601f168201915b50505050509050919050565b606060008060008060048681548110610999577f4e487b7100000000000000000000000000000000000000000000000000000000600052603260045260246000fd5b9060005260206000209060060201600001600487815481106109e4577f4e487b7100000000000000000000000000000000000000000000000000000000600052603260045260246000fd5b90600052602060002090600602016001015460048881548110610a30577f4e487b7100000000000000000000000000000000000000000000000000000000600052603260045260246000fd5b90600052602060002090600602016002015460048981548110610a7c577f4e487b7100000000000000000000000000000000000000000000000000000000600052603260045260246000fd5b90600052602060002090600602016003015460048a81548110610ac8577f4e487b7100000000000000000000000000000000000000000000000000000000600052603260045260246000fd5b906000526020600020906006020160040160009054906101000a900473ffffffffffffffffffffffffffffffffffffffff16848054610b069061417a565b80601f0160208091040260200160405190810160405280929190818152602001828054610b329061417a565b8015610b7f5780601f10610b5457610100808354040283529160200191610b7f565b820191906000526020600020905b815481529060010190602001808311610b6257829003601f168201915b505050505094509450945094509450945091939590929450565b610ba16129e9565b73ffffffffffffffffffffffffffffffffffffffff16610bbf611e9d565b73ffffffffffffffffffffffffffffffffffffffff1614610c15576040517f08c379a0000000000000000000000000000000000000000000000000000000008152600401610c0c90613d36565b60405180910390fd5b60003390508073ffffffffffffffffffffffffffffffffffffffff166108fc479081150290604051600060405180830381858888f19350505050158015610c60573d6000803e3d6000fd5b5050565b8151835114610ca8576040517f08c379a0000000000000000000000000000000000000000000000000000000008152600401610c9f90613d96565b60405180910390fd5b600073ffffffffffffffffffffffffffffffffffffffff168473ffffffffffffffffffffffffffffffffffffffff161415610d18576040517f08c379a0000000000000000000000000000000000000000000000000000000008152600401610d0f90613cd6565b60405180910390fd5b610d206129e9565b73ffffffffffffffffffffffffffffffffffffffff168573ffffffffffffffffffffffffffffffffffffffff161480610d665750610d6585610d606129e9565b61206a565b5b610da5576040517f08c379a0000000000000000000000000000000000000000000000000000000008152600401610d9c90613cf6565b60405180910390fd5b6000610daf6129e9565b9050610dbf8187878787876129f1565b60005b8451811015610fc5576000858281518110610e06577f4e487b7100000000000000000000000000000000000000000000000000000000600052603260045260246000fd5b602002602001015190506000858381518110610e4b577f4e487b7100000000000000000000000000000000000000000000000000000000600052603260045260246000fd5b60200260200101519050600080600084815260200190815260200160002060008b73ffffffffffffffffffffffffffffffffffffffff1673ffffffffffffffffffffffffffffffffffffffff16815260200190815260200160002054905081811015610eec576040517f08c379a0000000000000000000000000000000000000000000000000000000008152600401610ee390613d16565b60405180910390fd5b8181610ef89190614090565b60008085815260200190815260200160002060008c73ffffffffffffffffffffffffffffffffffffffff1673ffffffffffffffffffffffffffffffffffffffff168152602001908152602001600020819055508160008085815260200190815260200160002060008b73ffffffffffffffffffffffffffffffffffffffff1673ffffffffffffffffffffffffffffffffffffffff1681526020019081526020016000206000828254610faa9190613faf565b9250508190555050505080610fbe906141dd565b9050610dc2565b508473ffffffffffffffffffffffffffffffffffffffff168673ffffffffffffffffffffffffffffffffffffffff168273ffffffffffffffffffffffffffffffffffffffff167f4a39dc06d4c0dbc64b70af90fd698a233a518aa5d07e595d983b8c0526c8f7fb878760405161103c929190613b68565b60405180910390a46110528187878787876129f9565b505050505050565b600560009054906101000a900473ffffffffffffffffffffffffffffffffffffffff1673ffffffffffffffffffffffffffffffffffffffff16636c197ff583836040518363ffffffff1660e01b81526004016110b7929190613ad8565b600060405180830381600087803b1580156110d157600080fd5b505af11580156110e5573d6000803e3d6000fd5b505050507f743180d451ff75f8bf7032c1520bc02c40ffe3867d468d3620539b52f5ff433082600560009054906101000a900473ffffffffffffffffffffffffffffffffffffffff1673ffffffffffffffffffffffffffffffffffffffff166370a08231856040518263ffffffff1660e01b815260040161116691906139c4565b60206040518083038186803b15801561117e57600080fd5b505afa158015611192573d6000803e3d6000fd5b505050506040513d601f19601f820116820180604052508101906111b691906135ae565b6040516111c4929190613ad8565b60405180910390a15050565b60016004838154811061120c577f4e487b7100000000000000000000000000000000000000000000000000000000600052603260045260246000fd5b906000526020600020906006020160050160146101000a81548160ff02191690831515021790555060008082141561134f576112926004848154811061127b577f4e487b7100000000000000000000000000000000000000000000000000000000600052603260045260246000fd5b906000526020600020906006020160010154612048565b9050600560009054906101000a900473ffffffffffffffffffffffffffffffffffffffff1673ffffffffffffffffffffffffffffffffffffffff1663d1660f993330846040518463ffffffff1660e01b81526004016112f393929190613a47565b60a060405180830381600087803b15801561130d57600080fd5b505af1158015611321573d6000803e3d6000fd5b505050506040513d601f19601f8201168201806040525081019061134591906135d7565b50505050506113b1565b6113a36004848154811061138c577f4e487b7100000000000000000000000000000000000000000000000000000000600052603260045260246000fd5b906000526020600020906006020160020154612048565b90506113b03330836120fe565b5b7f349574ca4eda7c1f472f661b07c6a6f63df01e951b1c5ef350c9293fbef40aba836004858154811061140d577f4e487b7100000000000000000000000000000000000000000000000000000000600052603260045260246000fd5b906000526020600020906006020160050160149054906101000a900460ff16600560009054906101000a900473ffffffffffffffffffffffffffffffffffffffff1673ffffffffffffffffffffffffffffffffffffffff166370a08231306040518263ffffffff1660e01b815260040161148791906139c4565b60206040518083038186803b15801561149f57600080fd5b505afa1580156114b3573d6000803e3d6000fd5b505050506040513d601f19601f820116820180604052508101906114d791906135ae565b846040516114e89493929190613df1565b60405180910390a1505050565b600060048481548110611531577f4e487b7100000000000000000000000000000000000000000000000000000000600052603260045260246000fd5b906000526020600020906006020160050160146101000a81548160ff0219169083151502179055506000808314156116df576115b7600485815481106115a0577f4e487b7100000000000000000000000000000000000000000000000000000000600052603260045260246000fd5b906000526020600020906006020160010154611a98565b9050600560009054906101000a900473ffffffffffffffffffffffffffffffffffffffff1673ffffffffffffffffffffffffffffffffffffffff1663d1660f993360048781548110611632577f4e487b7100000000000000000000000000000000000000000000000000000000600052603260045260246000fd5b906000526020600020906006020160050160009054906101000a900473ffffffffffffffffffffffffffffffffffffffff16846040518463ffffffff1660e01b815260040161168393929190613a47565b60a060405180830381600087803b15801561169d57600080fd5b505af11580156116b1573d6000803e3d6000fd5b505050506040513d601f19601f820116820180604052508101906116d591906135d7565b5050505050611857565b6117336004858154811061171c577f4e487b7100000000000000000000000000000000000000000000000000000000600052603260045260246000fd5b906000526020600020906006020160020154611a98565b9050600560009054906101000a900473ffffffffffffffffffffffffffffffffffffffff1673ffffffffffffffffffffffffffffffffffffffff1663d1660f9933600487815481106117ae577f4e487b7100000000000000000000000000000000000000000000000000000000600052603260045260246000fd5b906000526020600020906006020160050160009054906101000a900473ffffffffffffffffffffffffffffffffffffffff16846040518463ffffffff1660e01b81526004016117ff93929190613a47565b60a060405180830381600087803b15801561181957600080fd5b505af115801561182d573d6000803e3d6000fd5b505050506040513d601f19601f8201168201806040525081019061185191906135d7565b50505050505b3360048581548110611892577f4e487b7100000000000000000000000000000000000000000000000000000000600052603260045260246000fd5b906000526020600020906006020160050160006101000a81548173ffffffffffffffffffffffffffffffffffffffff021916908373ffffffffffffffffffffffffffffffffffffffff16021790555050505050565b6060815183511461192d576040517f08c379a000000000000000000000000000000000000000000000000000000000815260040161192490613d76565b60405180910390fd5b6000835167ffffffffffffffff811115611970577f4e487b7100000000000000000000000000000000000000000000000000000000600052604160045260246000fd5b60405190808252806020026020018201604052801561199e5781602001602082028036833780820191505090505b50905060005b8451811015611a8d57611a378582815181106119e9577f4e487b7100000000000000000000000000000000000000000000000000000000600052603260045260246000fd5b6020026020010151858381518110611a2a577f4e487b7100000000000000000000000000000000000000000000000000000000600052603260045260246000fd5b60200260200101516104ec565b828281518110611a70577f4e487b7100000000000000000000000000000000000000000000000000000000600052603260045260246000fd5b60200260200101818152505080611a86906141dd565b90506119a4565b508091505092915050565b60006064600783611aa99190614036565b611ab39190614005565b9050919050565b611ac26129e9565b73ffffffffffffffffffffffffffffffffffffffff16611ae0611e9d565b73ffffffffffffffffffffffffffffffffffffffff1614611b36576040517f08c379a0000000000000000000000000000000000000000000000000000000008152600401611b2d90613d36565b60405180910390fd5b600073ffffffffffffffffffffffffffffffffffffffff16600360009054906101000a900473ffffffffffffffffffffffffffffffffffffffff1673ffffffffffffffffffffffffffffffffffffffff167f8be0079c531659141344cd1fd0a4f28419497f9722a3daafe3b4186f6b6457e060405160405180910390a36000600360006101000a81548173ffffffffffffffffffffffffffffffffffffffff021916908373ffffffffffffffffffffffffffffffffffffffff160217905550565b611bff6129e9565b73ffffffffffffffffffffffffffffffffffffffff16611c1d611e9d565b73ffffffffffffffffffffffffffffffffffffffff1614611c73576040517f08c379a0000000000000000000000000000000000000000000000000000000008152600401611c6a90613d36565b60405180910390fd5b6000600560009054906101000a900473ffffffffffffffffffffffffffffffffffffffff1673ffffffffffffffffffffffffffffffffffffffff166370a08231336040518263ffffffff1660e01b8152600401611cd091906139c4565b60206040518083038186803b158015611ce857600080fd5b505afa158015611cfc573d6000803e3d6000fd5b505050506040513d601f19601f82011682018060405250810190611d2091906135ae565b9050600560009054906101000a900473ffffffffffffffffffffffffffffffffffffffff1673ffffffffffffffffffffffffffffffffffffffff1663a9059cbb33836040518363ffffffff1660e01b8152600401611d7f929190613ad8565b600060405180830381600087803b158015611d9957600080fd5b505af1158015611dad573d6000803e3d6000fd5b505050506000600560009054906101000a900473ffffffffffffffffffffffffffffffffffffffff1673ffffffffffffffffffffffffffffffffffffffff166370a08231336040518263ffffffff1660e01b8152600401611e0e91906139c4565b60206040518083038186803b158015611e2657600080fd5b505afa158015611e3a573d6000803e3d6000fd5b505050506040513d601f19601f82011682018060405250810190611e5e91906135ae565b90507f4186fec0b05fb604bbee7a6f0f6e16b86e7a96633a13bea9fbdcacb464f1bd253382604051611e91929190613ad8565b60405180910390a15050565b6000600360009054906101000a900473ffffffffffffffffffffffffffffffffffffffff16905090565b8173ffffffffffffffffffffffffffffffffffffffff16611ee66129e9565b73ffffffffffffffffffffffffffffffffffffffff161415611f3d576040517f08c379a0000000000000000000000000000000000000000000000000000000008152600401611f3490613d56565b60405180910390fd5b8060016000611f4a6129e9565b73ffffffffffffffffffffffffffffffffffffffff1673ffffffffffffffffffffffffffffffffffffffff16815260200190815260200160002060008473ffffffffffffffffffffffffffffffffffffffff1673ffffffffffffffffffffffffffffffffffffffff16815260200190815260200160002060006101000a81548160ff0219169083151502179055508173ffffffffffffffffffffffffffffffffffffffff16611ff76129e9565b73ffffffffffffffffffffffffffffffffffffffff167f17307eab39ab6107e8899845ad3d59bd9653f200f220920489ca2b5937696c318360405161203c9190613b9f565b60405180910390a35050565b600060646004836120599190614036565b6120639190614005565b9050919050565b6000600160008473ffffffffffffffffffffffffffffffffffffffff1673ffffffffffffffffffffffffffffffffffffffff16815260200190815260200160002060008373ffffffffffffffffffffffffffffffffffffffff1673ffffffffffffffffffffffffffffffffffffffff16815260200190815260200160002060009054906101000a900460ff16905092915050565b600660009054906101000a900473ffffffffffffffffffffffffffffffffffffffff1673ffffffffffffffffffffffffffffffffffffffff1663d1660f998484846040518463ffffffff1660e01b815260040161215d93929190613a47565b600060405180830381600087803b15801561217757600080fd5b505af115801561218b573d6000803e3d6000fd5b505050507f93732f2e8e9bd66cfe581b8f0cfe69104f04bdb007d523de7311e6ce564b6fda83600560009054906101000a900473ffffffffffffffffffffffffffffffffffffffff1673ffffffffffffffffffffffffffffffffffffffff166370a08231866040518263ffffffff1660e01b815260040161220c91906139c4565b60206040518083038186803b15801561222457600080fd5b505afa158015612238573d6000803e3d6000fd5b505050506040513d601f19601f8201168201806040525081019061225c91906135ae565b84600560009054906101000a900473ffffffffffffffffffffffffffffffffffffffff1673ffffffffffffffffffffffffffffffffffffffff166370a08231876040518263ffffffff1660e01b81526004016122b891906139c4565b60206040518083038186803b1580156122d057600080fd5b505afa1580156122e4573d6000803e3d6000fd5b505050506040513d601f19601f8201168201806040525081019061230891906135ae565b6040516123189493929190613b01565b60405180910390a1505050565b600073ffffffffffffffffffffffffffffffffffffffff168473ffffffffffffffffffffffffffffffffffffffff161415612395576040517f08c379a000000000000000000000000000000000000000000000000000000000815260040161238c90613cd6565b60405180910390fd5b61239d6129e9565b73ffffffffffffffffffffffffffffffffffffffff168573ffffffffffffffffffffffffffffffffffffffff1614806123e357506123e2856123dd6129e9565b61206a565b5b612422576040517f08c379a000000000000000000000000000000000000000000000000000000000815260040161241990613cb6565b60405180910390fd5b600061242c6129e9565b905061244c81878761243d88612be0565b61244688612be0565b876129f1565b600080600086815260200190815260200160002060008873ffffffffffffffffffffffffffffffffffffffff1673ffffffffffffffffffffffffffffffffffffffff168152602001908152602001600020549050838110156124e3576040517f08c379a00000000000000000000000000000000000000000000000000000000081526004016124da90613d16565b60405180910390fd5b83816124ef9190614090565b60008087815260200190815260200160002060008973ffffffffffffffffffffffffffffffffffffffff1673ffffffffffffffffffffffffffffffffffffffff168152602001908152602001600020819055508360008087815260200190815260200160002060008873ffffffffffffffffffffffffffffffffffffffff1673ffffffffffffffffffffffffffffffffffffffff16815260200190815260200160002060008282546125a19190613faf565b925050819055508573ffffffffffffffffffffffffffffffffffffffff168773ffffffffffffffffffffffffffffffffffffffff168373ffffffffffffffffffffffffffffffffffffffff167fc3d58168c5ae7397731d063d5bbf3d657854427343f4c083240f7aacaa2d0f62888860405161261e929190613e36565b60405180910390a4612634828888888888612ca6565b50505050505050565b6126456129e9565b73ffffffffffffffffffffffffffffffffffffffff16612663611e9d565b73ffffffffffffffffffffffffffffffffffffffff16146126b9576040517f08c379a00000000000000000000000000000000000000000000000000000000081526004016126b090613d36565b60405180910390fd5b600073ffffffffffffffffffffffffffffffffffffffff168173ffffffffffffffffffffffffffffffffffffffff161415612729576040517f08c379a000000000000000000000000000000000000000000000000000000000815260040161272090613c96565b60405180910390fd5b8073ffffffffffffffffffffffffffffffffffffffff16600360009054906101000a900473ffffffffffffffffffffffffffffffffffffffff1673ffffffffffffffffffffffffffffffffffffffff167f8be0079c531659141344cd1fd0a4f28419497f9722a3daafe3b4186f6b6457e060405160405180910390a380600360006101000a81548173ffffffffffffffffffffffffffffffffffffffff021916908373ffffffffffffffffffffffffffffffffffffffff16021790555050565b60007f01ffc9a7000000000000000000000000000000000000000000000000000000007bffffffffffffffffffffffffffffffffffffffffffffffffffffffff1916827bffffffffffffffffffffffffffffffffffffffffffffffffffffffff1916149050919050565b600073ffffffffffffffffffffffffffffffffffffffff168473ffffffffffffffffffffffffffffffffffffffff1614156128c3576040517f08c379a00000000000000000000000000000000000000000000000000000000081526004016128ba90613db6565b60405180910390fd5b60006128cd6129e9565b90506128ee816000876128df88612be0565b6128e888612be0565b876129f1565b8260008086815260200190815260200160002060008773ffffffffffffffffffffffffffffffffffffffff1673ffffffffffffffffffffffffffffffffffffffff168152602001908152602001600020600082825461294d9190613faf565b925050819055508473ffffffffffffffffffffffffffffffffffffffff16600073ffffffffffffffffffffffffffffffffffffffff168273ffffffffffffffffffffffffffffffffffffffff167fc3d58168c5ae7397731d063d5bbf3d657854427343f4c083240f7aacaa2d0f6287876040516129cb929190613e36565b60405180910390a46129e281600087878787612ca6565b5050505050565b600033905090565b505050505050565b612a188473ffffffffffffffffffffffffffffffffffffffff16612e8d565b15612bd8578373ffffffffffffffffffffffffffffffffffffffff1663bc197c8187878686866040518663ffffffff1660e01b8152600401612a5e9594939291906139df565b602060405180830381600087803b158015612a7857600080fd5b505af1925050508015612aa957506040513d601f19601f82011682018060405250810190612aa691906134e1565b60015b612b4f57612ab56142e2565b806308c379a01415612b125750612aca6146ff565b80612ad55750612b14565b806040517f08c379a0000000000000000000000000000000000000000000000000000000008152600401612b099190613bba565b60405180910390fd5b505b6040517f08c379a0000000000000000000000000000000000000000000000000000000008152600401612b4690613c36565b60405180910390fd5b63bc197c8160e01b7bffffffffffffffffffffffffffffffffffffffffffffffffffffffff1916817bffffffffffffffffffffffffffffffffffffffffffffffffffffffff191614612bd6576040517f08c379a0000000000000000000000000000000000000000000000000000000008152600401612bcd90613c56565b60405180910390fd5b505b505050505050565b60606000600167ffffffffffffffff811115612c25577f4e487b7100000000000000000000000000000000000000000000000000000000600052604160045260246000fd5b604051908082528060200260200182016040528015612c535781602001602082028036833780820191505090505b5090508281600081518110612c91577f4e487b7100000000000000000000000000000000000000000000000000000000600052603260045260246000fd5b60200260200101818152505080915050919050565b612cc58473ffffffffffffffffffffffffffffffffffffffff16612e8d565b15612e85578373ffffffffffffffffffffffffffffffffffffffff1663f23a6e6187878686866040518663ffffffff1660e01b8152600401612d0b959493929190613a7e565b602060405180830381600087803b158015612d2557600080fd5b505af1925050508015612d5657506040513d601f19601f82011682018060405250810190612d5391906134e1565b60015b612dfc57612d626142e2565b806308c379a01415612dbf5750612d776146ff565b80612d825750612dc1565b806040517f08c379a0000000000000000000000000000000000000000000000000000000008152600401612db69190613bba565b60405180910390fd5b505b6040517f08c379a0000000000000000000000000000000000000000000000000000000008152600401612df390613c36565b60405180910390fd5b63f23a6e6160e01b7bffffffffffffffffffffffffffffffffffffffffffffffffffffffff1916817bffffffffffffffffffffffffffffffffffffffffffffffffffffffff191614612e83576040517f08c379a0000000000000000000000000000000000000000000000000000000008152600401612e7a90613c56565b60405180910390fd5b505b505050505050565b600080823b905060008111915050919050565b828054612eac9061417a565b90600052602060002090601f016020900481019282612ece5760008555612f15565b82601f10612ee757805160ff1916838001178555612f15565b82800160010185558215612f15579182015b82811115612f14578251825591602001919060010190612ef9565b5b509050612f229190612f26565b5090565b5b80821115612f3f576000816000905550600101612f27565b5090565b6000612f56612f5184613e84565b613e5f565b90508083825260208201905082856020860282011115612f7557600080fd5b60005b85811015612fa55781612f8b8882613097565b845260208401935060208301925050600181019050612f78565b5050509392505050565b6000612fc2612fbd84613eb0565b613e5f565b90508083825260208201905082856020860282011115612fe157600080fd5b60005b858110156130115781612ff788826131a8565b845260208401935060208301925050600181019050612fe4565b5050509392505050565b600061302e61302984613edc565b613e5f565b90508281526020810184848401111561304657600080fd5b613051848285614138565b509392505050565b600061306c61306784613f0d565b613e5f565b90508281526020810184848401111561308457600080fd5b61308f848285614138565b509392505050565b6000813590506130a681614795565b92915050565b6000815190506130bb81614795565b92915050565b600082601f8301126130d257600080fd5b81356130e2848260208601612f43565b91505092915050565b600082601f8301126130fc57600080fd5b813561310c848260208601612faf565b91505092915050565b600081359050613124816147ac565b92915050565b600081359050613139816147c3565b92915050565b60008151905061314e816147c3565b92915050565b600082601f83011261316557600080fd5b813561317584826020860161301b565b91505092915050565b600082601f83011261318f57600080fd5b813561319f848260208601613059565b91505092915050565b6000813590506131b7816147da565b92915050565b6000815190506131cc816147da565b92915050565b6000602082840312156131e457600080fd5b60006131f284828501613097565b91505092915050565b6000806040838503121561320e57600080fd5b600061321c85828601613097565b925050602061322d85828601613097565b9150509250929050565b600080600080600060a0868803121561324f57600080fd5b600061325d88828901613097565b955050602061326e88828901613097565b945050604086013567ffffffffffffffff81111561328b57600080fd5b613297888289016130eb565b935050606086013567ffffffffffffffff8111156132b457600080fd5b6132c0888289016130eb565b925050608086013567ffffffffffffffff8111156132dd57600080fd5b6132e988828901613154565b9150509295509295909350565b60008060006060848603121561330b57600080fd5b600061331986828701613097565b935050602061332a86828701613097565b925050604061333b868287016131a8565b9150509250925092565b600080600080600060a0868803121561335d57600080fd5b600061336b88828901613097565b955050602061337c88828901613097565b945050604061338d888289016131a8565b935050606061339e888289016131a8565b925050608086013567ffffffffffffffff8111156133bb57600080fd5b6133c788828901613154565b9150509295509295909350565b600080604083850312156133e757600080fd5b60006133f585828601613097565b925050602061340685828601613115565b9150509250929050565b6000806040838503121561342357600080fd5b600061343185828601613097565b9250506020613442858286016131a8565b9150509250929050565b6000806040838503121561345f57600080fd5b600083013567ffffffffffffffff81111561347957600080fd5b613485858286016130c1565b925050602083013567ffffffffffffffff8111156134a257600080fd5b6134ae858286016130eb565b9150509250929050565b6000602082840312156134ca57600080fd5b60006134d88482850161312a565b91505092915050565b6000602082840312156134f357600080fd5b60006135018482850161313f565b91505092915050565b6000806000806080858703121561352057600080fd5b600085013567ffffffffffffffff81111561353a57600080fd5b6135468782880161317e565b9450506020613557878288016131a8565b9350506040613568878288016131a8565b9250506060613579878288016131a8565b91505092959194509250565b60006020828403121561359757600080fd5b60006135a5848285016131a8565b91505092915050565b6000602082840312156135c057600080fd5b60006135ce848285016131bd565b91505092915050565b600080600080600060a086880312156135ef57600080fd5b60006135fd888289016131bd565b955050602061360e888289016130ac565b945050604061361f888289016131bd565b9350506060613630888289016130ac565b9250506080613641888289016131bd565b9150509295509295909350565b6000806040838503121561366157600080fd5b600061366f858286016131a8565b9250506020613680858286016131a8565b9150509250929050565b60008060006060848603121561369f57600080fd5b60006136ad868287016131a8565b93505060206136be868287016131a8565b92505060406136cf868287016131a8565b9150509250925092565b60006136e583836139a6565b60208301905092915050565b6136fa816140c4565b82525050565b600061370b82613f4e565b6137158185613f7c565b935061372083613f3e565b8060005b8381101561375157815161373888826136d9565b975061374383613f6f565b925050600181019050613724565b5085935050505092915050565b613767816140d6565b82525050565b600061377882613f59565b6137828185613f8d565b9350613792818560208601614147565b61379b81614304565b840191505092915050565b60006137b182613f64565b6137bb8185613f9e565b93506137cb818560208601614147565b6137d481614304565b840191505092915050565b60006137ec603483613f9e565b91506137f782614322565b604082019050919050565b600061380f602883613f9e565b915061381a82614371565b604082019050919050565b6000613832602b83613f9e565b915061383d826143c0565b604082019050919050565b6000613855602683613f9e565b91506138608261440f565b604082019050919050565b6000613878602983613f9e565b91506138838261445e565b604082019050919050565b600061389b602583613f9e565b91506138a6826144ad565b604082019050919050565b60006138be603283613f9e565b91506138c9826144fc565b604082019050919050565b60006138e1602a83613f9e565b91506138ec8261454b565b604082019050919050565b6000613904602083613f9e565b915061390f8261459a565b602082019050919050565b6000613927602983613f9e565b9150613932826145c3565b604082019050919050565b600061394a602983613f9e565b915061395582614612565b604082019050919050565b600061396d602883613f9e565b915061397882614661565b604082019050919050565b6000613990602183613f9e565b915061399b826146b0565b604082019050919050565b6139af8161412e565b82525050565b6139be8161412e565b82525050565b60006020820190506139d960008301846136f1565b92915050565b600060a0820190506139f460008301886136f1565b613a0160208301876136f1565b8181036040830152613a138186613700565b90508181036060830152613a278185613700565b90508181036080830152613a3b818461376d565b90509695505050505050565b6000606082019050613a5c60008301866136f1565b613a6960208301856136f1565b613a7660408301846139b5565b949350505050565b600060a082019050613a9360008301886136f1565b613aa060208301876136f1565b613aad60408301866139b5565b613aba60608301856139b5565b8181036080830152613acc818461376d565b90509695505050505050565b6000604082019050613aed60008301856136f1565b613afa60208301846139b5565b9392505050565b6000608082019050613b1660008301876136f1565b613b2360208301866139b5565b613b3060408301856136f1565b613b3d60608301846139b5565b95945050505050565b60006020820190508181036000830152613b608184613700565b905092915050565b60006040820190508181036000830152613b828185613700565b90508181036020830152613b968184613700565b90509392505050565b6000602082019050613bb4600083018461375e565b92915050565b60006020820190508181036000830152613bd481846137a6565b905092915050565b600060a0820190508181036000830152613bf681886137a6565b9050613c0560208301876139b5565b613c1260408301866139b5565b613c1f60608301856139b5565b613c2c60808301846136f1565b9695505050505050565b60006020820190508181036000830152613c4f816137df565b9050919050565b60006020820190508181036000830152613c6f81613802565b9050919050565b60006020820190508181036000830152613c8f81613825565b9050919050565b60006020820190508181036000830152613caf81613848565b9050919050565b60006020820190508181036000830152613ccf8161386b565b9050919050565b60006020820190508181036000830152613cef8161388e565b9050919050565b60006020820190508181036000830152613d0f816138b1565b9050919050565b60006020820190508181036000830152613d2f816138d4565b9050919050565b60006020820190508181036000830152613d4f816138f7565b9050919050565b60006020820190508181036000830152613d6f8161391a565b9050919050565b60006020820190508181036000830152613d8f8161393d565b9050919050565b60006020820190508181036000830152613daf81613960565b9050919050565b60006020820190508181036000830152613dcf81613983565b9050919050565b6000602082019050613deb60008301846139b5565b92915050565b6000608082019050613e0660008301876139b5565b613e13602083018661375e565b613e2060408301856139b5565b613e2d60608301846139b5565b95945050505050565b6000604082019050613e4b60008301856139b5565b613e5860208301846139b5565b9392505050565b6000613e69613e7a565b9050613e7582826141ac565b919050565b6000604051905090565b600067ffffffffffffffff821115613e9f57613e9e6142b3565b5b602082029050602081019050919050565b600067ffffffffffffffff821115613ecb57613eca6142b3565b5b602082029050602081019050919050565b600067ffffffffffffffff821115613ef757613ef66142b3565b5b613f0082614304565b9050602081019050919050565b600067ffffffffffffffff821115613f2857613f276142b3565b5b613f3182614304565b9050602081019050919050565b6000819050602082019050919050565b600081519050919050565b600081519050919050565b600081519050919050565b6000602082019050919050565b600082825260208201905092915050565b600082825260208201905092915050565b600082825260208201905092915050565b6000613fba8261412e565b9150613fc58361412e565b9250827fffffffffffffffffffffffffffffffffffffffffffffffffffffffffffffffff03821115613ffa57613ff9614226565b5b828201905092915050565b60006140108261412e565b915061401b8361412e565b92508261402b5761402a614255565b5b828204905092915050565b60006140418261412e565b915061404c8361412e565b9250817fffffffffffffffffffffffffffffffffffffffffffffffffffffffffffffffff048311821515161561408557614084614226565b5b828202905092915050565b600061409b8261412e565b91506140a68361412e565b9250828210156140b9576140b8614226565b5b828203905092915050565b60006140cf8261410e565b9050919050565b60008115159050919050565b60007fffffffff0000000000000000000000000000000000000000000000000000000082169050919050565b600073ffffffffffffffffffffffffffffffffffffffff82169050919050565b6000819050919050565b82818337600083830152505050565b60005b8381101561416557808201518184015260208101905061414a565b83811115614174576000848401525b50505050565b6000600282049050600182168061419257607f821691505b602082108114156141a6576141a5614284565b5b50919050565b6141b582614304565b810181811067ffffffffffffffff821117156141d4576141d36142b3565b5b80604052505050565b60006141e88261412e565b91507fffffffffffffffffffffffffffffffffffffffffffffffffffffffffffffffff82141561421b5761421a614226565b5b600182019050919050565b7f4e487b7100000000000000000000000000000000000000000000000000000000600052601160045260246000fd5b7f4e487b7100000000000000000000000000000000000000000000000000000000600052601260045260246000fd5b7f4e487b7100000000000000000000000000000000000000000000000000000000600052602260045260246000fd5b7f4e487b7100000000000000000000000000000000000000000000000000000000600052604160045260246000fd5b600060033d11156143015760046000803e6142fe600051614315565b90505b90565b6000601f19601f8301169050919050565b60008160e01c9050919050565b7f455243313135353a207472616e7366657220746f206e6f6e204552433131353560008201527f526563656976657220696d706c656d656e746572000000000000000000000000602082015250565b7f455243313135353a204552433131353552656365697665722072656a6563746560008201527f6420746f6b656e73000000000000000000000000000000000000000000000000602082015250565b7f455243313135353a2062616c616e636520717565727920666f7220746865207a60008201527f65726f2061646472657373000000000000000000000000000000000000000000602082015250565b7f4f776e61626c653a206e6577206f776e657220697320746865207a65726f206160008201527f6464726573730000000000000000000000000000000000000000000000000000602082015250565b7f455243313135353a2063616c6c6572206973206e6f74206f776e6572206e6f7260008201527f20617070726f7665640000000000000000000000000000000000000000000000602082015250565b7f455243313135353a207472616e7366657220746f20746865207a65726f20616460008201527f6472657373000000000000000000000000000000000000000000000000000000602082015250565b7f455243313135353a207472616e736665722063616c6c6572206973206e6f742060008201527f6f776e6572206e6f7220617070726f7665640000000000000000000000000000602082015250565b7f455243313135353a20696e73756666696369656e742062616c616e636520666f60008201527f72207472616e7366657200000000000000000000000000000000000000000000602082015250565b7f4f776e61626c653a2063616c6c6572206973206e6f7420746865206f776e6572600082015250565b7f455243313135353a2073657474696e6720617070726f76616c2073746174757360008201527f20666f722073656c660000000000000000000000000000000000000000000000602082015250565b7f455243313135353a206163636f756e747320616e6420696473206c656e67746860008201527f206d69736d617463680000000000000000000000000000000000000000000000602082015250565b7f455243313135353a2069647320616e6420616d6f756e7473206c656e6774682060008201527f6d69736d61746368000000000000000000000000000000000000000000000000602082015250565b7f455243313135353a206d696e7420746f20746865207a65726f2061646472657360008201527f7300000000000000000000000000000000000000000000000000000000000000602082015250565b600060443d101561470f57614792565b614717613e7a565b60043d036004823e80513d602482011167ffffffffffffffff8211171561473f575050614792565b808201805167ffffffffffffffff81111561475d5750505050614792565b80602083010160043d03850181111561477a575050505050614792565b614789826020018501866141ac565b82955050505050505b90565b61479e816140c4565b81146147a957600080fd5b50565b6147b5816140d6565b81146147c057600080fd5b50565b6147cc816140e2565b81146147d757600080fd5b50565b6147e38161412e565b81146147ee57600080fd5b5056fea2646970667358221220ea57d4b43f2dd341d9320868bcc1fb82c8eff7885a9ced5c1bd28bc8e877185e64736f6c63430008040033608060405234801561001057600080fd5b50620186a0600081905550600054600160008073ffffffffffffffffffffffffffffffffffffffff1673ffffffffffffffffffffffffffffffffffffffff16815260200190815260200160002081905550610901806100706000396000f3fe608060405234801561001057600080fd5b506004361061004c5760003560e01c80636c197ff51461005157806370a082311461006d578063a9059cbb1461009d578063d1660f99146100b9575b600080fd5b61006b60048036038101906100669190610672565b6100ed565b005b610087600480360381019061008291906105fa565b610215565b604051610094919061073a565b60405180910390f35b6100b760048036038101906100b29190610672565b61025e565b005b6100d360048036038101906100ce9190610623565b6103c9565b6040516100e4959493929190610755565b60405180910390f35b80600160008073ffffffffffffffffffffffffffffffffffffffff1673ffffffffffffffffffffffffffffffffffffffff168152602001908152602001600020600082825461013c91906107fe565b9250508190555080600160008473ffffffffffffffffffffffffffffffffffffffff1673ffffffffffffffffffffffffffffffffffffffff168152602001908152602001600020600082825461019291906107a8565b925050819055507fae92ab4b6f8f401ead768d3273e6bb937a13e39827d19c6376e8fd4512a05d9a82600160008573ffffffffffffffffffffffffffffffffffffffff1673ffffffffffffffffffffffffffffffffffffffff168152602001908152602001600020546040516102099291906106cc565b60405180910390a15050565b6000600160008373ffffffffffffffffffffffffffffffffffffffff1673ffffffffffffffffffffffffffffffffffffffff168152602001908152602001600020549050919050565b80600160003373ffffffffffffffffffffffffffffffffffffffff1673ffffffffffffffffffffffffffffffffffffffff16815260200190815260200160002060008282546102ad91906107fe565b9250508190555080600160008473ffffffffffffffffffffffffffffffffffffffff1673ffffffffffffffffffffffffffffffffffffffff168152602001908152602001600020600082825461030391906107a8565b925050819055507f2bc6cfa90e9c9ca69a7a281d876ef2244b8d5201da959f82a292c994843bc09c33600160003373ffffffffffffffffffffffffffffffffffffffff1673ffffffffffffffffffffffffffffffffffffffff1681526020019081526020016000205484600160008773ffffffffffffffffffffffffffffffffffffffff1673ffffffffffffffffffffffffffffffffffffffff168152602001908152602001600020546040516103bd94939291906106f5565b60405180910390a15050565b600080600080600085600160008a73ffffffffffffffffffffffffffffffffffffffff1673ffffffffffffffffffffffffffffffffffffffff168152602001908152602001600020600082825461042091906107fe565b9250508190555085600160008973ffffffffffffffffffffffffffffffffffffffff1673ffffffffffffffffffffffffffffffffffffffff168152602001908152602001600020600082825461047691906107a8565b925050819055507f2bc6cfa90e9c9ca69a7a281d876ef2244b8d5201da959f82a292c994843bc09c88600160008b73ffffffffffffffffffffffffffffffffffffffff1673ffffffffffffffffffffffffffffffffffffffff1681526020019081526020016000205489600160008c73ffffffffffffffffffffffffffffffffffffffff1673ffffffffffffffffffffffffffffffffffffffff1681526020019081526020016000205460405161053094939291906106f5565b60405180910390a18588600160008b73ffffffffffffffffffffffffffffffffffffffff1673ffffffffffffffffffffffffffffffffffffffff1681526020019081526020016000205489600160008c73ffffffffffffffffffffffffffffffffffffffff1673ffffffffffffffffffffffffffffffffffffffff1681526020019081526020016000205494509450945094509450939792965093509350565b6000813590506105df8161089d565b92915050565b6000813590506105f4816108b4565b92915050565b60006020828403121561060c57600080fd5b600061061a848285016105d0565b91505092915050565b60008060006060848603121561063857600080fd5b6000610646868287016105d0565b9350506020610657868287016105d0565b9250506040610668868287016105e5565b9150509250925092565b6000806040838503121561068557600080fd5b6000610693858286016105d0565b92505060206106a4858286016105e5565b9150509250929050565b6106b781610832565b82525050565b6106c681610864565b82525050565b60006040820190506106e160008301856106ae565b6106ee60208301846106bd565b9392505050565b600060808201905061070a60008301876106ae565b61071760208301866106bd565b61072460408301856106ae565b61073160608301846106bd565b95945050505050565b600060208201905061074f60008301846106bd565b92915050565b600060a08201905061076a60008301886106bd565b61077760208301876106ae565b61078460408301866106bd565b61079160608301856106ae565b61079e60808301846106bd565b9695505050505050565b60006107b382610864565b91506107be83610864565b9250827fffffffffffffffffffffffffffffffffffffffffffffffffffffffffffffffff038211156107f3576107f261086e565b5b828201905092915050565b600061080982610864565b915061081483610864565b9250828210156108275761082661086e565b5b828203905092915050565b600061083d82610844565b9050919050565b600073ffffffffffffffffffffffffffffffffffffffff82169050919050565b6000819050919050565b7f4e487b7100000000000000000000000000000000000000000000000000000000600052601160045260246000fd5b6108a681610832565b81146108b157600080fd5b50565b6108bd81610864565b81146108c857600080fd5b5056fea2646970667358221220caf889ecd65a9cd84b5dcf659908444eddf62553b8c22b663c62f437133791ce64736f6c63430008040033608060405234801561001057600080fd5b50620186a0600081905550600054600160008073ffffffffffffffffffffffffffffffffffffffff1673ffffffffffffffffffffffffffffffffffffffff168152602001908152602001600020819055506107fb806100706000396000f3fe608060405234801561001057600080fd5b506004361061004c5760003560e01c80636c197ff51461005157806370a082311461006d578063a9059cbb1461009d578063d1660f99146100b9575b600080fd5b61006b600480360381019061006691906105bf565b6100d5565b005b61008760048036038101906100829190610547565b6101fd565b6040516100949190610687565b60405180910390f35b6100b760048036038101906100b291906105bf565b610246565b005b6100d360048036038101906100ce9190610570565b6103b1565b005b80600160008073ffffffffffffffffffffffffffffffffffffffff1673ffffffffffffffffffffffffffffffffffffffff168152602001908152602001600020600082825461012491906106f8565b9250508190555080600160008473ffffffffffffffffffffffffffffffffffffffff1673ffffffffffffffffffffffffffffffffffffffff168152602001908152602001600020600082825461017a91906106a2565b925050819055507fae92ab4b6f8f401ead768d3273e6bb937a13e39827d19c6376e8fd4512a05d9a82600160008573ffffffffffffffffffffffffffffffffffffffff1673ffffffffffffffffffffffffffffffffffffffff168152602001908152602001600020546040516101f1929190610619565b60405180910390a15050565b6000600160008373ffffffffffffffffffffffffffffffffffffffff1673ffffffffffffffffffffffffffffffffffffffff168152602001908152602001600020549050919050565b80600160003373ffffffffffffffffffffffffffffffffffffffff1673ffffffffffffffffffffffffffffffffffffffff168152602001908152602001600020600082825461029591906106f8565b9250508190555080600160008473ffffffffffffffffffffffffffffffffffffffff1673ffffffffffffffffffffffffffffffffffffffff16815260200190815260200160002060008282546102eb91906106a2565b925050819055507f2bc6cfa90e9c9ca69a7a281d876ef2244b8d5201da959f82a292c994843bc09c33600160003373ffffffffffffffffffffffffffffffffffffffff1673ffffffffffffffffffffffffffffffffffffffff1681526020019081526020016000205484600160008773ffffffffffffffffffffffffffffffffffffffff1673ffffffffffffffffffffffffffffffffffffffff168152602001908152602001600020546040516103a59493929190610642565b60405180910390a15050565b80600160008573ffffffffffffffffffffffffffffffffffffffff1673ffffffffffffffffffffffffffffffffffffffff168152602001908152602001600020600082825461040091906106f8565b9250508190555080600160008473ffffffffffffffffffffffffffffffffffffffff1673ffffffffffffffffffffffffffffffffffffffff168152602001908152602001600020600082825461045691906106a2565b925050819055507f2bc6cfa90e9c9ca69a7a281d876ef2244b8d5201da959f82a292c994843bc09c83600160008673ffffffffffffffffffffffffffffffffffffffff1673ffffffffffffffffffffffffffffffffffffffff1681526020019081526020016000205484600160008773ffffffffffffffffffffffffffffffffffffffff1673ffffffffffffffffffffffffffffffffffffffff168152602001908152602001600020546040516105109493929190610642565b60405180910390a1505050565b60008135905061052c81610797565b92915050565b600081359050610541816107ae565b92915050565b60006020828403121561055957600080fd5b60006105678482850161051d565b91505092915050565b60008060006060848603121561058557600080fd5b60006105938682870161051d565b93505060206105a48682870161051d565b92505060406105b586828701610532565b9150509250925092565b600080604083850312156105d257600080fd5b60006105e08582860161051d565b92505060206105f185828601610532565b9150509250929050565b6106048161072c565b82525050565b6106138161075e565b82525050565b600060408201905061062e60008301856105fb565b61063b602083018461060a565b9392505050565b600060808201905061065760008301876105fb565b610664602083018661060a565b61067160408301856105fb565b61067e606083018461060a565b95945050505050565b600060208201905061069c600083018461060a565b92915050565b60006106ad8261075e565b91506106b88361075e565b9250827fffffffffffffffffffffffffffffffffffffffffffffffffffffffffffffffff038211156106ed576106ec610768565b5b828201905092915050565b60006107038261075e565b915061070e8361075e565b92508282101561072157610720610768565b5b828203905092915050565b60006107378261073e565b9050919050565b600073ffffffffffffffffffffffffffffffffffffffff82169050919050565b6000819050919050565b7f4e487b7100000000000000000000000000000000000000000000000000000000600052601160045260246000fd5b6107a08161072c565b81146107ab57600080fd5b50565b6107b78161075e565b81146107c257600080fd5b5056fea264697066735822122051d3a0c9dc450aea342a2ff1cff02392e6203f22f8bc4a98a94ac453e450f41864736f6c63430008040033",
  "immutableReferences": {},
  "source": "// SPDX-License-Identifier: MIT\npragma solidity ^0.8.0;\nimport '@openzeppelin/contracts/token/ERC1155/ERC1155.sol';\nimport '@openzeppelin/contracts/access/Ownable.sol';\nimport './FakeAfenToken.sol';\nimport './FakeBscToken.sol';\n\ncontract Main is ERC1155, Ownable{\n    struct Nft {\n        string _hash;\n        uint _aprice;\n        uint _bprice;\n        uint _amount;\n        address _creator;\n        address _owner;\n        bool _isSell;\n    }\n    Nft[] nft_list;\n    FakeAfenToken afen = new FakeAfenToken();\n    FakeBscToken bsc = new FakeBscToken();\n\n    event Minted(string _hash, uint aprice, uint bprice, uint amount, address creator);\n    event Minted_nft_len(uint length);\n    event SettedSell(uint id, bool isSet, address creator, address setter);\n\n    \n    constructor() ERC1155(\"\") Ownable(){\n    }\n\n    receive() external payable {}\n\n    event Withdrawed(address withdrawer);\n    function withdrawBnb() public payable onlyOwner{\n        address payable sender = payable(msg.sender);\n        sender.transfer(address(this).balance);\n    }\n    event WithdrawAfen_Event (address _owner, uint balanceOf);\n    function withdrawAfen() public payable onlyOwner {\n        uint balance = afen.balanceOf(msg.sender);\n        afen.transfer(msg.sender, balance);\n        uint new_balance = afen.balanceOf(msg.sender);\n        emit WithdrawAfen_Event(msg.sender, new_balance);\n    }\n    function mint(string memory _hash, uint _aprice, uint _bprice, uint _amount) public {\n        uint nft_len = nft_list.length;\n        _mint(msg.sender, nft_len, _amount, \"\");\n        Nft memory temp = Nft(_hash, _aprice, _bprice, _amount,msg.sender, msg.sender, false);\n        nft_list.push(temp);\n        emit Minted(_hash, _aprice, _bprice, _amount, msg.sender);\n        emit Minted_nft_len(nft_len+1);\n    }\n\n    function get_nft(uint _id) public view returns(string memory, uint, uint, uint, address) {\n        return (\n            nft_list[_id]._hash,\n            nft_list[_id]._aprice,\n            nft_list[_id]._bprice,\n            nft_list[_id]._amount,\n            nft_list[_id]._creator\n        );\n    }\n\n    function calc_fee(uint _price) public pure returns(uint) {\n        return _price*4/100;\n    }\n\n    event AfenSold(address to, uint balance_to);\n    function afen_sell(address _to, uint _amount) public {\n        afen.sell(_to, _amount);\n        emit AfenSold(_to, afen.balanceOf(_to));\n    }\n\n    event BscSold(address from, uint balance_from, address to, uint balance_to);\n    function bsc_sell(address _from, address _to, uint _amount) public {\n        bsc.safeTransfer(_from, _to, _amount);\n        emit BscSold(_from, afen.balanceOf(_from), _to, afen.balanceOf(_to));\n    }\n\n    event SetSold(uint nft_id, bool nft_sell_state, uint balance_contract, uint fee);\n    function SetSell(uint _id, uint _token_id) public {\n        nft_list[_id]._isSell = true;\n        uint sell_fee;\n        if(_token_id == 0) {\n            sell_fee = calc_fee(nft_list[_id]._aprice);\n            afen.safeTransfer(msg.sender, address(this), sell_fee);\n        } else {\n            sell_fee = calc_fee(nft_list[_id]._bprice);\n            bsc_sell(msg.sender, address(this), sell_fee);\n        }\n        emit SetSold(_id, nft_list[_id]._isSell, afen.balanceOf(address(this)), sell_fee);\n    }\n\n    function buy_fee(uint _price) public pure returns(uint) {\n        return _price * 7 /100;\n    }\n    function buy(uint _id, uint _token_id, uint _amount) public {\n        nft_list[_id]._isSell = false;\n        uint fee;\n        if(_token_id == 0) {\n            fee = buy_fee(nft_list[_id]._aprice);\n            afen.safeTransfer(msg.sender, nft_list[_id]._owner, fee);\n        } else {\n            fee = buy_fee(nft_list[_id]._bprice);\n            afen.safeTransfer(msg.sender, nft_list[_id]._owner, fee);\n        }\n        nft_list[_id]._owner = msg.sender;\n        \n    }\n}",
  "sourcePath": "/home/oncemore/BlockchainWork/afen/contract/contracts/Main.sol",
  "compiler": {
    "name": "solc",
    "version": "0.8.4+commit.c7e474f2.Emscripten.clang"
  },
  "schemaVersion": "3.3.4",
  "updatedAt": "2021-06-08T15:32:47.625Z",
  "networkType": "ethereum",
  "devdoc": {
    "kind": "dev",
    "methods": {
      "balanceOf(address,uint256)": {
        "details": "See {IERC1155-balanceOf}. Requirements: - `account` cannot be the zero address."
      },
      "balanceOfBatch(address[],uint256[])": {
        "details": "See {IERC1155-balanceOfBatch}. Requirements: - `accounts` and `ids` must have the same length."
      },
      "isApprovedForAll(address,address)": {
        "details": "See {IERC1155-isApprovedForAll}."
      },
      "owner()": {
        "details": "Returns the address of the current owner."
      },
      "renounceOwnership()": {
        "details": "Leaves the contract without owner. It will not be possible to call `onlyOwner` functions anymore. Can only be called by the current owner. NOTE: Renouncing ownership will leave the contract without an owner, thereby removing any functionality that is only available to the owner."
      },
      "safeBatchTransferFrom(address,address,uint256[],uint256[],bytes)": {
        "details": "See {IERC1155-safeBatchTransferFrom}."
      },
      "safeTransferFrom(address,address,uint256,uint256,bytes)": {
        "details": "See {IERC1155-safeTransferFrom}."
      },
      "setApprovalForAll(address,bool)": {
        "details": "See {IERC1155-setApprovalForAll}."
      },
      "supportsInterface(bytes4)": {
        "details": "See {IERC165-supportsInterface}."
      },
      "transferOwnership(address)": {
        "details": "Transfers ownership of the contract to a new account (`newOwner`). Can only be called by the current owner."
      },
      "uri(uint256)": {
        "details": "See {IERC1155MetadataURI-uri}. This implementation returns the same URI for *all* token types. It relies on the token type ID substitution mechanism https://eips.ethereum.org/EIPS/eip-1155#metadata[defined in the EIP]. Clients calling this function must replace the `\\{id\\}` substring with the actual token type ID."
      }
    },
    "version": 1
  },
  "userdoc": {
    "kind": "user",
    "methods": {},
    "version": 1
  }
}