{
  "contractName": "Mint",
  "abi": [
    {
      "inputs": [],
      "stateMutability": "nonpayable",
      "type": "constructor"
    },
    {
      "anonymous": false,
      "inputs": [
        {
          "indexed": true,
          "internalType": "address",
          "name": "account",
          "type": "address"
        },
        {
          "indexed": true,
          "internalType": "address",
          "name": "operator",
          "type": "address"
        },
        {
          "indexed": false,
          "internalType": "bool",
          "name": "approved",
          "type": "bool"
        }
      ],
      "name": "ApprovalForAll",
      "type": "event"
    },
    {
      "anonymous": false,
      "inputs": [
        {
          "indexed": false,
          "internalType": "string",
          "name": "_hash",
          "type": "string"
        },
        {
          "indexed": false,
          "internalType": "uint256",
          "name": "_aprice",
          "type": "uint256"
        },
        {
          "indexed": false,
          "internalType": "uint256",
          "name": "_bprice",
          "type": "uint256"
        },
        {
          "indexed": false,
          "internalType": "address",
          "name": "_creator",
          "type": "address"
        }
      ],
      "name": "Mint_result",
      "type": "event"
    },
    {
      "anonymous": false,
      "inputs": [
        {
          "indexed": true,
          "internalType": "address",
          "name": "operator",
          "type": "address"
        },
        {
          "indexed": true,
          "internalType": "address",
          "name": "from",
          "type": "address"
        },
        {
          "indexed": true,
          "internalType": "address",
          "name": "to",
          "type": "address"
        },
        {
          "indexed": false,
          "internalType": "uint256[]",
          "name": "ids",
          "type": "uint256[]"
        },
        {
          "indexed": false,
          "internalType": "uint256[]",
          "name": "values",
          "type": "uint256[]"
        }
      ],
      "name": "TransferBatch",
      "type": "event"
    },
    {
      "anonymous": false,
      "inputs": [
        {
          "indexed": true,
          "internalType": "address",
          "name": "operator",
          "type": "address"
        },
        {
          "indexed": true,
          "internalType": "address",
          "name": "from",
          "type": "address"
        },
        {
          "indexed": true,
          "internalType": "address",
          "name": "to",
          "type": "address"
        },
        {
          "indexed": false,
          "internalType": "uint256",
          "name": "id",
          "type": "uint256"
        },
        {
          "indexed": false,
          "internalType": "uint256",
          "name": "value",
          "type": "uint256"
        }
      ],
      "name": "TransferSingle",
      "type": "event"
    },
    {
      "anonymous": false,
      "inputs": [
        {
          "indexed": false,
          "internalType": "string",
          "name": "value",
          "type": "string"
        },
        {
          "indexed": true,
          "internalType": "uint256",
          "name": "id",
          "type": "uint256"
        }
      ],
      "name": "URI",
      "type": "event"
    },
    {
      "inputs": [
        {
          "internalType": "address",
          "name": "account",
          "type": "address"
        },
        {
          "internalType": "uint256",
          "name": "id",
          "type": "uint256"
        }
      ],
      "name": "balanceOf",
      "outputs": [
        {
          "internalType": "uint256",
          "name": "",
          "type": "uint256"
        }
      ],
      "stateMutability": "view",
      "type": "function",
      "constant": true
    },
    {
      "inputs": [
        {
          "internalType": "address[]",
          "name": "accounts",
          "type": "address[]"
        },
        {
          "internalType": "uint256[]",
          "name": "ids",
          "type": "uint256[]"
        }
      ],
      "name": "balanceOfBatch",
      "outputs": [
        {
          "internalType": "uint256[]",
          "name": "",
          "type": "uint256[]"
        }
      ],
      "stateMutability": "view",
      "type": "function",
      "constant": true
    },
    {
      "inputs": [
        {
          "internalType": "address",
          "name": "account",
          "type": "address"
        },
        {
          "internalType": "address",
          "name": "operator",
          "type": "address"
        }
      ],
      "name": "isApprovedForAll",
      "outputs": [
        {
          "internalType": "bool",
          "name": "",
          "type": "bool"
        }
      ],
      "stateMutability": "view",
      "type": "function",
      "constant": true
    },
    {
      "inputs": [
        {
          "internalType": "address",
          "name": "from",
          "type": "address"
        },
        {
          "internalType": "address",
          "name": "to",
          "type": "address"
        },
        {
          "internalType": "uint256[]",
          "name": "ids",
          "type": "uint256[]"
        },
        {
          "internalType": "uint256[]",
          "name": "amounts",
          "type": "uint256[]"
        },
        {
          "internalType": "bytes",
          "name": "data",
          "type": "bytes"
        }
      ],
      "name": "safeBatchTransferFrom",
      "outputs": [],
      "stateMutability": "nonpayable",
      "type": "function"
    },
    {
      "inputs": [
        {
          "internalType": "address",
          "name": "from",
          "type": "address"
        },
        {
          "internalType": "address",
          "name": "to",
          "type": "address"
        },
        {
          "internalType": "uint256",
          "name": "id",
          "type": "uint256"
        },
        {
          "internalType": "uint256",
          "name": "amount",
          "type": "uint256"
        },
        {
          "internalType": "bytes",
          "name": "data",
          "type": "bytes"
        }
      ],
      "name": "safeTransferFrom",
      "outputs": [],
      "stateMutability": "nonpayable",
      "type": "function"
    },
    {
      "inputs": [
        {
          "internalType": "address",
          "name": "operator",
          "type": "address"
        },
        {
          "internalType": "bool",
          "name": "approved",
          "type": "bool"
        }
      ],
      "name": "setApprovalForAll",
      "outputs": [],
      "stateMutability": "nonpayable",
      "type": "function"
    },
    {
      "inputs": [
        {
          "internalType": "bytes4",
          "name": "interfaceId",
          "type": "bytes4"
        }
      ],
      "name": "supportsInterface",
      "outputs": [
        {
          "internalType": "bool",
          "name": "",
          "type": "bool"
        }
      ],
      "stateMutability": "view",
      "type": "function",
      "constant": true
    },
    {
      "inputs": [
        {
          "internalType": "uint256",
          "name": "",
          "type": "uint256"
        }
      ],
      "name": "uri",
      "outputs": [
        {
          "internalType": "string",
          "name": "",
          "type": "string"
        }
      ],
      "stateMutability": "view",
      "type": "function",
      "constant": true
    },
    {
      "inputs": [
        {
          "internalType": "string",
          "name": "_hash",
          "type": "string"
        },
        {
          "internalType": "uint256",
          "name": "_amount",
          "type": "uint256"
        },
        {
          "internalType": "uint256",
          "name": "_aprice",
          "type": "uint256"
        },
        {
          "internalType": "uint256",
          "name": "_bprice",
          "type": "uint256"
        }
      ],
      "name": "mint",
      "outputs": [
        {
          "internalType": "uint256",
          "name": "",
          "type": "uint256"
        }
      ],
      "stateMutability": "nonpayable",
      "type": "function"
    },
    {
      "inputs": [],
      "name": "get_nfts",
      "outputs": [
        {
          "components": [
            {
              "internalType": "string",
              "name": "_hash",
              "type": "string"
            },
            {
              "internalType": "uint256",
              "name": "_aprice",
              "type": "uint256"
            },
            {
              "internalType": "uint256",
              "name": "_bprice",
              "type": "uint256"
            },
            {
              "internalType": "address",
              "name": "_creator",
              "type": "address"
            }
          ],
          "internalType": "struct Mint.Nft[]",
          "name": "",
          "type": "tuple[]"
        }
      ],
      "stateMutability": "view",
      "type": "function",
      "constant": true
    }
  ],
  "bytecode": "0x60806040523480156200001157600080fd5b506040518060200160405280600081525062000033816200003a60201b60201c565b506200016b565b80600290805190602001906200005292919062000056565b5050565b828054620000649062000106565b90600052602060002090601f016020900481019282620000885760008555620000d4565b82601f10620000a357805160ff1916838001178555620000d4565b82800160010185558215620000d4579182015b82811115620000d3578251825591602001919060010190620000b6565b5b509050620000e39190620000e7565b5090565b5b8082111562000102576000816000905550600101620000e8565b5090565b600060028204905060018216806200011f57607f821691505b602082108114156200013657620001356200013c565b5b50919050565b7f4e487b7100000000000000000000000000000000000000000000000000000000600052602260045260246000fd5b612f39806200017b6000396000f3fe608060405234801561001057600080fd5b506004361061009d5760003560e01c8063380576f211610066578063380576f21461017e5780634e1273f41461019c578063a22cb465146101cc578063e985e9c5146101e8578063f242432a146102185761009d565b8062fdd58e146100a257806301ffc9a7146100d2578063027a2255146101025780630e89341c146101325780632eb2c2d614610162575b600080fd5b6100bc60048036038101906100b79190611d78565b610234565b6040516100c99190612615565b60405180910390f35b6100ec60048036038101906100e79190611e20565b6102fd565b6040516100f9919061242c565b60405180910390f35b61011c60048036038101906101179190611e72565b6103df565b6040516101299190612615565b60405180910390f35b61014c60048036038101906101479190611eed565b610530565b6040516101599190612447565b60405180910390f35b61017c60048036038101906101779190611bee565b6105c4565b005b6101866109ba565b60405161019391906123b1565b60405180910390f35b6101b660048036038101906101b19190611db4565b610b15565b6040516101c391906123d3565b60405180910390f35b6101e660048036038101906101e19190611d3c565b610cc6565b005b61020260048036038101906101fd9190611bb2565b610e47565b60405161020f919061242c565b60405180910390f35b610232600480360381019061022d9190611cad565b610edb565b005b60008073ffffffffffffffffffffffffffffffffffffffff168373ffffffffffffffffffffffffffffffffffffffff1614156102a5576040517f08c379a000000000000000000000000000000000000000000000000000000000815260040161029c906124f5565b60405180910390fd5b60008083815260200190815260200160002060008473ffffffffffffffffffffffffffffffffffffffff1673ffffffffffffffffffffffffffffffffffffffff16815260200190815260200160002054905092915050565b60007fd9b67a26000000000000000000000000000000000000000000000000000000007bffffffffffffffffffffffffffffffffffffffffffffffffffffffff1916827bffffffffffffffffffffffffffffffffffffffffffffffffffffffff191614806103c857507f0e89341c000000000000000000000000000000000000000000000000000000007bffffffffffffffffffffffffffffffffffffffffffffffffffffffff1916827bffffffffffffffffffffffffffffffffffffffffffffffffffffffff1916145b806103d857506103d7826111f3565b5b9050919050565b60008060038054905090506104053382876040518060200160405280600081525061125d565b600060405180608001604052808881526020018681526020018581526020013373ffffffffffffffffffffffffffffffffffffffff168152509050600381908060018154018082558091505060019003906000526020600020906004020160009091909190915060008201518160000190805190602001906104889291906118aa565b50602082015181600101556040820151816002015560608201518160030160006101000a81548173ffffffffffffffffffffffffffffffffffffffff021916908373ffffffffffffffffffffffffffffffffffffffff16021790555050507f1e47109cee0384e294cdf11ed7d63b4f3f5b37d720bb45473dd7f2c61ad1eae78786863360405161051b9493929190612469565b60405180910390a18192505050949350505050565b60606002805461053f90612933565b80601f016020809104026020016040519081016040528092919081815260200182805461056b90612933565b80156105b85780601f1061058d576101008083540402835291602001916105b8565b820191906000526020600020905b81548152906001019060200180831161059b57829003601f168201915b50505050509050919050565b8151835114610608576040517f08c379a00000000000000000000000000000000000000000000000000000000081526004016105ff906125d5565b60405180910390fd5b600073ffffffffffffffffffffffffffffffffffffffff168473ffffffffffffffffffffffffffffffffffffffff161415610678576040517f08c379a000000000000000000000000000000000000000000000000000000000815260040161066f90612535565b60405180910390fd5b6106806113f3565b73ffffffffffffffffffffffffffffffffffffffff168573ffffffffffffffffffffffffffffffffffffffff1614806106c657506106c5856106c06113f3565b610e47565b5b610705576040517f08c379a00000000000000000000000000000000000000000000000000000000081526004016106fc90612555565b60405180910390fd5b600061070f6113f3565b905061071f8187878787876113fb565b60005b8451811015610925576000858281518110610766577f4e487b7100000000000000000000000000000000000000000000000000000000600052603260045260246000fd5b6020026020010151905060008583815181106107ab577f4e487b7100000000000000000000000000000000000000000000000000000000600052603260045260246000fd5b60200260200101519050600080600084815260200190815260200160002060008b73ffffffffffffffffffffffffffffffffffffffff1673ffffffffffffffffffffffffffffffffffffffff1681526020019081526020016000205490508181101561084c576040517f08c379a000000000000000000000000000000000000000000000000000000000815260040161084390612575565b60405180910390fd5b81816108589190612849565b60008085815260200190815260200160002060008c73ffffffffffffffffffffffffffffffffffffffff1673ffffffffffffffffffffffffffffffffffffffff168152602001908152602001600020819055508160008085815260200190815260200160002060008b73ffffffffffffffffffffffffffffffffffffffff1673ffffffffffffffffffffffffffffffffffffffff168152602001908152602001600020600082825461090a91906127f3565b925050819055505050508061091e90612996565b9050610722565b508473ffffffffffffffffffffffffffffffffffffffff168673ffffffffffffffffffffffffffffffffffffffff168273ffffffffffffffffffffffffffffffffffffffff167f4a39dc06d4c0dbc64b70af90fd698a233a518aa5d07e595d983b8c0526c8f7fb878760405161099c9291906123f5565b60405180910390a46109b2818787878787611403565b505050505050565b60606003805480602002602001604051908101604052809291908181526020016000905b82821015610b0c5783829060005260206000209060040201604051806080016040529081600082018054610a1190612933565b80601f0160208091040260200160405190810160405280929190818152602001828054610a3d90612933565b8015610a8a5780601f10610a5f57610100808354040283529160200191610a8a565b820191906000526020600020905b815481529060010190602001808311610a6d57829003601f168201915b5050505050815260200160018201548152602001600282015481526020016003820160009054906101000a900473ffffffffffffffffffffffffffffffffffffffff1673ffffffffffffffffffffffffffffffffffffffff1673ffffffffffffffffffffffffffffffffffffffff1681525050815260200190600101906109de565b50505050905090565b60608151835114610b5b576040517f08c379a0000000000000000000000000000000000000000000000000000000008152600401610b52906125b5565b60405180910390fd5b6000835167ffffffffffffffff811115610b9e577f4e487b7100000000000000000000000000000000000000000000000000000000600052604160045260246000fd5b604051908082528060200260200182016040528015610bcc5781602001602082028036833780820191505090505b50905060005b8451811015610cbb57610c65858281518110610c17577f4e487b7100000000000000000000000000000000000000000000000000000000600052603260045260246000fd5b6020026020010151858381518110610c58577f4e487b7100000000000000000000000000000000000000000000000000000000600052603260045260246000fd5b6020026020010151610234565b828281518110610c9e577f4e487b7100000000000000000000000000000000000000000000000000000000600052603260045260246000fd5b60200260200101818152505080610cb490612996565b9050610bd2565b508091505092915050565b8173ffffffffffffffffffffffffffffffffffffffff16610ce56113f3565b73ffffffffffffffffffffffffffffffffffffffff161415610d3c576040517f08c379a0000000000000000000000000000000000000000000000000000000008152600401610d3390612595565b60405180910390fd5b8060016000610d496113f3565b73ffffffffffffffffffffffffffffffffffffffff1673ffffffffffffffffffffffffffffffffffffffff16815260200190815260200160002060008473ffffffffffffffffffffffffffffffffffffffff1673ffffffffffffffffffffffffffffffffffffffff16815260200190815260200160002060006101000a81548160ff0219169083151502179055508173ffffffffffffffffffffffffffffffffffffffff16610df66113f3565b73ffffffffffffffffffffffffffffffffffffffff167f17307eab39ab6107e8899845ad3d59bd9653f200f220920489ca2b5937696c3183604051610e3b919061242c565b60405180910390a35050565b6000600160008473ffffffffffffffffffffffffffffffffffffffff1673ffffffffffffffffffffffffffffffffffffffff16815260200190815260200160002060008373ffffffffffffffffffffffffffffffffffffffff1673ffffffffffffffffffffffffffffffffffffffff16815260200190815260200160002060009054906101000a900460ff16905092915050565b600073ffffffffffffffffffffffffffffffffffffffff168473ffffffffffffffffffffffffffffffffffffffff161415610f4b576040517f08c379a0000000000000000000000000000000000000000000000000000000008152600401610f4290612535565b60405180910390fd5b610f536113f3565b73ffffffffffffffffffffffffffffffffffffffff168573ffffffffffffffffffffffffffffffffffffffff161480610f995750610f9885610f936113f3565b610e47565b5b610fd8576040517f08c379a0000000000000000000000000000000000000000000000000000000008152600401610fcf90612515565b60405180910390fd5b6000610fe26113f3565b9050611002818787610ff3886115ea565b610ffc886115ea565b876113fb565b600080600086815260200190815260200160002060008873ffffffffffffffffffffffffffffffffffffffff1673ffffffffffffffffffffffffffffffffffffffff16815260200190815260200160002054905083811015611099576040517f08c379a000000000000000000000000000000000000000000000000000000000815260040161109090612575565b60405180910390fd5b83816110a59190612849565b60008087815260200190815260200160002060008973ffffffffffffffffffffffffffffffffffffffff1673ffffffffffffffffffffffffffffffffffffffff168152602001908152602001600020819055508360008087815260200190815260200160002060008873ffffffffffffffffffffffffffffffffffffffff1673ffffffffffffffffffffffffffffffffffffffff168152602001908152602001600020600082825461115791906127f3565b925050819055508573ffffffffffffffffffffffffffffffffffffffff168773ffffffffffffffffffffffffffffffffffffffff168373ffffffffffffffffffffffffffffffffffffffff167fc3d58168c5ae7397731d063d5bbf3d657854427343f4c083240f7aacaa2d0f6288886040516111d4929190612630565b60405180910390a46111ea8288888888886116b0565b50505050505050565b60007f01ffc9a7000000000000000000000000000000000000000000000000000000007bffffffffffffffffffffffffffffffffffffffffffffffffffffffff1916827bffffffffffffffffffffffffffffffffffffffffffffffffffffffff1916149050919050565b600073ffffffffffffffffffffffffffffffffffffffff168473ffffffffffffffffffffffffffffffffffffffff1614156112cd576040517f08c379a00000000000000000000000000000000000000000000000000000000081526004016112c4906125f5565b60405180910390fd5b60006112d76113f3565b90506112f8816000876112e9886115ea565b6112f2886115ea565b876113fb565b8260008086815260200190815260200160002060008773ffffffffffffffffffffffffffffffffffffffff1673ffffffffffffffffffffffffffffffffffffffff168152602001908152602001600020600082825461135791906127f3565b925050819055508473ffffffffffffffffffffffffffffffffffffffff16600073ffffffffffffffffffffffffffffffffffffffff168273ffffffffffffffffffffffffffffffffffffffff167fc3d58168c5ae7397731d063d5bbf3d657854427343f4c083240f7aacaa2d0f6287876040516113d5929190612630565b60405180910390a46113ec816000878787876116b0565b5050505050565b600033905090565b505050505050565b6114228473ffffffffffffffffffffffffffffffffffffffff16611897565b156115e2578373ffffffffffffffffffffffffffffffffffffffff1663bc197c8187878686866040518663ffffffff1660e01b81526004016114689594939291906122ef565b602060405180830381600087803b15801561148257600080fd5b505af19250505080156114b357506040513d601f19601f820116820180604052508101906114b09190611e49565b60015b611559576114bf612a6c565b806308c379a0141561151c57506114d4612e11565b806114df575061151e565b806040517f08c379a00000000000000000000000000000000000000000000000000000000081526004016115139190612447565b60405180910390fd5b505b6040517f08c379a0000000000000000000000000000000000000000000000000000000008152600401611550906124b5565b60405180910390fd5b63bc197c8160e01b7bffffffffffffffffffffffffffffffffffffffffffffffffffffffff1916817bffffffffffffffffffffffffffffffffffffffffffffffffffffffff1916146115e0576040517f08c379a00000000000000000000000000000000000000000000000000000000081526004016115d7906124d5565b60405180910390fd5b505b505050505050565b60606000600167ffffffffffffffff81111561162f577f4e487b7100000000000000000000000000000000000000000000000000000000600052604160045260246000fd5b60405190808252806020026020018201604052801561165d5781602001602082028036833780820191505090505b509050828160008151811061169b577f4e487b7100000000000000000000000000000000000000000000000000000000600052603260045260246000fd5b60200260200101818152505080915050919050565b6116cf8473ffffffffffffffffffffffffffffffffffffffff16611897565b1561188f578373ffffffffffffffffffffffffffffffffffffffff1663f23a6e6187878686866040518663ffffffff1660e01b8152600401611715959493929190612357565b602060405180830381600087803b15801561172f57600080fd5b505af192505050801561176057506040513d601f19601f8201168201806040525081019061175d9190611e49565b60015b6118065761176c612a6c565b806308c379a014156117c95750611781612e11565b8061178c57506117cb565b806040517f08c379a00000000000000000000000000000000000000000000000000000000081526004016117c09190612447565b60405180910390fd5b505b6040517f08c379a00000000000000000000000000000000000000000000000000000000081526004016117fd906124b5565b60405180910390fd5b63f23a6e6160e01b7bffffffffffffffffffffffffffffffffffffffffffffffffffffffff1916817bffffffffffffffffffffffffffffffffffffffffffffffffffffffff19161461188d576040517f08c379a0000000000000000000000000000000000000000000000000000000008152600401611884906124d5565b60405180910390fd5b505b505050505050565b600080823b905060008111915050919050565b8280546118b690612933565b90600052602060002090601f0160209004810192826118d8576000855561191f565b82601f106118f157805160ff191683800117855561191f565b8280016001018555821561191f579182015b8281111561191e578251825591602001919060010190611903565b5b50905061192c9190611930565b5090565b5b80821115611949576000816000905550600101611931565b5090565b600061196061195b8461267e565b612659565b9050808382526020820190508285602086028201111561197f57600080fd5b60005b858110156119af57816119958882611aa1565b845260208401935060208301925050600181019050611982565b5050509392505050565b60006119cc6119c7846126aa565b612659565b905080838252602082019050828560208602820111156119eb57600080fd5b60005b85811015611a1b5781611a018882611b9d565b8452602084019350602083019250506001810190506119ee565b5050509392505050565b6000611a38611a33846126d6565b612659565b905082815260208101848484011115611a5057600080fd5b611a5b8482856128f1565b509392505050565b6000611a76611a7184612707565b612659565b905082815260208101848484011115611a8e57600080fd5b611a998482856128f1565b509392505050565b600081359050611ab081612ea7565b92915050565b600082601f830112611ac757600080fd5b8135611ad784826020860161194d565b91505092915050565b600082601f830112611af157600080fd5b8135611b018482602086016119b9565b91505092915050565b600081359050611b1981612ebe565b92915050565b600081359050611b2e81612ed5565b92915050565b600081519050611b4381612ed5565b92915050565b600082601f830112611b5a57600080fd5b8135611b6a848260208601611a25565b91505092915050565b600082601f830112611b8457600080fd5b8135611b94848260208601611a63565b91505092915050565b600081359050611bac81612eec565b92915050565b60008060408385031215611bc557600080fd5b6000611bd385828601611aa1565b9250506020611be485828601611aa1565b9150509250929050565b600080600080600060a08688031215611c0657600080fd5b6000611c1488828901611aa1565b9550506020611c2588828901611aa1565b945050604086013567ffffffffffffffff811115611c4257600080fd5b611c4e88828901611ae0565b935050606086013567ffffffffffffffff811115611c6b57600080fd5b611c7788828901611ae0565b925050608086013567ffffffffffffffff811115611c9457600080fd5b611ca088828901611b49565b9150509295509295909350565b600080600080600060a08688031215611cc557600080fd5b6000611cd388828901611aa1565b9550506020611ce488828901611aa1565b9450506040611cf588828901611b9d565b9350506060611d0688828901611b9d565b925050608086013567ffffffffffffffff811115611d2357600080fd5b611d2f88828901611b49565b9150509295509295909350565b60008060408385031215611d4f57600080fd5b6000611d5d85828601611aa1565b9250506020611d6e85828601611b0a565b9150509250929050565b60008060408385031215611d8b57600080fd5b6000611d9985828601611aa1565b9250506020611daa85828601611b9d565b9150509250929050565b60008060408385031215611dc757600080fd5b600083013567ffffffffffffffff811115611de157600080fd5b611ded85828601611ab6565b925050602083013567ffffffffffffffff811115611e0a57600080fd5b611e1685828601611ae0565b9150509250929050565b600060208284031215611e3257600080fd5b6000611e4084828501611b1f565b91505092915050565b600060208284031215611e5b57600080fd5b6000611e6984828501611b34565b91505092915050565b60008060008060808587031215611e8857600080fd5b600085013567ffffffffffffffff811115611ea257600080fd5b611eae87828801611b73565b9450506020611ebf87828801611b9d565b9350506040611ed087828801611b9d565b9250506060611ee187828801611b9d565b91505092959194509250565b600060208284031215611eff57600080fd5b6000611f0d84828501611b9d565b91505092915050565b6000611f22838361226e565b905092915050565b6000611f3683836122d1565b60208301905092915050565b611f4b8161287d565b82525050565b611f5a8161287d565b82525050565b6000611f6b82612758565b611f75818561279e565b935083602082028501611f8785612738565b8060005b85811015611fc35784840389528151611fa48582611f16565b9450611faf83612784565b925060208a01995050600181019050611f8b565b50829750879550505050505092915050565b6000611fe082612763565b611fea81856127af565b9350611ff583612748565b8060005b8381101561202657815161200d8882611f2a565b975061201883612791565b925050600181019050611ff9565b5085935050505092915050565b61203c8161288f565b82525050565b600061204d8261276e565b61205781856127c0565b9350612067818560208601612900565b61207081612a8e565b840191505092915050565b600061208682612779565b61209081856127d1565b93506120a0818560208601612900565b6120a981612a8e565b840191505092915050565b60006120bf82612779565b6120c981856127e2565b93506120d9818560208601612900565b6120e281612a8e565b840191505092915050565b60006120fa6034836127e2565b915061210582612aac565b604082019050919050565b600061211d6028836127e2565b915061212882612afb565b604082019050919050565b6000612140602b836127e2565b915061214b82612b4a565b604082019050919050565b60006121636029836127e2565b915061216e82612b99565b604082019050919050565b60006121866025836127e2565b915061219182612be8565b604082019050919050565b60006121a96032836127e2565b91506121b482612c37565b604082019050919050565b60006121cc602a836127e2565b91506121d782612c86565b604082019050919050565b60006121ef6029836127e2565b91506121fa82612cd5565b604082019050919050565b60006122126029836127e2565b915061221d82612d24565b604082019050919050565b60006122356028836127e2565b915061224082612d73565b604082019050919050565b60006122586021836127e2565b915061226382612dc2565b604082019050919050565b6000608083016000830151848203600086015261228b828261207b565b91505060208301516122a060208601826122d1565b5060408301516122b360408601826122d1565b5060608301516122c66060860182611f42565b508091505092915050565b6122da816128e7565b82525050565b6122e9816128e7565b82525050565b600060a0820190506123046000830188611f51565b6123116020830187611f51565b81810360408301526123238186611fd5565b905081810360608301526123378185611fd5565b9050818103608083015261234b8184612042565b90509695505050505050565b600060a08201905061236c6000830188611f51565b6123796020830187611f51565b61238660408301866122e0565b61239360608301856122e0565b81810360808301526123a58184612042565b90509695505050505050565b600060208201905081810360008301526123cb8184611f60565b905092915050565b600060208201905081810360008301526123ed8184611fd5565b905092915050565b6000604082019050818103600083015261240f8185611fd5565b905081810360208301526124238184611fd5565b90509392505050565b60006020820190506124416000830184612033565b92915050565b6000602082019050818103600083015261246181846120b4565b905092915050565b6000608082019050818103600083015261248381876120b4565b905061249260208301866122e0565b61249f60408301856122e0565b6124ac6060830184611f51565b95945050505050565b600060208201905081810360008301526124ce816120ed565b9050919050565b600060208201905081810360008301526124ee81612110565b9050919050565b6000602082019050818103600083015261250e81612133565b9050919050565b6000602082019050818103600083015261252e81612156565b9050919050565b6000602082019050818103600083015261254e81612179565b9050919050565b6000602082019050818103600083015261256e8161219c565b9050919050565b6000602082019050818103600083015261258e816121bf565b9050919050565b600060208201905081810360008301526125ae816121e2565b9050919050565b600060208201905081810360008301526125ce81612205565b9050919050565b600060208201905081810360008301526125ee81612228565b9050919050565b6000602082019050818103600083015261260e8161224b565b9050919050565b600060208201905061262a60008301846122e0565b92915050565b600060408201905061264560008301856122e0565b61265260208301846122e0565b9392505050565b6000612663612674565b905061266f8282612965565b919050565b6000604051905090565b600067ffffffffffffffff82111561269957612698612a3d565b5b602082029050602081019050919050565b600067ffffffffffffffff8211156126c5576126c4612a3d565b5b602082029050602081019050919050565b600067ffffffffffffffff8211156126f1576126f0612a3d565b5b6126fa82612a8e565b9050602081019050919050565b600067ffffffffffffffff82111561272257612721612a3d565b5b61272b82612a8e565b9050602081019050919050565b6000819050602082019050919050565b6000819050602082019050919050565b600081519050919050565b600081519050919050565b600081519050919050565b600081519050919050565b6000602082019050919050565b6000602082019050919050565b600082825260208201905092915050565b600082825260208201905092915050565b600082825260208201905092915050565b600082825260208201905092915050565b600082825260208201905092915050565b60006127fe826128e7565b9150612809836128e7565b9250827fffffffffffffffffffffffffffffffffffffffffffffffffffffffffffffffff0382111561283e5761283d6129df565b5b828201905092915050565b6000612854826128e7565b915061285f836128e7565b925082821015612872576128716129df565b5b828203905092915050565b6000612888826128c7565b9050919050565b60008115159050919050565b60007fffffffff0000000000000000000000000000000000000000000000000000000082169050919050565b600073ffffffffffffffffffffffffffffffffffffffff82169050919050565b6000819050919050565b82818337600083830152505050565b60005b8381101561291e578082015181840152602081019050612903565b8381111561292d576000848401525b50505050565b6000600282049050600182168061294b57607f821691505b6020821081141561295f5761295e612a0e565b5b50919050565b61296e82612a8e565b810181811067ffffffffffffffff8211171561298d5761298c612a3d565b5b80604052505050565b60006129a1826128e7565b91507fffffffffffffffffffffffffffffffffffffffffffffffffffffffffffffffff8214156129d4576129d36129df565b5b600182019050919050565b7f4e487b7100000000000000000000000000000000000000000000000000000000600052601160045260246000fd5b7f4e487b7100000000000000000000000000000000000000000000000000000000600052602260045260246000fd5b7f4e487b7100000000000000000000000000000000000000000000000000000000600052604160045260246000fd5b600060033d1115612a8b5760046000803e612a88600051612a9f565b90505b90565b6000601f19601f8301169050919050565b60008160e01c9050919050565b7f455243313135353a207472616e7366657220746f206e6f6e204552433131353560008201527f526563656976657220696d706c656d656e746572000000000000000000000000602082015250565b7f455243313135353a204552433131353552656365697665722072656a6563746560008201527f6420746f6b656e73000000000000000000000000000000000000000000000000602082015250565b7f455243313135353a2062616c616e636520717565727920666f7220746865207a60008201527f65726f2061646472657373000000000000000000000000000000000000000000602082015250565b7f455243313135353a2063616c6c6572206973206e6f74206f776e6572206e6f7260008201527f20617070726f7665640000000000000000000000000000000000000000000000602082015250565b7f455243313135353a207472616e7366657220746f20746865207a65726f20616460008201527f6472657373000000000000000000000000000000000000000000000000000000602082015250565b7f455243313135353a207472616e736665722063616c6c6572206973206e6f742060008201527f6f776e6572206e6f7220617070726f7665640000000000000000000000000000602082015250565b7f455243313135353a20696e73756666696369656e742062616c616e636520666f60008201527f72207472616e7366657200000000000000000000000000000000000000000000602082015250565b7f455243313135353a2073657474696e6720617070726f76616c2073746174757360008201527f20666f722073656c660000000000000000000000000000000000000000000000602082015250565b7f455243313135353a206163636f756e747320616e6420696473206c656e67746860008201527f206d69736d617463680000000000000000000000000000000000000000000000602082015250565b7f455243313135353a2069647320616e6420616d6f756e7473206c656e6774682060008201527f6d69736d61746368000000000000000000000000000000000000000000000000602082015250565b7f455243313135353a206d696e7420746f20746865207a65726f2061646472657360008201527f7300000000000000000000000000000000000000000000000000000000000000602082015250565b600060443d1015612e2157612ea4565b612e29612674565b60043d036004823e80513d602482011167ffffffffffffffff82111715612e51575050612ea4565b808201805167ffffffffffffffff811115612e6f5750505050612ea4565b80602083010160043d038501811115612e8c575050505050612ea4565b612e9b82602001850186612965565b82955050505050505b90565b612eb08161287d565b8114612ebb57600080fd5b50565b612ec78161288f565b8114612ed257600080fd5b50565b612ede8161289b565b8114612ee957600080fd5b50565b612ef5816128e7565b8114612f0057600080fd5b5056fea26469706673582212207466e687c9e9cf7fc9c5315e93c1bccf9c1ec4ea2bf9a969267fc905f9a8cc6464736f6c63430008040033",
  "immutableReferences": {},
  "source": "// SPDX-License-Identifier: MIT\npragma solidity ^0.8.0;\n\nimport '@openzeppelin/contracts/token/ERC1155/ERC1155.sol';\n// deployed contract address\n// 0xD434fc96112d3dB4B676aFB99b9D67dE73A34638\ncontract Mint is ERC1155 {\n    struct Nft {\n        string _hash;\n        uint _aprice;\n        uint _bprice;\n        address _creator;\n    }\n    Nft[] nft_list;\n    event Mint_result(string _hash, uint _aprice, uint _bprice, address _creator);\n    constructor () ERC1155(\"\") {}\n    function mint(string memory _hash, uint _amount, uint _aprice, uint _bprice) public returns(uint) {\n        uint id = nft_list.length;\n        _mint(msg.sender, id, _amount, \"\");\n        Nft memory temp = Nft(_hash, _aprice, _bprice, msg.sender);\n        nft_list.push(temp);\n        emit Mint_result(_hash, _aprice, _bprice, msg.sender);\n        return id;\n    }\n    function get_nfts() public view returns(Nft[] memory) {\n        return nft_list;\n    }\n}\n",
  "sourcePath": "/home/oncemore/BlockchainWork/afen/contract/contracts/Mint.sol",
  "compiler": {
    "name": "solc",
    "version": "0.8.4+commit.c7e474f2.Emscripten.clang"
  },
  "schemaVersion": "3.3.4",
  "updatedAt": "2021-05-26T19:17:05.385Z",
  "networkType": "ethereum",
  "devdoc": {
    "kind": "dev",
    "methods": {
      "balanceOf(address,uint256)": {
        "details": "See {IERC1155-balanceOf}. Requirements: - `account` cannot be the zero address."
      },
      "balanceOfBatch(address[],uint256[])": {
        "details": "See {IERC1155-balanceOfBatch}. Requirements: - `accounts` and `ids` must have the same length."
      },
      "isApprovedForAll(address,address)": {
        "details": "See {IERC1155-isApprovedForAll}."
      },
      "safeBatchTransferFrom(address,address,uint256[],uint256[],bytes)": {
        "details": "See {IERC1155-safeBatchTransferFrom}."
      },
      "safeTransferFrom(address,address,uint256,uint256,bytes)": {
        "details": "See {IERC1155-safeTransferFrom}."
      },
      "setApprovalForAll(address,bool)": {
        "details": "See {IERC1155-setApprovalForAll}."
      },
      "supportsInterface(bytes4)": {
        "details": "See {IERC165-supportsInterface}."
      },
      "uri(uint256)": {
        "details": "See {IERC1155MetadataURI-uri}. This implementation returns the same URI for *all* token types. It relies on the token type ID substitution mechanism https://eips.ethereum.org/EIPS/eip-1155#metadata[defined in the EIP]. Clients calling this function must replace the `\\{id\\}` substring with the actual token type ID."
      }
    },
    "version": 1
  },
  "userdoc": {
    "kind": "user",
    "methods": {},
    "version": 1
  }
}