{
  "contractName": "Trade",
  "abi": [
    {
      "inputs": [],
      "stateMutability": "nonpayable",
      "type": "constructor"
    },
    {
      "anonymous": false,
      "inputs": [
        {
          "indexed": true,
          "internalType": "address",
          "name": "account",
          "type": "address"
        },
        {
          "indexed": true,
          "internalType": "address",
          "name": "operator",
          "type": "address"
        },
        {
          "indexed": false,
          "internalType": "bool",
          "name": "approved",
          "type": "bool"
        }
      ],
      "name": "ApprovalForAll",
      "type": "event"
    },
    {
      "anonymous": false,
      "inputs": [
        {
          "indexed": true,
          "internalType": "address",
          "name": "operator",
          "type": "address"
        },
        {
          "indexed": true,
          "internalType": "address",
          "name": "from",
          "type": "address"
        },
        {
          "indexed": true,
          "internalType": "address",
          "name": "to",
          "type": "address"
        },
        {
          "indexed": false,
          "internalType": "uint256[]",
          "name": "ids",
          "type": "uint256[]"
        },
        {
          "indexed": false,
          "internalType": "uint256[]",
          "name": "values",
          "type": "uint256[]"
        }
      ],
      "name": "TransferBatch",
      "type": "event"
    },
    {
      "anonymous": false,
      "inputs": [
        {
          "indexed": true,
          "internalType": "address",
          "name": "operator",
          "type": "address"
        },
        {
          "indexed": true,
          "internalType": "address",
          "name": "from",
          "type": "address"
        },
        {
          "indexed": true,
          "internalType": "address",
          "name": "to",
          "type": "address"
        },
        {
          "indexed": false,
          "internalType": "uint256",
          "name": "id",
          "type": "uint256"
        },
        {
          "indexed": false,
          "internalType": "uint256",
          "name": "value",
          "type": "uint256"
        }
      ],
      "name": "TransferSingle",
      "type": "event"
    },
    {
      "anonymous": false,
      "inputs": [
        {
          "indexed": false,
          "internalType": "string",
          "name": "value",
          "type": "string"
        },
        {
          "indexed": true,
          "internalType": "uint256",
          "name": "id",
          "type": "uint256"
        }
      ],
      "name": "URI",
      "type": "event"
    },
    {
      "inputs": [
        {
          "internalType": "address",
          "name": "account",
          "type": "address"
        },
        {
          "internalType": "uint256",
          "name": "id",
          "type": "uint256"
        }
      ],
      "name": "balanceOf",
      "outputs": [
        {
          "internalType": "uint256",
          "name": "",
          "type": "uint256"
        }
      ],
      "stateMutability": "view",
      "type": "function"
    },
    {
      "inputs": [
        {
          "internalType": "address[]",
          "name": "accounts",
          "type": "address[]"
        },
        {
          "internalType": "uint256[]",
          "name": "ids",
          "type": "uint256[]"
        }
      ],
      "name": "balanceOfBatch",
      "outputs": [
        {
          "internalType": "uint256[]",
          "name": "",
          "type": "uint256[]"
        }
      ],
      "stateMutability": "view",
      "type": "function"
    },
    {
      "inputs": [
        {
          "internalType": "address",
          "name": "account",
          "type": "address"
        },
        {
          "internalType": "address",
          "name": "operator",
          "type": "address"
        }
      ],
      "name": "isApprovedForAll",
      "outputs": [
        {
          "internalType": "bool",
          "name": "",
          "type": "bool"
        }
      ],
      "stateMutability": "view",
      "type": "function"
    },
    {
      "inputs": [
        {
          "internalType": "address",
          "name": "from",
          "type": "address"
        },
        {
          "internalType": "address",
          "name": "to",
          "type": "address"
        },
        {
          "internalType": "uint256[]",
          "name": "ids",
          "type": "uint256[]"
        },
        {
          "internalType": "uint256[]",
          "name": "amounts",
          "type": "uint256[]"
        },
        {
          "internalType": "bytes",
          "name": "data",
          "type": "bytes"
        }
      ],
      "name": "safeBatchTransferFrom",
      "outputs": [],
      "stateMutability": "nonpayable",
      "type": "function"
    },
    {
      "inputs": [
        {
          "internalType": "address",
          "name": "from",
          "type": "address"
        },
        {
          "internalType": "address",
          "name": "to",
          "type": "address"
        },
        {
          "internalType": "uint256",
          "name": "id",
          "type": "uint256"
        },
        {
          "internalType": "uint256",
          "name": "amount",
          "type": "uint256"
        },
        {
          "internalType": "bytes",
          "name": "data",
          "type": "bytes"
        }
      ],
      "name": "safeTransferFrom",
      "outputs": [],
      "stateMutability": "nonpayable",
      "type": "function"
    },
    {
      "inputs": [
        {
          "internalType": "uint256",
          "name": "",
          "type": "uint256"
        }
      ],
      "name": "sell_list",
      "outputs": [
        {
          "internalType": "string",
          "name": "_hash",
          "type": "string"
        },
        {
          "internalType": "uint256",
          "name": "_aprice",
          "type": "uint256"
        },
        {
          "internalType": "uint256",
          "name": "_bprice",
          "type": "uint256"
        },
        {
          "internalType": "address",
          "name": "_creator",
          "type": "address"
        }
      ],
      "stateMutability": "view",
      "type": "function"
    },
    {
      "inputs": [
        {
          "internalType": "address",
          "name": "operator",
          "type": "address"
        },
        {
          "internalType": "bool",
          "name": "approved",
          "type": "bool"
        }
      ],
      "name": "setApprovalForAll",
      "outputs": [],
      "stateMutability": "nonpayable",
      "type": "function"
    },
    {
      "inputs": [
        {
          "internalType": "bytes4",
          "name": "interfaceId",
          "type": "bytes4"
        }
      ],
      "name": "supportsInterface",
      "outputs": [
        {
          "internalType": "bool",
          "name": "",
          "type": "bool"
        }
      ],
      "stateMutability": "view",
      "type": "function"
    },
    {
      "inputs": [
        {
          "internalType": "uint256",
          "name": "",
          "type": "uint256"
        }
      ],
      "name": "uri",
      "outputs": [
        {
          "internalType": "string",
          "name": "",
          "type": "string"
        }
      ],
      "stateMutability": "view",
      "type": "function"
    },
    {
      "inputs": [
        {
          "internalType": "uint256",
          "name": "_id",
          "type": "uint256"
        }
      ],
      "name": "sell",
      "outputs": [
        {
          "internalType": "bool",
          "name": "",
          "type": "bool"
        }
      ],
      "stateMutability": "nonpayable",
      "type": "function"
    }
  ],
  "bytecode": "0x60806040526040516200001290620000c2565b604051809103906000f0801580156200002f573d6000803e3d6000fd5b50600460006101000a81548173ffffffffffffffffffffffffffffffffffffffff021916908373ffffffffffffffffffffffffffffffffffffffff1602179055503480156200007d57600080fd5b50604051806020016040528060008152506200009f81620000a660201b60201c565b50620001e5565b8060029080519060200190620000be929190620000d0565b5050565b6134098062002d9083390190565b828054620000de9062000180565b90600052602060002090601f0160209004810192826200010257600085556200014e565b82601f106200011d57805160ff19168380011785556200014e565b828001600101855582156200014e579182015b828111156200014d57825182559160200191906001019062000130565b5b5090506200015d919062000161565b5090565b5b808211156200017c57600081600090555060010162000162565b5090565b600060028204905060018216806200019957607f821691505b60208210811415620001b057620001af620001b6565b5b50919050565b7f4e487b7100000000000000000000000000000000000000000000000000000000600052602260045260246000fd5b612b9b80620001f56000396000f3fe608060405234801561001057600080fd5b506004361061009d5760003560e01c8063a22cb46511610066578063a22cb4651461017e578063e31014de1461019a578063e4849b32146101cd578063e985e9c5146101fd578063f242432a1461022d5761009d565b8062fdd58e146100a257806301ffc9a7146100d25780630e89341c146101025780632eb2c2d6146101325780634e1273f41461014e575b600080fd5b6100bc60048036038101906100b79190611c0c565b610249565b6040516100c99190612310565b60405180910390f35b6100ec60048036038101906100e79190611cb4565b610312565b6040516100f99190612147565b60405180910390f35b61011c60048036038101906101179190611d81565b6103f4565b6040516101299190612162565b60405180910390f35b61014c60048036038101906101479190611a82565b610488565b005b61016860048036038101906101639190611c48565b61087e565b60405161017591906120ee565b60405180910390f35b61019860048036038101906101939190611bd0565b610a2f565b005b6101b460048036038101906101af9190611d81565b610bb0565b6040516101c49493929190612184565b60405180910390f35b6101e760048036038101906101e29190611d81565b610c98565b6040516101f49190612147565b60405180910390f35b61021760048036038101906102129190611a46565b610e47565b6040516102249190612147565b60405180910390f35b61024760048036038101906102429190611b41565b610edb565b005b60008073ffffffffffffffffffffffffffffffffffffffff168373ffffffffffffffffffffffffffffffffffffffff1614156102ba576040517f08c379a00000000000000000000000000000000000000000000000000000000081526004016102b190612210565b60405180910390fd5b60008083815260200190815260200160002060008473ffffffffffffffffffffffffffffffffffffffff1673ffffffffffffffffffffffffffffffffffffffff16815260200190815260200160002054905092915050565b60007fd9b67a26000000000000000000000000000000000000000000000000000000007bffffffffffffffffffffffffffffffffffffffffffffffffffffffff1916827bffffffffffffffffffffffffffffffffffffffffffffffffffffffff191614806103dd57507f0e89341c000000000000000000000000000000000000000000000000000000007bffffffffffffffffffffffffffffffffffffffffffffffffffffffff1916827bffffffffffffffffffffffffffffffffffffffffffffffffffffffff1916145b806103ed57506103ec826111f3565b5b9050919050565b606060028054610403906125e4565b80601f016020809104026020016040519081016040528092919081815260200182805461042f906125e4565b801561047c5780601f106104515761010080835404028352916020019161047c565b820191906000526020600020905b81548152906001019060200180831161045f57829003601f168201915b50505050509050919050565b81518351146104cc576040517f08c379a00000000000000000000000000000000000000000000000000000000081526004016104c3906122f0565b60405180910390fd5b600073ffffffffffffffffffffffffffffffffffffffff168473ffffffffffffffffffffffffffffffffffffffff16141561053c576040517f08c379a000000000000000000000000000000000000000000000000000000000815260040161053390612250565b60405180910390fd5b61054461125d565b73ffffffffffffffffffffffffffffffffffffffff168573ffffffffffffffffffffffffffffffffffffffff16148061058a57506105898561058461125d565b610e47565b5b6105c9576040517f08c379a00000000000000000000000000000000000000000000000000000000081526004016105c090612270565b60405180910390fd5b60006105d361125d565b90506105e3818787878787611265565b60005b84518110156107e957600085828151811061062a577f4e487b7100000000000000000000000000000000000000000000000000000000600052603260045260246000fd5b60200260200101519050600085838151811061066f577f4e487b7100000000000000000000000000000000000000000000000000000000600052603260045260246000fd5b60200260200101519050600080600084815260200190815260200160002060008b73ffffffffffffffffffffffffffffffffffffffff1673ffffffffffffffffffffffffffffffffffffffff16815260200190815260200160002054905081811015610710576040517f08c379a000000000000000000000000000000000000000000000000000000000815260040161070790612290565b60405180910390fd5b818161071c91906124fa565b60008085815260200190815260200160002060008c73ffffffffffffffffffffffffffffffffffffffff1673ffffffffffffffffffffffffffffffffffffffff168152602001908152602001600020819055508160008085815260200190815260200160002060008b73ffffffffffffffffffffffffffffffffffffffff1673ffffffffffffffffffffffffffffffffffffffff16815260200190815260200160002060008282546107ce91906124a4565b92505081905550505050806107e290612647565b90506105e6565b508473ffffffffffffffffffffffffffffffffffffffff168673ffffffffffffffffffffffffffffffffffffffff168273ffffffffffffffffffffffffffffffffffffffff167f4a39dc06d4c0dbc64b70af90fd698a233a518aa5d07e595d983b8c0526c8f7fb8787604051610860929190612110565b60405180910390a461087681878787878761126d565b505050505050565b606081518351146108c4576040517f08c379a00000000000000000000000000000000000000000000000000000000081526004016108bb906122d0565b60405180910390fd5b6000835167ffffffffffffffff811115610907577f4e487b7100000000000000000000000000000000000000000000000000000000600052604160045260246000fd5b6040519080825280602002602001820160405280156109355781602001602082028036833780820191505090505b50905060005b8451811015610a24576109ce858281518110610980577f4e487b7100000000000000000000000000000000000000000000000000000000600052603260045260246000fd5b60200260200101518583815181106109c1577f4e487b7100000000000000000000000000000000000000000000000000000000600052603260045260246000fd5b6020026020010151610249565b828281518110610a07577f4e487b7100000000000000000000000000000000000000000000000000000000600052603260045260246000fd5b60200260200101818152505080610a1d90612647565b905061093b565b508091505092915050565b8173ffffffffffffffffffffffffffffffffffffffff16610a4e61125d565b73ffffffffffffffffffffffffffffffffffffffff161415610aa5576040517f08c379a0000000000000000000000000000000000000000000000000000000008152600401610a9c906122b0565b60405180910390fd5b8060016000610ab261125d565b73ffffffffffffffffffffffffffffffffffffffff1673ffffffffffffffffffffffffffffffffffffffff16815260200190815260200160002060008473ffffffffffffffffffffffffffffffffffffffff1673ffffffffffffffffffffffffffffffffffffffff16815260200190815260200160002060006101000a81548160ff0219169083151502179055508173ffffffffffffffffffffffffffffffffffffffff16610b5f61125d565b73ffffffffffffffffffffffffffffffffffffffff167f17307eab39ab6107e8899845ad3d59bd9653f200f220920489ca2b5937696c3183604051610ba49190612147565b60405180910390a35050565b60038181548110610bc057600080fd5b9060005260206000209060040201600091509050806000018054610be3906125e4565b80601f0160208091040260200160405190810160405280929190818152602001828054610c0f906125e4565b8015610c5c5780601f10610c3157610100808354040283529160200191610c5c565b820191906000526020600020905b815481529060010190602001808311610c3f57829003601f168201915b5050505050908060010154908060020154908060030160009054906101000a900473ffffffffffffffffffffffffffffffffffffffff16905084565b6000806000806000600460009054906101000a900473ffffffffffffffffffffffffffffffffffffffff1673ffffffffffffffffffffffffffffffffffffffff16630ebac2ee876040518263ffffffff1660e01b8152600401610cfb9190612310565b60006040518083038186803b158015610d1357600080fd5b505afa158015610d27573d6000803e3d6000fd5b505050506040513d6000823e3d601f19601f82011682018060405250810190610d509190611d06565b9350935093509350600060405180608001604052808681526020018581526020018481526020018373ffffffffffffffffffffffffffffffffffffffff16815250905060038190806001815401808255809150506001900390600052602060002090600402016000909190919091506000820151816000019080519060200190610ddb929190611714565b50602082015181600101556040820151816002015560608201518160030160006101000a81548173ffffffffffffffffffffffffffffffffffffffff021916908373ffffffffffffffffffffffffffffffffffffffff1602179055505050600195505050505050919050565b6000600160008473ffffffffffffffffffffffffffffffffffffffff1673ffffffffffffffffffffffffffffffffffffffff16815260200190815260200160002060008373ffffffffffffffffffffffffffffffffffffffff1673ffffffffffffffffffffffffffffffffffffffff16815260200190815260200160002060009054906101000a900460ff16905092915050565b600073ffffffffffffffffffffffffffffffffffffffff168473ffffffffffffffffffffffffffffffffffffffff161415610f4b576040517f08c379a0000000000000000000000000000000000000000000000000000000008152600401610f4290612250565b60405180910390fd5b610f5361125d565b73ffffffffffffffffffffffffffffffffffffffff168573ffffffffffffffffffffffffffffffffffffffff161480610f995750610f9885610f9361125d565b610e47565b5b610fd8576040517f08c379a0000000000000000000000000000000000000000000000000000000008152600401610fcf90612230565b60405180910390fd5b6000610fe261125d565b9050611002818787610ff388611454565b610ffc88611454565b87611265565b600080600086815260200190815260200160002060008873ffffffffffffffffffffffffffffffffffffffff1673ffffffffffffffffffffffffffffffffffffffff16815260200190815260200160002054905083811015611099576040517f08c379a000000000000000000000000000000000000000000000000000000000815260040161109090612290565b60405180910390fd5b83816110a591906124fa565b60008087815260200190815260200160002060008973ffffffffffffffffffffffffffffffffffffffff1673ffffffffffffffffffffffffffffffffffffffff168152602001908152602001600020819055508360008087815260200190815260200160002060008873ffffffffffffffffffffffffffffffffffffffff1673ffffffffffffffffffffffffffffffffffffffff168152602001908152602001600020600082825461115791906124a4565b925050819055508573ffffffffffffffffffffffffffffffffffffffff168773ffffffffffffffffffffffffffffffffffffffff168373ffffffffffffffffffffffffffffffffffffffff167fc3d58168c5ae7397731d063d5bbf3d657854427343f4c083240f7aacaa2d0f6288886040516111d492919061232b565b60405180910390a46111ea82888888888861151a565b50505050505050565b60007f01ffc9a7000000000000000000000000000000000000000000000000000000007bffffffffffffffffffffffffffffffffffffffffffffffffffffffff1916827bffffffffffffffffffffffffffffffffffffffffffffffffffffffff1916149050919050565b600033905090565b505050505050565b61128c8473ffffffffffffffffffffffffffffffffffffffff16611701565b1561144c578373ffffffffffffffffffffffffffffffffffffffff1663bc197c8187878686866040518663ffffffff1660e01b81526004016112d295949392919061202c565b602060405180830381600087803b1580156112ec57600080fd5b505af192505050801561131d57506040513d601f19601f8201168201806040525081019061131a9190611cdd565b60015b6113c35761132961271d565b806308c379a01415611386575061133e612a73565b806113495750611388565b806040517f08c379a000000000000000000000000000000000000000000000000000000000815260040161137d9190612162565b60405180910390fd5b505b6040517f08c379a00000000000000000000000000000000000000000000000000000000081526004016113ba906121d0565b60405180910390fd5b63bc197c8160e01b7bffffffffffffffffffffffffffffffffffffffffffffffffffffffff1916817bffffffffffffffffffffffffffffffffffffffffffffffffffffffff19161461144a576040517f08c379a0000000000000000000000000000000000000000000000000000000008152600401611441906121f0565b60405180910390fd5b505b505050505050565b60606000600167ffffffffffffffff811115611499577f4e487b7100000000000000000000000000000000000000000000000000000000600052604160045260246000fd5b6040519080825280602002602001820160405280156114c75781602001602082028036833780820191505090505b5090508281600081518110611505577f4e487b7100000000000000000000000000000000000000000000000000000000600052603260045260246000fd5b60200260200101818152505080915050919050565b6115398473ffffffffffffffffffffffffffffffffffffffff16611701565b156116f9578373ffffffffffffffffffffffffffffffffffffffff1663f23a6e6187878686866040518663ffffffff1660e01b815260040161157f959493929190612094565b602060405180830381600087803b15801561159957600080fd5b505af19250505080156115ca57506040513d601f19601f820116820180604052508101906115c79190611cdd565b60015b611670576115d661271d565b806308c379a0141561163357506115eb612a73565b806115f65750611635565b806040517f08c379a000000000000000000000000000000000000000000000000000000000815260040161162a9190612162565b60405180910390fd5b505b6040517f08c379a0000000000000000000000000000000000000000000000000000000008152600401611667906121d0565b60405180910390fd5b63f23a6e6160e01b7bffffffffffffffffffffffffffffffffffffffffffffffffffffffff1916817bffffffffffffffffffffffffffffffffffffffffffffffffffffffff1916146116f7576040517f08c379a00000000000000000000000000000000000000000000000000000000081526004016116ee906121f0565b60405180910390fd5b505b505050505050565b600080823b905060008111915050919050565b828054611720906125e4565b90600052602060002090601f0160209004810192826117425760008555611789565b82601f1061175b57805160ff1916838001178555611789565b82800160010185558215611789579182015b8281111561178857825182559160200191906001019061176d565b5b509050611796919061179a565b5090565b5b808211156117b357600081600090555060010161179b565b5090565b60006117ca6117c584612379565b612354565b905080838252602082019050828560208602820111156117e957600080fd5b60005b8581101561181957816117ff888261190b565b8452602084019350602083019250506001810190506117ec565b5050509392505050565b6000611836611831846123a5565b612354565b9050808382526020820190508285602086028201111561185557600080fd5b60005b85811015611885578161186b8882611a1c565b845260208401935060208301925050600181019050611858565b5050509392505050565b60006118a261189d846123d1565b612354565b9050828152602081018484840111156118ba57600080fd5b6118c58482856125a2565b509392505050565b60006118e06118db84612402565b612354565b9050828152602081018484840111156118f857600080fd5b6119038482856125b1565b509392505050565b60008135905061191a81612b09565b92915050565b60008151905061192f81612b09565b92915050565b600082601f83011261194657600080fd5b81356119568482602086016117b7565b91505092915050565b600082601f83011261197057600080fd5b8135611980848260208601611823565b91505092915050565b60008135905061199881612b20565b92915050565b6000813590506119ad81612b37565b92915050565b6000815190506119c281612b37565b92915050565b600082601f8301126119d957600080fd5b81356119e984826020860161188f565b91505092915050565b600082601f830112611a0357600080fd5b8151611a138482602086016118cd565b91505092915050565b600081359050611a2b81612b4e565b92915050565b600081519050611a4081612b4e565b92915050565b60008060408385031215611a5957600080fd5b6000611a678582860161190b565b9250506020611a788582860161190b565b9150509250929050565b600080600080600060a08688031215611a9a57600080fd5b6000611aa88882890161190b565b9550506020611ab98882890161190b565b945050604086013567ffffffffffffffff811115611ad657600080fd5b611ae28882890161195f565b935050606086013567ffffffffffffffff811115611aff57600080fd5b611b0b8882890161195f565b925050608086013567ffffffffffffffff811115611b2857600080fd5b611b34888289016119c8565b9150509295509295909350565b600080600080600060a08688031215611b5957600080fd5b6000611b678882890161190b565b9550506020611b788882890161190b565b9450506040611b8988828901611a1c565b9350506060611b9a88828901611a1c565b925050608086013567ffffffffffffffff811115611bb757600080fd5b611bc3888289016119c8565b9150509295509295909350565b60008060408385031215611be357600080fd5b6000611bf18582860161190b565b9250506020611c0285828601611989565b9150509250929050565b60008060408385031215611c1f57600080fd5b6000611c2d8582860161190b565b9250506020611c3e85828601611a1c565b9150509250929050565b60008060408385031215611c5b57600080fd5b600083013567ffffffffffffffff811115611c7557600080fd5b611c8185828601611935565b925050602083013567ffffffffffffffff811115611c9e57600080fd5b611caa8582860161195f565b9150509250929050565b600060208284031215611cc657600080fd5b6000611cd48482850161199e565b91505092915050565b600060208284031215611cef57600080fd5b6000611cfd848285016119b3565b91505092915050565b60008060008060808587031215611d1c57600080fd5b600085015167ffffffffffffffff811115611d3657600080fd5b611d42878288016119f2565b9450506020611d5387828801611a31565b9350506040611d6487828801611a31565b9250506060611d7587828801611920565b91505092959194509250565b600060208284031215611d9357600080fd5b6000611da184828501611a1c565b91505092915050565b6000611db6838361200e565b60208301905092915050565b611dcb8161252e565b82525050565b6000611ddc82612443565b611de68185612471565b9350611df183612433565b8060005b83811015611e22578151611e098882611daa565b9750611e1483612464565b925050600181019050611df5565b5085935050505092915050565b611e3881612540565b82525050565b6000611e498261244e565b611e538185612482565b9350611e638185602086016125b1565b611e6c8161273f565b840191505092915050565b6000611e8282612459565b611e8c8185612493565b9350611e9c8185602086016125b1565b611ea58161273f565b840191505092915050565b6000611ebd603483612493565b9150611ec88261275d565b604082019050919050565b6000611ee0602883612493565b9150611eeb826127ac565b604082019050919050565b6000611f03602b83612493565b9150611f0e826127fb565b604082019050919050565b6000611f26602983612493565b9150611f318261284a565b604082019050919050565b6000611f49602583612493565b9150611f5482612899565b604082019050919050565b6000611f6c603283612493565b9150611f77826128e8565b604082019050919050565b6000611f8f602a83612493565b9150611f9a82612937565b604082019050919050565b6000611fb2602983612493565b9150611fbd82612986565b604082019050919050565b6000611fd5602983612493565b9150611fe0826129d5565b604082019050919050565b6000611ff8602883612493565b915061200382612a24565b604082019050919050565b61201781612598565b82525050565b61202681612598565b82525050565b600060a0820190506120416000830188611dc2565b61204e6020830187611dc2565b81810360408301526120608186611dd1565b905081810360608301526120748185611dd1565b905081810360808301526120888184611e3e565b90509695505050505050565b600060a0820190506120a96000830188611dc2565b6120b66020830187611dc2565b6120c3604083018661201d565b6120d0606083018561201d565b81810360808301526120e28184611e3e565b90509695505050505050565b600060208201905081810360008301526121088184611dd1565b905092915050565b6000604082019050818103600083015261212a8185611dd1565b9050818103602083015261213e8184611dd1565b90509392505050565b600060208201905061215c6000830184611e2f565b92915050565b6000602082019050818103600083015261217c8184611e77565b905092915050565b6000608082019050818103600083015261219e8187611e77565b90506121ad602083018661201d565b6121ba604083018561201d565b6121c76060830184611dc2565b95945050505050565b600060208201905081810360008301526121e981611eb0565b9050919050565b6000602082019050818103600083015261220981611ed3565b9050919050565b6000602082019050818103600083015261222981611ef6565b9050919050565b6000602082019050818103600083015261224981611f19565b9050919050565b6000602082019050818103600083015261226981611f3c565b9050919050565b6000602082019050818103600083015261228981611f5f565b9050919050565b600060208201905081810360008301526122a981611f82565b9050919050565b600060208201905081810360008301526122c981611fa5565b9050919050565b600060208201905081810360008301526122e981611fc8565b9050919050565b6000602082019050818103600083015261230981611feb565b9050919050565b6000602082019050612325600083018461201d565b92915050565b6000604082019050612340600083018561201d565b61234d602083018461201d565b9392505050565b600061235e61236f565b905061236a8282612616565b919050565b6000604051905090565b600067ffffffffffffffff821115612394576123936126ee565b5b602082029050602081019050919050565b600067ffffffffffffffff8211156123c0576123bf6126ee565b5b602082029050602081019050919050565b600067ffffffffffffffff8211156123ec576123eb6126ee565b5b6123f58261273f565b9050602081019050919050565b600067ffffffffffffffff82111561241d5761241c6126ee565b5b6124268261273f565b9050602081019050919050565b6000819050602082019050919050565b600081519050919050565b600081519050919050565b600081519050919050565b6000602082019050919050565b600082825260208201905092915050565b600082825260208201905092915050565b600082825260208201905092915050565b60006124af82612598565b91506124ba83612598565b9250827fffffffffffffffffffffffffffffffffffffffffffffffffffffffffffffffff038211156124ef576124ee612690565b5b828201905092915050565b600061250582612598565b915061251083612598565b92508282101561252357612522612690565b5b828203905092915050565b600061253982612578565b9050919050565b60008115159050919050565b60007fffffffff0000000000000000000000000000000000000000000000000000000082169050919050565b600073ffffffffffffffffffffffffffffffffffffffff82169050919050565b6000819050919050565b82818337600083830152505050565b60005b838110156125cf5780820151818401526020810190506125b4565b838111156125de576000848401525b50505050565b600060028204905060018216806125fc57607f821691505b602082108114156126105761260f6126bf565b5b50919050565b61261f8261273f565b810181811067ffffffffffffffff8211171561263e5761263d6126ee565b5b80604052505050565b600061265282612598565b91507fffffffffffffffffffffffffffffffffffffffffffffffffffffffffffffffff82141561268557612684612690565b5b600182019050919050565b7f4e487b7100000000000000000000000000000000000000000000000000000000600052601160045260246000fd5b7f4e487b7100000000000000000000000000000000000000000000000000000000600052602260045260246000fd5b7f4e487b7100000000000000000000000000000000000000000000000000000000600052604160045260246000fd5b600060033d111561273c5760046000803e612739600051612750565b90505b90565b6000601f19601f8301169050919050565b60008160e01c9050919050565b7f455243313135353a207472616e7366657220746f206e6f6e204552433131353560008201527f526563656976657220696d706c656d656e746572000000000000000000000000602082015250565b7f455243313135353a204552433131353552656365697665722072656a6563746560008201527f6420746f6b656e73000000000000000000000000000000000000000000000000602082015250565b7f455243313135353a2062616c616e636520717565727920666f7220746865207a60008201527f65726f2061646472657373000000000000000000000000000000000000000000602082015250565b7f455243313135353a2063616c6c6572206973206e6f74206f776e6572206e6f7260008201527f20617070726f7665640000000000000000000000000000000000000000000000602082015250565b7f455243313135353a207472616e7366657220746f20746865207a65726f20616460008201527f6472657373000000000000000000000000000000000000000000000000000000602082015250565b7f455243313135353a207472616e736665722063616c6c6572206973206e6f742060008201527f6f776e6572206e6f7220617070726f7665640000000000000000000000000000602082015250565b7f455243313135353a20696e73756666696369656e742062616c616e636520666f60008201527f72207472616e7366657200000000000000000000000000000000000000000000602082015250565b7f455243313135353a2073657474696e6720617070726f76616c2073746174757360008201527f20666f722073656c660000000000000000000000000000000000000000000000602082015250565b7f455243313135353a206163636f756e747320616e6420696473206c656e67746860008201527f206d69736d617463680000000000000000000000000000000000000000000000602082015250565b7f455243313135353a2069647320616e6420616d6f756e7473206c656e6774682060008201527f6d69736d61746368000000000000000000000000000000000000000000000000602082015250565b600060443d1015612a8357612b06565b612a8b61236f565b60043d036004823e80513d602482011167ffffffffffffffff82111715612ab3575050612b06565b808201805167ffffffffffffffff811115612ad15750505050612b06565b80602083010160043d038501811115612aee575050505050612b06565b612afd82602001850186612616565b82955050505050505b90565b612b128161252e565b8114612b1d57600080fd5b50565b612b2981612540565b8114612b3457600080fd5b50565b612b408161254c565b8114612b4b57600080fd5b50565b612b5781612598565b8114612b6257600080fd5b5056fea264697066735822122015847772e1516e2757240efdd0a3e7ce77d2718b92f6d37e438b1f5acfbbd2f364736f6c6343000804003360806040523480156200001157600080fd5b506040518060200160405280600081525062000033816200003a60201b60201c565b506200016b565b80600290805190602001906200005292919062000056565b5050565b828054620000649062000106565b90600052602060002090601f016020900481019282620000885760008555620000d4565b82601f10620000a357805160ff1916838001178555620000d4565b82800160010185558215620000d4579182015b82811115620000d3578251825591602001919060010190620000b6565b5b509050620000e39190620000e7565b5090565b5b8082111562000102576000816000905550600101620000e8565b5090565b600060028204905060018216806200011f57607f821691505b602082108114156200013657620001356200013c565b5b50919050565b7f4e487b7100000000000000000000000000000000000000000000000000000000600052602260045260246000fd5b61328e806200017b6000396000f3fe608060405234801561001057600080fd5b50600436106100b35760003560e01c806337b8b1701161007157806337b8b170146101c7578063380576f2146101fa5780634e1273f414610218578063a22cb46514610248578063e985e9c514610264578063f242432a14610294576100b3565b8062fdd58e146100b857806301ffc9a7146100e8578063027a2255146101185780630e89341c146101485780630ebac2ee146101785780632eb2c2d6146101ab575b600080fd5b6100d260048036038101906100cd91906120cd565b6102b0565b6040516100df919061296a565b60405180910390f35b61010260048036038101906100fd9190612175565b610379565b60405161010f9190612781565b60405180910390f35b610132600480360381019061012d91906121c7565b61045b565b60405161013f919061296a565b60405180910390f35b610162600480360381019061015d9190612242565b6105ac565b60405161016f919061279c565b60405180910390f35b610192600480360381019061018d9190612242565b610640565b6040516101a294939291906127be565b60405180910390f35b6101c560048036038101906101c09190611f43565b610831565b005b6101e160048036038101906101dc9190612242565b610c27565b6040516101f194939291906127be565b60405180910390f35b610202610d0f565b60405161020f9190612706565b60405180910390f35b610232600480360381019061022d9190612109565b610e6a565b60405161023f9190612728565b60405180910390f35b610262600480360381019061025d9190612091565b61101b565b005b61027e60048036038101906102799190611f07565b61119c565b60405161028b9190612781565b60405180910390f35b6102ae60048036038101906102a99190612002565b611230565b005b60008073ffffffffffffffffffffffffffffffffffffffff168373ffffffffffffffffffffffffffffffffffffffff161415610321576040517f08c379a00000000000000000000000000000000000000000000000000000000081526004016103189061284a565b60405180910390fd5b60008083815260200190815260200160002060008473ffffffffffffffffffffffffffffffffffffffff1673ffffffffffffffffffffffffffffffffffffffff16815260200190815260200160002054905092915050565b60007fd9b67a26000000000000000000000000000000000000000000000000000000007bffffffffffffffffffffffffffffffffffffffffffffffffffffffff1916827bffffffffffffffffffffffffffffffffffffffffffffffffffffffff1916148061044457507f0e89341c000000000000000000000000000000000000000000000000000000007bffffffffffffffffffffffffffffffffffffffffffffffffffffffff1916827bffffffffffffffffffffffffffffffffffffffffffffffffffffffff1916145b80610454575061045382611548565b5b9050919050565b6000806003805490509050610481338287604051806020016040528060008152506115b2565b600060405180608001604052808881526020018681526020018581526020013373ffffffffffffffffffffffffffffffffffffffff16815250905060038190806001815401808255809150506001900390600052602060002090600402016000909190919091506000820151816000019080519060200190610504929190611bff565b50602082015181600101556040820151816002015560608201518160030160006101000a81548173ffffffffffffffffffffffffffffffffffffffff021916908373ffffffffffffffffffffffffffffffffffffffff16021790555050507f1e47109cee0384e294cdf11ed7d63b4f3f5b37d720bb45473dd7f2c61ad1eae78786863360405161059794939291906127be565b60405180910390a18192505050949350505050565b6060600280546105bb90612c88565b80601f01602080910402602001604051908101604052809291908181526020018280546105e790612c88565b80156106345780601f1061060957610100808354040283529160200191610634565b820191906000526020600020905b81548152906001019060200180831161061757829003601f168201915b50505050509050919050565b6060600080600060038581548110610681577f4e487b7100000000000000000000000000000000000000000000000000000000600052603260045260246000fd5b9060005260206000209060040201600001600386815481106106cc577f4e487b7100000000000000000000000000000000000000000000000000000000600052603260045260246000fd5b90600052602060002090600402016001015460038781548110610718577f4e487b7100000000000000000000000000000000000000000000000000000000600052603260045260246000fd5b90600052602060002090600402016002015460038881548110610764577f4e487b7100000000000000000000000000000000000000000000000000000000600052603260045260246000fd5b906000526020600020906004020160030160009054906101000a900473ffffffffffffffffffffffffffffffffffffffff168380546107a290612c88565b80601f01602080910402602001604051908101604052809291908181526020018280546107ce90612c88565b801561081b5780601f106107f05761010080835404028352916020019161081b565b820191906000526020600020905b8154815290600101906020018083116107fe57829003601f168201915b5050505050935093509350935093509193509193565b8151835114610875576040517f08c379a000000000000000000000000000000000000000000000000000000000815260040161086c9061292a565b60405180910390fd5b600073ffffffffffffffffffffffffffffffffffffffff168473ffffffffffffffffffffffffffffffffffffffff1614156108e5576040517f08c379a00000000000000000000000000000000000000000000000000000000081526004016108dc9061288a565b60405180910390fd5b6108ed611748565b73ffffffffffffffffffffffffffffffffffffffff168573ffffffffffffffffffffffffffffffffffffffff16148061093357506109328561092d611748565b61119c565b5b610972576040517f08c379a0000000000000000000000000000000000000000000000000000000008152600401610969906128aa565b60405180910390fd5b600061097c611748565b905061098c818787878787611750565b60005b8451811015610b925760008582815181106109d3577f4e487b7100000000000000000000000000000000000000000000000000000000600052603260045260246000fd5b602002602001015190506000858381518110610a18577f4e487b7100000000000000000000000000000000000000000000000000000000600052603260045260246000fd5b60200260200101519050600080600084815260200190815260200160002060008b73ffffffffffffffffffffffffffffffffffffffff1673ffffffffffffffffffffffffffffffffffffffff16815260200190815260200160002054905081811015610ab9576040517f08c379a0000000000000000000000000000000000000000000000000000000008152600401610ab0906128ca565b60405180910390fd5b8181610ac59190612b9e565b60008085815260200190815260200160002060008c73ffffffffffffffffffffffffffffffffffffffff1673ffffffffffffffffffffffffffffffffffffffff168152602001908152602001600020819055508160008085815260200190815260200160002060008b73ffffffffffffffffffffffffffffffffffffffff1673ffffffffffffffffffffffffffffffffffffffff1681526020019081526020016000206000828254610b779190612b48565b9250508190555050505080610b8b90612ceb565b905061098f565b508473ffffffffffffffffffffffffffffffffffffffff168673ffffffffffffffffffffffffffffffffffffffff168273ffffffffffffffffffffffffffffffffffffffff167f4a39dc06d4c0dbc64b70af90fd698a233a518aa5d07e595d983b8c0526c8f7fb8787604051610c0992919061274a565b60405180910390a4610c1f818787878787611758565b505050505050565b60038181548110610c3757600080fd5b9060005260206000209060040201600091509050806000018054610c5a90612c88565b80601f0160208091040260200160405190810160405280929190818152602001828054610c8690612c88565b8015610cd35780601f10610ca857610100808354040283529160200191610cd3565b820191906000526020600020905b815481529060010190602001808311610cb657829003601f168201915b5050505050908060010154908060020154908060030160009054906101000a900473ffffffffffffffffffffffffffffffffffffffff16905084565b60606003805480602002602001604051908101604052809291908181526020016000905b82821015610e615783829060005260206000209060040201604051806080016040529081600082018054610d6690612c88565b80601f0160208091040260200160405190810160405280929190818152602001828054610d9290612c88565b8015610ddf5780601f10610db457610100808354040283529160200191610ddf565b820191906000526020600020905b815481529060010190602001808311610dc257829003601f168201915b5050505050815260200160018201548152602001600282015481526020016003820160009054906101000a900473ffffffffffffffffffffffffffffffffffffffff1673ffffffffffffffffffffffffffffffffffffffff1673ffffffffffffffffffffffffffffffffffffffff168152505081526020019060010190610d33565b50505050905090565b60608151835114610eb0576040517f08c379a0000000000000000000000000000000000000000000000000000000008152600401610ea79061290a565b60405180910390fd5b6000835167ffffffffffffffff811115610ef3577f4e487b7100000000000000000000000000000000000000000000000000000000600052604160045260246000fd5b604051908082528060200260200182016040528015610f215781602001602082028036833780820191505090505b50905060005b845181101561101057610fba858281518110610f6c577f4e487b7100000000000000000000000000000000000000000000000000000000600052603260045260246000fd5b6020026020010151858381518110610fad577f4e487b7100000000000000000000000000000000000000000000000000000000600052603260045260246000fd5b60200260200101516102b0565b828281518110610ff3577f4e487b7100000000000000000000000000000000000000000000000000000000600052603260045260246000fd5b6020026020010181815250508061100990612ceb565b9050610f27565b508091505092915050565b8173ffffffffffffffffffffffffffffffffffffffff1661103a611748565b73ffffffffffffffffffffffffffffffffffffffff161415611091576040517f08c379a0000000000000000000000000000000000000000000000000000000008152600401611088906128ea565b60405180910390fd5b806001600061109e611748565b73ffffffffffffffffffffffffffffffffffffffff1673ffffffffffffffffffffffffffffffffffffffff16815260200190815260200160002060008473ffffffffffffffffffffffffffffffffffffffff1673ffffffffffffffffffffffffffffffffffffffff16815260200190815260200160002060006101000a81548160ff0219169083151502179055508173ffffffffffffffffffffffffffffffffffffffff1661114b611748565b73ffffffffffffffffffffffffffffffffffffffff167f17307eab39ab6107e8899845ad3d59bd9653f200f220920489ca2b5937696c31836040516111909190612781565b60405180910390a35050565b6000600160008473ffffffffffffffffffffffffffffffffffffffff1673ffffffffffffffffffffffffffffffffffffffff16815260200190815260200160002060008373ffffffffffffffffffffffffffffffffffffffff1673ffffffffffffffffffffffffffffffffffffffff16815260200190815260200160002060009054906101000a900460ff16905092915050565b600073ffffffffffffffffffffffffffffffffffffffff168473ffffffffffffffffffffffffffffffffffffffff1614156112a0576040517f08c379a00000000000000000000000000000000000000000000000000000000081526004016112979061288a565b60405180910390fd5b6112a8611748565b73ffffffffffffffffffffffffffffffffffffffff168573ffffffffffffffffffffffffffffffffffffffff1614806112ee57506112ed856112e8611748565b61119c565b5b61132d576040517f08c379a00000000000000000000000000000000000000000000000000000000081526004016113249061286a565b60405180910390fd5b6000611337611748565b90506113578187876113488861193f565b6113518861193f565b87611750565b600080600086815260200190815260200160002060008873ffffffffffffffffffffffffffffffffffffffff1673ffffffffffffffffffffffffffffffffffffffff168152602001908152602001600020549050838110156113ee576040517f08c379a00000000000000000000000000000000000000000000000000000000081526004016113e5906128ca565b60405180910390fd5b83816113fa9190612b9e565b60008087815260200190815260200160002060008973ffffffffffffffffffffffffffffffffffffffff1673ffffffffffffffffffffffffffffffffffffffff168152602001908152602001600020819055508360008087815260200190815260200160002060008873ffffffffffffffffffffffffffffffffffffffff1673ffffffffffffffffffffffffffffffffffffffff16815260200190815260200160002060008282546114ac9190612b48565b925050819055508573ffffffffffffffffffffffffffffffffffffffff168773ffffffffffffffffffffffffffffffffffffffff168373ffffffffffffffffffffffffffffffffffffffff167fc3d58168c5ae7397731d063d5bbf3d657854427343f4c083240f7aacaa2d0f628888604051611529929190612985565b60405180910390a461153f828888888888611a05565b50505050505050565b60007f01ffc9a7000000000000000000000000000000000000000000000000000000007bffffffffffffffffffffffffffffffffffffffffffffffffffffffff1916827bffffffffffffffffffffffffffffffffffffffffffffffffffffffff1916149050919050565b600073ffffffffffffffffffffffffffffffffffffffff168473ffffffffffffffffffffffffffffffffffffffff161415611622576040517f08c379a00000000000000000000000000000000000000000000000000000000081526004016116199061294a565b60405180910390fd5b600061162c611748565b905061164d8160008761163e8861193f565b6116478861193f565b87611750565b8260008086815260200190815260200160002060008773ffffffffffffffffffffffffffffffffffffffff1673ffffffffffffffffffffffffffffffffffffffff16815260200190815260200160002060008282546116ac9190612b48565b925050819055508473ffffffffffffffffffffffffffffffffffffffff16600073ffffffffffffffffffffffffffffffffffffffff168273ffffffffffffffffffffffffffffffffffffffff167fc3d58168c5ae7397731d063d5bbf3d657854427343f4c083240f7aacaa2d0f62878760405161172a929190612985565b60405180910390a461174181600087878787611a05565b5050505050565b600033905090565b505050505050565b6117778473ffffffffffffffffffffffffffffffffffffffff16611bec565b15611937578373ffffffffffffffffffffffffffffffffffffffff1663bc197c8187878686866040518663ffffffff1660e01b81526004016117bd959493929190612644565b602060405180830381600087803b1580156117d757600080fd5b505af192505050801561180857506040513d601f19601f82011682018060405250810190611805919061219e565b60015b6118ae57611814612dc1565b806308c379a014156118715750611829613166565b806118345750611873565b806040517f08c379a0000000000000000000000000000000000000000000000000000000008152600401611868919061279c565b60405180910390fd5b505b6040517f08c379a00000000000000000000000000000000000000000000000000000000081526004016118a59061280a565b60405180910390fd5b63bc197c8160e01b7bffffffffffffffffffffffffffffffffffffffffffffffffffffffff1916817bffffffffffffffffffffffffffffffffffffffffffffffffffffffff191614611935576040517f08c379a000000000000000000000000000000000000000000000000000000000815260040161192c9061282a565b60405180910390fd5b505b505050505050565b60606000600167ffffffffffffffff811115611984577f4e487b7100000000000000000000000000000000000000000000000000000000600052604160045260246000fd5b6040519080825280602002602001820160405280156119b25781602001602082028036833780820191505090505b50905082816000815181106119f0577f4e487b7100000000000000000000000000000000000000000000000000000000600052603260045260246000fd5b60200260200101818152505080915050919050565b611a248473ffffffffffffffffffffffffffffffffffffffff16611bec565b15611be4578373ffffffffffffffffffffffffffffffffffffffff1663f23a6e6187878686866040518663ffffffff1660e01b8152600401611a6a9594939291906126ac565b602060405180830381600087803b158015611a8457600080fd5b505af1925050508015611ab557506040513d601f19601f82011682018060405250810190611ab2919061219e565b60015b611b5b57611ac1612dc1565b806308c379a01415611b1e5750611ad6613166565b80611ae15750611b20565b806040517f08c379a0000000000000000000000000000000000000000000000000000000008152600401611b15919061279c565b60405180910390fd5b505b6040517f08c379a0000000000000000000000000000000000000000000000000000000008152600401611b529061280a565b60405180910390fd5b63f23a6e6160e01b7bffffffffffffffffffffffffffffffffffffffffffffffffffffffff1916817bffffffffffffffffffffffffffffffffffffffffffffffffffffffff191614611be2576040517f08c379a0000000000000000000000000000000000000000000000000000000008152600401611bd99061282a565b60405180910390fd5b505b505050505050565b600080823b905060008111915050919050565b828054611c0b90612c88565b90600052602060002090601f016020900481019282611c2d5760008555611c74565b82601f10611c4657805160ff1916838001178555611c74565b82800160010185558215611c74579182015b82811115611c73578251825591602001919060010190611c58565b5b509050611c819190611c85565b5090565b5b80821115611c9e576000816000905550600101611c86565b5090565b6000611cb5611cb0846129d3565b6129ae565b90508083825260208201905082856020860282011115611cd457600080fd5b60005b85811015611d045781611cea8882611df6565b845260208401935060208301925050600181019050611cd7565b5050509392505050565b6000611d21611d1c846129ff565b6129ae565b90508083825260208201905082856020860282011115611d4057600080fd5b60005b85811015611d705781611d568882611ef2565b845260208401935060208301925050600181019050611d43565b5050509392505050565b6000611d8d611d8884612a2b565b6129ae565b905082815260208101848484011115611da557600080fd5b611db0848285612c46565b509392505050565b6000611dcb611dc684612a5c565b6129ae565b905082815260208101848484011115611de357600080fd5b611dee848285612c46565b509392505050565b600081359050611e05816131fc565b92915050565b600082601f830112611e1c57600080fd5b8135611e2c848260208601611ca2565b91505092915050565b600082601f830112611e4657600080fd5b8135611e56848260208601611d0e565b91505092915050565b600081359050611e6e81613213565b92915050565b600081359050611e838161322a565b92915050565b600081519050611e988161322a565b92915050565b600082601f830112611eaf57600080fd5b8135611ebf848260208601611d7a565b91505092915050565b600082601f830112611ed957600080fd5b8135611ee9848260208601611db8565b91505092915050565b600081359050611f0181613241565b92915050565b60008060408385031215611f1a57600080fd5b6000611f2885828601611df6565b9250506020611f3985828601611df6565b9150509250929050565b600080600080600060a08688031215611f5b57600080fd5b6000611f6988828901611df6565b9550506020611f7a88828901611df6565b945050604086013567ffffffffffffffff811115611f9757600080fd5b611fa388828901611e35565b935050606086013567ffffffffffffffff811115611fc057600080fd5b611fcc88828901611e35565b925050608086013567ffffffffffffffff811115611fe957600080fd5b611ff588828901611e9e565b9150509295509295909350565b600080600080600060a0868803121561201a57600080fd5b600061202888828901611df6565b955050602061203988828901611df6565b945050604061204a88828901611ef2565b935050606061205b88828901611ef2565b925050608086013567ffffffffffffffff81111561207857600080fd5b61208488828901611e9e565b9150509295509295909350565b600080604083850312156120a457600080fd5b60006120b285828601611df6565b92505060206120c385828601611e5f565b9150509250929050565b600080604083850312156120e057600080fd5b60006120ee85828601611df6565b92505060206120ff85828601611ef2565b9150509250929050565b6000806040838503121561211c57600080fd5b600083013567ffffffffffffffff81111561213657600080fd5b61214285828601611e0b565b925050602083013567ffffffffffffffff81111561215f57600080fd5b61216b85828601611e35565b9150509250929050565b60006020828403121561218757600080fd5b600061219584828501611e74565b91505092915050565b6000602082840312156121b057600080fd5b60006121be84828501611e89565b91505092915050565b600080600080608085870312156121dd57600080fd5b600085013567ffffffffffffffff8111156121f757600080fd5b61220387828801611ec8565b945050602061221487828801611ef2565b935050604061222587828801611ef2565b925050606061223687828801611ef2565b91505092959194509250565b60006020828403121561225457600080fd5b600061226284828501611ef2565b91505092915050565b600061227783836125c3565b905092915050565b600061228b8383612626565b60208301905092915050565b6122a081612bd2565b82525050565b6122af81612bd2565b82525050565b60006122c082612aad565b6122ca8185612af3565b9350836020820285016122dc85612a8d565b8060005b8581101561231857848403895281516122f9858261226b565b945061230483612ad9565b925060208a019950506001810190506122e0565b50829750879550505050505092915050565b600061233582612ab8565b61233f8185612b04565b935061234a83612a9d565b8060005b8381101561237b578151612362888261227f565b975061236d83612ae6565b92505060018101905061234e565b5085935050505092915050565b61239181612be4565b82525050565b60006123a282612ac3565b6123ac8185612b15565b93506123bc818560208601612c55565b6123c581612de3565b840191505092915050565b60006123db82612ace565b6123e58185612b26565b93506123f5818560208601612c55565b6123fe81612de3565b840191505092915050565b600061241482612ace565b61241e8185612b37565b935061242e818560208601612c55565b61243781612de3565b840191505092915050565b600061244f603483612b37565b915061245a82612e01565b604082019050919050565b6000612472602883612b37565b915061247d82612e50565b604082019050919050565b6000612495602b83612b37565b91506124a082612e9f565b604082019050919050565b60006124b8602983612b37565b91506124c382612eee565b604082019050919050565b60006124db602583612b37565b91506124e682612f3d565b604082019050919050565b60006124fe603283612b37565b915061250982612f8c565b604082019050919050565b6000612521602a83612b37565b915061252c82612fdb565b604082019050919050565b6000612544602983612b37565b915061254f8261302a565b604082019050919050565b6000612567602983612b37565b915061257282613079565b604082019050919050565b600061258a602883612b37565b9150612595826130c8565b604082019050919050565b60006125ad602183612b37565b91506125b882613117565b604082019050919050565b600060808301600083015184820360008601526125e082826123d0565b91505060208301516125f56020860182612626565b5060408301516126086040860182612626565b50606083015161261b6060860182612297565b508091505092915050565b61262f81612c3c565b82525050565b61263e81612c3c565b82525050565b600060a08201905061265960008301886122a6565b61266660208301876122a6565b8181036040830152612678818661232a565b9050818103606083015261268c818561232a565b905081810360808301526126a08184612397565b90509695505050505050565b600060a0820190506126c160008301886122a6565b6126ce60208301876122a6565b6126db6040830186612635565b6126e86060830185612635565b81810360808301526126fa8184612397565b90509695505050505050565b6000602082019050818103600083015261272081846122b5565b905092915050565b60006020820190508181036000830152612742818461232a565b905092915050565b60006040820190508181036000830152612764818561232a565b90508181036020830152612778818461232a565b90509392505050565b60006020820190506127966000830184612388565b92915050565b600060208201905081810360008301526127b68184612409565b905092915050565b600060808201905081810360008301526127d88187612409565b90506127e76020830186612635565b6127f46040830185612635565b61280160608301846122a6565b95945050505050565b6000602082019050818103600083015261282381612442565b9050919050565b6000602082019050818103600083015261284381612465565b9050919050565b6000602082019050818103600083015261286381612488565b9050919050565b60006020820190508181036000830152612883816124ab565b9050919050565b600060208201905081810360008301526128a3816124ce565b9050919050565b600060208201905081810360008301526128c3816124f1565b9050919050565b600060208201905081810360008301526128e381612514565b9050919050565b6000602082019050818103600083015261290381612537565b9050919050565b600060208201905081810360008301526129238161255a565b9050919050565b600060208201905081810360008301526129438161257d565b9050919050565b60006020820190508181036000830152612963816125a0565b9050919050565b600060208201905061297f6000830184612635565b92915050565b600060408201905061299a6000830185612635565b6129a76020830184612635565b9392505050565b60006129b86129c9565b90506129c48282612cba565b919050565b6000604051905090565b600067ffffffffffffffff8211156129ee576129ed612d92565b5b602082029050602081019050919050565b600067ffffffffffffffff821115612a1a57612a19612d92565b5b602082029050602081019050919050565b600067ffffffffffffffff821115612a4657612a45612d92565b5b612a4f82612de3565b9050602081019050919050565b600067ffffffffffffffff821115612a7757612a76612d92565b5b612a8082612de3565b9050602081019050919050565b6000819050602082019050919050565b6000819050602082019050919050565b600081519050919050565b600081519050919050565b600081519050919050565b600081519050919050565b6000602082019050919050565b6000602082019050919050565b600082825260208201905092915050565b600082825260208201905092915050565b600082825260208201905092915050565b600082825260208201905092915050565b600082825260208201905092915050565b6000612b5382612c3c565b9150612b5e83612c3c565b9250827fffffffffffffffffffffffffffffffffffffffffffffffffffffffffffffffff03821115612b9357612b92612d34565b5b828201905092915050565b6000612ba982612c3c565b9150612bb483612c3c565b925082821015612bc757612bc6612d34565b5b828203905092915050565b6000612bdd82612c1c565b9050919050565b60008115159050919050565b60007fffffffff0000000000000000000000000000000000000000000000000000000082169050919050565b600073ffffffffffffffffffffffffffffffffffffffff82169050919050565b6000819050919050565b82818337600083830152505050565b60005b83811015612c73578082015181840152602081019050612c58565b83811115612c82576000848401525b50505050565b60006002820490506001821680612ca057607f821691505b60208210811415612cb457612cb3612d63565b5b50919050565b612cc382612de3565b810181811067ffffffffffffffff82111715612ce257612ce1612d92565b5b80604052505050565b6000612cf682612c3c565b91507fffffffffffffffffffffffffffffffffffffffffffffffffffffffffffffffff821415612d2957612d28612d34565b5b600182019050919050565b7f4e487b7100000000000000000000000000000000000000000000000000000000600052601160045260246000fd5b7f4e487b7100000000000000000000000000000000000000000000000000000000600052602260045260246000fd5b7f4e487b7100000000000000000000000000000000000000000000000000000000600052604160045260246000fd5b600060033d1115612de05760046000803e612ddd600051612df4565b90505b90565b6000601f19601f8301169050919050565b60008160e01c9050919050565b7f455243313135353a207472616e7366657220746f206e6f6e204552433131353560008201527f526563656976657220696d706c656d656e746572000000000000000000000000602082015250565b7f455243313135353a204552433131353552656365697665722072656a6563746560008201527f6420746f6b656e73000000000000000000000000000000000000000000000000602082015250565b7f455243313135353a2062616c616e636520717565727920666f7220746865207a60008201527f65726f2061646472657373000000000000000000000000000000000000000000602082015250565b7f455243313135353a2063616c6c6572206973206e6f74206f776e6572206e6f7260008201527f20617070726f7665640000000000000000000000000000000000000000000000602082015250565b7f455243313135353a207472616e7366657220746f20746865207a65726f20616460008201527f6472657373000000000000000000000000000000000000000000000000000000602082015250565b7f455243313135353a207472616e736665722063616c6c6572206973206e6f742060008201527f6f776e6572206e6f7220617070726f7665640000000000000000000000000000602082015250565b7f455243313135353a20696e73756666696369656e742062616c616e636520666f60008201527f72207472616e7366657200000000000000000000000000000000000000000000602082015250565b7f455243313135353a2073657474696e6720617070726f76616c2073746174757360008201527f20666f722073656c660000000000000000000000000000000000000000000000602082015250565b7f455243313135353a206163636f756e747320616e6420696473206c656e67746860008201527f206d69736d617463680000000000000000000000000000000000000000000000602082015250565b7f455243313135353a2069647320616e6420616d6f756e7473206c656e6774682060008201527f6d69736d61746368000000000000000000000000000000000000000000000000602082015250565b7f455243313135353a206d696e7420746f20746865207a65726f2061646472657360008201527f7300000000000000000000000000000000000000000000000000000000000000602082015250565b600060443d1015613176576131f9565b61317e6129c9565b60043d036004823e80513d602482011167ffffffffffffffff821117156131a65750506131f9565b808201805167ffffffffffffffff8111156131c457505050506131f9565b80602083010160043d0385018111156131e15750505050506131f9565b6131f082602001850186612cba565b82955050505050505b90565b61320581612bd2565b811461321057600080fd5b50565b61321c81612be4565b811461322757600080fd5b50565b61323381612bf0565b811461323e57600080fd5b50565b61324a81612c3c565b811461325557600080fd5b5056fea2646970667358221220987fb9ac447a7dea8fd544e70963f66f9338714faa8d1ec62c856ac967eab69564736f6c63430008040033",
  "immutableReferences": {},
  "source": "// SPDX-License-Identifier: MIT\npragma solidity ^0.8.0;\n\nimport '@openzeppelin/contracts/token/ERC1155/ERC1155.sol';\nimport './Mint.sol';\n\n// contract Trade is ERC1155, Mint {\n//     Nft[] public sell_list;\n//     constructor () Mint(){}\n    \n//     function sell(uint _id) public returns (bool) {\n//         Mint minted = new Mint();\n//         Nft memory temp = minted.get_nft(_id);\n//         sell_list.push(temp);\n//         return true;\n//     }\n// }\n\ncontract Trade is ERC1155{\n    struct Nft {\n        string _hash;\n        uint _aprice;\n        uint _bprice;\n        address _creator;\n    }\n    Nft[] public sell_list;\n    constructor() ERC1155(\"\") {}\n    Mint minted = new Mint();\n    function sell(uint _id) public returns (bool) {\n        (string memory hash_str, uint aprice, uint bprice, address creator) = minted.get_nft(_id);\n        Nft memory temp = Nft(hash_str, aprice, bprice, creator);\n        sell_list.push(temp);\n        return true;\n    }\n}",
  "sourcePath": "/home/oncemore/BlockchainWork/afen/contract/contracts/Trade.sol",
  "compiler": {
    "name": "solc",
    "version": "0.8.4+commit.c7e474f2.Emscripten.clang"
  },
  "schemaVersion": "3.3.4",
  "updatedAt": "2021-05-27T03:50:14.295Z",
  "devdoc": {
    "kind": "dev",
    "methods": {
      "balanceOf(address,uint256)": {
        "details": "See {IERC1155-balanceOf}. Requirements: - `account` cannot be the zero address."
      },
      "balanceOfBatch(address[],uint256[])": {
        "details": "See {IERC1155-balanceOfBatch}. Requirements: - `accounts` and `ids` must have the same length."
      },
      "isApprovedForAll(address,address)": {
        "details": "See {IERC1155-isApprovedForAll}."
      },
      "safeBatchTransferFrom(address,address,uint256[],uint256[],bytes)": {
        "details": "See {IERC1155-safeBatchTransferFrom}."
      },
      "safeTransferFrom(address,address,uint256,uint256,bytes)": {
        "details": "See {IERC1155-safeTransferFrom}."
      },
      "setApprovalForAll(address,bool)": {
        "details": "See {IERC1155-setApprovalForAll}."
      },
      "supportsInterface(bytes4)": {
        "details": "See {IERC165-supportsInterface}."
      },
      "uri(uint256)": {
        "details": "See {IERC1155MetadataURI-uri}. This implementation returns the same URI for *all* token types. It relies on the token type ID substitution mechanism https://eips.ethereum.org/EIPS/eip-1155#metadata[defined in the EIP]. Clients calling this function must replace the `\\{id\\}` substring with the actual token type ID."
      }
    },
    "version": 1
  },
  "userdoc": {
    "kind": "user",
    "methods": {},
    "version": 1
  }
}